:100000000C946C0C0C94940C0C94940C0C94940C18
:100010000C94940C0C94940C0C94940C0C94940CE0
:100020000C94940C0C94940C0C94940C0C94940CD0
:100030000C94940C0C94940C0C94940C0C94940CC0
:100040000C94771D0C94940C0C94E71D0C94C11D1A
:100050000C94940C0C94940C0C94940C0C94940CA0
:100060000C94940C0C94940C00000000050001000A
:1000700000020D0602F4040005040601F407000A5C
:100080000C0A00F5160009100A01F32800100D10E3
:1000900001F442000B0D0C01F4540002040401F4BD
:1000A000550004110601F45E0004110601F4670016
:1000B00005050701F46B0006080B03F97100020443
:1000C000050200720004010601FC73000201050133
:1000D000007400050D0500F47D00080D0A01F48A86
:1000E00000040D0A03F49100090D0A01F4A00008B0
:1000F0000D0A01F4AD00070D0A02F4B900090D0A5A
:1001000001F4C800090D0A01F4D700080D0A00F433
:10011000E400090D0A01F4F300080D0A01F40001DE
:10012000020A0501F70301030C0501F8080109099A
:100130000B01F8130109040B01FB180109090B015C
:10014000F82301090D0A01F4320111101201F454CF
:10015000010C0D0C00F468010B0D0C01F47A010B7D
:100160000D0D01F48C010B0D0D01F49E01090D0B19
:1001700001F4AD01080D0B01F4BA010C0D0E01F4F0
:10018000CE010B0D0D01F4E001020D0502F4E401B6
:10019000070D0A01F4F0010B0D0C01F40202080D29
:1001A0000A01F40F020D0D0F01F425020B0D0D01D4
:1001B000F437020D0D0E01F44D020A0D0C01F45E30
:1001C000020D0E0E01F475020C0D0D01F489020AE8
:1001D0000D0C01F49A02090D0B01F4A9020B0D0D8F
:1001E00001F4BB020B0D0C00F4CD02110D1100F453
:1001F000E9020C0D0C00F4FD020C0D0C00F41103CF
:100200000A0D0B01F4220303110501F42903050D66
:100210000500F4320303110500F439030707080150
:10022000F440030A010A0003420304030500F444F6
:1002300003090A0A01F75003090D0A01F45F0308D4
:100240000A0901F76903080D0A01F47603080A0A8E
:1002500001F78003040D0501F48703080E0A01F776
:100260009503080D0A01F4A203020D0401F4A6038C
:1002700004110400F4AF03090D0901F4BE03020DDB
:100280000401F4C2030D0A0F01F7D303080A0A019F
:10029000F7DD03080A0A01F7E703090D0A01F7F67B
:1002A00003080D0A01F70304050A0601F70A04080A
:1002B0000A0901F71404040C0501F51A04080A0AD6
:1002C00001F72404090A0900F730040D0A0D00F7AC
:1002D0004104080A0900F74B04090E0900F75B0402
:1002E000070A0901F7640404110601F46D04021100
:1002F0000402F4720404110601F47B0407030901EB
:10030000F9FFFFF8C0DEF72009864191FF1304C30F
:1003100020C8FF89826190101F14DA3D1E83407847
:100320001708F47A3533F040203810EC20C620C688
:1003300040C6406C803900013C02770263046304CC
:1003400077083C0E0660CC1981E0180F0336C2D83E
:10035000730631E3C4FE13266CCCCCC46623108C28
:100360004663333332664C80257EA50030C33F3070
:10037000C30CD6F0C00844211084421108003C662A
:1003800042C3C3C3C3C3C3C342663C113F33333309
:1003900033303E31B07830181C1C1C181810080778
:1003A000F83C66C3C303061C0703C3C3663C0C18B2
:1003B0007162C9A346FE183060C07F20100808078C
:1003C000F38C030180F06C63E01E3198780C06F327
:1003D0008D83C1E0D06C63E0FF030206040C0818B3
:1003E00018181030303E31B0783C1B18F8C6C1E008
:1003F000F06C63E03C66C2C3C3C3673B0303C266E1
:100400003CC00030C0000064A00081C78E0C078093
:10041000700E0180FF80001FF000700E01C01838C0
:1004200071C080003E31B0783018183818180C00B0
:1004300000018003F0060E06018600661DBB31CF69
:1004400018C79863CC31E611B399CCF786000180C8
:100450000070400FE00600F00F00901981981083A3
:100460000C3FC204606606C030FF183303606C0D99
:10047000833FC606C0780F01E06FF81F861981A080
:100480003C0180300600C0680D831861F0FF18330E
:1004900003603C0780F01E03C0780F0360CFF0FFBD
:1004A000E030180C0603FD80C06030180FF8FFC064
:1004B000C0C0C0C0FEC0C0C0C0C0C00F830E606658
:1004C00003C00C00C1FC03C0360360730F0F10C0E3
:1004D000780F01E03C0780FFFE03C0780F01E03C8D
:1004E00006FFFFFFC0060C183060C183078F1E2770
:1004F00080C0D8330C630CC1B83F0730C318630603
:10050000606C0CC0C0C0C0C0C0C0C0C0C0C0C0FF14
:10051000E03F01FC1FE0FD05EC6F637913CD9E6C9D
:10052000F1478E3C7180E07C0FC1E83D8798F11E59
:1005300033C3786F07E07C0E0F8183180CC06C0109
:10054000E00F007803C01B01980C60C0F800FF307A
:100550006C0F03C0F06FF300C0300C0300C0000F3D
:100560008183180CC06C01E00F007803C01B019858
:100570006C60C0FB0008FF8C0EC06C06C06C0CFFEA
:100580008C0EC06C06C06C06C0703F186C0F03C0A8
:100590001E01F00E00F03C0D863F00FF8603018037
:1005A000C06030180C06030180C0C0780F01E03C29
:1005B0000780F01E03C0780F01B061F0C06C0D81A0
:1005C00010630C610460CC1901603C070060C181BC
:1005D00030E19870CC286626211330C8986C4C14F2
:1005E000340A1A0707030380818060630C30C198C6
:1005F0000F00E00600F019019830C60E6060C036AA
:100600000630C30C1981D80F006006006006006038
:100610000600FFC060300C060301C06030180603FE
:1006200000FFC0FB6DB6DB6DB6E084108410841053
:10063000841080EDB6DB6DB6DBE03060A244D8A15B
:1006400080FFC0C6307E71B0C060F3DB0D86C73D51
:10065000C0C060301BCE360F0783C1E0F07C6DE078
:100660003C66C3C0C0C0C0C3663C0303033B67C352
:10067000C3C3C3C3C3673B3C66C3C3FFC0C0C36639
:100680003C366F66666666603B67C3C3C3C3C3C35D
:10069000673B0303C67CC0C0C0DEE3C3C3C3C3C3A0
:1006A000C3C3C3C3FFFFC03003333333333333E03B
:1006B000C06030184C466361F0EC6231986C30FFDA
:1006C000FFFFC0DEF71CF0C7863C31E18F0C78637A
:1006D000C31E18C0DEE3C3C3C3C3C3C3C3C33C66E6
:1006E000C3C3C3C3C3C3663CDE71B0783C1E0F07EF
:1006F00083E36F30180C003B67C3C3C3C3C3C36736
:100700003B030303DF318C6318C6003EE3C0C0E047
:100710003C07C3E37E66F666666667C3C3C3C3C3AE
:10072000C3C3C3C77BC1A098CC4221B0D0281C0C46
:1007300000C61E3891C4CA66D316D0A6871C38C01E
:10074000C6004362361C181C3C266243C12198CC6B
:100750004261B0D0381C0C0603010300FE0C30C10E
:10076000861820C1FC3666666ECE66666630FFFF70
:10077000FFFFC0C666666737666666C061243800DC
:10078000001B2E2002D09C0006272017D3BA001B86
:100790002E2002D05601192E2004D0E6011B27205E
:1007A00002D36A021B2E2002D006031B2E2002D089
:1007B000A203172A2006D01B041B2E2002D0B70448
:1007C0001B2E2002D003FFF800FFFF803FFFF8033D
:1007D000FFFEC33FFFBCF0000FFF0001FFE0003F42
:1007E000FC0007FF8000FFF0001FFE0003FFC000B9
:1007F0007FF8000FFF0001FFE0003FFC0007FF80D3
:1008000000FFF0001FFC0000FE0000070000004099
:10081000000004000000E000007F00003FF0001F27
:10082000FE0003FFC0007FF8000FFF0001FFE000A3
:100830003FFC0007FF8000FFF0001FFE0003FFC029
:10084000007FF8000FFF0001FFE0003F780003C6C3
:100850007FFF301FFFF007FFFF007FFFC007FFF0A3
:100860000031EFFFFFFFFFFFFFFFFFFFFF3C3040C6
:100870000033FFFFFFFFFFFFFFFFFFFFFDE300036C
:10088000FFF800FFFF803FFFF803FFFEC03FFFBC03
:1008900000000FC00001F800003F000007E000006A
:1008A000FC00001F800003F000007E00000FC0006D
:1008B00001F800003F000007E00000FC00001F807E
:1008C0000000F07FFF861FFFFC4FFFFFE4FFFFF8F3
:1008D000E7FFFC1F000003F000007E00000FC000D7
:1008E00001F800003F000007E00000FC00001F804E
:1008F0000003F000007E00000FC00001F800003F80
:10090000000007E00000780000067FFF001FFFF0F6
:1009100007FFFF007FFFC007FFF0000FFFE00FFFA2
:10092000F80FFFFE03FFFEC0FFFEF00000FC00001A
:100930007E00003F00001F80000FC00007E00003A2
:10094000F00001F80000FC00007E00003F00001FE6
:1009500080000FC00007E00000F1FFFE19FFFFC795
:10096000FFFFF8FFFFF81FFFF1800003C00007E062
:100970000003F00001F80000FC00007E00003F00D2
:10098000001F80000FC00007E00003F00001F80026
:1009900000FC00007E00003F00000F07FFF307FF90
:1009A000FC07FFFF01FFFF007FFF00000001860042
:1009B0000079E0001FFE0003FFC0007FF8000FFF7A
:1009C0000001FFE0003FFC0007FF8000FFF0001F78
:1009D000FE0003FFC0007FF8000FFF0001FFE000F2
:1009E0003FF80001FCFFFF0E3FFFF89FFFFFC1FF34
:1009F000FFF00FFFF8C000007800003F000007E0A4
:100A00000000FC00001F800003F000007E00000FCB
:100A1000C00001F800003F000007E00000FC0000FB
:100A20001F800003F000007E0000078000006003CC
:100A3000FFF800FFFF803FFFF803FFFE033FFF804A
:100A4000F000003F000007E00000FC00001F8000F5
:100A500003F000007E00000FC00001F800003F001E
:100A60000007E00000FC00001F800003F000007C95
:100A700000000E7FFF811FFFFC0FFFFFE0FFFFF86C
:100A800007FFFC6000003C00001F800003F0000036
:100A90007E00000FC00001F800003F000007E000EA
:100AA00000FC00001F800003F000007E00000FC06B
:100AB0000001F800003F000003C07FFF301FFFF07F
:100AC00007FFFF007FFFC007FFF00003FFF800FFF4
:100AD000FF803FFFF803FFFE033FFF80F000003F71
:100AE000000007E00000FC00001F800003F0000091
:100AF0007E00000FC00001F800003F000007E0008A
:100B000000FC00001F800003F000007C00000E7F4E
:100B1000FF811FFFFC0FFFFFE4FFFFF8E7FFFC7FF3
:100B200000003FF0001FFE0003FFC0007FF8000F31
:100B3000FF0001FFE0003FFC0007FF8000FFF00026
:100B40001FFE0003FFC0007FF8000FFF0001FFE061
:100B5000003F780003C67FFF301FFFF007FFFF0054
:100B60007FFFC007FFF0003FFF80FFFF83FFFF8391
:100B7000FFFEC3FFFBC0000FC0001F80003F00004E
:100B80007E0000FC0001F80003F00007E0000FC049
:100B9000001F80003F00007E0000FC0001F8000004
:100BA000F0000060000040000000000000000600AF
:100BB000003C0001F80003F00007E0000FC0001F38
:100BC00080003F00007E0000FC0001F80003F00000
:100BD00007E0000FC0001F80003F00003C00003015
:100BE00003FFF800FFFF803FFFF803FFFEC33FFF56
:100BF000BCF0000FFF0001FFE0003FFC0007FF809A
:100C000000FFF0001FFE0003FFC0007FF8000FFF91
:100C10000001FFE0003FFC0007FF8000FFF0001F25
:100C2000FC0000FE7FFF871FFFFC4FFFFFE4FFFF7C
:100C3000F8E7FFFC7F00003FF0001FFE0003FFC04D
:100C4000007FF8000FFF0001FFE0003FFC0007FFFE
:100C50008000FFF0001FFE0003FFC0007FF8000FC0
:100C6000FF0001FFE0003F780003C67FFF301FFF59
:100C7000F007FFFF007FFFC007FFF00003FFF80051
:100C8000FFFF803FFFF803FFFEC33FFFBCF0000FF4
:100C9000FF0001FFE0003FFC0007FF8000FFF000C5
:100CA0001FFE0003FFC0007FF8000FFF0001FFE000
:100CB000003FFC0007FF8000FFF0001FFC0000FE6B
:100CC0007FFF871FFFFC4FFFFFE0FFFFF807FFFCE0
:100CD0006000003C00001F800003F000007E000068
:100CE0000FC00001F800003F000007E00000FC001A
:100CF000001F800003F000007E00000FC00001F81C
:100D000000003F000003C07FFF301FFFF007FFFF20
:100D1000007FFFC007FFF00000000000003E5551BB
:100D2000553E3E6B6F6B3E0C1E3C1E0C081C3E1C61
:100D3000081C4A7F4A1C185C7F5C18001C1C1C00A5
:100D40007F6363637F001C141C007F636B637F30D1
:100D5000484D3307062979290620503F020C607F51
:100D600005353F2A1C771C2A007F3E1C08081C3EC4
:100D70007F0014227F2214005F005F0006097F01BC
:100D80007F4A55555529606060606054627F6254A7
:100D900008047E040808103F100808082A1C0808E8
:100DA0001C2A08081C101010101C3E083E1C303C69
:100DB0003F3C30061E7E1E06000000000000005F63
:100DC00000000007000700147F147F14242A7F2AE4
:100DD00012231308646236495620500000070000B1
:100DE000001C2241000041221C0014083E08140887
:100DF000083E080800A06000000808080808006015
:100E000060000020100804023E5149453E44427FE4
:100E1000404042615149462141454B311814127FEF
:100E20001027454545393C4A4949300171090503B8
:100E30003649494936064949291E006C6C000000B4
:100E4000AC6C000008142241001414141414004166
:100E500022140802015109063E415D555E7C1211C3
:100E6000127C7F494949363E414141227F4141221E
:100E70001C7F494949417F090909013E4149497A95
:100E80007F0808087F00417F41002040413F017FEB
:100E9000081422417F404040607F020C027F7F04A3
:100EA00008107F3E4141413E7F090909063E4151FC
:100EB000215E7F09192946464949493103017F01CD
:100EC000033F4040403F1F2040201F3F403C403FE9
:100ED000631408146307087008076151494543000B
:100EE0007F41410002040810200041417F000402BC
:100EF00001020440404040400001020400205454DC
:100F000054787F484444383844444448384444483A
:100F10007F3854545418087E090102085454583C30
:100F20007F0804047800447D40002040443D007F59
:100F30001010284400417F40007C047804787C082D
:100F400004047838444444387C14141408081414F5
:100F50000C7C7C080404084854545424043F444046
:100F6000203C4040207C1C2040201C3C4038403C21
:100F700044281028440C5050503C4464544C4400C5
:100F80000836410000007F000000413608000201E1
:100F90000204027048444870000E110E0000121F37
:100FA000100000121916000011150B000007041F95
:100FB000000017150900000E15090000011D0300AF
:100FC000000A150A000012150E000004040400FFB8
:100FD000FFFFFFFF3E000000003E3E0000003E3EDF
:100FE000003E003E3E003E3E8080808080C0C0C00B
:100FF000C0C0D0D0D0D0D0D8D8D8D8D8DADADADAC1
:10100000DADBDBDBDBDB400040004060004000401F
:10101000600070004060007000787C004000407C00
:10102000007E00407C007E007F1C774141414141B1
:101030004141414141417F001C77415D5D4141415A
:101040005D5D5D5D415D5D5D5D417F00221C141C49
:101050002200081C08000000770000465D555D3145
:101060007C5554554408082A080800140814000840
:10107000142208147F4171311F03057F05032214D8
:101080007F552202557D0502060909060044445F8A
:1010900044441C141C227F203E613E2020503F020D
:1010A0000C807C203C40443C047C44000008000050
:1010B00038555455187E08107F0108100804021492
:1010C000082214080E060A102020100A060E3830D6
:1010D00028040202042830387E1111117E7F49490C
:1010E00049317F494949367F01010103C07F417F72
:1010F000C07F4949494177087F08774149494936C6
:101100007F1008047F7C2112097C7F081422414053
:101110003E01017F7F020C027F7F0808087F3E416D
:1011200041413E7F0101017F7F090909063E41419E
:10113000412201017F0101074848483F0E117F11FC
:101140000E63140814637F40407FC0070808087FBF
:101150007F407F407F7F407F40FF017F4848307F56
:101160004848307F7F48484830224149493E7F08FF
:101170003E413E462919097F20545454783C4A4A3E
:1011800049317C545454287C0404040CC078447CB9
:10119000C038545454186C107C106C445454542867
:1011A0007C2010087C7C4026107C7C101028444059
:1011B0003804047C7C0810087C7C1010107C3844B7
:1011C0004444387C0404047C7C14141408384444DB
:1011D000444804047C04040C5050503C1824FC2463
:1011E0001844281028447C40407CC00C1010107C0F
:1011F0007C407C407C7C407C40FC047C5050207CCB
:101200005050207C7C5050502028445454387C103E
:10121000384438483414147C11007F9629000100AA
:101220007F9628003A0155C0021010C10141C50443
:1012300000228040360168B00100B102B011B40153
:1012400002B60302023BB701C63A0155F704A951A1
:101250002C82C0020D0DC1024300C20100C5040072
:10126000480048B40100B60302023BE00F0F211C06
:101270000B0E08499838091103141000E10F0F2FC5
:101280002B0C0E06477637071104231E00B0010011
:10129000B30402000000B40100D003074218D103D8
:1012A000000710D2020102D3020102D4020102C0DF
:1012B00005123B000211C103101088C50103C601CD
:1012C00002C80C003236450616377577540C00CC30
:1012D0000100F603010100CF03008130ED04640337
:1012E0001281E803851078CB05392C003402F70110
:1012F00020EA020000B00100B102001BB40100C0EE
:101300000121C10111C5023F3CC701B5360148F2B8
:101310000100260101E00F0F26240B0E0954A846F8
:101320000C17090F0700E10F00191B0410072A47CB
:101330003903060630380F360100B80101C0010E2E
:10134000B00100C10410100202C006003500000107
:1013500002C50104D2020104CA0100EA0180B903F6
:10136000FF83577F967F96B60125C0065050013CFB
:101370001E08B4070240002A2A0D787F01F20B16DE
:1013800016030808080810041616FD03110235B2EA
:10139000050C0C003333B70135BB012BC00104C26F
:1013A0000201FFC30111C40120C6010FD002A4A194
:1013B000E00ED000050E150D37434709151216191A
:1013C000E10ED000050D0C062D44400E1C18161918
:1013D0003A01557F0AB00103E2013FC00122E20158
:1013E00000B00100C0010AB00100000000000000D0
:1013F00000000000000000000000FFFF0F000004DC
:101400000062080008080003000C01030B5A0203E5
:10141000060903031710040300230503001706033E
:1014200009630703090C08030C100903322210009A
:10143000160011000101120000001300010000015C
:101440003003010137020301000D80020061020137
:10145000B0C1FFFF320001000001020000010300E3
:101460003010090001000C000000900000800F0007
:101470000000100200001102EF001202000013022F
:101480008F01000500000105000002055F00010456
:10149000010004040000FFFF320007000001FFFF0D
:1014A0003200000200000102000000000000000005
:1014B00000000000000000000100A4000100FFFF88
:1014C0000A006000002708000808300014023100FC
:1014D0001537320004063300160E34001122350091
:1014E000001536000785370007143800031439004B
:1014F0002000900015001000100411003702290090
:1015000046002A004600070000001200890113006F
:101510000011FFFF96001200B90101000001020056
:10152000000203003010090001000A0000000D0055
:1015300000000E003000610001006A000000800021
:1015400000008100000082005F0092000001930013
:101550000107FFFF500007000001E500F0780100DF
:10156000000102000002030030100400000005002A
:10157000000008000702090000000A0000000C003B
:1015800000000D0000000F0000001000000011001E
:101590000700120000001300000007000100FFFF19
:1015A000C8001000901611002702FFFF3200120041
:1015B0000D00FFFF32001300001229000A002B006B
:1015C0000D00FFFF3200200000002100000030006D
:1015D0000000310004043200030035000504360029
:1015E00008083700070438000303390007073C00E8
:1015F00004053D00080860000027610001006A0042
:1016000000008000000081000000820000008300D4
:10161000000084000000850000009000100092008F
:10162000000007003301E500008000000100010018
:101630000001020000070300301004000000080051
:101640000202090000000A0000000C0000000D006A
:1016500000000F0000001000000011000700120041
:10166000000013000000FFFF32001000B01711004F
:101670000700FFFF0A0012003A01FFFF0A001300F3
:10168000001A29000C00FFFF0A00300000003100A2
:101690000505320004003500060036000707370054
:1016A000050138000200390007073C0004073D002F
:1016B0000708600000A7610001006A000000210027
:1016C0000000200000008000000081000000820077
:1016D00000008300000084000000850000009000EE
:1016E0001000920000009300030095001001970085
:1016F00000009800000007007301FFFF3200FF00A8
:101700000100F300080000000100010000010200D8
:101710000007030030100800020309000000100059
:101720000000110007001200000013000000FFFF7E
:1017300032001000B014FFFF0A0011000700FFFF85
:101740000A0012008E001300000C29001500FFFF94
:101750000A003000000031000701320000003500AF
:101760000302360002043700000038000702390087
:1017700000003C0003023D000304600000A761007C
:1017800001009000290007003301FFFF320015001F
:1017900030009A00100011002000100028341200C0
:1017A000020013003810FFFF280012001200FFFF94
:1017B00028001000203413004530FFFF46003000A1
:1017C0000000310002043200070333000403340038
:1017D0000400350001043600070737000503380010
:1017E000100639001006010000010200000303008A
:1017F0003010080008080A00080060000027610097
:10180000010090003E019200000193000001A00041
:101810000030A300100007000100070021000700AE
:101820002300070033000700330111001A001200E3
:10183000213113006C001400494210000008FFFF22
:101840000A0011001A01FFFF0A0011001A03FFFF2E
:101850000A0011001A07FFFF0A0011001A0FFFFF0C
:101860000A0011003A0FFFFF1E00010028010200CC
:1018700000010300301007001210080003030B00E2
:1018800000110C0000000F0001181500200050008E
:1018900001015100030652000804530000005400E7
:1018A00005065500060456000303570003035800BD
:1018B00010005900001007001200FFFF2800070069
:1018C00013000700170001036800207E16C5077F7C
:1018D00007303932191E8D2811241FBECFEFD8E0F2
:1018E000DEBFCDBF22E0A4E7B1E001C01D92A33B63
:1018F000B207E1F711E0A0E0B1E0E4E0F7E502C0F3
:1019000005900D92A437B107D9F71CE0CBE6DCE0D7
:1019100004C02197FE010E946029CA36D107C9F789
:101920000E94771E0C94752B0C9400000895209152
:10193000930230919402009789F0232B51F4209167
:101940008802309189022A5F3F4F309389022093A9
:10195000880290939402809393020895232BC9F3F5
:10196000209188023091890226503109EECF3FB78D
:10197000F89480917C0190917D01A0917E01B091BD
:101980007F0126B5A89B05C02F3F19F00196A11D28
:10199000B11D3FBFBA2FA92F982F8827BC01CD01B9
:1019A000620F711D811D911D42E0660F771F881F18
:1019B000991F4A95D1F708958F929F92AF92BF9247
:1019C000CF92DF92EF92FF926B017C010E94B70CE5
:1019D0004B015C01C114D104E104F104B9F00E948F
:1019E000B70C681979098A099B09683E734081051B
:1019F000910580F321E0C21AD108E108F10888EED0
:101A0000880E83E0981EA11CB11CE4CFFF90EF90DC
:101A1000DF90CF90BF90AF909F908F900895AF923E
:101A2000BF92CF92DF92EF92FF920F931F93CF93CB
:101A3000DF936C017B018B01040F151FEB015E012D
:101A4000AE18BF08C017D10759F06991D601ED91C2
:101A5000FC910190F081E02DC6010995892B79F761
:101A6000C501DF91CF911F910F91FF90EF90DF9013
:101A7000CF90BF90AF900895FC01538D448D252FDA
:101A800030E0842F90E0821B930B541710F0CF9618
:101A9000089501970895FC01918D828D981761F04A
:101AA000A28DAE0FBF2FB11D5D968C91928D9F5F61
:101AB0009F73928F90E008958FEF9FEF0895FC0140
:101AC000918D828D981731F0828DE80FF11D858DF3
:101AD00090E008958FEF9FEF0895FC01918D228D86
:101AE000892F90E0805C9F4F821B91098F7399270B
:101AF000089581ED91E00E946D0D21E0892B09F49C
:101B000020E0822F089580E090E0892B29F00E9448
:101B1000790D81110C9400000895FC01A48DA80F8B
:101B2000B92FB11DA35ABF4F2C91848D90E001961F
:101B30008F739927848FA689B7892C93A089B1893F
:101B40008C91837080648C93938D848D981306C0E0
:101B50000288F389E02D80818F7D80830895EF9244
:101B6000FF920F931F93CF93DF93EC0181E0888F57
:101B70009B8D8C8D98131AC0E889F989808185FF27
:101B800015C09FB7F894EE89FF896083E889F989C9
:101B900080818370806480839FBF81E090E0DF91CB
:101BA000CF911F910F91FF90EF900895F62E0B8D1E
:101BB00010E00F5F1F4F0F731127E02E8C8D8E11D9
:101BC0000CC00FB607FCFACFE889F989808185FF40
:101BD000F5CFCE010E948D0DF1CFEB8DEC0FFD2FD7
:101BE000F11DE35AFF4FF0829FB7F8940B8FEA89FB
:101BF000FB8980818062CFCFCF93DF93EC01888D0A
:101C00008823B9F0AA89BB89E889F9898C9185FD77
:101C100003C0808186FD0DC00FB607FCF7CF8C9105
:101C200085FFF2CF808185FFEDCFCE010E948D0D23
:101C3000E9CFDF91CF9108954398429825B12C7F49
:101C4000392F3370232B25B92BB123709C7F922B16
:101C50009BB94198419A95B19C7F282F2370922B74
:101C600095B99BB193708C7F892B8BB94198419A20
:101C7000429AFA01615078F0219195B19C7F822FB0
:101C80008370982B95B98BB183702C7F822B8BB985
:101C90004198419AEFCF439A0895DF92EF92FF92D5
:101CA0000F931F93CF93DF93CDB7DEB768970FB62F
:101CB000F894DEBF0FBECDBF7C018B01F70184918C
:101CC0003196D490F2E0EF0EF11C8F3779F0DE01FF
:101CD000119630E020E0AD012D1528F5F701E20F57
:101CE000F31FE491ED932F5F3F4FF6CF6D2D70E022
:101CF00090E080E00E94DC0CD12CED2DF0E03296DB
:101D00000E1B1F0B10161106CCF268960FB6F89436
:101D1000DEBF0FBECDBFDF91CF911F910F91FF901E
:101D2000EF90DF900895ED0CF11C6D2D90E00E9476
:101D30001C0EE3CF4398429825B12C7F392F337086
:101D4000232B25B92BB123709C7F922B9BB94198F3
:101D5000419A95B19C7F282F2370922B95B99BB106
:101D600093708C7F892B8BB94198419A429A85B1A7
:101D70008C7F972F9370892B85B98BB183707C7F73
:101D8000782B7BB94198419A85B18C7F962F9370BF
:101D9000892B85B98BB183706C7F682B6BB94198A7
:101DA000419A439A089581E08093800184B18360D1
:101DB00084B98AB18C6F8AB9389A399A3A9A3B9A1F
:101DC0003C9A439A409A419A449A62E370E080E0D8
:101DD00090E00E94DC0C449864E670E080E090E0C3
:101DE0000E94DC0C449A64E670E080E090E00E947F
:101DF000DC0C70E060E080EB90E00C949A0ECF93E6
:101E0000DF93C82FD62F80918001811102C00E94DC
:101E1000D30E4398429885B18C7F85B98BB183707E
:101E20008BB94198419A95B19C7F8C2F8370982BE8
:101E300095B98BB18370CC7F8C2B8BB94198419A2B
:101E4000429A84B18C7F84B98AB183708AB961E087
:101E500070E080E090E00E94DC0C409A409840984E
:101E6000409893B139B1409A409A40984098409830
:101E700083B129B1409AD15080F7409A439A44B136
:101E8000436044B94AB14C6F4AB993703C7F932B7D
:101E900083702C7F822BDF91CF910895FF920F9357
:101EA0001F93CF93DF938C0160E00E94FF0EEC0143
:101EB00061E0C8010E94FF0EF82E62E0C8010E9496
:101EC000FF0EAE0170E060E0742F662755274427AF
:101ED00000E030E020E0402B5F29622B732B292F9C
:101EE00030E0C901B0E0A0E08A019B01082B192B6A
:101EF0002A2B3B2BC901B801DF91CF911F910F9184
:101F0000FF9008950F931F93CF93DF938C0160E0B0
:101F10000E94FF0EEC0161E0C8010E94FF0E8C01DF
:101F2000BE0190E080E0CB017727662730E020E01B
:101F3000602B712B822B932BDF91CF911F910F91EF
:101F400008950F931F93CF93DF93EC018B01FE0154
:101F500085919491FE0132962496659174918F3FFC
:101F6000980771F490E080E00E94DC0C04501109A5
:101F70001016110664F3DF91CF911F910F91089510
:101F80000E949A0EF3CFFC01262F358D868D829507
:101F90008170982F9627692F70E072A361A330FF9C
:101FA0000CC0821307C080E290E050E040E060E0A7
:101FB0000C941C0E81E290E0F8CF878D90A18339BC
:101FC00027E7920741F058F4843521E0920791F019
:101FD00080329445C1F4626081E094E012C08632A0
:101FE00023E99207C1F3893025EB9207A1F38532EB
:101FF000924949F4660F771F660F771F636187E088
:1020000090E00C949A0E81E690E0FBCF8F929F9225
:10201000AF92BF92CF92DF92EF92FF920F931F93F6
:10202000CF93DF9300D000D0CDB7DEB77C014B015A
:102030005A016901FC01878D90A18732F3E99F075E
:1020400009F040C0F7018689823099F5F0E2AF0EC1
:10205000B11C005E1F4FF701858D80FF4AC085A52A
:1020600099828A82DB82CC82AE014F5F5F4F64E04F
:1020700090E00E941C0EF70181A9B982AA821B83FD
:102080000C83AE014F5F5F4F64E090E00E941C0E36
:102090000F900F900F900F90DF91CF911F910F91A4
:1020A000FF90EF90DF90CF90BF90AF909F908F9078
:1020B0000895833081F620E2820E911C80E2C80EE2
:1020C000D11CC9CF8632954131F6F701868980FF50
:1020D000C2CFC801841B950B19F40F5F1F4FBBCFF4
:1020E0006217730709F0B7CF6B01C80ED91E8A01BA
:1020F000B2CFB40187A190A50E949A0EB501F70155
:1021000081A592A50E949A0EC814D90421F40A153B
:102110001B0509F4BDCFF701858D85FF08C08689B1
:1021200080FF1EC0102F0027A02AB12A8501B4010C
:10213000F70185A596A50E949A0EB501F70181A920
:1021400092A90E949A0EB601F70187A590A90E9454
:102150009A0EB801F70183A994A90E949A0E98CF0C
:10216000DC2CCC248C289D286401E1CFAF92BF9257
:10217000CF92DF92EF92FF920F931F93CF93DF9353
:10218000EC0180917401882349F0C701880F991FE1
:102190008E739927E1ECEE22E82AF92A37FF05C071
:1021A000620F731F319521953109260F371F77FF75
:1021B00002C070E060E088859985281739070CF423
:1021C000C9016C01C61AD70A17FF05C0400F511F7D
:1021D000119501951109040F151F57FF02C050E01A
:1021E00040E02A853B85021713070CF4980159013A
:1021F000A41AB50A8901015011099C012150310925
:10220000CE010E940610439842983BA58CA525B1AB
:102210002C7F982F9370292B25B99BB193708C7FBD
:10222000982B9BB94198419A95B19C7F832F8370DD
:10223000982B95B98BB183703C7F832B8BB94198D8
:10224000419A429ACA14DB042CF09A2D8B2D560128
:10225000C92ED82E9F2D4F2D43709C7F5E2D53701D
:102260002E2D2C7FE22E1C141D04E4F4950185B163
:102270008C7F842B85B98BB18370892B8BB9419866
:10228000419A85B18C7F852B85B98BB183708E295E
:102290008BB94198419A2150310949F781E0C81A18
:1022A000D108E1CF439A8D8D80FF08C08F8D98A112
:1022B0008632954191F48E8980FF0FC00A851B8577
:1022C00001501109288539852150310950E040E03D
:1022D00070E060E0CE010E940610DF91CF911F9167
:1022E0000F91FF90EF90DF90CF90BF90AF90089547
:1022F000EF92FF920F931F93CF93DF937C01E9013D
:1023000077FD2AC057FD28C0FC018085918568179C
:10231000790714F58285938548175907ECF4809165
:102320007401882341F0C901880F991F8E73992782
:10233000C17CC82BD92B8A019B01C7010E940610C2
:10234000BE01F70183A594A5DF91CF911F910F9155
:10235000FF90EF900C949A0EDF91CF911F910F9107
:10236000FF90EF900895EF92FF920F931F93CF93FA
:10237000DF93CDB7DEB72A970FB6F894DEBF0FBE56
:10238000CDBF7C01862F8370F701868B962F9170CD
:1023900060FFF1C026813781F701318720879923BB
:1023A00009F4ECC024813581F7013387228782301C
:1023B00009F4E9C0833009F4E8C0813009F4E1C0D0
:1023C00088E48A87F701258D368D30FF03C08A8522
:1023D00080588A8731FF04C08A8590E489278A87DC
:1023E00033FF04C08A8598E089278A87F701878DA3
:1023F00090A120FFFAC08431F8E69F0709F0C7C01A
:102400009A85892F88728A871F82892F8595807483
:10241000282F2260892F90E09595879580729927C3
:10242000822B88878BE38987AE01495F5F4F63E02A
:1024300086EB90E00E941C0E2AE230E0F70130A704
:1024400027A38BE290E092A781A74CE250E054A72B
:1024500043A736A725A730AB27A792AB81AB94AB98
:1024600083ABAE01465F5F4F61E086E390E00E9480
:102470001C0E8A8590E0F70194A383A3F701868957
:1024800080FF1CC0858D968D92FD18C087A190A5F8
:1024900021A532A530A727A392A781A785A596A538
:1024A00021A932A936A725A792AB81AB87A590A910
:1024B00023A934A930AB27A794AB83ABF7010285DE
:1024C000138501501109208531852150310950E0D3
:1024D00040E070E060E0C7010E940610F7016681ED
:1024E0007781878D90A110E000E020E08732F3E94A
:1024F0009F0769F4F7012689225010E000E022309E
:1025000010F400E210E020E230E0201B310BF70174
:10251000458D40FF26C119820A837B836C831D820F
:102520002E83AE014F5F5F4F66E083E390E00E9431
:102530001C0E19820A83AE014F5F5F4F62E087E392
:1025400090E00E941C0EF701858D80FF07C050E0CF
:1025500040E060E083E190E00E941C0E2A960FB6F6
:10256000F894DEBF0FBECDBFDF91CF911F910F91C9
:10257000FF90EF900895248135810ECF2681378119
:1025800013CF88E21ECF88E91CCF88EF1ACF83369D
:1025900029E1920749F0813834E9930729F0813124
:1025A000E5E19E0709F048CF2A8527FF02C0216098
:1025B0002A872A8526FF02C022602A878336F9E10E
:1025C0009F0721F48A858F738A8736CF813824E963
:1025D000920719F48A858F72F7CF8131954109F0FE
:1025E0002BCF8A858F7E806CEFCF2A85622F022EBB
:1025F000000C770B8339F7E79F0761F008F042C0C2
:102600008435E1E09E0709F469C08032F4E59F0754
:1026100009F041C020E032E0F70130A727A321E014
:1026200032E032A721A722E032E034A723A720E13D
:1026300032E036A725A721E132E030AB27A722E11F
:1026400032E032AB21AB23E132E034AB23AB66277F
:1026500070788632F3E99F0709F480C08032944590
:1026600009F47CC080E09AE6682B792B80E094E046
:102670000E949A0E6A85F4E06F9FB00111246627CC
:10268000717054C0863223E9920721F2893035EB0C
:10269000930709F4BFCF80E290E0F70190A787A3EA
:1026A00081E290E092A781A782E290E094A783A7BD
:1026B00080E590E096A785A781E590E090AB87A79D
:1026C00082E590E092AB81AB83E590E094AB83AB85
:1026D00066277078776280E690E0CACF87E390E063
:1026E000F70196A785A786E390E090AB87A789E3DB
:1026F00090E092AB81AB88E390E094AB83AB80E257
:1027000090E090A787A381E290E092A781A782E260
:1027100090E094A783A7662772706862F4E02F9F09
:10272000C001112488279170682B792B81E090E0FB
:102730000E949A0E8A85682F70E075956795759549
:1027400067956870772783FD70616063F70174A3F4
:1027500063A383E090E00E949A0E90CE80E095E320
:1027600083CF8339F7E79F07D9F1F8F4803234E556
:102770009307B1F18338E7E79E0739F1843591403B
:10278000F9F4600F711F6150710981E390E00E94BC
:102790009A0EB80182E390E00E949A0E70E060E029
:1027A00083E390E00E949A0ED9CE863223E9920705
:1027B000B9F0893035EB930799F08532924909F3E6
:1027C000F70161A172A1626003C0F70161A172A16A
:1027D00081E690E00E949A0EB8018AE690E0E2CF8E
:1027E000F70161A172A1626081E094E00E949A0EFB
:1027F000B80184E094E0D6CFEF92FF920F931F933D
:10280000DC01ED91FC9100A0F1A1E02D780101E047
:1028100010E009951F910F91FF90EF900895089592
:10282000FC016370668B84819581268137816130DC
:1028300039F0633029F091878087338722870895A4
:10284000318720879387828708952F923F924F92F6
:102850005F926F927F928F929F92AF92BF92CF9230
:10286000DF92EF92FF920F931F93CF93DF93CDB739
:10287000DEB76A970FB6F894DEBF0FBECDBF9A8F52
:10288000898F7A8369834A01D22E18870F83370193
:10289000BC2CDC0159962D913C915A97211531059C
:1028A00009F015C118968D919C91199768177907B1
:1028B0000CF0D7C11A968D919C91481759070CF0CE
:1028C000D0C14C2C512CB6E0CB9E600D711D112453
:1028D0007C876B87161617060CF0C3C1EA2DF0E053
:1028E000FA87E98793E0EE0FFF1F9A95E1F7F88BDF
:1028F000EF87CF01840F951F181619060CF0B1C190
:10290000A98DBA8D58968C91811104C0BFEABD156E
:1029100008F4D394A98DBA8DED91FC91119702849E
:10292000F385E02DCD010995B5E0DB9EC0011124B2
:10293000E981FA81FC83EB83312C212C9C01285EF8
:10294000324F388F2F8B4A2D50E05E8B4D8BEF89A5
:10295000F88DE20DF31D44919E828D82D12CC12C05
:1029600069817A81620D731D7A8B698B842F90E067
:102970009C8B8B8BE98DFA8DA081B18140FF82C049
:10298000F1E0BF126FC0AF126DC01C96ED91FC91CB
:102990002F813885A4014C0D5D1D69897A89898D47
:1029A0009A8D0995EB89FC89F595E7954E2F5FEF98
:1029B000C51AD50A6D817E818D899E89680F791F20
:1029C0007E836D8398E0C916D10481F6AFEF2A1A91
:1029D0003A0AEB81FC81E40DF51DFC83EB83F5E005
:1029E0002F16310409F0B3CF2F813885261537050E
:1029F000B9F0A98DBA8DED91FC91B1E0BB1257C031
:102A0000AB1255C069817A816B5F7F4F0088F18975
:102A1000E02D830128E030E0A401898D9A8D09958D
:102A2000A98DBA8DED91FC9111970688F789E02D5B
:102A3000CD016A960FB6F894DEBF0FBECDBFDF9111
:102A4000CF911F910F91FF90EF90DF90CF90BF90AB
:102A5000AF909F908F907F906F905F904F903F903E
:102A60002F9009941E96ED91FC91EF80F8840985D2
:102A70001A8592014D815E816B817C81898D9A8D51
:102A8000099590CF2F8138852615370509F48ACF0F
:102A900031E0B31207C0A31205C01C96ED91FC9162
:102AA000930178CF1E96ED91FC917301E0CF6B8579
:102AB0007C85641975090684F785E02D73010F85FF
:102AC00018899201A401898D9A8D0995A9CFF901E0
:102AD00034969491329745915491D91AB7E0DB9E80
:102AE000400D511D1124F901259134913C8B2B8B04
:102AF000FA0125903490FA0132967490319634910F
:102B0000398B329664903196449041E04C1518F020
:102B10004A1508F07FC0662D062C000C770B7C83CD
:102B20006B83842D042C000C990B9E838D83A98DBF
:102B3000BA8DED91FC9111970284F385E02DCD01C2
:102B40000995512CD12CC12CEA2DF0E0FA87E987A8
:102B50002B2D30E03C872B87A401440D511D47FCF1
:102B60005A95588F4F8B69817A81660D711D67FC6C
:102B70007A957E876D877989C71608F051CF2C2DFD
:102B800030E04D815E81420F531FA985BA854A9F6F
:102B9000C0014B9F900D5A9F900D1124FC01E80D30
:102BA000F91DF88BEF87852D612C4F89588D420FC9
:102BB000531F5E8B4D8B671408F050C04424439420
:102BC000480E877041F4C1010196EB89FC89E20D42
:102BD000F31DD4901C01D7FE19C0A98DBA8DED91BB
:102BE000FC91662D70E0B1E0BB1219C0AB1217C0AA
:102BF0002D853E85620F731F0484F585E02D2F819E
:102C000038854D895E89898D9A8D0995DD0C63948F
:102C1000842DD1CF1E821D821C821B8288CF4B81C6
:102C20005C81640F751FAB85BC856A9FC0016B9F7B
:102C3000900D7A9F900D112469817A81680F791F18
:102C40000684F785E02DEF80F88409851A859D01BB
:102C50004F855889898D9A8D0995D8CF570CC39483
:102C60008ACF6A960FB6F894DEBF0FBECDBFDF9154
:102C7000CF911F910F91FF90EF90DF90CF90BF9079
:102C8000AF909F908F907F906F905F904F903F900C
:102C90002F9008958F929F92AF92CF92EF92FF92D2
:102CA0000F931F93CF93DF93EC01262F898D9A8D7D
:102CB000009709F051C06A30D1F41D861C868D89B9
:102CC00048E0849F900111248E859F85820F931F79
:102CD0009F878E8781E090E0DF91CF911F910F91C8
:102CE000FF90EF90CF90AF909F908F9008956D30B0
:102CF00089F3CC88AD888F898823C1F08C859D8528
:102D000036E0C39E800D911D1124488559854817D2
:102D1000590764F44E855F851D861C8638E0A39EA6
:102D2000C0011124840F951F9F878E87EA88FB8836
:102D3000088919894E855F856C857D85CE010E9445
:102D400025142C898C859D8546E0249F800D911D3E
:102D500011249D878C87BECF6A3069F41D861C863E
:102D6000FC013696E4912D898E859F85E29F800D2A
:102D7000911D1124ADCF6D3009F4ACCFFC01349618
:102D80003491631708F4A6CF3196E491E61708F45E
:102D9000A1CFFC01329685909490462F431B342F8F
:102DA00047E0349F800C911C1124F4013296349139
:102DB0003196E4913323A9F1EE2399F1CC88F40103
:102DC0003596E491AD884F89442301F10E2E000C15
:102DD000FF0BE30FF11DCE9EA001CF9E500D1124DD
:102DE0006C857D85460F571F688579856417750743
:102DF0006CF44E855F851D861C86FC013696E49139
:102E0000AE9E400D511D11245F874E87EA88FB88D6
:102E1000088919894E855F856C857D85CE010E9464
:102E20002514F4013496E4912C898C859D85E29FCC
:102E3000800D911D11248DCF6F927F928F929F9262
:102E4000AF92BF92CF92DF92EF92FF920F931F93B8
:102E5000CF93DF93EC016B015A0139014801E881FE
:102E6000F9810284F385E02D0995E881F9810288D2
:102E7000F389E02D87019301A501B601CE010995E3
:102E8000A501480D591D41505109E881F981028879
:102E9000F389E02D9301B601CE010995E881F9810E
:102EA0000088F189E02D9401A501B601CE010995B4
:102EB000C60CD71CB60161507109E881F981008800
:102EC000F189E02D9401A501CE010995E881F981F0
:102ED0000688F789E02DCE01DF91CF911F910F91E8
:102EE000FF90EF90DF90CF90BF90AF909F908F902A
:102EF0007F906F9009946F927F928F929F92AF9282
:102F0000BF92CF92DF92EF92FF920F931F93CF93D6
:102F1000DF935C01EB016A01490138018701DC01A3
:102F2000ED91FC916217730719F5641675062CF084
:102F3000962D872D3A01C92ED82E960126193709CC
:102F40002F5F3F4F048CF58DE02DA301BE01C5011D
:102F50000995DF91CF911F910F91FF90EF90DF9036
:102F6000CF90BF90AF909F908F907F906F9008957B
:102F70004615570591F42617370724F0892D4B0184
:102F8000C22FD82F9E01281939092F5F3F4F068C79
:102F9000F78DE02DA601B401DACF0284F385E02D90
:102FA0000995D501ED91FC910488F589E02D830107
:102FB0009401A601BE01C5010995D501ED91FC91D1
:102FC0000688F789E02DC501DF91CF911F910F9100
:102FD000FF90EF90DF90CF90BF90AF909F908F9039
:102FE0007F906F900994EF92FF920F931F93DC01F3
:102FF0001A960D911C911B9718962D913C9119973B
:10300000ED91FC9100A0F1A1E02D7B0150E040E0AA
:1030100070E060E009951F910F91FF90EF90089587
:103020004F925F926F927F928F929F92AF92BF92D8
:10303000CF92DF92EF92FF920F931F93CF93DF9384
:103040006C012B015A0139014801DC01ED91FC9121
:103050000284F385E02D0995E201640C751CD6010C
:10306000ED91FC91C615D7055CF40088F189E02D3F
:1030700087019401A501BE01C60109952196EFCFF4
:103080000688F789E02DC601DF91CF911F910F913E
:10309000FF90EF90DF90CF90BF90AF909F908F9078
:1030A0007F906F905F904F9009948F929F92AF9214
:1030B000BF92CF92DF92EF92FF920F931F93CF9325
:1030C000DF93EC015B014A016901E881F981028427
:1030D000F385E02D099595012C0D3D1D21503109F9
:1030E000E881F9810488F589E02D78018401A40143
:1030F000B501CE010995E881F9810688F789E02DAF
:10310000CE01DF91CF911F910F91FF90EF90DF9053
:10311000CF90BF90AF909F908F9009948F929F9285
:10312000AF92BF92CF92DF92EF92FF920F931F93D5
:10313000CF93DF93EC015B014A0169017801E881DB
:10314000F9810284F385E02D0995C80CD91C86010C
:1031500001501109E881F9810488F589E02D950174
:10316000A401B501CE010995E881F9810688F789A6
:10317000E02DCE01DF91CF911F910F91FF90EF9045
:10318000DF90CF90BF90AF909F908F900994EF9277
:10319000FF920F931F93DC01ED91FC9100A0F1A130
:1031A000E02D09951F910F91FF90EF9008950F93D7
:1031B0001F93DC01ED91FC91068CF78DE02D0995B4
:1031C0001F910F9108952F923F924F925F926F92AD
:1031D0007F928F929F92AF92BF92CF92DF92EF92A7
:1031E000FF920F931F93CF93DF93CDB7DEB7A897CE
:1031F0000FB6F894DEBF0FBECDBF78A76FA34A010C
:1032000059011801DE86CD86261737070CF08EC1CE
:10321000E616F7060CF4A1C1621773075CF03FA134
:1032200028A5B8A6AFA2A32EB22E382F292FC401ED
:10323000832E922E2FA138A52E153F05E1F5881675
:10324000990654F0382F292F8815990514F4382D34
:10325000292D4C01832F922F281439042CF082152C
:1032600093050CF4C1011401821993099C012F5F8D
:103270003F4F0D851E854FA158A5B1018AE792E009
:103280000E94D718A8960FB6F894DEBF0FBECDBF28
:10329000DF91CF911F910F91FF90EF90DF90CF9032
:1032A000BF90AF909F908F907F906F905F904F9066
:1032B0003F902F900895322D232D1C01832F922FA4
:1032C0003E2D2F2DEFA0F8A43FA328A7940122198B
:1032D0003309A5014E195F09BC01621973097C8B82
:1032E0006B8BAFA1B8A5AE19BF09BE83AD83BC017E
:1032F000681979097E8B6D8B8FA198A58A199B0916
:10330000988B8F87AFA1B8A5AA15BB0509F489C012
:10331000B501615071097A8769876701412C512C89
:10332000320119821A821B821C826B897C89072ECA
:10333000000C880B990B6F8B788F898F9A8FCA013D
:10334000550FAA0BBB0B8B8F9C8FAD8FBE8F4D8102
:103350005E81052E000C660B770B4F8F58A369A377
:103360007AA3B901330F880B990B6BA37CA38DA3B0
:103370009EA389859A858C159D050CF457C069819B
:103380007A818B819C812B8D3C8D4D8D5E8D0E9431
:1033900010298101020F131FC301B2012F8D38A123
:1033A00049A15AA10E941029B101620F731F2981FE
:1033B0003A814B815C818BA19CA1ADA1BEA1280F5C
:1033C000391F4A1F5B1F29833A834B835C832F89F4
:1033D000388D498D5A8D420E531E641E751E60171E
:1033E00071072CF0962F872FB801092F182F9801FD
:1033F000261B370B2F5F3F4F0D851E85A6018AE7E1
:1034000092E00E94D7183FEFC31AD30AB2CF382DEB
:10341000292D4C01832F922F3FA128A5B8A6AFA23A
:10342000A8C08FA198A59A87898777CF4D895E8993
:10343000052E000C660B770B49875A876B877C87B4
:1034400096012A193B09AD89BE890E942F296983FB
:103450007A838B839C8396012E193F09AB89BC89A3
:103460000E942F292B013C016F857889072E000CC3
:10347000880B990B6F87788B898B9A8B8D819E81B6
:10348000092E000CAA0BBB0B8D839E83AF83B887DC
:10349000AFA1B8A5AC15BD050CF4F4CE69817A8155
:1034A0008B819C812F85388949895A890E941029EE
:1034B0007401E20EF31EC301B2012D813E814F81E2
:1034C00058850E941029B101620F731F29813A812A
:1034D0004B815C8189859A85AB85BC85280F391F16
:1034E0004A1F5B1F29833A834B835C832F89388D66
:1034F000498D5A8D420E531E641E751E6E157F0532
:103500002CF0962F872FB701E92EF82E9701261B56
:10351000370B2F5F3F4F0D851E85A6018AE792E08E
:103520000E94D7183FEFC31AD30AB2CFE216F306B0
:103530000CF080CE4FA158A5E416F5060CF467CF29
:10354000232D14014C01802F922F3A2D2B2D5A013F
:10355000F8A6EFA2E32EF22E62CEE216F3060CF4EA
:10356000B5CE322D232D1401832E922E3E2D2F2DDC
:103570007501A32EB22EAACE0F931F93DC01ED91FD
:10358000FC91048CF58DE02D09951F910F91089504
:10359000DC01ED91FC910084F185E02D09942F92DE
:1035A0003F924F925F926F927F928F929F92AF92D3
:1035B000BF92CF92DF92EF92FF920F931F93CF9320
:1035C000DF9300D000D000D0CDB7DEB73C016A0158
:1035D0003E832D83FC82EB825801A41AB50AB7FE04
:1035E00003C0B194A194B1088D809E80861A970A79
:1035F00097FE03C09194819491088A149B045CF017
:10360000902F812F0D811E819D838E839C2D8D2D6A
:103610006B01692F782F0C151D055CF09D818E8143
:103620007E836D83692F782F902F812F8601C92E7D
:10363000D82E1601201A310A2B012D813E81421A03
:10364000530A57FE03C0519441945108710137FE4B
:1036500003C03FEFE31AF30AF594E7948D819E814E
:10366000861797075CF5A1E0B0E0BA83A983C0167E
:10367000D1064CF1D301ED91FC910484F585E02D48
:103680002B813C81A8016D817E818A149B041CF0F2
:103690004D815E81B801C3010995E418F508F7FE74
:1036A0000AC02D813E8189819A81280F391F3E836E
:1036B0002D83E20CF31C0F5F1F4FD9CF2FEF3FEF8D
:1036C0003A832983D4CF26960FB6F894DEBF0FBE77
:1036D000CDBFDF91CF911F910F91FF90EF90DF90C1
:1036E000CF90BF90AF909F908F907F906F905F90A2
:1036F0004F903F902F900895089590E080E00895B6
:10370000EF92FF920F931F93DC011A960D911C917B
:103710001B9718962D913C911997ED91FC9100A063
:10372000F1A1E02D7B0150E040E070E060E0099500
:103730001F910F91FF90EF900895EF92FF920F93DA
:103740001F93DC01ED91FC9100A0F1A1E02D780127
:10375000890121E030E009951F910F91FF90EF90D2
:103760000895CF93DF936115710539F0FC01C48191
:10377000D581209729F410928101DF91CF9108958E
:10378000615071096C177D0708F4EB01FC01608141
:103790007181AE0181E891E00E94662BCF57DE4F28
:1037A0001882EBCFFB0101900020E9F73197AF01C0
:1037B000461B570BDC01ED91FC910280F381E02D5B
:1037C0000994BC018AE792E00C94D21B0F931F93DB
:1037D000CF93DF938C01EB018DEC98E10E94970C65
:1037E000EAE7F2E01587048783E390E0978786870E
:1037F000D38BC28BD18BC08B81E0848B858B81E88E
:1038000091E0DF91CF911F910F910C94E11B0E94E9
:10381000482B0F931F93CF93DF93EC0188819981FD
:10382000009759F02A813B812617370730F081E055
:10383000DF91CF911F910F9108958B016F5F7F4FA3
:103840000E948B2A009759F0998388831B830A83EF
:103850002C813D81232B59F7FC011082E8CF80E0B9
:10386000E7CFCF93DF93EC0188819981009711F026
:103870000E94022A198218821D821C821B821A82CF
:10388000DF91CF910895EF92FF920F931F93CF9303
:10389000DF93EC017B018A01BA010E94091C8111AE
:1038A0000BC0CE010E94311CCE01DF91CF911F9140
:1038B0000F91FF90EF9008951D830C83B7018881CD
:1038C00099810E945F2BF0CFEF92FF920F931F938D
:1038D000CF93DF93CDB7DEB762970FB6F894DEBF14
:1038E0000FBECDBF8C01CB01F80111821082138273
:1038F0001282158214824AE09E012F5F3F4F7901A8
:10390000B9010E949528F70101900020E9F731974D
:10391000AF014E195F09B701C8010E94431C6296AE
:103920000FB6F894DEBF0FBECDBFDF91CF911F91D0
:103930000F91FF90EF900895CF93DF93EC01FB017F
:103940008617970749F0608171816115710541F013
:10395000448155810E94431CCE01DF91CF9108958F
:103960000E94311CF9CFFC01118210821382128255
:1039700015821482FB0101900020E9F73197AF0115
:10398000461B570B0C94431CFC01808191810097CE
:1039900011F00C94022A0895EF92FF920F931F9357
:1039A000CF93DF9300D000D000D0CDB7DEB7BC01FD
:1039B0008EE692E00E949C1C67E471E0CE010196C5
:1039C0000E94B31CE0906E02F0906F02E114F104CB
:1039D00009F447C00091720210917302011511059C
:1039E000B1F08D819E81080F191FB801CE0101969B
:1039F0000E94091C8823A9F129813A818D819E8129
:103A0000B701820F931F0E945F2B1E830D83BE019F
:103A10006F5F7F4F8EE692E00E949C1CCE01019664
:103A20000E94C41C809172029091730200917802EE
:103A3000109179028017910751F580916E02909153
:103A40006F026091740270917502009791F0611598
:103A5000710561F401151105E9F1FC01808190E027
:103A600014C0CE0101960E94311CD1CF0E94562B6A
:103A70000CC06115710571F10115110559F1FB01BA
:103A8000808190E0919581959109892B19F1B80178
:103A90006F5F7F4F84E792E00E94B11B70E060E0AF
:103AA00081E090E00E94E61B6091720270917302C7
:103AB0006F5F7F4F8EE692E00E94B11B60EE77E071
:103AC00081E090E00E94E61B6EE672E084E792E0FF
:103AD0000E949C1C26960FB6F894DEBF0FBECDBF89
:103AE000DF91CF911F910F91FF90EF9008951F925A
:103AF0000F920FB60F9211242F933F938F939F93A2
:103B0000AF93BF938091780190917901A0917A0150
:103B1000B0917B013091770123E0230F2D3758F5C9
:103B20000196A11DB11D2093770180937801909398
:103B30007901A0937A01B0937B0180917C019091EF
:103B40007D01A0917E01B0917F010196A11DB11D63
:103B500080937C0190937D01A0937E01B0937F01BF
:103B6000BF91AF919F918F913F912F910F900FBE79
:103B70000F901F90189526E8230F0296A11DB11DE6
:103B8000D2CF1F920F920FB60F9211242F933F9313
:103B90004F935F936F937F938F939F93AF93BF9355
:103BA000EF93FF9381ED91E00E948D0DFF91EF91D6
:103BB000BF91AF919F918F917F916F915F914F9145
:103BC0003F912F910F900FBE0F901F9018951F924D
:103BD0000F920FB60F9211242F938F939F93EF9311
:103BE000FF93E091E101F091E2018081E091E70132
:103BF000F091E80182FD1BC090818091EA018F5F06
:103C00008F732091EB01821741F0E091EA01F0E01F
:103C1000EF52FE4F958F8093EA01FF91EF919F91B4
:103C20008F912F910F900FBE0F901F90189580814C
:103C3000F4CFE1EDF1E01382128288EE93E0A0E090
:103C4000B0E084839583A683B7838DE091E0918370
:103C5000808385EC90E09587848784EC90E097875B
:103C6000868780EC90E0918B808B81EC90E0938B49
:103C7000828B82EC90E0958B848B86EC90E0978B26
:103C8000868B118E128E138E148EEAE7F2E0138269
:103C9000128220EF30E03583248380E491E0978323
:103CA00086833187208793878287168A15861486B4
:103CB0001786168681E0858B848B2FEF3FEF338B41
:103CC000228B318B208B878B108E128E118E8FE181
:103CD00091E09183808361E571E084E792E00E9446
:103CE000B31C61E571E08EE692E00C94B31CCF93B7
:103CF000DF93CDB7DEB7A1970FB6F894DEBF0FBE46
:103D0000CDBF789484B5826084BD84B5816084BD64
:103D100085B5826085BD85B5816085BD80916E0069
:103D2000816080936E00109281008091810082609A
:103D300080938100809181008160809381008091D7
:103D400080008160809380008091B10084608093C6
:103D5000B1008091B00081608093B00080917A00C2
:103D6000846080937A0080917A00826080937A00E8
:103D700080917A00816080937A0080917A008068D7
:103D800080937A001092C100E091E101F091E2018C
:103D900082E08083E091DD01F091DE011082E0910C
:103DA000DF01F091E0018FEC80831092E901E09156
:103DB000E501F091E60186E08083E091E301F09176
:103DC000E401808180618083E091E301F091E4016E
:103DD000808188608083E091E301F091E40180813B
:103DE00080688083E091E301F091E40180818F7D20
:103DF000808360E090E080E00E94FF0E8C018830BC
:103E000024E5920711F1803244E59407F1F08938F6
:103E1000994809F433C160E087E690E00E94FF0E04
:103E200007E413E88734974481F081EA90E00E9428
:103E3000820F03E619E16130F1E67F0731F06F3F51
:103E40007F4F09F061C006E215E14801B12CA12CB9
:103E500019A2BE016F5D7F4FD501C4018F709927F4
:103E6000AA27BB2734E0B694A794979487943A95F1
:103E7000D1F78A300CF00EC1805DFB018293BF0147
:103E800081149104A104B10439F7EF2B21F081EDE5
:103E900091E00E94D21B69E471E081ED91E00E9403
:103EA000D21B0E94D30E109296021092950210938C
:103EB0009A02009399020735F3E81F0711F40C9456
:103EC0007F2708F087C1033540E2140711F40C94F2
:103ED000C72708F020C1013185E1180709F41CC289
:103EE00008F0EEC00939110511F40C94972708F079
:103EF000D3C080E091E10130110509F4D8C01092DF
:103F00007F0210927E0205C28FEB90E00E944E0F5E
:103F10008B01673543E8740709F497CF613874491A
:103F200009F493CF013185E1180709F48ECF0032EF
:103F300095E1190709F489CF0632E5E11E0709F476
:103F400082CF0138F5E11F0709F47FCF0115144135
:103F500009F497C084ED90E00E94820F8B016031DC
:103F6000734509F472CF87ED90E00E94820F8B01B8
:103F70006133704809F469CF8FEE90E00E944E0FD4
:103F80008B01073283E9180709F45FCF8EEF90E0C9
:103F90000E94820F072F182F292F3327033590E215
:103FA000190709F452CF84E090E00E94820F8B0140
:103FB000811123C06115704801F58091060190912F
:103FC0000701A091080189839A83AB83AE014F5FFB
:103FD0005F4F63E089EB90E00E941C0E60E080ED93
:103FE00090E00E94FF0E09E910E0893909F42DCF15
:103FF0008039A9F400E910E928CF0632F5E11F075E
:1040000009F421CF003F29E81207F1F1023545E814
:104010001407E9F101315CEA150709F416CF83EDC5
:1040200090E00E94820F072F182F292F3327033685
:1040300081E9180709F409CF83ED90E00E94820F0F
:104040008B01872F7359723008F4FFCE883909F439
:10405000FCCE873709F4F9CE863109F4F6CE033D5C
:10406000110509F4F2CE033D100709F4EECE60E02D
:1040700090E080E00E94FF0E8C01E7CE09E812E19B
:10408000E4CE04E118E6E1CE05E317E7DECE09E869
:1040900017E7DBCE895CF1CE0435E1E01E0709F4B9
:1040A0002CC10530154109F02ACF84E090E19093AE
:1040B00098028093970268ED70E086E296E127C14E
:1040C000063225E1120709F4D3C680F40032154107
:1040D00009F015CF83E194E09093980280939702C2
:1040E00096E0C92ED12C01EE13E12DC1013885E1F6
:1040F000180709F461C70230164109F000CF83E0C8
:1041000094E0909398028093970266E0C62ED12C9B
:104110000AE313E118C10431E8E61E0709F4CCC62E
:1041200048F5003123E5120709F4AEC678F40533EB
:10413000154409F0E4CE80E090E1909398028093DA
:1041400097026CE970E08EE897E1E1C0083084E501
:10415000180709F4AACF0930184609F0D0CE82E03A
:1041600091E190939802809397026CEC70E08AE55D
:1041700095E1CDC00339E7E71E0709F453C7A8F45A
:10418000033827E7120709F4AFC60938174709F0C3
:10419000B6CE83E194E09093980280939702B1E4C5
:1041A000CB2ED12C0FE813E1CEC0063957E7150707
:1041B00009F41DC70133104809F0A1CE83E194E151
:1041C0009093980280939702A2E1CA2ED12C0DE71A
:1041D00013E1B9C0083393E9190709F4E7C680F57C
:1041E0000732F3E91F0709F4BAC6C8F4023043E9FD
:1041F000140709F4D8C638F40039104909F07FCE05
:1042000083E194E17EC6003293E9190709F44DCFAA
:104210000532134909F073CE80E091E1A2CF093253
:10422000F3E91F0709F4C5C6B8F3013343E91407DE
:1042300021F00533134909F062CE80E090E191CF7F
:10424000093884E91807C8F5073894E9190708F010
:10425000E6C60138E4E91E0709F4C6C690F4005426
:1042600013490230110508F04ACE83E194E090939F
:1042700098028093970245E6C42ED12C02ED12E1FC
:1042800062C00638144909F03ACE83E094E0909376
:1042900098028093970280EE91E090938102809340
:1042A000800280E491E090937F0280937E022BE372
:1042B000C22ED12C02E512E146C0053045EB1407B1
:1042C00089F038F401311C4A09F019CE83E194E1F8
:1042D00060C6093095EB190709F4A4C60530154CE2
:1042E00009F00DCE88E090E19093980280939702B8
:1042F00060EB70E08AEA94E10AC082E090E190937A
:104300009802809397026CE970E08AE298E10E943B
:10431000A10F10E000E017C083E090E090939802B6
:104320008093970280EE91E09093810280938002C7
:1043300080E491E090937F0280937E0223E0C22E7E
:10434000D12C07EE13E120919802822F82958F7075
:1043500090E08170992790939C0280939B020115B5
:10436000110581F069E070E08EE192E10E944D0E4E
:10437000B601C8010E944D0E66E070E088E192E14E
:104380000E944D0E60E08AE792E00E94B31160E067
:104390008AE792E00E94C30F8091990290919A025D
:1043A0008838944909F016C11092740120EE3FEF4D
:1043B00050E040E070E060E08AE792E00E9478110F
:1043C000D090A502C090A6028091970280FF03C002
:1043D0008EE2D82EC12C8091990290919A0282305F
:1043E000964119F40EE2D02EC12C10E000E030E02E
:1043F00020E050E040E070E060E08AE792E00E9458
:1044000006108091970280FD10C070E060E08091FE
:10441000A1029091A2020E949A0E70E060E0809149
:10442000A3029091A4020E949A0E4398429885B1EB
:104430008C7F9C2D9370892B85B99BB193704C2DEB
:104440004C7FC42EC92ACBB84198419A85B18C7F44
:104450009D2D9370892B85B99BB193705D2D5C7FE9
:10446000D52ED92ADBB84198419A429A84B18C7FE3
:1044700084B98AB183708AB92091970230919802E9
:104480008091990290919A0226FD0EC0409A409820
:104490004098409843B149B1409A20FD05C0893801
:1044A000E2E19E0709F0D1C58131954139F4409A86
:1044B00040984098409883B189B1409AB90164709E
:1044C0007727409A40984098409824FFDBC593B1E5
:1044D00089B193708C7F982B409A409A409840986D
:1044E000409843B189B143708C7F482B409A409AE1
:1044F00040984098409883B1C9B083705C2D5C7F30
:10450000852B409A50E0672B09F4A7C5C82ED12C03
:10451000DC2CCC24CC2488EFD82213E0440F551F88
:104520001A95E1F7407E5770C42AD52A969596953C
:104530009695C92A80917401882399F0C60135E0C7
:10454000969587953A95E1F780729927A601569539
:1045500047954F715527842B952BF0ECCF22C82A15
:10456000D92A409A439A84B1836084B98AB18C6F06
:104570008AB920FD14C00091840210918502015077
:10458000110920918202309183022150310950E0BB
:1045900040E070E060E08AE792E00E9406102FE1C0
:1045A000C2162FEFD206B1F486E08983AE014F5FC9
:1045B0005F4F61E08AE390E00E941C0E80919702B9
:1045C000909198028F7E909398028093970281E059
:1045D0008093740161E08AE792E00E94B31170E079
:1045E00060E08AE792E00E94801B90E080E00E94F9
:1045F000970C82E0582E50928E0250928F029FEEBE
:10460000E92E9BE7F92E00E910E026EC30E04EE5BC
:1046100050E066E270E08AE792E00E941C17C12C2D
:1046200028EFD22EEE24E394F12C07E711E022E3E9
:1046300030E04FE851E062E370E08DE591E00E94E8
:10464000E318D12CC12C44E0E42EF12C2FE230E011
:104650004CE851E06FE270E080E691E00E94E318E0
:10466000C12C58EFD52E6AE0E62EF12C2CE230E07A
:1046700046E851E06CE270E086E691E00E94E318C3
:10468000CC24CA94DC2CEFE0EE2EF12C2AE230E0B0
:1046900043E851E06AE270E08AE691E00E94E318A4
:1046A000F0EECF2EF7E0DF2EAEE2EA2EF12C0DE099
:1046B00011E024E030E04DE051E069E170E089EF85
:1046C00090E00E94E31808E111E029E130E04CE2BB
:1046D00051E064E070E088E191E00E94E3180DE0B1
:1046E00011E024E030E04DE051E069E170E089EF55
:1046F00090E00E94E31808E111E029E130E04CE28B
:1047000051E064E070E088E191E00E94E318E12C60
:10471000B8EFFB2E01E010E02DE431E041E050E085
:104720006DE371E08AE792E00E947B1702E310E0FC
:104730002DE431E042E350E06DE371E08AE792E07E
:104740000E947B1703E210E020E331E040E150E0FB
:1047500060E371E08AE792E00E947B172AE531E08E
:1047600040E150E06AE571E08AE792E00E947B1741
:1047700001E010E02DE331E040E150E060E371E062
:104780008AE792E00E947B1700E110E02AE531E021
:1047900041E050E06DE471E08AE792E00E947B170F
:1047A00002E310E02DE431E043E250E06AE571E01D
:1047B0008AE792E00E947B1703E210E020E331E0F9
:1047C00042E350E06DE371E08AE792E00E947B17DC
:1047D00086EC98E10E94970C8BE391E0909387021E
:1047E0008093860285E290E090938902809388020C
:1047F00080E098EF90938D0280938C0290938B02CF
:1048000080938A0250928E0250928F028CE491E043
:104810000E94E11B83E490E0909376018093750100
:1048200062E670E0CE0101960E94641CCE01019602
:104830000E94CC1CCE0101960E94C41C6EE471E063
:10484000CE0101960E94B31C6D817E816F5F7F4F08
:10485000CE0101960E94B11BF12CE12C02E310E085
:104860002FE530E041E050E060E670E08AE792E05A
:104870000E94B61060EE7FEF8EE690E00E94E61B8D
:10488000CE0101960E94C41C1FE1E12EF12C01E330
:1048900010E021E330E048E650E06BE271E08AE7A7
:1048A00092E00E94B610EE24EA94FE2C01E910E09A
:1048B00024E431E04EE650E064E471E08AE792E0FF
:1048C0000E947B1726E331E04EE650E060E471E0A1
:1048D0008AE792E00E947B1722E531E04EE650E045
:1048E00068E471E08AE792E00E947B1763E571E07B
:1048F000CE0101960E94B31C6D817E816F5F7F4F58
:10490000CE0101960E94B11B8FEEE82E8BE7F82EA8
:1049100006E210E020E530E046E350E066E670E0B5
:104920008AE792E00E941C1786EC98E10E94970C9F
:104930008BE690E0909387028093860294E5892E1F
:10494000912C90928902809288022FEEC22E2BE742
:10495000D22ED0928D02C0928C02D0928B02C09245
:104960008A0250928E0250928F0281E891E00E945A
:10497000E11BCE0101960E94C41CE12C38EFF32EFE
:1049800001E310E021E330E046E350E06EE571E042
:104990008AE792E00E94B610F12CE12C0AE410E0C4
:1049A0002BE731E04AE450E067E671E08AE792E005
:1049B0000E947B1706E410E027E631E04AE450E06D
:1049C00067E671E08AE792E00E947B1701E410E05D
:1049D00023E631E046E450E067E671E08AE792E0E2
:1049E0000E947B170CE310E025E631E041E450E043
:1049F00063E671E08AE792E00E947B1706E410E02C
:104A000027E631E04CE350E065E671E08AE792E0AA
:104A10000E947B1701E410E02AE631E046E450E012
:104A200067E671E08AE792E00E947B1725E731E0B4
:104A300041E450E06AE671E08AE792E00E947B1769
:104A400004E410E027E731E041E450E065E771E07D
:104A50008AE792E00E947B1702E410E026E831E04A
:104A600044E450E067E771E08AE792E00E947B1738
:104A70000AE410E02BE731E042E450E066E871E040
:104A80008AE792E00E947B1706E410E026E831E016
:104A900044E450E067E871E08AE792E00E947B1707
:104AA00028E831E044E450E067E871E08AE792E00A
:104AB0000E947B170DE310E020E731E040E450E076
:104AC00060E771E08AE792E00E947B1722E731E01D
:104AD0004DE350E06EE671E08AE792E00E947B17BA
:104AE00086EC98E10E94970C88E691E0909387020B
:104AF0008093860281E690E09093890280938802F9
:104B0000AA24AA94BA2CB0928D02A0928C02B092E0
:104B10008B02A0928A024424439440928E024092D7
:104B20008F0288E591E00E94E11BE12C58EFF52E01
:104B300001E310E021E330E046E350E06BE271E096
:104B40008AE792E00E94B61086EC98E10E94970CEA
:104B500081E391E090938702809386026CE4662E55
:104B6000712C7092890260928802B0928D02A0929C
:104B70008C02B0928B02A0928A0240928E024092E6
:104B80008F028CE591E00E94E11B8FE291E090930F
:104B90008702809386027DE5272E312C3092890290
:104BA0002092880280E691E00E94E11B20E330E041
:104BB00046E350E069EF70E08AE792E00E94B610A9
:104BC00086EC98E10E94970C0FEF10E0109387029B
:104BD000009386027092890260928802B0928D02E0
:104BE000A0928C02B0928B02A0928A0240928E0216
:104BF00040928F028CE591E00E94E11B10938702A6
:104C000000938602309289022092880210928D02CF
:104C100010928C0210928B0210928A0284E691E02C
:104C20000E94E11BE0EEEE2EFF24FA9401E310E077
:104C300020E330E048E650E069EF70E08AE792E078
:104C40000E94B61086EC98E10E94970C85E091E0F6
:104C500090938702809386028BE890E0909389027C
:104C60008093880210928D0210928C0210928B0217
:104C700010928A0250928E0250928F0288E691E042
:104C80000E94E11B6AE671E0CE0101960E94B31C0E
:104C90006D817E816F5F7F4FCE0101960E94B11BB7
:104CA000FFEEEF2EFBE7FF2E06E210E024E330E0FC
:104CB00046E350E068EB70E08AE792E00E941C1740
:104CC00086EC98E10E94970C8CEB90E09093870221
:104CD000809386029092890280928802D0928D02FF
:104CE000C0928C02D0928B02C0928A0250928E02A5
:104CF00050928F0281E891E00E94E11B00E910E0F0
:104D000023E230E04EE550E061E070E08AE792E0B7
:104D10000E941C17A0EEEA2EFF24FA9404E610E08D
:104D20002FE130E048E850E063E070E08AE792E08D
:104D30000E94B610CE0101960E94C41C6DE671E07F
:104D4000CE0101960E94B31C6D817E816F5F7F4F03
:104D5000CE0101960E94B11BBFEEEB2EBBE7FB2EEE
:104D600006E210E023E630E046E350E061E070E068
:104D70008AE792E00E941C1786EC98E10E94970C4B
:104D800083E090E09093870280938602909289025C
:104D900080928802D0928D02C0928C02D0928B02B7
:104DA000C0928A0250928E0250928F0281E891E066
:104DB0000E94E11BCE0101960E94C41C18E1E12E65
:104DC00016ECF12E01E310E021E330E048E650E07C
:104DD0006EE571E08AE792E00E941C170FE1E02E79
:104DE000F12C0DE110E027E230E042E750E063E60D
:104DF00071E08AE792E00E941C1709E010E027E2C8
:104E000030E04CE750E063E671E08AE792E00E9410
:104E10001C1700E018EF2FE030E048E750E06CE6A8
:104E200071E08AE792E00E949D1B2FE030E048E7A6
:104E300050E066E771E08AE792E00E949D1B2FE058
:104E400030E048E750E060E871E08AE792E00E94D5
:104E50009D1B00E010E081ED91E00E946D0D1816A1
:104E600019060CF03EC181ED91E00E944B0DF3CF8D
:104E700083E194E090939802809397028CE0C82E8F
:104E8000D12C05ED13E15FCA83E19EE09093980277
:104E90008093970280EE91E090938102809380024C
:104EA00080E491E090937F0280937E0202E0C02E26
:104EB000D12C03ED13E147CA83E094E0909398026C
:104EC0008093970280EE91E090938102809380021C
:104ED00080E491E090937F0280937E0213E0C12EE4
:104EE000D12C00ED13E12FCA82E091E1909398025A
:104EF0008093970260E970E08EEF96E108CA83E044
:104F000094E1909398028093970280EE91E09093C1
:104F100081028093800280E491E090937F028093ED
:104F20007E02F2E0CF2ED12C0BE713E10CCA83E115
:104F300094E1909398028093970280EE91E0909391
:104F400081028093800280E491E090937F028093BD
:104F50007E02EDE1CE2ED12C0EE513E1F4C983E003
:104F600094E0909398028093970280E991E0909367
:104F700081028093800280EF90E090937F02809383
:104F80007E027EE1C72ED12C00E413E1DCC987E16B
:104F900094E1909398028093970253E0C52ED12C10
:104FA00007E313E1D0C983E094E0F3CF83E194E019
:104FB000F0CF83E096E1EDCF83E194E09093980207
:104FC0008093970280EE91E090938102809380021B
:104FD00080E491E090937F0280937E0235E4C32EBB
:104FE000D12C0DE812E1AFC987E094E0E7CF83E070
:104FF00094E0909398028093970280EE91E09093D2
:1050000081028093800280E491E090937F028093FC
:105010007E029BE2C92ED12C07E212E194C983E102
:1050200094E0E7CF80E090E190939802809397021C
:1050300060EC70E08AEE93E10E94A10F80E991E0BC
:10504000909381028093800264C9409A409840986E
:10505000409843B149B1409A27CAC92ED12CDC2CC3
:10506000CC24CC2498EFD922A3E0440F551FAA9555
:10507000E1F7407E5770C42AD52A86958695869595
:10508000C82A58CAC3B099B1409A409A40984098EB
:10509000409883B149B183704C7F842B409AEC2DAA
:1050A000E370CE2E9C7FC92ADC2CC82E23FF03C0C0
:1050B000D826CD24DC24672B09F43CCAC601807EA7
:1050C0009770A601452F5527469546954695842B02
:1050D000952BDC2CCC24DD0CDD0CDD0CC82AD92A68
:1050E00029CA6091750170917601CE0101960E94E6
:1050F000641CCE0101960E94CC1CCE0101960E9438
:10510000C41C0115110509F4A6CE0E94790D88234F
:1051100009F4A1CE0E9400009ECE8EE692E00E948D
:10512000C41C84E792E00C94C41CBB274A3031F4C1
:10513000992322F4BDE2909581959F4F0C94A1286C
:10514000BB27FB015527AA27880F991FAA1FA41761
:1051500010F0A41B83955051B9F7A05DAA3308F055
:10516000A95DA193009779F7B111B1931192CB0189
:105170000C94BA28DC01FC01672F71917723E1F7C9
:10518000329704C07C916D9370836291AE17BF0714
:10519000C8F308952F923F924F925F926F927F9241
:1051A0008F929F92AF92BF92CF92DF92EF92FF9237
:1051B0000F931F93CF93DF93CDB7DEB7CA1BDB0BE3
:1051C0000FB6F894DEBF0FBECDBF09942A88398888
:1051D00048885F846E847D848C849B84AA84B9848F
:1051E000C884DF80EE80FD800C811B81AA81B9819B
:1051F000CE0FD11D0FB6F894DEBF0FBECDBFED01AF
:105200000895A29FB001B39FC001A39F700D811D9F
:105210001124911DB29F700D811D1124911D0895BF
:10522000052E97FB1EF400940E94272957FD07D0F6
:105230000E943E2907FC03D04EF40C942729509578
:105240004095309521953F4F4F4F5F4F0895909572
:105250008095709561957F4F8F4F9F4F08950E9465
:105260000129332312F48A1B9B0B0C9439290E94C9
:105270000129B7FF0895821B930B0895A1E21A2E0E
:10528000AA1BBB1BFD010DC0AA1FBB1FEE1FFF1FEA
:10529000A217B307E407F50720F0A21BB30BE40B3A
:1052A000F50B661F771F881F991F1A9469F7609581
:1052B0007095809590959B01AC01BD01CF0108953B
:1052C000EE0FFF1F0590F491E02D09940F931F93AB
:1052D000CF93DF938230910510F482E090E0E0916B
:1052E000B102F091B20230E020E0B0E0A0E03097EF
:1052F00099F42115310509F44AC0281B390B2430D3
:105300003105D8F58A819B816115710589F1FB0111
:1053100093838283FE0111C04081518102811381F8
:1053200048175907E0F04817590799F4109761F0AA
:1053300012960C93129713961C933296CF01DF911D
:10534000CF911F910F9108950093B1021093B20273
:10535000F4CF2115310551F04217530738F0A90158
:10536000DB019A01BD01DF01F801C1CFEF01F9CFE7
:105370009093B2028093B102CDCFFE01E20FF31FF2
:10538000819391932250310939832883D7CF20917B
:10539000AF023091B002232B41F4209102013091F1
:1053A00003013093B0022093AF02209100013091AD
:1053B00001012115310541F42DB73EB7409104019B
:1053C00050910501241B350BE091AF02F091B00222
:1053D000E217F307A0F42E1B3F0B2817390778F0CC
:1053E000AC014E5F5F4F2417350748F04E0F5F1F2B
:1053F0005093B0024093AF02819391939FCFF0E01E
:10540000E0E09CCFCF93DF930097E9F0FC01329767
:1054100013821282A091B102B091B202ED0130E08C
:1054200020E01097A1F420813181820F931F2091F9
:10543000AF023091B0022817390709F061C0F0932C
:10544000B002E093AF02DF91CF910895EA01CE1749
:10545000DF07E8F54A815B819E0141155105B1F7EF
:10546000E901FB83EA8349915991C40FD51FEC17D9
:10547000FD0761F4808191810296840F951FE901F7
:1054800099838883828193819B838A83F0E0E0E023
:1054900012968D919C9113970097B9F52D913C919F
:1054A0001197CD010296820F931F2091AF02309188
:1054B000B0022817390739F6309751F51092B20229
:1054C0001092B102B093B002A093AF02BCCFD383CD
:1054D000C28340815181840F951FC817D90761F499
:1054E0004E5F5F4F88819981480F591F51834083D8
:1054F0008A819B81938382832115310509F0B0CF86
:10550000F093B202E093B1029ECFFD01DC01C0CF67
:1055100013821282D7CFB0E0A0E0E1E9FAE20C9466
:10552000CC288C01009751F4CB010E9466298C0194
:10553000C801CDB7DEB7E0E10C94E828FC01E60F26
:10554000F71F9C0122503109E217F30708F49DC0B0
:10555000D901CD91DC911197C617D70798F0C530C6
:10556000D10530F3CE0104978617970708F3C61BC1
:10557000D70B2297C193D1936D937C93CF010E9457
:10558000022AD6CF5B01AC1ABD0A4C018C0E9D1EBF
:10559000A091B102B091B202512C412CF12CE12C1E
:1055A000109731F58091AF029091B002881599055E
:1055B00009F05CC04616570608F058C080910001FB
:1055C00090910101009741F48DB79EB7409104017D
:1055D00050910501841B950BE817F90708F055C099
:1055E000F093B002E093AF02F90171836083A0CF22
:1055F0008D919C91119712966C90129713967C90B6
:105600001397A815B90559F56C0142E0C40ED11CD9
:10561000CA14DB0420F1AC014A195B09DA011296C5
:10562000159780F06282738251834083D9016D9314
:105630007C93E114F10471F0D7011396FC93EE937F
:10564000129776CF22968C0F9D1FF901918380834C
:10565000F301EFCFF093B202E093B10269CF4816A5
:10566000590608F42C017D01D3019ACFCB010E9489
:1056700066297C01009749F0AE01B8010E944D2BCC
:10568000C8010E94022A870153CF10E000E050CFEA
:1056900081E090E0F8940C94752BFB01DC0102C0D2
:1056A00001900D9241505040D8F70895FB01DC0164
:1056B0008D91019080190110D9F3990B0895FB0188
:1056C000DC0101900D920020E1F70895FB01DC015F
:1056D0004150504048F001900D920020C9F701C0A0
:1056E0001D9241505040E0F708951CE0CBE6DCE00D
:1056F00004C0FE010E9460292196CC36D107C9F76B
:04570000F894FFCF4B
:105704000000B3028000FF835700000000AF0D0FBC
:105714000D3C0DFC0D6D0D4B0D5F0D000000004A9E
:10572400160F0D7D1B7C1B7811960CC81AC718BC6C
:105734001AD718CF1A960CB311C30F9D1BFC13B6BE
:1057440010801B7B171C1720000D0A0050003335F6
:1057540030300039392063004F494C00484F540021
:105764004C4F570058585800440034300031332E01
:045774003776000084
:00000001FF
