:100000000C949B0C0C94C30C0C94C30C0C94C30C5C
:100010000C94C30C0C94C30C0C94C30C0C94CF2301
:100020000C94C30C0C94C30C0C94C30C0C941E24A1
:100030000C94C30C0C94C30C0C9479240C94C30C36
:100040000C942D230C94C30C0C949D230C947723B7
:100050000C94C30C0C94C30C0C94C30C0C94C30CE4
:100060000C94C30C0C94C30C0000000005000100AC
:1000700000020D0602F4040005040601F407000A5C
:100080000C0A00F5160009100A01F32800100D10E3
:1000900001F442000B0D0C01F4540002040401F4BD
:1000A000550004110601F45E0004110601F4670016
:1000B00005050701F46B0006080B03F97100020443
:1000C000050200720004010601FC73000201050133
:1000D000007400050D0500F47D00080D0A01F48A86
:1000E00000040D0A03F49100090D0A01F4A00008B0
:1000F0000D0A01F4AD00070D0A02F4B900090D0A5A
:1001000001F4C800090D0A01F4D700080D0A00F433
:10011000E400090D0A01F4F300080D0A01F40001DE
:10012000020A0501F70301030C0501F8080109099A
:100130000B01F8130109040B01FB180109090B015C
:10014000F82301090D0A01F4320111101201F454CF
:10015000010C0D0C00F468010B0D0C01F47A010B7D
:100160000D0D01F48C010B0D0D01F49E01090D0B19
:1001700001F4AD01080D0B01F4BA010C0D0E01F4F0
:10018000CE010B0D0D01F4E001020D0502F4E401B6
:10019000070D0A01F4F0010B0D0C01F40202080D29
:1001A0000A01F40F020D0D0F01F425020B0D0D01D4
:1001B000F437020D0D0E01F44D020A0D0C01F45E30
:1001C000020D0E0E01F475020C0D0D01F489020AE8
:1001D0000D0C01F49A02090D0B01F4A9020B0D0D8F
:1001E00001F4BB020B0D0C00F4CD02110D1100F453
:1001F000E9020C0D0C00F4FD020C0D0C00F41103CF
:100200000A0D0B01F4220303110501F42903050D66
:100210000500F4320303110500F439030707080150
:10022000F440030A010A0003420304030500F444F6
:1002300003090A0A01F75003090D0A01F45F0308D4
:100240000A0901F76903080D0A01F47603080A0A8E
:1002500001F78003040D0501F48703080E0A01F776
:100260009503080D0A01F4A203020D0401F4A6038C
:1002700004110400F4AF03090D0901F4BE03020DDB
:100280000401F4C2030D0A0F01F7D303080A0A019F
:10029000F7DD03080A0A01F7E703090D0A01F7F67B
:1002A00003080D0A01F70304050A0601F70A04080A
:1002B0000A0901F71404040C0501F51A04080A0AD6
:1002C00001F72404090A0900F730040D0A0D00F7AC
:1002D0004104080A0900F74B04090E0900F75B0402
:1002E000070A0901F7640404110601F46D04021100
:1002F0000402F4720404110601F47B0407030901EB
:10030000F9FFFFF8C0DEF72009864191FF1304C30F
:1003100020C8FF89826190101F14DA3D1E83407847
:100320001708F47A3533F040203810EC20C620C688
:1003300040C6406C803900013C02770263046304CC
:1003400077083C0E0660CC1981E0180F0336C2D83E
:10035000730631E3C4FE13266CCCCCC46623108C28
:100360004663333332664C80257EA50030C33F3070
:10037000C30CD6F0C00844211084421108003C662A
:1003800042C3C3C3C3C3C3C342663C113F33333309
:1003900033303E31B07830181C1C1C181810080778
:1003A000F83C66C3C303061C0703C3C3663C0C18B2
:1003B0007162C9A346FE183060C07F20100808078C
:1003C000F38C030180F06C63E01E3198780C06F327
:1003D0008D83C1E0D06C63E0FF030206040C0818B3
:1003E00018181030303E31B0783C1B18F8C6C1E008
:1003F000F06C63E03C66C2C3C3C3673B0303C266E1
:100400003CC00030C0000064A00081C78E0C078093
:10041000700E0180FF80001FF000700E01C01838C0
:1004200071C080003E31B0783018183818180C00B0
:1004300000018003F0060E06018600661DBB31CF69
:1004400018C79863CC31E611B399CCF786000180C8
:100450000070400FE00600F00F00901981981083A3
:100460000C3FC204606606C030FF183303606C0D99
:10047000833FC606C0780F01E06FF81F861981A080
:100480003C0180300600C0680D831861F0FF18330E
:1004900003603C0780F01E03C0780F0360CFF0FFBD
:1004A000E030180C0603FD80C06030180FF8FFC064
:1004B000C0C0C0C0FEC0C0C0C0C0C00F830E606658
:1004C00003C00C00C1FC03C0360360730F0F10C0E3
:1004D000780F01E03C0780FFFE03C0780F01E03C8D
:1004E00006FFFFFFC0060C183060C183078F1E2770
:1004F00080C0D8330C630CC1B83F0730C318630603
:10050000606C0CC0C0C0C0C0C0C0C0C0C0C0C0FF14
:10051000E03F01FC1FE0FD05EC6F637913CD9E6C9D
:10052000F1478E3C7180E07C0FC1E83D8798F11E59
:1005300033C3786F07E07C0E0F8183180CC06C0109
:10054000E00F007803C01B01980C60C0F800FF307A
:100550006C0F03C0F06FF300C0300C0300C0000F3D
:100560008183180CC06C01E00F007803C01B019858
:100570006C60C0FB0008FF8C0EC06C06C06C0CFFEA
:100580008C0EC06C06C06C06C0703F186C0F03C0A8
:100590001E01F00E00F03C0D863F00FF8603018037
:1005A000C06030180C06030180C0C0780F01E03C29
:1005B0000780F01E03C0780F01B061F0C06C0D81A0
:1005C00010630C610460CC1901603C070060C181BC
:1005D00030E19870CC286626211330C8986C4C14F2
:1005E000340A1A0707030380818060630C30C198C6
:1005F0000F00E00600F019019830C60E6060C036AA
:100600000630C30C1981D80F006006006006006038
:100610000600FFC060300C060301C06030180603FE
:1006200000FFC0FB6DB6DB6DB6E084108410841053
:10063000841080EDB6DB6DB6DBE03060A244D8A15B
:1006400080FFC0C6307E71B0C060F3DB0D86C73D51
:10065000C0C060301BCE360F0783C1E0F07C6DE078
:100660003C66C3C0C0C0C0C3663C0303033B67C352
:10067000C3C3C3C3C3673B3C66C3C3FFC0C0C36639
:100680003C366F66666666603B67C3C3C3C3C3C35D
:10069000673B0303C67CC0C0C0DEE3C3C3C3C3C3A0
:1006A000C3C3C3C3FFFFC03003333333333333E03B
:1006B000C06030184C466361F0EC6231986C30FFDA
:1006C000FFFFC0DEF71CF0C7863C31E18F0C78637A
:1006D000C31E18C0DEE3C3C3C3C3C3C3C3C33C66E6
:1006E000C3C3C3C3C3C3663CDE71B0783C1E0F07EF
:1006F00083E36F30180C003B67C3C3C3C3C3C36736
:100700003B030303DF318C6318C6003EE3C0C0E047
:100710003C07C3E37E66F666666667C3C3C3C3C3AE
:10072000C3C3C3C77BC1A098CC4221B0D0281C0C46
:1007300000C61E3891C4CA66D316D0A6871C38C01E
:10074000C6004362361C181C3C266243C12198CC6B
:100750004261B0D0381C0C0603010300FE0C30C10E
:10076000861820C1FC3666666ECE66666630FFFF70
:10077000FFFFC0C666666737666666C061243800DC
:10078000001B2E2002D09C0006272017D3BA001B86
:100790002E2002D05601192E2004D0E6011B27205E
:1007A00002D36A021B2E2002D006031B2E2002D089
:1007B000A203172A2006D01B041B2E2002D0B70448
:1007C0001B2E2002D003FFF800FFFF803FFFF8033D
:1007D000FFFEC33FFFBCF0000FFF0001FFE0003F42
:1007E000FC0007FF8000FFF0001FFE0003FFC000B9
:1007F0007FF8000FFF0001FFE0003FFC0007FF80D3
:1008000000FFF0001FFC0000FE0000070000004099
:10081000000004000000E000007F00003FF0001F27
:10082000FE0003FFC0007FF8000FFF0001FFE000A3
:100830003FFC0007FF8000FFF0001FFE0003FFC029
:10084000007FF8000FFF0001FFE0003F780003C6C3
:100850007FFF301FFFF007FFFF007FFFC007FFF0A3
:100860000031EFFFFFFFFFFFFFFFFFFFFF3C3040C6
:100870000033FFFFFFFFFFFFFFFFFFFFFDE300036C
:10088000FFF800FFFF803FFFF803FFFEC03FFFBC03
:1008900000000FC00001F800003F000007E000006A
:1008A000FC00001F800003F000007E00000FC0006D
:1008B00001F800003F000007E00000FC00001F807E
:1008C0000000F07FFF861FFFFC4FFFFFE4FFFFF8F3
:1008D000E7FFFC1F000003F000007E00000FC000D7
:1008E00001F800003F000007E00000FC00001F804E
:1008F0000003F000007E00000FC00001F800003F80
:10090000000007E00000780000067FFF001FFFF0F6
:1009100007FFFF007FFFC007FFF0000FFFE00FFFA2
:10092000F80FFFFE03FFFEC0FFFEF00000FC00001A
:100930007E00003F00001F80000FC00007E00003A2
:10094000F00001F80000FC00007E00003F00001FE6
:1009500080000FC00007E00000F1FFFE19FFFFC795
:10096000FFFFF8FFFFF81FFFF1800003C00007E062
:100970000003F00001F80000FC00007E00003F00D2
:10098000001F80000FC00007E00003F00001F80026
:1009900000FC00007E00003F00000F07FFF307FF90
:1009A000FC07FFFF01FFFF007FFF00000001860042
:1009B0000079E0001FFE0003FFC0007FF8000FFF7A
:1009C0000001FFE0003FFC0007FF8000FFF0001F78
:1009D000FE0003FFC0007FF8000FFF0001FFE000F2
:1009E0003FF80001FCFFFF0E3FFFF89FFFFFC1FF34
:1009F000FFF00FFFF8C000007800003F000007E0A4
:100A00000000FC00001F800003F000007E00000FCB
:100A1000C00001F800003F000007E00000FC0000FB
:100A20001F800003F000007E0000078000006003CC
:100A3000FFF800FFFF803FFFF803FFFE033FFF804A
:100A4000F000003F000007E00000FC00001F8000F5
:100A500003F000007E00000FC00001F800003F001E
:100A60000007E00000FC00001F800003F000007C95
:100A700000000E7FFF811FFFFC0FFFFFE0FFFFF86C
:100A800007FFFC6000003C00001F800003F0000036
:100A90007E00000FC00001F800003F000007E000EA
:100AA00000FC00001F800003F000007E00000FC06B
:100AB0000001F800003F000003C07FFF301FFFF07F
:100AC00007FFFF007FFFC007FFF00003FFF800FFF4
:100AD000FF803FFFF803FFFE033FFF80F000003F71
:100AE000000007E00000FC00001F800003F0000091
:100AF0007E00000FC00001F800003F000007E0008A
:100B000000FC00001F800003F000007C00000E7F4E
:100B1000FF811FFFFC0FFFFFE4FFFFF8E7FFFC7FF3
:100B200000003FF0001FFE0003FFC0007FF8000F31
:100B3000FF0001FFE0003FFC0007FF8000FFF00026
:100B40001FFE0003FFC0007FF8000FFF0001FFE061
:100B5000003F780003C67FFF301FFFF007FFFF0054
:100B60007FFFC007FFF0003FFF80FFFF83FFFF8391
:100B7000FFFEC3FFFBC0000FC0001F80003F00004E
:100B80007E0000FC0001F80003F00007E0000FC049
:100B9000001F80003F00007E0000FC0001F8000004
:100BA000F0000060000040000000000000000600AF
:100BB000003C0001F80003F00007E0000FC0001F38
:100BC00080003F00007E0000FC0001F80003F00000
:100BD00007E0000FC0001F80003F00003C00003015
:100BE00003FFF800FFFF803FFFF803FFFEC33FFF56
:100BF000BCF0000FFF0001FFE0003FFC0007FF809A
:100C000000FFF0001FFE0003FFC0007FF8000FFF91
:100C10000001FFE0003FFC0007FF8000FFF0001F25
:100C2000FC0000FE7FFF871FFFFC4FFFFFE4FFFF7C
:100C3000F8E7FFFC7F00003FF0001FFE0003FFC04D
:100C4000007FF8000FFF0001FFE0003FFC0007FFFE
:100C50008000FFF0001FFE0003FFC0007FF8000FC0
:100C6000FF0001FFE0003F780003C67FFF301FFF59
:100C7000F007FFFF007FFFC007FFF00003FFF80051
:100C8000FFFF803FFFF803FFFEC33FFFBCF0000FF4
:100C9000FF0001FFE0003FFC0007FF8000FFF000C5
:100CA0001FFE0003FFC0007FF8000FFF0001FFE000
:100CB000003FFC0007FF8000FFF0001FFC0000FE6B
:100CC0007FFF871FFFFC4FFFFFE0FFFFF807FFFCE0
:100CD0006000003C00001F800003F000007E000068
:100CE0000FC00001F800003F000007E00000FC001A
:100CF000001F800003F000007E00000FC00001F81C
:100D000000003F000003C07FFF301FFFF007FFFF20
:100D1000007FFFC007FFF00001036800207E16007F
:100D2000000000003E5551553E3E6B6F6B3E0C1E61
:100D30003C1E0C081C3E1C081C4A7F4A1C185C7F89
:100D40005C18001C1C1C007F6363637F001C141C68
:100D5000007F636B637F30484D330706297929068E
:100D600020503F020C607F05353F2A1C771C2A006B
:100D70007F3E1C08081C3E7F0014227F2214005F67
:100D8000005F0006097F017F4A5555552960606064
:100D9000606054627F625408047E040808103F10AB
:100DA0000808082A1C08081C2A08081C1010101023
:100DB0001C3E083E1C303C3F3C30061E7E1E06009A
:100DC0000000000000005F00000007000700147F23
:100DD000147F14242A7F2A1223130864623649568A
:100DE00020500000070000001C2241000041221C8E
:100DF0000014083E081408083E080800A06000001F
:100E00000808080808006060000020100804023E7E
:100E10005149453E44427F4040426151494621414B
:100E2000454B311814127F1027454545393C4A4936
:100E300049300171090503364949493606494929AE
:100E40001E006C6C000000AC6C0000081422410015
:100E50001414141414004122140802015109063E0E
:100E6000415D555E7C1211127C7F494949363E41F5
:100E70004141227F4141221C7F494949417F090963
:100E800009013E4149497A7F0808087F00417F41B6
:100E9000002040413F017F081422417F40404060D4
:100EA0007F020C027F7F0408107F3E4141413E7F5C
:100EB000090909063E4151215E7F09192946464923
:100EC00049493103017F01033F4040403F1F20401B
:100ED000201F3F403C403F6314081463070870081C
:100EE000076151494543007F414100020408102039
:100EF0000041417F000402010204404040404000A4
:100F00000102040020545454787F48444438384443
:100F1000444448384444487F3854545418087E099F
:100F20000102085454583C7F0804047800447D4072
:100F3000002040443D007F1010284400417F4000C5
:100F40007C047804787C0804047838444444387C71
:100F5000141414080814140C7C7C08040408485465
:100F6000545424043F4440203C4040207C1C2040FA
:100F7000201C3C4038403C44281028440C50505021
:100F80003C4464544C44000836410000007F00009B
:100F90000041360800020102040270484448700013
:100FA0000E110E0000121F10000012191600001181
:100FB000150B000007041F000017150900000E158F
:100FC000090000011D0300000A150A000012150E99
:100FD000000004040400FFFFFFFFFF3E00000000CC
:100FE0003E3E0000003E3E003E003E3E003E3E8053
:100FF00080808080C0C0C0C0C0D0D0D0D0D0D8D871
:10100000D8D8D8DADADADADADBDBDBDBDB4000404F
:1010100000406000400040600070004060007000D0
:10102000787C004000407C007E00407C007E007F99
:101030001C7741414141414141414141417F001CB7
:1010400077415D5D4141415D5D5D5D415D5D5D5D42
:10105000417F00221C141C2200081C08000000779D
:101060000000465D555D317C5554554408082A08FA
:1010700008001408140008142208147F4171311F5D
:1010800003057F050322147F552202557D050206C4
:101090000909060044445F44441C141C227F203E7E
:1010A000613E2020503F020C807C203C40443C04A8
:1010B0007C44000008000038555455187E08107F05
:1010C00001081008040214082214080E060A102051
:1010D00020100A060E383028040202042830387E18
:1010E0001111117E7F494949317F494949367F01B4
:1010F000010103C07F417FC07F4949494177087F93
:10110000087741494949367F1008047F7C2112093C
:101110007C7F08142241403E01017F7F020C027F48
:101120007F0808087F3E4141413E7F0101017F7FEA
:10113000090909063E4141412201017F0101074899
:1011400048483F0E117F110E63140814637F40401E
:101150007FC0070808087F7F407F407F7F407F4037
:10116000FF017F4848307F4848307F7F48484830FB
:10117000224149493E7F083E413E462919097F20C8
:10118000545454783C4A4A49317C545454287C0481
:1011900004040CC078447CC038545454186C107C3F
:1011A000106C44545454287C2010087C7C40261039
:1011B0007C7C10102844403804047C7C0810087C97
:1011C0007C1010107C38444444387C0404047C7C3B
:1011D00014141408384444444804047C04040C5097
:1011E00050503C1824FC241844281028447C4040CB
:1011F0007CC00C1010107C7C407C407C7C407C408F
:10120000FC047C5050207C5050207C7C505050205E
:1012100028445454387C10384438483414147C0220
:10122000010011007F96290001007F9628003A01F5
:1012300055C0021010C10141C50400228040360192
:1012400068B00100B102B011B40102B60302023B62
:10125000B701C63A0155F704A9512C82C0020D0D01
:10126000C1024300C20100C50400480048B40100A7
:10127000B60302023BE00F0F211C0B0E0849983801
:10128000091103141000E10F0F2F2B0C0E064776E7
:1012900037071104231E00B00100B3040200000050
:1012A000B40100D003074218D103000710D2020195
:1012B00002D3020102D4020102C005123B00021156
:1012C000C103101088C50103C60102C80C003236E4
:1012D000450616377577540C00CC0100F603010162
:1012E00000CF03008130ED0464031281E803851010
:1012F00078CB05392C003402F70120EA020000B057
:101300000100B102001BB40100C00121C10111C5DF
:10131000023F3CC701B5360148F20100260101E059
:101320000F0F26240B0E0954A8460C17090F0700AF
:10133000E10F00191B0410072A473903060630384D
:101340000F360100B80101C0010EB00100C1041048
:10135000100202C006003500000102C50104D202DD
:101360000104CA0100EA0180B903FF83577F967F19
:1013700096B60125C0065050013C1E08B407024035
:10138000002A2A0D787F01F20B16160308080808B8
:1013900010041616FD03110235B2050C0C00333390
:1013A000B70135BB012BC00104C20201FFC301110B
:1013B000C40120C6010FD002A4A1E00ED000050E8A
:1013C000150D3743470915121619E10ED000050D0A
:1013D0000C062D44400E1C1816193A01557F0AB010
:1013E0000103E2013FC00122E20100B00100C0019F
:1013F0000AB0010000000000000000000000000032
:1014000000000000FFFF0F00000400620800080851
:101410000003000C01030B5A020306090303171013
:101420000403002305030017060309630703090CDF
:1014300008030C10090332221000160011000101EC
:101440001200000013000100000130030101370207
:101450000301000D800200610201B0C1FFFF3200F4
:10146000010000010200000103003010090001002A
:101470000C000000900000800F000000100200002F
:101480001102EF001202000013028F01000500009C
:101490000105000002055F000104010004040000D2
:1014A000FFFF320007000001FFFF320000020000D2
:1014B0000102000000000000000000000000000029
:1014C00000000100A4000100FFFF0A0060000027E7
:1014D00008000808300014023100153732000406F5
:1014E0003300160E34001122350000153600078532
:1014F000370007143800031439002000900015004D
:101500001000100411003702290046002A0046008E
:10151000070000001200890113000011FFFF960070
:101520001200B901010000010200000203003010A6
:10153000090001000A0000000D0000000E0030004C
:10154000610001006A0000008000000081000000CE
:1015500082005F009200000193000107FFFF50002E
:1015600007000001E500F078010000010200000220
:10157000030030100400000005000000080007020E
:10158000090000000A0000000C0000000D0000002F
:101590000F00000010000000110007001200000002
:1015A0001300000007000100FFFFC80010009016A4
:1015B00011002702FFFF320012000D00FFFF320072
:1015C0001300001229000A002B000D00FFFF32005B
:1015D0002000000021000000300000003100040461
:1015E0003200030035000504360008083700070400
:1015F00038000303390007073C0004053D000808D4
:1016000060000027610001006A0000008000000007
:1016100081000000820000008300000084000000C0
:1016200085000000900010009200000007003301C8
:10163000E500008000000100010000010200000739
:10164000030030100400000008000202090000003E
:101650000A0000000C0000000D0000000F00000058
:10166000100000001100070012000000130000002D
:10167000FFFF32001000B01711000700FFFF0A0043
:1016800012003A01FFFF0A001300001A29000C00A3
:10169000FFFF0A00300000003100050532000400A1
:1016A0003500060036000707370005013800020044
:1016B000390007073C0004073D000708600000A749
:1016C000610001006A00000021000000200000000D
:1016D0008000000081000000820000008300000004
:1016E00084000000850000009000100092000000BF
:1016F000930003009500100197000000980000007F
:1017000007007301FFFF3200FF000100F300080033
:10171000000001000100000102000007030030107A
:10172000080002030900000010000000110007007B
:101730001200000013000000FFFF32001000B01480
:10174000FFFF0A0011000700FFFF0A0012008E00D1
:101750001300000C29001500FFFF0A0030000000F4
:101760003100070132000000350003023600020498
:101770003700000038000702390000003C00030277
:101780003D000304600000A76100010090002900F3
:1017900007003301FFFF3200150030009A001000EF
:1017A000110020001000283412000200130038102D
:1017B000FFFF280012001200FFFF28001000203455
:1017C00013004530FFFF46003000000031000204E6
:1017D0003200070333000403340004003500010421
:1017E00036000707370005033800100639001006D9
:1017F0000100000102000003030030100800080887
:101800000A000800600000276100010090003E010E
:101810009200000193000001A0000030A30010001E
:101820000700010007002100070023000700330024
:101830000700330111001A001200213113006C005F
:101840001400494210000008FFFF0A0011001A01AD
:10185000FFFF0A0011001A03FFFF0A0011001A0718
:10186000FFFF0A0011001A0FFFFF0A0011003A0FD4
:10187000FFFF1E00010028010200000103003010DC
:1018800007001210080003030B0000110C000000F9
:101890000F0001181500200050000101510003063F
:1018A00052000804530000005400050655000604C9
:1018B000560003035700030358001000590000109E
:1018C00007001200FFFF28000700130007001700A1
:1018D00000000000250028002B000000000024006C
:1018E00027002A00C5077F07303932000000002397
:1018F0000026002900040404040404040402020273
:101900000202020303030303030102040810204040
:1019100080010204081020010204081020000000C9
:10192000080002010000030407000000000000009E
:101930000000D424412D11241FBECFEFD8E0DEBF1C
:10194000CDBF22E0A8E7B1E001C01D92A33DB207E0
:10195000E1F711E0A0E0B1E0ECE6F0E602C00590AE
:101960000D92A837B107D9F71CE0CAE9DCE004C042
:101970002197FE010E94E32DC939D107C9F70E94C2
:1019800032250C9429300C940000E1E2F9E18491B5
:10199000EDE0F9E19491E9EFF8E1E491EE23C1F192
:1019A000882339F08330E9F090F4813001F18230FE
:1019B00011F1F0E0EE0FFF1FE551F74EA591B49144
:1019C000EC91E92381E090E029F580E008958730EB
:1019D000A9F08830C9F0843061F7809180008F7D54
:1019E00003C0809180008F7780938000E2CF84B520
:1019F0008F7784BDDECF84B58F7DFBCF8091B00023
:101A00008F778093B000D5CF8091B0008F7DF9CFD4
:101A100080E090E0089508952091B3023091B402DF
:101A2000009789F0232B51F42091A8023091A9024C
:101A30002A5F3F4F3093A9022093A8029093B402EB
:101A40008093B3020895232BC9F32091A80230910B
:101A5000A90226503109EECF8091A00187FD7EC0FA
:101A600080919F0190E0FC01E75FF64E24918B503E
:101A7000974EFC018491882399F090E0880F991F7C
:101A8000FC01E652F74EA591B491FC01E053F74EEC
:101A9000859194918FB7F894EC91E22BEC938FBFE2
:101AA0008091A0018823D1F18230F1F18130F1F4ED
:101AB00080918100887F8360809381008EE895E229
:101AC00090938900809388008AE190E0A0E0B0E0E4
:101AD0008093970190939801A0939901B0939A01F4
:101AE00080916F00826080936F0008959EE882303D
:101AF00009F1811133C097BD8AE190E0A0E0B0E028
:101B000080939B0190939C01A0939D01B0939E01B3
:101B100080916E00826080936E00089585B5887F05
:101B2000856085BD97E5E7CF8091B10087608093A0
:101B3000B10097E59093B3008AE190E0A0E0B0E0B7
:101B40008093930190939401A0939501B093960193
:101B50008091700082608093700008950895FC0168
:101B6000538D448D252F30E0842F90E0821B930B02
:101B7000541710F0CF96089501970895FC01918DA8
:101B8000828D981761F0A28DAE0FBF2FB11D5D96AB
:101B90008C91928D9F5F9F73928F90E008958FEF4D
:101BA0009FEF0895FC01918D828D981731F0828D01
:101BB000E80FF11D858D90E008958FEF9FEF089558
:101BC000FC01918D228D892F90E0805C9F4F821BBC
:101BD00091098F7399270895FC01A48DA80FB92F3F
:101BE000B11DA35ABF4F2C91848D90E001968F7345
:101BF0009927848FA689B7892C93A089B1898C9164
:101C0000837080648C93938D848D981306C00288B2
:101C1000F389E02D80818F7D80830895EF92FF927C
:101C20000F931F93CF93DF93EC0181E0888F9B8DFF
:101C30008C8D98131AC0E889F989808185FF15C0B9
:101C40009FB7F894EE89FF896083E889F9898081DC
:101C50008370806480839FBF81E090E0DF91CF91AB
:101C60001F910F91FF90EF900895F62E0B8D10E0CD
:101C70000F5F1F4F0F731127E02E8C8D8E110CC03C
:101C80000FB607FCFACFE889F989808185FFF5CF87
:101C9000CE010E94EC0DF1CFEB8DEC0FFD2FF11D6D
:101CA000E35AFF4FF0829FB7F8940B8FEA89FB89C4
:101CB00080818062CFCFCF93DF93EC01888D882322
:101CC000B9F0AA89BB89E889F9898C9185FD03C09F
:101CD000808186FD0DC00FB607FCF7CF8C9185FF84
:101CE000F2CF808185FFEDCFCE010E94EC0DE9CFD0
:101CF000DF91CF91089581EF91E00E94E00D21E006
:101D0000892B09F420E0822F089580E090E0892B50
:101D100029F00E947B0E81110C94000008953FB7BA
:101D2000F89480918E0190918F01A0919001B091D3
:101D3000910126B5A89B05C02F3F19F00196A11D62
:101D4000B11D3FBFBA2FA92F982F8827BC01CD0105
:101D5000620F711D811D911D42E0660F771F881F64
:101D6000991F4A95D1F708958F929F92AF92BF9293
:101D7000CF92DF92EF92FF926B017C010E948F0E57
:101D80004B015C01C114D104E104F104B9F00E94DB
:101D90008F0E681979098A099B09683E734081058D
:101DA000910580F321E0C21AD108E108F10888EE1C
:101DB000880E83E0981EA11CB11CE4CFFF90EF9029
:101DC000DF90CF90BF90AF909F908F900895AF928B
:101DD000BF92CF92DF92EF92FF920F931F93CF9318
:101DE000DF936C017B018B01040F151FEB015E017A
:101DF000AE18BF08C017D10759F06991D601ED910F
:101E0000FC910190F081E02DC6010995892B79F7AD
:101E1000C501DF91CF911F910F91FF90EF90DF905F
:101E2000CF90BF90AF9008954398429825B12C7FF2
:101E3000392F3370232B25B92BB123709C7F922B24
:101E40009BB94198419A95B19C7F282F2370922B82
:101E500095B99BB193708C7F892B8BB94198419A2E
:101E6000429AFA01615078F0219195B19C7F822FBE
:101E70008370982B95B98BB183702C7F822B8BB993
:101E80004198419AEFCF439A0895DF92EF92FF92E3
:101E90000F931F93CF93DF93CDB7DEB768970FB63D
:101EA000F894DEBF0FBECDBF7C018B01F70184919A
:101EB0003196D490F2E0EF0EF11C8F3779F0DE010D
:101EC000119630E020E0AD012D1528F5F701E20F65
:101ED000F31FE491ED932F5F3F4FF6CF6D2D70E030
:101EE00090E080E00E94B40ED12CED2DF0E032960F
:101EF0000E1B1F0B10161106CCF268960FB6F89445
:101F0000DEBF0FBECDBFDF91CF911F910F91FF902C
:101F1000EF90DF900895ED0CF11C6D2D90E00E9484
:101F2000140FE3CF4398429825B12C7F392F33709B
:101F3000232B25B92BB123709C7F922B9BB9419801
:101F4000419A95B19C7F282F2370922B95B99BB114
:101F500093708C7F892B8BB94198419A429A85B1B5
:101F60008C7F972F9370892B85B98BB183707C7F81
:101F7000782B7BB94198419A85B18C7F962F9370CD
:101F8000892B85B98BB183706C7F682B6BB94198B5
:101F9000419A439A089581E08093920184B18360CD
:101FA00084B98AB18C6F8AB9389A399A3A9A3B9A2D
:101FB0003C9A439A409A419A449A62E370E080E0E6
:101FC00090E00E94B40E449864E670E080E090E0F7
:101FD0000E94B40E449A64E670E080E090E00E94B3
:101FE000B40E70E060E080EB90E00C94920FCF9321
:101FF000DF93C82FD62F80919201811102C00E94D9
:10200000CB0F4398429885B18C7F85B98BB1837093
:102010008BB94198419A95B19C7F8C2F8370982BF6
:1020200095B98BB18370CC7F8C2B8BB94198419A39
:10203000429A84B18C7F84B98AB183708AB961E095
:1020400070E080E090E00E94B40E409A4098409882
:10205000409893B139B1409A409A4098409840983E
:1020600083B129B1409AD15080F7409A439A44B144
:10207000436044B94AB14C6F4AB993703C7F932B8B
:1020800083702C7F822BDF91CF910895FF920F9365
:102090001F93CF93DF938C0160E00E94F70FEC0158
:1020A00061E0C8010E94F70FF82E62E0C8010E94AB
:1020B000F70FAE0170E060E0742F662755274427C4
:1020C00000E030E020E0402B5F29622B732B292FAA
:1020D00030E0C901B0E0A0E08A019B01082B192B78
:1020E0002A2B3B2BC901B801DF91CF911F910F9192
:1020F000FF9008950F931F93CF93DF938C0160E0BF
:102100000E94F70FEC0161E0C8010E94F70F8C01FB
:10211000BE0190E080E0CB017727662730E020E029
:10212000602B712B822B932BDF91CF911F910F91FD
:1021300008950F931F93CF93DF93EC018B01FE0162
:1021400085919491FE0132962496659174918F3F0A
:10215000980771F490E080E00E94B40E04501109D9
:102160001016110664F3DF91CF911F910F9108951E
:102170000E94920FF3CFFC01262F358D868D82951C
:102180008170982F9627692F70E072A361A330FFAA
:102190000CC0821307C080E290E050E040E060E0B5
:1021A0000C94140F81E290E0F8CF878D90A18339D1
:1021B00027E7920741F058F4843521E0920791F027
:1021C00080329445C1F4626081E094E012C08632AE
:1021D00023E99207C1F3893025EB9207A1F38532F9
:1021E000924949F4660F771F660F771F636187E096
:1021F00090E00C94920F81E690E0FBCF8F929F923B
:10220000AF92BF92CF92DF92EF92FF920F931F9304
:10221000CF93DF9300D000D0CDB7DEB77C014B0168
:102220005A016901FC01878D90A18732F3E99F076C
:1022300009F040C0F7018689823099F5F0E2AF0ECF
:10224000B11C005E1F4FF701858D80FF4AC085A538
:1022500099828A82DB82CC82AE014F5F5F4F64E05D
:1022600090E00E94140FF70181A9B982AA821B8312
:102270000C83AE014F5F5F4F64E090E00E94140F4B
:102280000F900F900F900F90DF91CF911F910F91B2
:10229000FF90EF90DF90CF90BF90AF909F908F9086
:1022A0000895833081F620E2820E911C80E2C80EF0
:1022B000D11CC9CF8632954131F6F701868980FF5E
:1022C000C2CFC801841B950B19F40F5F1F4FBBCF02
:1022D0006217730709F0B7CF6B01C80ED91E8A01C8
:1022E000B2CFB40187A190A50E94920FB501F7016A
:1022F00081A592A50E94920FC814D90421F40A1551
:102300001B0509F4BDCFF701858D85FF08C08689BF
:1023100080FF1EC0102F0027A02AB12A8501B4011A
:10232000F70185A596A50E94920FB501F70181A935
:1023300092A90E94920FB601F70187A590A90E9469
:10234000920FB801F70183A994A90E94920F98CF28
:10235000DC2CCC248C289D286401E1CFAF92BF9265
:10236000CF92DF92EF92FF920F931F93CF93DF9361
:10237000EC0180918201882349F0C701880F991FE1
:102380008E739927E1ECEE22E82AF92A37FF05C07F
:10239000620F731F319521953109260F371F77FF83
:1023A00002C070E060E088859985281739070CF431
:1023B000C9016C01C61AD70A17FF05C0400F511F8B
:1023C000119501951109040F151F57FF02C050E028
:1023D00040E02A853B85021713070CF49801590148
:1023E000A41AB50A8901015011099C012150310933
:1023F000CE010E94FE10439842983BA58CA525B1C2
:102400002C7F982F9370292B25B99BB193708C7FCB
:10241000982B9BB94198419A95B19C7F832F8370EB
:10242000982B95B98BB183703C7F832B8BB94198E6
:10243000419A429ACA14DB042CF09A2D8B2D560136
:10244000C92ED82E9F2D4F2D43709C7F5E2D53702B
:102450002E2D2C7FE22E1C141D04E4F4950185B171
:102460008C7F842B85B98BB18370892B8BB9419874
:10247000419A85B18C7F852B85B98BB183708E296C
:102480008BB94198419A2150310949F781E0C81A26
:10249000D108E1CF439A8D8D80FF08C08F8D98A120
:1024A0008632954191F48E8980FF0FC00A851B8585
:1024B00001501109288539852150310950E040E04B
:1024C00070E060E0CE010E94FE10DF91CF911F917D
:1024D0000F91FF90EF90DF90CF90BF90AF90089555
:1024E000EF92FF920F931F93CF93DF937C01E9014B
:1024F00077FD2AC057FD28C0FC01808591856817AB
:10250000790714F58285938548175907ECF4809173
:102510008201882341F0C901880F991F8E73992782
:10252000C17CC82BD92B8A019B01C7010E94FE10D8
:10253000BE01F70183A594A5DF91CF911F910F9163
:10254000FF90EF900C94920FDF91CF911F910F911C
:10255000FF90EF900895EF92FF920F931F93CF9308
:10256000DF93CDB7DEB72A970FB6F894DEBF0FBE64
:10257000CDBF7C01862F8370F701868B962F9170DB
:1025800060FFF1C026813781F701318720879923C9
:1025900009F4ECC024813581F7013387228782302A
:1025A00009F4E9C0833009F4E8C0813009F4E1C0DE
:1025B00088E48A87F701258D368D30FF03C08A8530
:1025C00080588A8731FF04C08A8590E489278A87EA
:1025D00033FF04C08A8598E089278A87F701878DB1
:1025E00090A120FFFAC08431F8E69F0709F0C7C028
:1025F0009A85892F88728A871F82892F8595807492
:10260000282F2260892F90E09595879580729927D1
:10261000822B88878BE38987AE01495F5F4F63E038
:1026200086EB90E00E94140F2AE230E0F70130A719
:1026300027A38BE290E092A781A74CE250E054A739
:1026400043A736A725A730AB27A792AB81AB94ABA6
:1026500083ABAE01465F5F4F61E086E390E00E948E
:10266000140F8A8590E0F70194A383A3F70186896C
:1026700080FF1CC0858D968D92FD18C087A190A506
:1026800021A532A530A727A392A781A785A596A546
:1026900021A932A936A725A792AB81AB87A590A91E
:1026A00023A934A930AB27A794AB83ABF7010285EC
:1026B000138501501109208531852150310950E0E1
:1026C00040E070E060E0C7010E94FE10F701668103
:1026D0007781878D90A110E000E020E08732F3E958
:1026E0009F0769F4F7012689225010E000E02230AC
:1026F00010F400E210E020E230E0201B310BF70183
:10270000458D40FF26C119820A837B836C831D821D
:102710002E83AE014F5F5F4F66E083E390E00E943F
:10272000140F19820A83AE014F5F5F4F62E087E3A7
:1027300090E00E94140FF701858D80FF07C050E0E4
:1027400040E060E083E190E00E94140F2A960FB60B
:10275000F894DEBF0FBECDBFDF91CF911F910F91D7
:10276000FF90EF900895248135810ECF2681378127
:1027700013CF88E21ECF88E91CCF88EF1ACF8336AB
:1027800029E1920749F0813834E9930729F0813132
:10279000E5E19E0709F048CF2A8527FF02C02160A6
:1027A0002A872A8526FF02C022602A878336F9E11C
:1027B0009F0721F48A858F738A8736CF813824E971
:1027C000920719F48A858F72F7CF8131954109F00C
:1027D0002BCF8A858F7E806CEFCF2A85622F022EC9
:1027E000000C770B8339F7E79F0761F008F042C0D0
:1027F0008435E1E09E0709F469C08032F4E59F0763
:1028000009F041C020E032E0F70130A727A321E022
:1028100032E032A721A722E032E034A723A720E14B
:1028200032E036A725A721E132E030AB27A722E12D
:1028300032E032AB21AB23E132E034AB23AB66278D
:1028400070788632F3E99F0709F480C0803294459E
:1028500009F47CC080E09AE6682B792B80E094E054
:102860000E94920F6A85F4E06F9FB00111246627E1
:10287000717054C0863223E9920721F2893035EB1A
:10288000930709F4BFCF80E290E0F70190A787A3F8
:1028900081E290E092A781A782E290E094A783A7CB
:1028A00080E590E096A785A781E590E090AB87A7AB
:1028B00082E590E092AB81AB83E590E094AB83AB93
:1028C00066277078776280E690E0CACF87E390E071
:1028D000F70196A785A786E390E090AB87A789E3E9
:1028E00090E092AB81AB88E390E094AB83AB80E265
:1028F00090E090A787A381E290E092A781A782E26F
:1029000090E094A783A7662772706862F4E02F9F17
:10291000C001112488279170682B792B81E090E009
:102920000E94920F8A85682F70E07595679575955E
:1029300067956870772783FD70616063F70174A302
:1029400063A383E090E00E94920F90CE80E095E335
:1029500083CF8339F7E79F07D9F1F8F4803234E564
:102960009307B1F18338E7E79E0739F18435914049
:10297000F9F4600F711F6150710981E390E00E94CA
:10298000920FB80182E390E00E94920F70E060E045
:1029900083E390E00E94920FD9CE863223E992071A
:1029A000B9F0893035EB930799F08532924909F3F4
:1029B000F70161A172A1626003C0F70161A172A178
:1029C00081E690E00E94920FB8018AE690E0E2CFA3
:1029D000F70161A172A1626081E094E00E94920F10
:1029E000B80184E094E0D6CFEF92FF920F931F934B
:1029F000DC01ED91FC9100A0F1A1E02D780101E056
:102A000010E009951F910F91FF90EF9008950895A0
:102A1000FC016370668B84819581268137816130EA
:102A200039F0633029F091878087338722870895B2
:102A3000318720879387828708952F923F924F9204
:102A40005F926F927F928F929F92AF92BF92CF923E
:102A5000DF92EF92FF920F931F93CF93DF93CDB747
:102A6000DEB76A970FB6F894DEBF0FBECDBF9A8F60
:102A7000898F7A8369834A01D22E18870F833701A1
:102A8000BC2CDC0159962D913C915A9721153105AA
:102A900009F015C118968D919C91199768177907BF
:102AA0000CF0D7C11A968D919C91481759070CF0DC
:102AB000D0C14C2C512CB6E0CB9E600D711D112461
:102AC0007C876B87161617060CF0C3C1EA2DF0E061
:102AD000FA87E98793E0EE0FFF1F9A95E1F7F88BED
:102AE000EF87CF01840F951F181619060CF0B1C19E
:102AF000A98DBA8D58968C91811104C0BFEABD157D
:102B000008F4D394A98DBA8DED91FC9111970284AC
:102B1000F385E02DCD010995B5E0DB9EC0011124C0
:102B2000E981FA81FC83EB83312C212C9C01215E0D
:102B3000324F388F2F8B4A2D50E05E8B4D8BEF89B3
:102B4000F88DE20DF31D44919E828D82D12CC12C13
:102B500069817A81620D731D7A8B698B842F90E075
:102B60009C8B8B8BE98DFA8DA081B18140FF82C057
:102B7000F1E0BF126FC0AF126DC01C96ED91FC91D9
:102B80002F813885A4014C0D5D1D69897A89898D55
:102B90009A8D0995EB89FC89F595E7954E2F5FEFA6
:102BA000C51AD50A6D817E818D899E89680F791F2E
:102BB0007E836D8398E0C916D10481F6AFEF2A1A9F
:102BC0003A0AEB81FC81E40DF51DFC83EB83F5E013
:102BD0002F16310409F0B3CF2F813885261537051C
:102BE000B9F0A98DBA8DED91FC91B1E0BB1257C03F
:102BF000AB1255C069817A816B5F7F4F0088F18984
:102C0000E02D830128E030E0A401898D9A8D09959B
:102C1000A98DBA8DED91FC9111970688F789E02D69
:102C2000CD016A960FB6F894DEBF0FBECDBFDF911F
:102C3000CF911F910F91FF90EF90DF90CF90BF90B9
:102C4000AF909F908F907F906F905F904F903F904C
:102C50002F9009941E96ED91FC91EF80F8840985E0
:102C60001A8592014D815E816B817C81898D9A8D5F
:102C7000099590CF2F8138852615370509F48ACF1D
:102C800031E0B31207C0A31205C01C96ED91FC9170
:102C9000930178CF1E96ED91FC917301E0CF6B8587
:102CA0007C85641975090684F785E02D73010F850D
:102CB00018899201A401898D9A8D0995A9CFF901EE
:102CC00034969491329745915491D91AB7E0DB9E8E
:102CD000400D511D1124F901259134913C8B2B8B12
:102CE000FA0125903490FA0132967490319634911D
:102CF000398B329664903196449041E04C1518F02F
:102D00004A1508F07FC0662D062C000C770B7C83DB
:102D10006B83842D042C000C990B9E838D83A98DCD
:102D2000BA8DED91FC9111970284F385E02DCD01D0
:102D30000995512CD12CC12CEA2DF0E0FA87E987B6
:102D40002B2D30E03C872B87A401440D511D47FCFF
:102D50005A95588F4F8B69817A81660D711D67FC7A
:102D60007A957E876D877989C71608F051CF2C2D0B
:102D700030E04D815E81420F531FA985BA854A9F7D
:102D8000C0014B9F900D5A9F900D1124FC01E80D3E
:102D9000F91DF88BEF87852D612C4F89588D420FD7
:102DA000531F5E8B4D8B671408F050C0442443942E
:102DB000480E877041F4C1010196EB89FC89E20D50
:102DC000F31DD4901C01D7FE19C0A98DBA8DED91C9
:102DD000FC91662D70E0B1E0BB1219C0AB1217C0B8
:102DE0002D853E85620F731F0484F585E02D2F81AC
:102DF00038854D895E89898D9A8D0995DD0C63949E
:102E0000842DD1CF1E821D821C821B8288CF4B81D4
:102E10005C81640F751FAB85BC856A9FC0016B9F89
:102E2000900D7A9F900D112469817A81680F791F26
:102E30000684F785E02DEF80F88409851A859D01C9
:102E40004F855889898D9A8D0995D8CF570CC39491
:102E50008ACF6A960FB6F894DEBF0FBECDBFDF9162
:102E6000CF911F910F91FF90EF90DF90CF90BF9087
:102E7000AF909F908F907F906F905F904F903F901A
:102E80002F9008958F929F92AF92CF92EF92FF92E0
:102E90000F931F93CF93DF93EC01262F898D9A8D8B
:102EA000009709F051C06A30D1F41D861C868D89C7
:102EB00048E0849F900111248E859F85820F931F87
:102EC0009F878E8781E090E0DF91CF911F910F91D6
:102ED000FF90EF90CF90AF909F908F9008956D30BE
:102EE00089F3CC88AD888F898823C1F08C859D8536
:102EF00036E0C39E800D911D1124488559854817E1
:102F0000590764F44E855F851D861C8638E0A39EB4
:102F1000C0011124840F951F9F878E87EA88FB8844
:102F2000088919894E855F856C857D85CE010E9453
:102F30001D152C898C859D8546E0249F800D911D53
:102F400011249D878C87BECF6A3069F41D861C864C
:102F5000FC013696E4912D898E859F85E29F800D38
:102F6000911D1124ADCF6D3009F4ACCFFC01349626
:102F70003491631708F4A6CF3196E491E61708F46C
:102F8000A1CFFC01329685909490462F431B342F9D
:102F900047E0349F800C911C1124F4013296349147
:102FA0003196E4913323A9F1EE2399F1CC88F40111
:102FB0003596E491AD884F89442301F10E2E000C23
:102FC000FF0BE30FF11DCE9EA001CF9E500D1124EB
:102FD0006C857D85460F571F688579856417750751
:102FE0006CF44E855F851D861C86FC013696E49147
:102FF000AE9E400D511D11245F874E87EA88FB88E5
:10300000088919894E855F856C857D85CE010E9472
:103010001D15F4013496E4912C898C859D85E29FE1
:10302000800D911D11248DCF6F927F928F929F9270
:10303000AF92BF92CF92DF92EF92FF920F931F93C6
:10304000CF93DF93EC016B015A0139014801E8810C
:10305000F9810284F385E02D0995E881F9810288E0
:10306000F389E02D87019301A501B601CE010995F1
:10307000A501480D591D41505109E881F981028887
:10308000F389E02D9301B601CE010995E881F9811C
:103090000088F189E02D9401A501B601CE010995C2
:1030A000C60CD71CB60161507109E881F98100880E
:1030B000F189E02D9401A501CE010995E881F981FE
:1030C0000688F789E02DCE01DF91CF911F910F91F6
:1030D000FF90EF90DF90CF90BF90AF909F908F9038
:1030E0007F906F9009946F927F928F929F92AF9290
:1030F000BF92CF92DF92EF92FF920F931F93CF93E5
:10310000DF935C01EB016A01490138018701DC01B1
:10311000ED91FC916217730719F5641675062CF092
:10312000962D872D3A01C92ED82E960126193709DA
:103130002F5F3F4F048CF58DE02DA301BE01C5012B
:103140000995DF91CF911F910F91FF90EF90DF9044
:10315000CF90BF90AF909F908F907F906F90089589
:103160004615570591F42617370724F0892D4B0192
:10317000C22FD82F9E01281939092F5F3F4F068C87
:10318000F78DE02DA601B401DACF0284F385E02D9E
:103190000995D501ED91FC910488F589E02D830115
:1031A0009401A601BE01C5010995D501ED91FC91DF
:1031B0000688F789E02DC501DF91CF911F910F910E
:1031C000FF90EF90DF90CF90BF90AF909F908F9047
:1031D0007F906F900994EF92FF920F931F93DC0101
:1031E0001A960D911C911B9718962D913C91199749
:1031F000ED91FC9100A0F1A1E02D7B0150E040E0B9
:1032000070E060E009951F910F91FF90EF90089595
:103210004F925F926F927F928F929F92AF92BF92E6
:10322000CF92DF92EF92FF920F931F93CF93DF9392
:103230006C012B015A0139014801DC01ED91FC912F
:103240000284F385E02D0995E201640C751CD6011A
:10325000ED91FC91C615D7055CF40088F189E02D4D
:1032600087019401A501BE01C60109952196EFCF02
:103270000688F789E02DC601DF91CF911F910F914C
:10328000FF90EF90DF90CF90BF90AF909F908F9086
:103290007F906F905F904F9009948F929F92AF9222
:1032A000BF92CF92DF92EF92FF920F931F93CF9333
:1032B000DF93EC015B014A016901E881F981028435
:1032C000F385E02D099595012C0D3D1D2150310907
:1032D000E881F9810488F589E02D78018401A40151
:1032E000B501CE010995E881F9810688F789E02DBD
:1032F000CE01DF91CF911F910F91FF90EF90DF9062
:10330000CF90BF90AF909F908F9009948F929F9293
:10331000AF92BF92CF92DF92EF92FF920F931F93E3
:10332000CF93DF93EC015B014A0169017801E881E9
:10333000F9810284F385E02D0995C80CD91C86011A
:1033400001501109E881F9810488F589E02D950182
:10335000A401B501CE010995E881F9810688F789B4
:10336000E02DCE01DF91CF911F910F91FF90EF9053
:10337000DF90CF90BF90AF909F908F900994EF9285
:10338000FF920F931F93DC01ED91FC9100A0F1A13E
:10339000E02D09951F910F91FF90EF9008950F93E5
:1033A0001F93DC01ED91FC91068CF78DE02D0995C2
:1033B0001F910F9108952F923F924F925F926F92BB
:1033C0007F928F929F92AF92BF92CF92DF92EF92B5
:1033D000FF920F931F93CF93DF93CDB7DEB7A897DC
:1033E0000FB6F894DEBF0FBECDBF78A76FA34A011A
:1033F00059011801DE86CD86261737070CF08EC1DD
:10340000E616F7060CF4A1C1621773075CF03FA142
:1034100028A5B8A6AFA2A32EB22E382F292FC401FB
:10342000832E922E2FA138A52E153F05E1F5881683
:10343000990654F0382F292F8815990514F4382D42
:10344000292D4C01832F922F281439042CF082153A
:1034500093050CF4C1011401821993099C012F5F9B
:103460003F4F0D851E854FA158A5B1018AE992E015
:103470000E94CF19A8960FB6F894DEBF0FBECDBF3D
:10348000DF91CF911F910F91FF90EF90DF90CF9040
:10349000BF90AF909F908F907F906F905F904F9074
:1034A0003F902F900895322D232D1C01832F922FB2
:1034B0003E2D2F2DEFA0F8A43FA328A79401221999
:1034C0003309A5014E195F09BC01621973097C8B90
:1034D0006B8BAFA1B8A5AE19BF09BE83AD83BC018C
:1034E000681979097E8B6D8B8FA198A58A199B0924
:1034F000988B8F87AFA1B8A5AA15BB0509F489C021
:10350000B501615071097A8769876701412C512C97
:10351000320119821A821B821C826B897C89072ED8
:10352000000C880B990B6F8B788F898F9A8FCA014B
:10353000550FAA0BBB0B8B8F9C8FAD8FBE8F4D8110
:103540005E81052E000C660B770B4F8F58A369A385
:103550007AA3B901330F880B990B6BA37CA38DA3BE
:103560009EA389859A858C159D050CF457C06981A9
:103570007A818B819C812B8D3C8D4D8D5E8D0E943F
:10358000C42D8101020F131FC301B2012F8D38A179
:1035900049A15AA10E94C42DB101620F731F298154
:1035A0003A814B815C818BA19CA1ADA1BEA1280F6A
:1035B000391F4A1F5B1F29833A834B835C832F8902
:1035C000388D498D5A8D420E531E641E751E60172C
:1035D00071072CF0962F872FB801092F182F98010B
:1035E000261B370B2F5F3F4F0D851E85A6018AE9ED
:1035F00092E00E94CF193FEFC31AD30AB2CF382D01
:10360000292D4C01832F922F3FA128A5B8A6AFA248
:10361000A8C08FA198A59A87898777CF4D895E89A1
:10362000052E000C660B770B49875A876B877C87C2
:1036300096012A193B09AD89BE890E94E92D69834B
:103640007A838B839C8396012E193F09AB89BC89B1
:103650000E94E92D2B013C016F857889072E000C13
:10366000880B990B6F87788B898B9A8B8D819E81C4
:10367000092E000CAA0BBB0B8D839E83AF83B887EA
:10368000AFA1B8A5AC15BD050CF4F4CE69817A8163
:103690008B819C812F85388949895A890E94C42D44
:1036A0007401E20EF31EC301B2012D813E814F81F0
:1036B00058850E94C42DB101620F731F29813A8180
:1036C0004B815C8189859A85AB85BC85280F391F24
:1036D0004A1F5B1F29833A834B835C832F89388D74
:1036E000498D5A8D420E531E641E751E6E157F0540
:1036F0002CF0962F872FB701E92EF82E9701261B65
:10370000370B2F5F3F4F0D851E85A6018AE992E09A
:103710000E94CF193FEFC31AD30AB2CFE216F306C5
:103720000CF080CE4FA158A5E416F5060CF467CF37
:10373000232D14014C01802F922F3A2D2B2D5A014D
:10374000F8A6EFA2E32EF22E62CEE216F3060CF4F8
:10375000B5CE322D232D1401832E922E3E2D2F2DEA
:103760007501A32EB22EAACE0F931F93DC01ED910B
:10377000FC91048CF58DE02D09951F910F91089512
:10378000DC01ED91FC910084F185E02D09942F92EC
:103790003F924F925F926F927F928F929F92AF92E1
:1037A000BF92CF92DF92EF92FF920F931F93CF932E
:1037B000DF9300D000D000D0CDB7DEB73C016A0166
:1037C0003E832D83FC82EB825801A41AB50AB7FE12
:1037D00003C0B194A194B1088D809E80861A970A87
:1037E00097FE03C09194819491088A149B045CF025
:1037F000902F812F0D811E819D838E839C2D8D2D79
:103800006B01692F782F0C151D055CF09D818E8151
:103810007E836D83692F782F902F812F8601C92E8B
:10382000D82E1601201A310A2B012D813E81421A11
:10383000530A57FE03C0519441945108710137FE59
:1038400003C03FEFE31AF30AF594E7948D819E815C
:10385000861797075CF5A1E0B0E0BA83A983C0168C
:10386000D1064CF1D301ED91FC910484F585E02D56
:103870002B813C81A8016D817E818A149B041CF000
:103880004D815E81B801C3010995E418F508F7FE82
:103890000AC02D813E8189819A81280F391F3E837C
:1038A0002D83E20CF31C0F5F1F4FD9CF2FEF3FEF9B
:1038B0003A832983D4CF26960FB6F894DEBF0FBE85
:1038C000CDBFDF91CF911F910F91FF90EF90DF90CF
:1038D000CF90BF90AF909F908F907F906F905F90B0
:1038E0004F903F902F900895089590E080E00895C4
:1038F000EF92FF920F931F938FE1E82EF12C01E3DB
:1039000010E021E330E048E650E06BE271E08AE944
:1039100092E00E94AE11EE24EA94FE2C01E910E040
:1039200024E431E04EE650E064E471E08AE992E09C
:103930000E94731826E331E04EE650E060E471E047
:103940008AE992E00E94731822E531E04EE650E0E9
:1039500068E471E08AE992E00E9473181F910F9168
:10396000FF90EF900895CF92DF92EF92FF920F9326
:103970001F93C12C88EFD82EEE24E394F12C07E797
:1039800011E022E330E04FE851E062E370E08DE5C2
:1039900091E00E94DB19D12CC12C24E0E22EF12C05
:1039A0002FE230E04CE851E06FE270E080E691E019
:1039B0000E94DB19C12C38EFD32E4AE0E42EF12C03
:1039C0002CE230E046E851E06CE270E086E691E0FF
:1039D0000E94DB19CC24CA94DC2C6FE0E62EF12C7B
:1039E0002AE230E043E851E06AE270E08AE691E0E2
:1039F0000E94DB191F910F91FF90EF90DF90CF9005
:103A00000895CF92DF92EF92FF920F931F93CF937F
:103A1000DF93EC010E942C0D90EEC92E97E0D92E79
:103A20002EE2E22EF12C0DE011E024E030E04DE03A
:103A300051E069E170E089EF90E00E94DB1908E154
:103A400011E029E130E04CE251E064E070E088E10F
:103A500091E00E94DB19219709F50DE011E024E0C7
:103A600030E04DE051E069E170E089EF90E00E94C4
:103A7000DB1908E111E029E130E04CE251E064E0BB
:103A800070E088E191E00E94DB19DF91CF911F91F6
:103A90000F91FF90EF90DF90CF900895D12CC12C23
:103AA0008EE2E82EF12CD9CFEF92FF920F931F9365
:103AB000DC011A960D911C911B9718962D913C9143
:103AC0001997ED91FC9100A0F1A1E02D7B0150E050
:103AD00040E070E060E009951F910F91FF90EF903A
:103AE0000895EF92FF920F931F93DC01ED91FC91EB
:103AF00000A0F1A1E02D7801890121E030E00995D5
:103B00001F910F91FF90EF900895EF92FF920F9306
:103B10001F9388E1E82E86ECF82E01E310E021E304
:103B200030E048E650E06EE571E08AE992E00E94FC
:103B300014189FE1E92EF12C0DE110E027E230E0AE
:103B400042E750E063E671E08AE992E00E941418CF
:103B500009E010E027E230E04CE750E063E671E076
:103B60008AE992E00E94141800E018EF2FE030E09C
:103B700048E750E06CE671E08AE992E00E94711D2E
:103B80002FE030E048E750E066E771E08AE992E034
:103B90000E94711D2FE030E048E750E060E871E0DE
:103BA0008AE992E00E94711D1F910F91FF90EF90A2
:103BB0000895CF93DF936115710539F0FC01C4813D
:103BC000D581209729F41092A101DF91CF9108951A
:103BD000615071096C177D0708F4EB01FC016081ED
:103BE0007181AE0181EA91E00E941A30CF55DE4F1B
:103BF0001882EBCFFB0101900020E9F73197AF016C
:103C0000461B570BDC01ED91FC910280F381E02D06
:103C10000994BC018AE992E00C94FA1D0F931F935A
:103C2000CF93DF938C01EB0184EE98E10E940C0DA1
:103C3000EAE9F2E01587048783E390E097878687B7
:103C4000D38BC28BD18BC08B81E0848B858B81EA37
:103C500091E0DF91CF911F910F910C94091EEF928B
:103C6000FF920F931F93FC01648175816F5F7F4FFB
:103C70000E94D91DF12CE12C02E310E02FE530E089
:103C800041E050E060E670E08AE992E00E94AE1107
:103C900060EE7FEF8EE690E01F910F91FF90EF9026
:103CA0000C940E1EEF92FF920F931F9380EEE82E5E
:103CB000FF24FA9401E310E020E330E048E650E00E
:103CC00069EF70E08AE992E00E94AE1188E19DE020
:103CD0000E940C0DEAE9F2E085E091E09587848787
:103CE0008BE890E097878687138A128A118A108A58
:103CF00082E0848B858B87E491E01F910F91FF9088
:103D0000EF900C94091EEF92FF920F931F93CF93A5
:103D1000DF93E12C88EFF82E01E310E020E330E0A0
:103D200046E350E069EF70E08AE992E00E94AE114C
:103D300088E19DE00E940C0DCAE9D2E00FEF10E08F
:103D40001D870C878CE490E09F878E878FEF9FEF15
:103D50009B8B8A8B998B888B81E08C8B8D8B89E4F4
:103D600091E00E94091E1D870C878DE590E09F87DA
:103D70008E871B8A1A8A198A188A8DE491E0DF914E
:103D8000CF911F910F91FF90EF900C94091EEF922D
:103D9000FF920F931F93019709F0DCC0E12C88EF8D
:103DA000F82E01E310E021E330E046E350E06EE559
:103DB00071E08AE992E00E94AE11F12CE12C0AE454
:103DC00010E02BE731E04AE450E067E671E08AE971
:103DD00092E00E94731806E410E027E631E04AE41E
:103DE00050E067E671E08AE992E00E94731801E40E
:103DF00010E023E631E046E450E067E671E08AE94E
:103E000092E00E9473180CE310E025E631E041E4F3
:103E100050E063E671E08AE992E00E94731806E4DC
:103E200010E027E631E04CE350E065E671E08AE916
:103E300092E00E94731801E410E02AE631E046E4C3
:103E400050E067E671E08AE992E00E94731825E786
:103E500031E041E450E06AE671E08AE992E00E94D4
:103E6000731804E410E027E731E041E450E065E72F
:103E700071E08AE992E00E94731802E410E026E8FB
:103E800031E044E450E067E771E08AE992E00E94A3
:103E900073180AE410E02BE731E042E450E066E8F2
:103EA00071E08AE992E00E94731806E410E026E8C7
:103EB00031E044E450E067E871E08AE992E00E9472
:103EC000731828E831E044E450E067E871E08AE9DB
:103ED00092E00E9473180DE310E020E731E040E427
:103EE00050E060E771E08AE992E00E94731822E7EF
:103EF00031E04DE350E06EE671E08AE992E00E9425
:103F0000731888E19DE00E940C0D88E691E0909383
:103F1000A7028093A60281E690E09093A902809385
:103F2000A8028FEF9FEF9093AD028093AC02909325
:103F3000AB028093AA0281E08093AE028093AF022D
:103F400081E591E00E94091E1F910F91FF90EF9073
:103F50000C942C0DF12CE12C02E310E022E330E074
:103F600046E350E06DE571E08AE992E00E94AE110F
:103F7000EBCFEF92FF920F931F93019709F048C088
:103F8000E12C88EFF82E01E310E021E330E046E376
:103F900050E06BE271E08AE992E00E94AE1188E1A4
:103FA0009DE00E940C0D81E391E09093A702809325
:103FB000A6028CE490E09093A9028093A8028FEF70
:103FC0009FEF9093AD028093AC029093AB028093ED
:103FD000AA0281E08093AE028093AF0289E491E06F
:103FE0000E94091E8FE291E09093A7028093A6029F
:103FF0008DE590E09093A9028093A80285E591E079
:104000000E94091E1F910F91FF90EF900C942C0DB0
:10401000F12CE12C01E310E021E330E046E350E035
:104020006AE271E08AE992E00E94AE11EBCFEF9272
:10403000FF920F931F93FC01648175816F5F7F4F27
:104040000E94D91D8FEEE82E8BE7F82E06E210E0D5
:1040500024E330E046E350E068EB70E08AE992E068
:104060000E94141888E19DE00E940C0DEAE9F2E03C
:104070008CEB90E09587848784E590E0978786872E
:104080008FEE9BE7938B828B918B808B82E0848B6E
:10409000858B81EA91E00E94091E00E910E023E28D
:1040A00030E04EE550E061E070E08AE992E00E9485
:1040B000141890EEE92EFF24FA9404E610E02FE1A4
:1040C00030E048E850E063E070E08AE992E00E9466
:1040D000AE111F910F91FF90EF900895EF92FF9214
:1040E0000F931F93FC01648175816F5F7F4F0E9466
:1040F000D91D8FEEE82E8BE7F82E06E210E020E5C2
:1041000030E046E350E066E670E08AE992E00E9423
:10411000141888E19DE00E940C0DEAE9F2E08BE6BC
:1041200090E09587848784E590E0978786878FEE77
:104130009BE7938B828B918B808B82E0848B858B2A
:1041400081EA91E01F910F91FF90EF900C94091E6E
:10415000EF92FF920F931F93E12C88EFF82E01E06E
:1041600010E02DE431E041E050E06DE371E08AE9D8
:1041700092E00E94731802E310E02DE431E042E384
:1041800050E06DE371E08AE992E00E94731803E267
:1041900010E020E331E040E150E060E371E08AE9C3
:1041A00092E00E9473182AE531E040E150E06AE5B0
:1041B00071E08AE992E00E94731801E010E02DE3BB
:1041C00031E040E150E060E371E08AE992E00E9472
:1041D000731800E110E02AE531E041E050E06DE4C1
:1041E00071E08AE992E00E94731802E310E02DE486
:1041F00031E043E250E06AE571E08AE992E00E9432
:10420000731803E210E020E331E042E350E06DE395
:1042100071E08AE992E00E94731888E19DE00E94B3
:104220000C0DEAE9F2E08BE391E09587848785E263
:1042300090E09787868780E098EF938B828B918BB5
:10424000808B82E0848B858B89E591E00E94091E3A
:104250001F910F91FF90EF900C942C0D0E94FC2F5A
:104260000F931F93CF93DF93EC018881998100977F
:1042700059F02A813B812617370730F081E0DF9122
:10428000CF911F910F9108958B016F5F7F4F0E9417
:104290003F2F009759F0998388831B830A832C81D1
:1042A0003D81232B59F7FC011082E8CF80E0E7CF56
:1042B000CF93DF93EC0188819981009711F00E94E0
:1042C000B62E198218821D821C821B821A82DF91EF
:1042D000CF910895EF92FF920F931F93CF93DF93A7
:1042E000EC017B018A01BA010E94302181110BC0CF
:1042F000CE010E945821CE01DF91CF911F910F91E5
:10430000FF90EF9008951D830C83B70188819981F8
:104310000E941330F0CFEF92FF920F931F93CF9331
:10432000DF93CDB7DEB729970FB6F894DEBF0FBE87
:10433000CDBF8C01862FF801118210821382128268
:10434000158214824AE09E012F5F3F4F7901B90127
:1043500090E00E94542DF70101900020E9F7319779
:10436000AF014E195F09B701C8010E946A21299661
:104370000FB6F894DEBF0FBECDBFDF91CF911F9176
:104380000F91FF90EF900895CF93DF93EC01FB0125
:104390008617970749F0608171816115710541F0B9
:1043A000448155810E946A21CE01DF91CF91089509
:1043B0000E945821F9CFFC011182108213821282CF
:1043C00015821482FB0101900020E9F73197AF01BB
:1043D000461B570B0C946A21FC0180819181009748
:1043E00011F00C94B62E0895EF92FF920F931F9345
:1043F000CF93DF93CDB7DEB728970FB6F894DEBF23
:104400000FBECDBF8C011A8219821C821B821E82B4
:104410001D82BC01CE0101960E94C42186E78F83D4
:104420001886ED80FE808FEFE81AF80AB701CE01FA
:1044300001960E943021882309F45FC029813A81C6
:104440008D819E81BE01695F7F4F820F931F0E9405
:104450001330FE82ED82BE016F5F7F4FC8010E9464
:10446000C421CE0101960E94EC21F801648175817E
:104470006F5F7F4FC8010E94D91D8FEEE82E8BE73A
:10448000F82E06E210E023E630E046E350E061E07B
:1044900070E08AE992E00E94141888E19DE00E9491
:1044A0000C0D83E090E09093A7028093A60284E530
:1044B00090E09093A9028093A8028FEE9BE79093DF
:1044C000AD028093AC029093AB028093AA0282E08B
:1044D0008093AE028093AF0281EA91E00E94091EB0
:1044E00028960FB6F894DEBF0FBECDBFDF91CF91F7
:1044F0001F910F91FF90EF900895CE0101960E94B9
:104500005821A9CFEF92FF920F931F93CF93DF9380
:1045100000D000D000D0CDB7DEB7BC018EE892E06D
:104520000E94C4216BE571E0CE0101960E94DB215F
:10453000E0908E02F0908F02E114F10409F447C07C
:10454000009192021091930201151105B1F08D8135
:104550009E81080F191FB801CE0101960E943021DB
:104560008823A9F129813A818D819E81B701820F2B
:10457000931F0E9413301E830D83BE016F5F7F4F18
:104580008EE892E00E94C421CE0101960E94EC21A7
:104590008091920290919302009198021091990259
:1045A0008017910751F580918E0290918F02609152
:1045B000940270919502009791F06115710561F474
:1045C00001151105E9F1FC01808190E014C0CE01D4
:1045D00001960E945821D1CF0E940A300CC061156B
:1045E000710571F10115110559F1FB01808190E010
:1045F000919581959109892B19F1B8016F5F7F4FD2
:1046000084E992E00E94D91D70E060E081E090E0D2
:104610000E940E1E60919202709193026F5F7F4F15
:104620008EE892E00E94D91D60EE77E081E090E094
:104630000E940E1E6EE872E084E992E00E94C4219E
:1046400026960FB6F894DEBF0FBECDBFDF91CF9197
:104650001F910F91FF90EF9008951F920F920FB648
:104660000F9211242F933F938F939F93AF93BF93F8
:1046700080918A0190918B01A0918C01B0918D0164
:104680003091890123E0230F2D3758F50196A11DA4
:10469000B11D2093890180938A0190938B01A0938F
:1046A0008C01B0938D0180918E0190918F01A0912A
:1046B0009001B09191010196A11DB11D80938E01D1
:1046C00090938F01A0939001B0939101BF91AF910E
:1046D0009F918F913F912F910F900FBE0F901F9040
:1046E000189526E8230F0296A11DB11DD2CF1F9267
:1046F0000F920FB60F9211242F933F934F935F9316
:104700006F937F938F939F93AF93BF93EF93FF9399
:1047100081EF91E00E94EC0DFF91EF91BF91AF917D
:104720009F918F917F916F915F914F913F912F91C9
:104730000F900FBE0F901F9018951F920F920FB6FB
:104740000F9211242F938F939F93EF93FF93E091F8
:104750000102F09102028081E0910702F0910802CB
:1047600082FD1BC0908180910A028F5F8F73209120
:104770000B02821741F0E0910A02F0E0EF50FE4F89
:10478000958F80930A02FF91EF919F918F912F91C6
:104790000F900FBE0F901F9018958081F4CF1F923D
:1047A0000F920FB60F9211242F933F938F939F93E5
:1047B000AF93BF93EF93FF938091930190919401F6
:1047C000A0919501B09196010097A105B10531F135
:1047D00030917801E0917901F0917A0120812327CD
:1047E0002083181619061A061B061CF40197A10946
:1047F000B1098093930190939401A0939501B09394
:104800009601FF91EF91BF91AF919F918F913F9151
:104810002F910F900FBE0F901F9018952091700050
:104820002D7F2093700020917801E0917901F09123
:104830007A013081209523232083DBCF1F920F92B2
:104840000FB60F9211248F939F93AF93BF93EF9363
:10485000FF938091970190919801A0919901B09157
:104860009A01892B8A2B8B2BA1F190917B01E091EE
:104870007C01F0917D01808189278083809197015F
:1048800090919801A0919901B0919A01181619067A
:104890001A061B069CF48091970190919801A091B3
:1048A0009901B0919A010197A109B10980939701EB
:1048B00090939801A0939901B0939A01FF91EF9181
:1048C000BF91AF919F918F910F900FBE0F901F904E
:1048D000189580916F008D7F80936F0080917B0190
:1048E000E0917C01F0917D01908180958923808306
:1048F000E5CF1F920F920FB60F9211248F939F93C3
:10490000AF93BF93EF93FF9380919B0190919C0194
:10491000A0919D01B0919E01892B8A2B8B2BA1F137
:1049200090917E01E0917F01F09180018081892743
:10493000808380919B0190919C01A0919D01B091F9
:104940009E01181619061A061B069CF480919B01FD
:1049500090919C01A0919D01B0919E010197A109A8
:10496000B10980939B0190939C01A0939D01B0930A
:104970009E01FF91EF91BF91AF919F918F910F9009
:104980000FBE0F901F90189580916E008D7F8093C1
:104990006E0080917E01E0917F01F0918001908115
:1049A000809589238083E5CFE1EFF1E013821282C5
:1049B00088EE93E0A0E0B0E084839583A683B7837C
:1049C0008DE091E09183808385EC90E095878487EA
:1049D00084EC90E09787868780EC90E0918B808BC9
:1049E00081EC90E0938B828B82EC90E0958B848BB2
:1049F00086EC90E0978B868B118E128E138E148E20
:104A0000EAE9F2E01382128220EF30E0358324835A
:104A100080E491E09783868331872087938782871C
:104A2000168A158614861786168681E0858B848BF8
:104A30002FEF3FEF338B228B318B208B878B108EA8
:104A4000128E118E8FE191E09183808363E671E095
:104A500084E992E00E94DB2163E671E08EE892E057
:104A60000C94DB21CF93DF93CDB7DEB7A7970FB6BA
:104A7000F894DEBF0FBECDBF789484B5826084BD4C
:104A800084B5816084BD85B5826085BD85B5816052
:104A900085BD80916E00816080936E0010928100D0
:104AA000809181008260809381008091810081608B
:104AB000809381008091800081608093800080914C
:104AC000B10084608093B1008091B00081608093D8
:104AD000B00080917A00846080937A0080917A009F
:104AE000826080937A0080917A00816080937A005E
:104AF00080917A00806880937A001092C100809142
:104B00008101833008F02DC191E090939F01E82F3F
:104B1000F0E0E15EFD4EE491E093A0018F5F8093B1
:104B20008101E13009F4CFC008F4ACC0E23009F4EF
:104B3000F1C0EDE0F9E12491E9EFF8E184918823F7
:104B4000C9F090E0880F991FFC01E652F74E45919D
:104B50005491FC01E053F74EA591B4919FB7F8949E
:104B6000FA013081822F809583238083EC912E2B54
:104B70002C939FBF60E090E080E00E94F70F8C01D3
:104B80008830F4E59F0711F1803224E59207F1F0B7
:104B90008938994809F4A5C160E087E690E00E9451
:104BA000F70F07E413E88734974481F081EA90E037
:104BB0000E947A1003E619E1613051E6750731F081
:104BC0006F3F7F4F09F0D1C006E215E14801B12CDB
:104BD000A12C19A2BE016F5D7F4FD501C4018F705A
:104BE0009927AA27BB2734E0B694A7949794879473
:104BF0003A95D1F78A300CF080C1805DDB018E934D
:104C0000BD0181149104A104B10439F7AB2B21F04B
:104C100081EF91E00E94FA1D6DE571E081EF91E076
:104C20000E94FA1D0E94CB0F1092B6021092B5029C
:104C30001093BA020093B9020735B3E81B0709F4D1
:104C400029C508F0FAC10335F0E21F0709F455C57C
:104C500008F094C1013135E1130709F4A6C208F048
:104C600062C10939110509F418C508F048C180E08E
:104C700091E10130110509F44DC110929F0210928B
:104C80009E0290C214BC15BC84B5826084BD85B5FB
:104C9000816085BD80919F0190E0FC01EB50F74E53
:104CA000E491F0E0EE0FFF1FE053F74E25913491B1
:104CB0003093800120937F01FC01E75FF64EE49181
:104CC000E0937E0136CF1092800010928100809197
:104CD0008100886080938100809181008160809351
:104CE000810080919F0190E0FC01EB50F74EE49130
:104CF000F0E0EE0FFF1FE053F74E25913491309313
:104D00007D0120937C01FC01E75FF64EE491E09386
:104D10007B010FCF1092B0001092B1008091B000D3
:104D200082608093B0008091B10081608093B10077
:104D300080919F0190E0FC01EB50F74EE491F0E090
:104D4000EE0FFF1FE053F74E2591349130937A0117
:104D500020937901FC01E75FF64EE491E09378013E
:104D6000E8CE8FEF8093A001E4CE8FEB90E00E941D
:104D700046108B01073593E8190709F427CF01384E
:104D8000A4E91A0709F422CF0131B5E11B0709F4A0
:104D90001DCF0032E5E11E0709F418CF0632F5E118
:104DA0001F0709F411CF013825E1120709F40ECFCE
:104DB0000115144109F498C084ED90E00E947A1026
:104DC0008B016031734509F401CF87ED90E00E94BB
:104DD0007A108B016133704809F4F8CE8FEE90E0C1
:104DE0000E9446108B01073263E9160709F4EECEE4
:104DF0008EEF90E00E947A10072F182F292F33276B
:104E0000033570E2170709F4E1CE84E090E00E94D8
:104E10007A108B01811124C0011580E8180701F573
:104E20008091060190910701A091080189839A83DE
:104E3000AB83AE014F5F5F4F63E089EB90E00E9470
:104E4000140F60E080ED90E00E94F70F09E910E098
:104E5000893909F4BBCE8039A9F400E910E9B6CE4E
:104E6000063295E1190709F4AFCE003FA9E81A0709
:104E7000F1F10235B5E81B07E9F10131ECEA1E0753
:104E800009F4A4CE83ED90E00E947A10072F182F2A
:104E9000292F33270336F1E91F0709F497CE83ED55
:104EA00090E00E947A108B01872F7359723008F4BA
:104EB0008DCE883909F48ACE873709F487CE8631BA
:104EC00009F484CE033D110509F480CE033D10079B
:104ED00009F47CCE60E090E080E00E94F70F8C0146
:104EE00075CE09E812E172CE04E118E66FCE05E353
:104EF00017E76CCE09E817E769CE895C7FCE0435E9
:104F000051E0150709F442C10530154109F0B5CE4D
:104F100084E090E19093B8028093B70268ED70E06E
:104F200080E396E13DC1063275E1170709F46BC3D2
:104F300080F40032154109F0A0CE83E194E0909313
:104F4000B8028093B70296E0E92EF12C0BEE13E144
:104F500043C10138A5E11A0709F4E4C30230164140
:104F600009F08BCE83E094E09093B8028093B7026F
:104F700066E0E62EF12C04E413E12EC10431E8E6EC
:104F80001E0709F464C348F5003123E5120709F44C
:104F900046C378F40533154409F06FCE80E090E104
:104FA0009093B8028093B7026CE970E088E997E1CA
:104FB000F7C0083054E5150709F4AACF82E091E163
:104FC0000930184609F059CE9093B8028093B70281
:104FD0006CEC70E084E695E1E3C0033977E71707EE
:104FE00009F4D6C3A8F4033897E7190709F447C3AF
:104FF0000938174709F041CE83E194E09093B80255
:105000008093B702B1E4EB2EF12C09E913E1E4C07F
:105010000639B7E71B0709F4A0C30133104809F0AC
:105020002CCE83E194E19093B8028093B702A2E181
:10503000EA2EF12C07E813E1CFC00833F3E91F078C
:1050400009F46AC308F045C0073233E9130709F4CD
:105050003CC370F5023053E9150709F45AC3E0F474
:1050600083E194E10039104909F007CE9093B8022A
:105070008093B70280EE91E09093A1028093A0020A
:1050800080E491E090939F0280939E02F2E0EF2EE5
:10509000F12C05E813E1A0C0003283E9180709F4F8
:1050A00037CF0532134909F0E8CD80E091E18CCF8C
:1050B0000932A3E91A0709F432C3B8F30133E3E96B
:1050C0001E0721F00533134909F0D7CD80E090E1A8
:1050D0007BCF093824E91207C8F5073834E91307EC
:1050E00008F053C3013844E9140709F433C390F4BA
:1050F000005413490230110508F0BFCD83E194E05C
:105100009093B8028093B70245E6E42EF12C0CEDA3
:1051100012E162C00638144909F0AFCD83E094E093
:105120009093B8028093B70280EE91E09093A10231
:105130008093A00280E491E090939F0280939E026E
:105140002BE3E22EF12C0CE512E146C0053075EBA5
:10515000170789F038F401311C4A09F08ECD83E13C
:1051600094E1CDC20930A5EB1A0709F411C305304B
:10517000154C09F082CD88E090E19093B8028093BD
:10518000B70260EB70E084EB94E10AC082E090E14A
:105190009093B8028093B7026CE970E084E398E1E1
:1051A0000E94991010E000E017C083E090E0909317
:1051B000B8028093B70280EE91E09093A1028093B1
:1051C000A00280E491E090939F0280939E0223E0EE
:1051D000E22EF12C01EF13E12091B802822F82958B
:1051E0008F7090E0817099279093BC028093BB02EE
:1051F0000115110581F069E070E088E292E10E94FA
:10520000450FB701C8010E94450F66E070E082E2D9
:1052100092E10E94450F60E08AE992E00E94AB12A1
:1052200060E08AE992E00E94BB108091B9029091FF
:10523000BA02FE0131966F018838944909F013C112
:105240001092820120EE3FEF50E040E070E060E01D
:105250008AE992E00E947012E090C502F090C602C6
:105260008091B70280FF03C08EE2E82EF12C80917E
:10527000B9029091BA028230964119F40EE2E02E02
:10528000F12C10E000E030E020E050E040E070E081
:1052900060E08AE992E00E94FE108091B70280FDF2
:1052A00010C070E060E08091C1029091C2020E9443
:1052B000920F70E060E08091C3029091C4020E945E
:1052C000920F4398429885B18C7F9F2D9370892BC4
:1052D00085B99BB193703F2D3C7FF32EF92AFBB823
:1052E0004198419A85B18C7F9E2D9370892B85B909
:1052F0009BB193708E2D8C7F892B8BB94198419AED
:10530000429A84B18C7F84B98AB183708AB9209122
:10531000B7023091B8028091B9029091BA0226FD8D
:105320000EC0409A40984098409843B149B1409A85
:1053300020FD05C0893842E1940709F03CC2813163
:10534000954139F4409A40984098409883B189B18A
:10535000409AB90164707727409A409840984098E5
:1053600024FF46C293B189B193708C7F982B409AE9
:10537000409A40984098409843B189B143708C7FDF
:10538000482B409A409A40984098409883B1E9B0A1
:105390008370AE2DAC7F8A2B409A50E0672B09F4C6
:1053A00012C2E82EF12CFE2CEE24EE24B8EFFB22E4
:1053B00013E0440F551F1A95E1F7407E5770E42A19
:1053C000F52A969596959695E92A809182018823EB
:1053D00099F0C70155E0969587955A95E1F7807247
:1053E0009927A701569547954F715527842B952BE3
:1053F00040ECE422E82AF92A409A439A84B1836077
:1054000084B98AB18C6F8AB920FD14C00091A402BE
:105410001091A502015011092091A2023091A3021E
:105420002150310950E040E070E060E08AE992E00C
:105430000E94FE105FE1E5165FEFF506A1F486E03D
:105440008983A60161E08AE390E00E94140F8091B5
:10545000B7029091B8028F7E9093B8028093B70202
:1054600081E08093820161E08AE992E00E94AB12C0
:1054700070E060E08AE992E00E94541D90E080E0D4
:105480000E940C0D82E08093AE028093AF028FEEFB
:10549000E82E8BE7F82E00E910E026EC30E04EE530
:1054A00050E066E270E08AE992E00E9414180E94DF
:1054B000B31C81E090E00E94011D81E090E00E9419
:1054C000A8201BA21AA21DA21CA21FA21EA24AE073
:1054D000B60182E690E00E94492DF601019000207D
:1054E000E9F73197AF014C195D09B601CE018296FB
:1054F0000E946A21CE0182960E948222CE0182966B
:105500000E94EC2160E671E0C6010E94DB21C60129
:105510000E942F1EC6010E94EC210E94781C65E6A5
:1055200071E0C6010E94DB21C6010E946E20C60107
:105530000E94EC2181E090E00E94C71E81E090E093
:105540000E94B91F0E94831E0E94521E6AE671E0EB
:10555000C6010E94DB21C6010E941720C6010E94DD
:10556000EC216DE671E0C6010E94DB21C6010E94BC
:10557000F421C6010E94EC210E94851D62E771E0C2
:10558000C6010E94DB21C6010E94EC2193E8892E0E
:1055900093E1992E27EF622E26E2722E212C312CD8
:1055A0002101239440E0A42E40E0B42E0E94C50CBB
:1055B000892B09F060C1C4010197F1F70E94C50C65
:1055C000892B09F058C1E12CF12CC3010197F1F7A7
:1055D0000E94C50C67E06F150CF43CC1F601EE0D9E
:1055E000F11DB201A1010F2C04C0440F551F661F0D
:1055F000771F0A94D2F79081882309F428C1492B98
:105600004083F394E2CF83E194E09093B8028093D7
:10561000B7028CE0E82EF12C0FED13E1DDCD83E134
:105620009EE09093B8028093B70280EE91E0909351
:10563000A1028093A00280E491E090939F02809366
:105640009E0202E0E02EF12C0DED13E1C5CD83E0CA
:1056500094E09093B8028093B70280EE91E090932B
:10566000A1028093A00280E491E090939F02809336
:105670009E0213E0E12EF12C0AED13E1ADCD82E0A4
:1056800091E19093B8028093B70260E970E088E0FE
:1056900097E186CD83E094E1E9CC83E194E19093B6
:1056A000B8028093B70280EE91E09093A1028093BC
:1056B000A00280E491E090939F0280939E02EDE12E
:1056C000EE2EF12C08E613E187CD83E094E0909371
:1056D000B8028093B70280E991E09093A102809391
:1056E000A00280EF90E090939F0280939E027EE163
:1056F000E72EF12C0AE413E16FCD87E194E190935A
:10570000B8028093B70253E0E52EF12C01E413E1D7
:1057100063CD83E094E0F3CF83E194E0F0CF83E0C6
:1057200096E1EDCF83E194E09093B8028093B702C5
:1057300080EE91E09093A1028093A00280E491E03A
:1057400090939F0280939E0235E4E32EF12C07E9AB
:1057500012E142CD87E094E0E7CF83E094E09093BC
:10576000B8028093B70280EE91E09093A1028093FB
:10577000A00280E491E090939F0280939E029BE2BE
:10578000E92EF12C01E312E127CD83E194E0E7CF8C
:1057900080E090E19093B8028093B70260EC70E0F3
:1057A00084EF93E10E94991080E991E09093A10227
:1057B0008093A002F7CC409A40984098409843B11B
:1057C00049B1409ABCCDE92EF12CFE2CEE24EE24FA
:1057D000E8EFFE22A3E0440F551FAA95E1F7407EB3
:1057E0005770E42AF52A869586958695E82AEDCDA8
:1057F000E3B099B1409A409A40984098409883B15C
:1058000049B183704C7F842B409AFE2DF370EF2EAC
:105810009C7FE92AFE2CE82E23FF03C0F826EF2404
:10582000FE24672B09F4D1CDC701807E9770A701B4
:10583000452F5527469546954695842B952BFE2C4E
:10584000EE24FF0CFF0CFF0CE82AF92ABECD409590
:105850004923D6CE78E0F71204C0882361F0E394A0
:10586000D0CE99E0F912CDCE811106C09E1518F068
:10587000FF24FA94C6CEE12C49814E1589F00FB66B
:10588000F894DEBF0FBECDBFA114B10409F48ECED3
:105890000E947B0E882309F489CE0E94000086CEE8
:1058A0008A81833011F08F3F51F7F60180E09E2FFF
:1058B0009C19941750F49191892798E02CE88695CB
:1058C00008F482279A95D9F7F2CF4450550B8111ED
:1058D000D6CF282F30E02417350774F4F901ED579F
:1058E000FE4FA4E0B0E0AC0FBD1F2A0F3B1FD90153
:1058F0009C9190838F5FEDCF8B810FB6F894DEBFC4
:105900000FBECDBF882309F4BFCF809183018730BC
:1059100009F075C08091850190E0E0918401E1502B
:10592000E93008F0B1CFF0E0E856F34D0C94E32DE8
:10593000A12CB52CB82CBB2CCB2CCE2CD12CE12CF3
:10594000EF2C019719F40E94B31C9ECFF12CE12C8F
:1059500002E310E022E330E041E050E06DE571E069
:105960008AE992E00E94AE118FCF0E94011D8CCF78
:105970000E94A82089CF019719F40E94781C84CF37
:10598000F12CE12C01E310E021E330E048E650E0A7
:105990006BE271E0E5CF0E94C71E76CF0E94B91F6F
:1059A00073CF019719F40E94831E6ECFF12CE12C66
:1059B00001E310E020E330E046E350E069EF70E0FF
:1059C000CFCF019719F40E94521E5ECFF12CE12C2B
:1059D00001E310E020E330E048E650E0EFCF01972C
:1059E00019F40E94851D50CFF12CE12C01E310E049
:1059F00021E330E048E650E06EE571E0B1CF85305C
:105A000009F042CF80918401833049F170F48130F4
:105A1000D1F0823009F038CF60918501C6010E9433
:105A20008B21C6010E942F1E16C0843009F18530DB
:105A300009F02ACF60918501C6010E948B21C60121
:105A40000E94F42108C060918501C6010E948B214B
:105A5000C6010E948222C6010E94EC2115CF6091EE
:105A60008501C6010E948B21C6010E946E20F3CFE2
:105A700060918501C6010E948B21C6010E941720FA
:105A8000EACF8EE892E00E94EC2184E992E00C9447
:105A9000EC21BB274A3031F4992322F4BDE29095E2
:105AA00081959F4F0C94552DBB27FB015527AA27A5
:105AB000880F991FAA1FA41710F0A41B839550519B
:105AC000B9F7A05DAA3308F0A95DA193009779F713
:105AD000B111B1931192CB010C946E2DDC01FC013C
