:100000000C948D0C0C94B50C0C94B50C0C94B50C94
:100010000C94B50C0C94B50C0C94B50C0C94B50C5C
:100020000C94B50C0C94B50C0C94B50C0C94B50C4C
:100030000C94B50C0C94B50C0C94B50C0C94B50C3C
:100040000C94671E0C94B50C0C94D71E0C94B11E26
:100050000C94B50C0C94B50C0C94B50C0C94B50C1C
:100060000C94B50C0C94B50C05A84CCDB2D44EB97B
:100070003836A9020C50B9918688083CA6AAAA2A4B
:10008000BE000000803F0664EC1B3C04BC163E3BF7
:10009000E5B93CC93C37C29E5A3D660498083EEA21
:1000A00069AAAA3E000000803F0000001B2E20022B
:1000B000D09C0006272017D3BA001B2E2002D05652
:1000C00001192E2004D0E6011B272002D36A021B4F
:1000D0002E2002D006031B2E2002D0A203172A20B6
:1000E00006D01B041B2E2002D0B7041B2E2002D0EA
:1000F00003FFF800FFFF803FFFF803FFFEC33FFF51
:10010000BCF0000FFF0001FFE0003FFC0007FF8094
:1001100000FFF0001FFE0003FFC0007FF8000FFF8C
:100120000001FFE0003FFC0007FF8000FFF0001F20
:10013000FC0000FE0000070000004000000400007A
:1001400000E000007F00003FF0001FFE0003FFC042
:10015000007FF8000FFF0001FFE0003FFC0007FFF9
:100160008000FFF0001FFE0003FFC0007FF8000FBB
:10017000FF0001FFE0003F780003C67FFF301FFF54
:10018000F007FFFF007FFFC007FFF00031EFFFFF28
:10019000FFFFFFFFFFFFFFFF3C30400033FFFFFF8B
:1001A000FFFFFFFFFFFFFFFDE30003FFF800FFFF7E
:1001B000803FFFF803FFFEC03FFFBC00000FC00000
:1001C00001F800003F000007E00000FC00001F8075
:1001D0000003F000007E00000FC00001F800003FA7
:1001E000000007E00000FC00001F800000F07FFF1F
:1001F000861FFFFC4FFFFFE4FFFFF8E7FFFC1F0037
:100200000003F000007E00000FC00001F800003F76
:10021000000007E00000FC00001F800003F0000069
:100220007E00000FC00001F800003F000007E00062
:1002300000780000067FFF001FFFF007FFFF007F30
:10024000FFC007FFF0000FFFE00FFFF80FFFFE03F6
:10025000FFFEC0FFFEF00000FC00007E00003F003B
:10026000001F80000FC00007E00003F00001F8004D
:1002700000FC00007E00003F00001F80000FC00057
:1002800007E00000F1FFFE19FFFFC7FFFFF8FFFFC7
:10029000F81FFFF1800003C00007E00003F0000139
:1002A000F80000FC00007E00003F00001F80000FEF
:1002B000C00007E00003F00001F80000FC00007E31
:1002C00000003F00000F07FFF307FFFC07FFFF01DF
:1002D000FFFF007FFF0000000186000079E0001FA3
:1002E000FE0003FFC0007FF8000FFF0001FFE000E9
:1002F0003FFC0007FF8000FFF0001FFE0003FFC06F
:10030000007FF8000FFF0001FFE0003FF80001FC54
:10031000FFFF0E3FFFF89FFFFFC1FFFFF00FFFF849
:10032000C000007800003F000007E00000FC000073
:100330001F800003F000007E00000FC00001F800E5
:10034000003F000007E00000FC00001F800003F0F9
:1003500000007E0000078000006003FFF800FFFF40
:10036000803FFFF803FFFE033FFF80F000003F00E7
:100370000007E00000FC00001F800003F000007E8A
:1003800000000FC00001F800003F000007E000007F
:10039000FC00001F800003F000007C00000E7FFFC7
:1003A000811FFFFC0FFFFFE0FFFFF807FFFC60006D
:1003B000003C00001F800003F000007E00000FC022
:1003C0000001F800003F000007E00000FC00001FF3
:1003D000800003F000007E00000FC00001F8000064
:1003E0003F000003C07FFF301FFFF007FFFF007FCB
:1003F000FFC007FFF00003FFF800FFFF803FFFF89A
:1004000003FFFE033FFF80F000003F000007E00015
:1004100000FC00001F800003F000007E00000FC001
:100420000001F800003F000007E00000FC00001F92
:10043000800003F000007C00000E7FFF811FFFFCA6
:100440000FFFFFE4FFFFF8E7FFFC7F00003FF00035
:100450001FFE0003FFC0007FF8000FFF0001FFE058
:10046000003FFC0007FF8000FFF0001FFE0003FFBD
:10047000C0007FF8000FFF0001FFE0003F7800039D
:10048000C67FFF301FFFF007FFFF007FFFC007FFA1
:10049000F0003FFF80FFFF83FFFF83FFFEC3FFFBF2
:1004A000C0000FC0001F80003F00007E0000FC0065
:1004B00001F80003F00007E0000FC0001F80003FBC
:1004C00000007E0000FC0001F80000F00000600069
:1004D0000040000000000000000600003C0001F8A1
:1004E0000003F00007E0000FC0001F80003F000085
:1004F0007E0000FC0001F80003F00007E0000FC0E0
:10050000001F80003F00003C00003003FFF800FFA8
:10051000FF803FFFF803FFFEC33FFFBCF0000FFF6B
:100520000001FFE0003FFC0007FF8000FFF0001F1C
:10053000FE0003FFC0007FF8000FFF0001FFE00096
:100540003FFC0007FF8000FFF0001FFC0000FE7F63
:10055000FF871FFFFC4FFFFFE4FFFFF8E7FFFC7F73
:1005600000003FF0001FFE0003FFC0007FF8000FF7
:10057000FF0001FFE0003FFC0007FF8000FFF000EC
:100580001FFE0003FFC0007FF8000FFF0001FFE027
:10059000003F780003C67FFF301FFFF007FFFF001A
:1005A0007FFFC007FFF00003FFF800FFFF803FFF61
:1005B000F803FFFEC33FFFBCF0000FFF0001FFE0A8
:1005C000003FFC0007FF8000FFF0001FFE0003FF5C
:1005D000C0007FF8000FFF0001FFE0003FFC0007B4
:1005E000FF8000FFF0001FFC0000FE7FFF871FFF61
:1005F000FC4FFFFFE0FFFFF807FFFC6000003C003E
:10060000001F800003F000007E00000FC00001F812
:1006100000003F000007E00000FC00001F80000316
:10062000F000007E00000FC00001F800003F000055
:1006300003C07FFF301FFFF007FFFF007FFFC007F1
:10064000FFF000000000000500010000020D06029E
:10065000F4040005040601F407000A0C0A00F5166C
:100660000009100A01F32800100D1001F442000BDC
:100670000D0C01F4540002040401F45500041106A9
:1006800001F45E0004110601F4670005050701F49A
:100690006B0006080B03F9710002040502007200EA
:1006A00004010601FC730002010501007400050D40
:1006B0000500F47D00080D0A01F48A00040D0A0308
:1006C000F49100090D0A01F4A000080D0A01F4AD2F
:1006D00000070D0A02F4B900090D0A01F4C8000967
:1006E0000D0A01F4D700080D0A00F4E400090D0A10
:1006F00001F4F300080D0A01F40001020A0501F7F4
:100700000301030C0501F8080109090B01F81301A5
:1007100009040B01FB180109090B01F82301090D5C
:100720000A01F4320111101201F454010C0D0C00F5
:10073000F468010B0D0C01F47A010B0D0D01F48C22
:10074000010B0D0D01F49E01090D0B01F4AD010823
:100750000D0B01F4BA010C0D0E01F4CE010B0D0DC1
:1007600001F4E001020D0502F4E401070D0A01F4B1
:10077000F0010B0D0C01F40202080D0A01F40F0246
:100780000D0D0F01F425020B0D0D01F437020D0DB7
:100790000E01F44D020A0D0C01F45E020D0E0E0165
:1007A000F475020C0D0D01F489020A0D0C01F49A86
:1007B00002090D0B01F4A9020B0D0D01F4BB020B94
:1007C0000D0C00F4CD02110D1100F4E9020C0D0C1A
:1007D00000F4FD020C0D0C00F411030A0D0B01F4E2
:1007E000220303110501F42903050D0500F432036A
:1007F00003110500F4390307070801F440030A0157
:100800000A0003420304030500F44403090A0A0131
:10081000F75003090D0A01F45F03080A0901F7699B
:1008200003080D0A01F47603080A0A01F78003049D
:100830000D0501F48703080E0A01F79503080D0A58
:1008400001F4A203020D0401F4A60304110400F450
:10085000AF03090D0901F4BE03020D0401F4C20344
:100860000D0A0F01F7D303080A0A01F7DD03080A8E
:100870000A01F7E703090D0A01F7F603080D0A015B
:10088000F70304050A0601F70A04080A0901F71428
:1008900004040C0501F51A04080A0A01F7240409E6
:1008A0000A0900F730040D0A0D00F74104080A098F
:1008B00000F74B04090E0900F75B04070A0901F76A
:1008C000640404110601F46D0402110402F47204BC
:1008D00004110601F47B0407030901F9FFFFF8C0C6
:1008E000DEF72009864191FF1304C320C8FF8982E7
:1008F0006190101F14DA3D1E8340781708F47A3592
:1009000033F040203810EC20C620C640C6406C8032
:100910003900013C0277026304630477083C0E0649
:1009200060CC1981E0180F0336C2D8730631E3C4D6
:10093000FE13266CCCCCC46623108C466333333252
:10094000664C80257EA50030C33F30C30CD6F0C076
:100950000844211084421108003C6642C3C3C3C34B
:10096000C3C3C342663C113F33333333303E31B0EF
:100970007830181C1C1C1818100807F83C66C3C3F4
:1009800003061C0703C3C3663C0C187162C9A34667
:10099000FE183060C07F2010080807F38C03018028
:1009A000F06C63E01E3198780C06F38D83C1E0D0C3
:1009B0006C63E0FF030206040C08181818103030AE
:1009C0003E31B0783C1B18F8C6C1E0F06C63E03CE7
:1009D00066C2C3C3C3673B0303C2663CC00030C0EA
:1009E000000064A00081C78E0C0780700E0180FF9C
:1009F00080001FF000700E01C0183871C080003EEA
:100A000031B0783018183818180C0000018003F045
:100A1000060E06018600661DBB31CF18C79863CC51
:100A200031E611B399CCF7860001800070400FE0E9
:100A30000600F00F009019819810830C3FC20460EB
:100A40006606C030FF183303606C0D833FC606C0D6
:100A5000780F01E06FF81F861981A03C01803006F5
:100A600000C0680D831861F0FF183303603C0780F5
:100A7000F01E03C0780F0360CFF0FFE030180C06C3
:100A800003FD80C06030180FF8FFC0C0C0C0C0FEBA
:100A9000C0C0C0C0C0C00F830E606603C00C00C1E0
:100AA000FC03C0360360730F0F10C0780F01E03CE9
:100AB0000780FFFE03C0780F01E03C06FFFFFFC088
:100AC000060C183060C183078F1E2780C0D8330CF6
:100AD000630CC1B83F0730C3186306606C0CC0C01C
:100AE000C0C0C0C0C0C0C0C0C0C0FFE03F01FC1F4C
:100AF000E0FD05EC6F637913CD9E6CF1478E3C7180
:100B000080E07C0FC1E83D8798F11E33C3786F0702
:100B1000E07C0E0F8183180CC06C01E00F0078039D
:100B2000C01B01980C60C0F800FF306C0F03C0F0D0
:100B30006FF300C0300C0300C0000F8183180CC09D
:100B40006C01E00F007803C01B01986C60C0FB00D3
:100B500008FF8C0EC06C06C06C0CFF8C0EC06C06BF
:100B6000C06C06C0703F186C0F03C01E01F00E0071
:100B7000F03C0D863F00FF86030180C06030180CFA
:100B800006030180C0C0780F01E03C0780F01E031F
:100B9000C0780F01B061F0C06C0D8110630C61046E
:100BA00060CC1901603C070060C18130E19870CCD5
:100BB000286626211330C8986C4C14340A1A07078B
:100BC000030380818060630C30C1980F00E0060051
:100BD000F019019830C60E6060C0360630C30C199B
:100BE00081D80F00600600600600600600FFC0604C
:100BF000300C060301C0603018060300FFC0FB6D17
:100C0000B6DB6DB6E0841084108410841080EDB6DD
:100C1000DB6DB6DBE03060A244D8A180FFC0C630F7
:100C20007E71B0C060F3DB0D86C73DC0C060301B75
:100C3000CE360F0783C1E0F07C6DE03C66C3C0C0D8
:100C4000C0C0C3663C0303033B67C3C3C3C3C3C382
:100C5000673B3C66C3C3FFC0C0C3663C366F666675
:100C60006666603B67C3C3C3C3C3C3673B0303C6B6
:100C70007CC0C0C0DEE3C3C3C3C3C3C3C3C3C3FF1D
:100C8000FFC03003333333333333E0C06030184CAC
:100C9000466361F0EC6231986C30FFFFFFC0DEF715
:100CA0001CF0C7863C31E18F0C7863C31E18C0DE90
:100CB000E3C3C3C3C3C3C3C3C33C66C3C3C3C3C3C8
:100CC000C3663CDE71B0783C1E0F0783E36F3018BB
:100CD0000C003B67C3C3C3C3C3C3673B030303DF4A
:100CE000318C6318C6003EE3C0C0E03C07C3E37E1E
:100CF00066F666666667C3C3C3C3C3C3C3C3C77BA5
:100D0000C1A098CC4221B0D0281C0C00C61E38913E
:100D1000C4CA66D316D0A6871C38C0C60043623644
:100D20001C181C3C266243C12198CC4261B0D038CB
:100D30001C0C0603010300FE0C30C1861820C1FC08
:100D40003666666ECE66666630FFFFFFFFC0C6661B
:100D5000666737666666C061243800000000003EA2
:100D60005551553E3E6B6F6B3E0C1E3C1E0C081CD5
:100D70003E1C081C4A7F4A1C185C7F5C18001C1C27
:100D80001C007F6363637F001C141C007F636B6324
:100D90007F30484D3307062979290620503F020C41
:100DA000607F05353F2A1C771C2A007F3E1C0808FF
:100DB0001C3E7F0014227F2214005F005F000609A2
:100DC0007F017F4A55555529606060606054627F9D
:100DD000625408047E040808103F100808082A1C02
:100DE00008081C2A08081C101010101C3E083E1C85
:100DF000303C3F3C30061E7E1E0600000000000016
:100E0000005F00000007000700147F147F14242AED
:100E10007F2A1223130864623649562050000007C7
:100E20000000001C2241000041221C0014083E0862
:100E30001408083E080800A0600000080808080818
:100E4000006060000020100804023E5149453E4405
:100E5000427F404042615149462141454B3118147F
:100E6000127F1027454545393C4A494930017109EF
:100E700005033649494936064949291E006C6C006C
:100E80000000AC6C00000814224100141414141467
:100E9000004122140802015109063E415D555E7C65
:100EA0001211127C7F494949363E414141227F411E
:100EB00041221C7F494949417F090909013E4149B5
:100EC000497A7F0808087F00417F41002040413F68
:100ED000017F081422417F404040607F020C027F66
:100EE0007F0408107F3E4141413E7F090909063ECB
:100EF0004151215E7F09192946464949493103017B
:100F00007F01033F4040403F1F2040201F3F403CA7
:100F1000403F63140814630708700807615149458E
:100F200043007F41410002040810200041417F003E
:100F3000040201020440404040400001020400203D
:100F4000545454787F4844443838444444483844DE
:100F500044487F3854545418087E090102085454F8
:100F6000583C7F0804047800447D40002040443D04
:100F7000007F1010284400417F40007C04780478F2
:100F80007C0804047838444444387C141414080859
:100F900014140C7C7C080404084854545424043F62
:100FA0004440203C4040207C1C2040201C3C4038D9
:100FB000403C44281028440C5050503C4464544C4D
:100FC00044000836410000007F0000004136080060
:100FD00002010204027048444870000E110E000025
:100FE000121F100000121916000011150B00000747
:100FF000041F000017150900000E15090000011D4F
:101000000300000A150A000012150E000004040473
:1010100000FFFFFFFFFF3E000000003E3E0000001B
:101020003E3E003E003E3E003E3E8080808080C0CE
:10103000C0C0C0C0D0D0D0D0D0D8D8D8D8D8DADAB4
:10104000DADADADBDBDBDBDB40004000406000406B
:101050000040600070004060007000787C0040003C
:10106000407C007E00407C007E007F1C7741414137
:1010700041414141414141417F001C77415D5D411A
:1010800041415D5D5D5D415D5D5D5D417F00221CB7
:10109000141C2200081C08000000770000465D5563
:1010A0005D317C5554554408082A0808001408147A
:1010B0000008142208147F4171311F03057F0503C6
:1010C00022147F552202557D0502060909060044B7
:1010D000445F44441C141C227F203E613E2020506B
:1010E0003F020C807C203C40443C047C44000008CF
:1010F000000038555455187E08107F010810080468
:101100000214082214080E060A102020100A060EE7
:10111000383028040202042830387E1111117E7FF5
:10112000494949317F494949367F01010103C07F5F
:10113000417FC07F4949494177087F087741494944
:1011400049367F1008047F7C2112097C7F08142215
:1011500041403E01017F7F020C027F7F0808087F2B
:101160003E4141413E7F0101017F7F090909063E61
:101170004141412201017F0101074848483F0E11CA
:101180007F110E63140814637F40407FC007080876
:10119000087F7F407F407F7F407F40FF017F48483E
:1011A000307F4848307F7F48484830224149493E97
:1011B0007F083E413E462919097F20545454783C0B
:1011C0004A4A49317C545454287C0404040CC078A5
:1011D000447CC038545454186C107C106C445454E3
:1011E00054287C2010087C7C4026107C7C10102821
:1011F00044403804047C7C0810087C7C1010107C6F
:1012000038444444387C0404047C7C1414140838A6
:101210004444444804047C04040C5050503C1824BA
:10122000FC241844281028447C40407CC00C10103A
:10123000107C7C407C407C7C407C40FC047C50509A
:10124000207C5050207C7C505050202844545438EE
:101250007C10384438483414147C11007F962900DF
:1012600001007F9628003A0155C0021010C10141CB
:10127000C50400228040360168B00100B102B011FF
:10128000B40102B60302023BB701C63A0155F704A6
:10129000A9512C82C0020D0DC1024300C20100C53C
:1012A0000400480048B40100B60302023BE00F0FFF
:1012B000211C0B0E08499838091103141000E10F86
:1012C0000F2F2B0C0E06477637071104231E00B094
:1012D0000100B30402000000B40100D0030742186B
:1012E000D103000710D2020102D3020102D402018D
:1012F00002C005123B000211C103101088C5010392
:10130000C60102C80C003236450616377577540CF4
:1013100000CC0100F603010100CF03008130ED0491
:1013200064031281E803851078CB05392C00340260
:10133000F70120EA020000B00100B102001BB40175
:1013400000C00121C10111C5023F3CC701B53601F2
:1013500048F20100260101E00F0F26240B0E09546C
:10136000A8460C17090F0700E10F00191B0410070E
:101370002A473903060630380F360100B80101C08C
:10138000010EB00100C10410100202C006003500B9
:10139000000102C50104D2020104CA0100EA018071
:1013A000B903FF83577F967F96B60125C00650503C
:1013B000013C1E08B4070240002A2A0D787F01F282
:1013C0000B1616030808080810041616FD03110270
:1013D00035B2050C0C003333B70135BB012BC0010E
:1013E00004C20201FFC30111C40120C6010FD002D3
:1013F000A4A1E00ED000050E150D374347091512C4
:101400001619E10ED000050D0C062D44400E1C18D7
:1014100016193A01557F0AB00103E2013FC00122CB
:10142000E20100B00100C0010AB0010000000000AC
:10143000000000000000000000000000FFFF0F009F
:1014400000040062080008080003000C01030B5AA6
:101450000203060903031710040300230503001702
:10146000060309630703090C08030C100903322261
:10147000100016001100010112000000130001000D
:1014800000013003010137020301000D80020061F9
:101490000201B0C1FFFF32000100000102000001A3
:1014A00003003010090001000C00000090000080D3
:1014B0000F000000100200001102EF0012020000F5
:1014C00013028F01000500000105000002055F0006
:1014D0000104010004040000FFFF320007000001C6
:1014E000FFFF3200000200000102000000000000C7
:1014F000000000000000000000000100A400010046
:10150000FFFF0A00600000270800080830001402EE
:1015100031001537320004063300160E3400112254
:10152000350000153600078537000714380003140E
:10153000390020009000150010001004110037023F
:10154000290046002A004600070000001200890119
:1015500013000011FFFF96001200B9010100000105
:101560000200000203003010090001000A00000020
:101570000D0000000E003000610001006A00000054
:10158000800000008100000082005F0092000001E6
:1015900093000107FFFF500007000001E500F0780D
:1015A00001000001020000020300301004000000EE
:1015B0000500000008000702090000000A00000002
:1015C0000C0000000D0000000F00000010000000E3
:1015D00011000700120000001300000007000100C6
:1015E000FFFFC8001000901611002702FFFF320015
:1015F00012000D00FFFF32001300001229000A0044
:101600002B000D00FFFF3200200000002100000031
:1016100030000000310004043200030035000504EE
:1016200036000808370007043800030339000707AD
:101630003C0004053D00080860000027610001002F
:101640006A000000800000008100000082000000AD
:10165000830000008400000085000000900010005E
:101660009200000007003301E50000800000010047
:101670000100000102000007030030100400000018
:1016800008000202090000000A0000000C0000002F
:101690000D0000000F000000100000001100070006
:1016A0001200000013000000FFFF32001000B0170E
:1016B00011000700FFFF0A0012003A01FFFF0A00B5
:1016C0001300001A29000C00FFFF0A003000000080
:1016D000310005053200040035000600360007071A
:1016E0003700050138000200390007073C000407F5
:1016F0003D000708600000A7610001006A000000CB
:101700002100000020000000800000008100000097
:1017100082000000830000008400000085000000BB
:10172000900010009200000093000300950010014B
:10173000970000009800000007007301FFFF3200CF
:10174000FF000100F300080000000100010000019B
:101750000200000703003010080002030900000027
:10176000100000001100070012000000130000002C
:10177000FFFF32001000B014FFFF0A001100070045
:10178000FFFF0A0012008E001300000C2900150054
:10179000FFFF0A00300000003100070132000000A6
:1017A000350003023600020437000000380007024B
:1017B000390000003C0003023D000304600000A764
:1017C000610001009000290007003301FFFF320093
:1017D000150030009A00100011002000100028347D
:1017E0001200020013003810FFFF28001200120040
:1017F000FFFF28001000203413004530FFFF460093
:1018000030000000310002043200070333000403FB
:1018100034000400350001043600070737000503D3
:101820003800100639001006010000010200000314
:1018300003003010080008080A00080060000027B4
:101840006100010090003E01920000019300000140
:10185000A0000030A30010000700010007002100D5
:1018600007002300070033000700330111001A00AE
:101870001200213113006C001400494210000008CE
:10188000FFFF0A0011001A01FFFF0A0011001A03EE
:10189000FFFF0A0011001A07FFFF0A0011001A0FCC
:1018A000FFFF0A0011003A0FFFFF1E000100280190
:1018B00002000001030030100700121008000303AB
:1018C0000B0000110C0000000F0001181500200093
:1018D00050000101510003065200080453000000AB
:1018E0005400050655000604560003035700030381
:1018F000580010005900001007001200FFFF2800D8
:101900000700130007001700F000AA00303932DC8E
:10191000084306207E16091F802F11241FBECFEF1B
:10192000D8E0DEBFCDBF11E0A0E0B1E0E4EDFCE621
:1019300002C005900D92A639B107D9F722E0A6E9B9
:10194000B1E001C01D92A93EB207E1F71CE0CCE86E
:10195000DCE004C02197FE010E944E32CB38D10753
:10196000C9F70E94731F0C945D360C940000089513
:101970002091C9023091CA02009789F0232B51F4BB
:101980002091BE023091BF022A5F3F4F3093BF02C9
:101990002093BE029093CA028093C9020895232B1C
:1019A000C9F32091BE023091BF0226503109EECF1B
:1019B0003FB7F8948091A6019091A701A091A8014A
:1019C000B091A90126B5A89B05C02F3F19F001963B
:1019D000A11DB11D3FBFBA2FA92F982F8827BC0189
:1019E000CD01620F711D811D911D42E0660F771FB1
:1019F000881F991F4A95D1F708958F929F92AF92B1
:101A0000BF92CF92DF92EF92FF926B017C010E9416
:101A1000D80C4B015C01C114D104E104F104B9F00C
:101A20000E94D80C681979098A099B09683E73409D
:101A30008105910580F321E0C21AD108E108F1087F
:101A400088EE880E83E0981EA11CB11CE4CFFF90A5
:101A5000EF90DF90CF90BF90AF909F908F900895C0
:101A60000895AF92BF92CF92DF92EF92FF920F93C1
:101A70001F93CF93DF936C017B018B01040F151F24
:101A8000EB015E01AE18BF08C017D10759F069918C
:101A9000D601ED91FC910190F081E02DC6010995F0
:101AA000892B79F7C501DF91CF911F910F91FF909D
:101AB000EF90DF90CF90BF90AF900895FC01538DD1
:101AC000448D252F30E0842F90E0821B930B541718
:101AD00010F0CF96089501970895FC01918D828DA5
:101AE000981761F0A28DAE0FBF2FB11D5D968C913E
:101AF000928D9F5F9F73928F90E008958FEF9FEF7D
:101B00000895FC01918D828D981731F0828DE80F38
:101B1000F11D858D90E008958FEF9FEF0895FC01F2
:101B2000918D228D892F90E0805C9F4F821B9109BF
:101B30008F73992708958BEF91E00E948F0D21E01C
:101B4000892B09F420E0822F089580E090E0892B12
:101B500029F00E949B0D81110C9400000895FC0156
:101B6000A48DA80FB92FB11DA35ABF4F2C91848DFE
:101B700090E001968F739927848FA689B7892C935B
:101B8000A089B1898C91837080648C93938D848DAE
:101B9000981306C00288F389E02D80818F7D8083B1
:101BA0000895EF92FF920F931F93CF93DF93EC0171
:101BB00081E0888F9B8D8C8D98131AC0E889F989F4
:101BC000808185FF15C09FB7F894EE89FF896083F7
:101BD000E889F98980818370806480839FBF81E078
:101BE00090E0DF91CF911F910F91FF90EF900895BA
:101BF000F62E0B8D10E00F5F1F4F0F731127E02E95
:101C00008C8D8E110CC00FB607FCFACFE889F989CC
:101C1000808185FFF5CFCE010E94AF0DF1CFEB8D16
:101C2000EC0FFD2FF11DE35AFF4FF0829FB7F894A0
:101C30000B8FEA89FB8980818062CFCFCF93DF93BE
:101C4000EC01888D8823B9F0AA89BB89E889F989D4
:101C50008C9185FD03C0808186FD0DC00FB607FC09
:101C6000F7CF8C9185FFF2CF808185FFEDCFCE013C
:101C70000E94AF0DE9CFDF91CF910895439842982C
:101C800025B12C7F392F3370232B25B92BB123702D
:101C90009C7F922B9BB94198419A95B19C7F282FAC
:101CA0002370922B95B99BB193708C7F892B8BB944
:101CB0004198419A429AFA01615078F0219195B188
:101CC0009C7F822F8370982B95B98BB183702C7F6A
:101CD000822B8BB94198419AEFCF439A0895DF92B6
:101CE000EF92FF920F931F93CF93DF93CDB7DEB7A1
:101CF00068970FB6F894DEBF0FBECDBF7C018B0195
:101D0000F70184913196D490F2E0EF0EF11C8F37F9
:101D100079F0DE01119630E020E0AD012D1528F5B7
:101D2000F701E20FF31FE491ED932F5F3F4FF6CFE2
:101D30006D2D70E090E080E00E94FD0CD12CED2D27
:101D4000F0E032960E1B1F0B10161106CCF26896AF
:101D50000FB6F894DEBF0FBECDBFDF91CF911F91BC
:101D60000F91FF90EF90DF900895ED0CF11C6D2D19
:101D700090E00E943E0EE3CF4398429825B12C7F1D
:101D8000392F3370232B25B92BB123709C7F922BD5
:101D90009BB94198419A95B19C7F282F2370922B33
:101DA00095B99BB193708C7F892B8BB94198419ADF
:101DB000429A85B18C7F972F9370892B85B98BB10F
:101DC00083707C7F782B7BB94198419A85B18C7F59
:101DD000962F9370892B85B98BB183706C7F682B9C
:101DE0006BB94198419A439A089581E08093AA0182
:101DF00084B1836084B98AB18C6F8AB9389A399A70
:101E00003A9A3B9A3C9A439A409A419A449A62E39E
:101E100070E080E090E00E94FD0C449864E670E081
:101E200080E090E00E94FD0C449A64E670E080E05F
:101E300090E00E94FD0C70E060E080EB90E00C947C
:101E4000BC0ECF93DF93C82FD62F8091AA018111AA
:101E500002C00E94F50E4398429885B18C7F85B9E7
:101E60008BB183708BB94198419A95B19C7F8C2F2F
:101E70008370982B95B98BB18370CC7F8C2B8BB9E9
:101E80004198419A429A84B18C7F84B98AB1837017
:101E90008AB961E070E080E090E00E94FD0C409A19
:101EA00040984098409893B139B1409A409A4098F0
:101EB0004098409883B129B1409AD15080F7409A18
:101EC000439A44B1436044B94AB14C6F4AB99370E4
:101ED0003C7F932B83702C7F822BDF91CF910895D1
:101EE000FF920F931F93CF93DF938C0160E00E94CA
:101EF000210FEC0161E0C8010E94210FF82E62E081
:101F0000C8010E94210FAE0170E060E0742F6627C7
:101F10005527442700E030E020E0402B5F29622B6A
:101F2000732B292F30E0C901B0E0A0E08A019B01AA
:101F3000082B192B2A2B3B2BC901B801DF91CF911C
:101F40001F910F91FF9008950F931F93CF93DF93ED
:101F50008C0160E00E94210FEC0161E0C8010E9449
:101F6000210F8C01BE0190E080E0CB01772766272E
:101F700030E020E0602B712B822B932BDF91CF91EF
:101F80001F910F9108950F931F93CF93DF93EC014F
:101F90008B01FE0185919491FE0132962496659104
:101FA00074918F3F980771F490E080E00E94FD0CDF
:101FB000045011091016110664F3DF91CF911F919F
:101FC0000F9108950E94BC0EF3CFFC01262F358D92
:101FD000868D82958170982F9627692F70E072A365
:101FE00061A330FF0CC0821307C080E290E050E094
:101FF00040E060E00C943E0E81E290E0F8CF878DE7
:1020000090A1833927E7920741F058F4843521E005
:10201000920791F080329445C1F4626081E094E0CF
:1020200012C0863223E99207C1F3893025EB92076B
:10203000A1F38532924949F4660F771F660F771F27
:10204000636187E090E00C94BC0E81E690E0FBCFEA
:102050008F929F92AF92BF92CF92DF92EF92FF92B8
:102060000F931F93CF93DF9300D000D0CDB7DEB78F
:102070007C014B015A016901FC01878D90A18732D7
:10208000F3E99F0709F040C0F7018689823099F58E
:10209000F0E2AF0EB11C005E1F4FF701858D80FF8F
:1020A0004AC085A599828A82DB82CC82AE014F5FCD
:1020B0005F4F64E090E00E943E0EF70181A9B98273
:1020C000AA821B830C83AE014F5F5F4F64E090E0F8
:1020D0000E943E0E0F900F900F900F90DF91CF91C6
:1020E0001F910F91FF90EF90DF90CF90BF90AF9036
:1020F0009F908F900895833081F620E2820E911C8C
:1021000080E2C80ED11CC9CF8632954131F6F70165
:10211000868980FFC2CFC801841B950B19F40F5F1D
:102120001F4FBBCF6217730709F0B7CF6B01C80E03
:10213000D91E8A01B2CFB40187A190A50E94BC0E1E
:10214000B501F70181A592A50E94BC0EC814D9045F
:1021500021F40A151B0509F4BDCFF701858D85FF14
:1021600008C0868980FF1EC0102F0027A02AB12A30
:102170008501B401F70185A596A50E94BC0EB501A5
:10218000F70181A992A90E94BC0EB601F70187A5AB
:1021900090A90E94BC0EB801F70183A994A90E94DE
:1021A000BC0E98CFDC2CCC248C289D286401E1CF78
:1021B000AF92BF92CF92DF92EF92FF920F931F9355
:1021C000CF93DF93EC0180919601882349F0C701FA
:1021D000880F991F8E739927E1ECEE22E82AF92ADD
:1021E00037FF05C0620F731F319521953109260F06
:1021F000371F77FF02C070E060E088859985281757
:1022000039070CF4C9016C01C61AD70A17FF05C0BB
:10221000400F511F119501951109040F151F57FF0C
:1022200002C050E040E02A853B85021713070CF4FA
:1022300098015901A41AB50A8901015011099C019C
:1022400021503109CE010E942810439842983BA5A5
:102250008CA525B12C7F982F9370292B25B99BB184
:1022600093708C7F982B9BB94198419A95B19C7F34
:10227000832F8370982B95B98BB183703C7F832B10
:102280008BB94198419A429ACA14DB042CF09A2DDA
:102290008B2D5601C92ED82E9F2D4F2D43709C7F1C
:1022A0005E2D53702E2D2C7FE22E1C141D04E4F4A1
:1022B000950185B18C7F842B85B98BB18370892B77
:1022C0008BB94198419A85B18C7F852B85B98BB1AB
:1022D00083708E298BB94198419A2150310949F771
:1022E00081E0C81AD108E1CF439A8D8D80FF08C0E4
:1022F0008F8D98A18632954191F48E8980FF0FC011
:102300000A851B850150110928853985215031091D
:1023100050E040E070E060E0CE010E942810DF91C4
:10232000CF911F910F91FF90EF90DF90CF90BF90D2
:10233000AF900895EF92FF920F931F93CF93DF9387
:102340007C01E90177FD2AC057FD28C0FC0180858A
:1023500091856817790714F5828593854817590781
:10236000ECF480919601882341F0C901880F991FF0
:102370008E739927C17CC82BD92B8A019B01C70179
:102380000E942810BE01F70183A594A5DF91CF918B
:102390001F910F91FF90EF900C94BC0EDF91CF91A5
:1023A0001F910F91FF90EF900895EF92FF920F937E
:1023B0001F93CF93DF93CDB7DEB72A970FB6F8946C
:1023C000DEBF0FBECDBF7C01862F8370F701868BE9
:1023D000962F917060FFF1C026813781F701318718
:1023E0002087992309F4ECC024813581F7013387D4
:1023F0002287823009F4E9C0833009F4E8C08130D3
:1024000009F4E1C088E48A87F701258D368D30FF15
:1024100003C08A8580588A8731FF04C08A8590E48A
:1024200089278A8733FF04C08A8598E089278A87AD
:10243000F701878D90A120FFFAC08431F8E69F074D
:1024400009F0C7C09A85892F88728A871F82892FD1
:1024500085958074282F2260892F90E09595879527
:1024600080729927822B88878BE38987AE01495F29
:102470005F4F63E086EB90E00E943E0E2AE230E080
:10248000F70130A727A38BE290E092A781A74CE247
:1024900050E054A743A736A725A730AB27A792AB98
:1024A00081AB94AB83ABAE01465F5F4F61E086E3E7
:1024B00090E00E943E0E8A8590E0F70194A383A3EA
:1024C000F701868980FF1CC0858D968D92FD18C00E
:1024D00087A190A521A532A530A727A392A781A700
:1024E00085A596A521A932A936A725A792AB81ABD0
:1024F00087A590A923A934A930AB27A794AB83ABB8
:10250000F70102851385015011092085318521507D
:10251000310950E040E070E060E0C7010E942810FF
:10252000F70166817781878D90A110E000E020E0BF
:102530008732F3E99F0769F4F7012689225010E0FA
:1025400000E0223010F400E210E020E230E0201B36
:10255000310BF701458D40FF26C119820A837B8329
:102560006C831D822E83AE014F5F5F4F66E083E375
:1025700090E00E943E0E19820A83AE014F5F5F4FCA
:1025800062E087E390E00E943E0EF701858D80FFB8
:1025900007C050E040E060E083E190E00E943E0E22
:1025A0002A960FB6F894DEBF0FBECDBFDF91CF9154
:1025B0001F910F91FF90EF900895248135810ECFE8
:1025C0002681378113CF88E21ECF88E91CCF88EFA0
:1025D0001ACF833629E1920749F0813834E993070D
:1025E00029F08131E5E19E0709F048CF2A8527FFD0
:1025F00002C021602A872A8526FF02C022602A871E
:102600008336F9E19F0721F48A858F738A8736CF55
:10261000813824E9920719F48A858F72F7CF8131C6
:10262000954109F02BCF8A858F7E806CEFCF2A856C
:10263000622F022E000C770B8339F7E79F0761F0BA
:1026400008F042C08435E1E09E0709F469C0803299
:10265000F4E59F0709F041C020E032E0F70130A720
:1026600027A321E032E032A721A722E032E034A7FD
:1026700023A720E132E036A725A721E132E030ABE5
:1026800027A722E132E032AB21AB23E132E034ABC9
:1026900023AB662770788632F3E99F0709F480C080
:1026A0008032944509F47CC080E09AE6682B792B4F
:1026B00080E094E00E94BC0E6A85F4E06F9FB00158
:1026C00011246627717054C0863223E9920721F2E3
:1026D000893035EB930709F4BFCF80E290E0F70132
:1026E00090A787A381E290E092A781A782E290E081
:1026F00094A783A780E590E096A785A781E590E061
:1027000090AB87A782E590E092AB81AB83E590E048
:1027100094AB83AB66277078776280E690E0CACF8F
:1027200087E390E0F70196A785A786E390E090AB5A
:1027300087A789E390E092AB81AB88E390E094AB0C
:1027400083AB80E290E090A787A381E290E092A71C
:1027500081A782E290E094A783A7662772706862DF
:10276000F4E02F9FC001112488279170682B792BEA
:1027700081E090E00E94BC0E8A85682F70E075951C
:102780006795759567956870772783FD70616063BD
:10279000F70174A363A383E090E00E94BC0E90CE87
:1027A00080E095E383CF8339F7E79F07D9F1F8F409
:1027B000803234E59307B1F18338E7E79E0739F1BA
:1027C00084359140F9F4600F711F6150710981E304
:1027D00090E00E94BC0EB80182E390E00E94BC0E23
:1027E00070E060E083E390E00E94BC0ED9CE8632B8
:1027F00023E99207B9F0893035EB930799F08532D8
:10280000924909F3F70161A172A1626003C0F70167
:1028100061A172A181E690E00E94BC0EB8018AE637
:1028200090E0E2CFF70161A172A1626081E094E0E3
:102830000E94BC0EB80184E094E0D6CFEF92FF92E4
:102840000F931F93DC01ED91FC9100A0F1A1E02D0D
:10285000780101E010E009951F910F91FF90EF9032
:1028600008950895FC016370668B848195812681AB
:102870003781613039F0633029F091878087338761
:1028800022870895318720879387828708952F9222
:102890003F924F925F926F927F928F929F92AF92F0
:1028A000BF92CF92DF92EF92FF920F931F93CF933D
:1028B000DF93CDB7DEB76A970FB6F894DEBF0FBED1
:1028C000CDBF9A8F898F7A8369834A01D22E188768
:1028D0000F833701BC2CDC0159962D913C915A97FE
:1028E0002115310509F015C118968D919C91199704
:1028F000681779070CF0D7C11A968D919C914817EB
:1029000059070CF0D0C14C2C512CB6E0CB9E600D79
:10291000711D11247C876B87161617060CF0C3C136
:10292000EA2DF0E0FA87E98793E0EE0FFF1F9A9512
:10293000E1F7F88BEF87CF01840F951F1816190662
:102940000CF0B1C1A98DBA8D58968C91811104C03B
:10295000BFEABD1508F4D394A98DBA8DED91FC9111
:1029600011970284F385E02DCD010995B5E0DB9E3A
:10297000C0011124E981FA81FC83EB83312C212CE5
:102980009C01265A324F388F2F8B4A2D50E05E8B98
:102990004D8BEF89F88DE20DF31D44919E828D825F
:1029A000D12CC12C69817A81620D731D7A8B698B60
:1029B000842F90E09C8B8B8BE98DFA8DA081B18167
:1029C00040FF82C0F1E0BF126FC0AF126DC01C9615
:1029D000ED91FC912F813885A4014C0D5D1D698915
:1029E0007A89898D9A8D0995EB89FC89F595E7950A
:1029F0004E2F5FEFC51AD50A6D817E818D899E8924
:102A0000680F791F7E836D8398E0C916D10481F623
:102A1000AFEF2A1A3A0AEB81FC81E40DF51DFC8325
:102A2000EB83F5E02F16310409F0B3CF2F81388501
:102A300026153705B9F0A98DBA8DED91FC91B1E05D
:102A4000BB1257C0AB1255C069817A816B5F7F4F53
:102A50000088F189E02D830128E030E0A401898D10
:102A60009A8D0995A98DBA8DED91FC9111970688E3
:102A7000F789E02DCD016A960FB6F894DEBF0FBE40
:102A8000CDBFDF91CF911F910F91FF90EF90DF901D
:102A9000CF90BF90AF909F908F907F906F905F90FE
:102AA0004F903F902F9009941E96ED91FC91EF80EE
:102AB000F88409851A8592014D815E816B817C8144
:102AC000898D9A8D099590CF2F81388526153705E8
:102AD00009F48ACF31E0B31207C0A31205C01C96D7
:102AE000ED91FC91930178CF1E96ED91FC917301CD
:102AF000E0CF6B857C85641975090684F785E02D28
:102B000073010F8518899201A401898D9A8D099509
:102B1000A9CFF90134969491329745915491D91ADD
:102B2000B7E0DB9E400D511D1124F9012591349130
:102B30003C8B2B8BFA0125903490FA0132967490DD
:102B400031963491398B329664903196449041E0BD
:102B50004C1518F04A1508F07FC0662D062C000CA5
:102B6000770B7C836B83842D042C000C990B9E8344
:102B70008D83A98DBA8DED91FC9111970284F38517
:102B8000E02DCD010995512CD12CC12CEA2DF0E07E
:102B9000FA87E9872B2D30E03C872B87A401440D71
:102BA000511D47FC5A95588F4F8B69817A81660D6C
:102BB000711D67FC7A957E876D877989C71608F045
:102BC00051CF2C2D30E04D815E81420F531FA985DE
:102BD000BA854A9FC0014B9F900D5A9F900D1124BA
:102BE000FC01E80DF91DF88BEF87852D612C4F89CD
:102BF000588D420F531F5E8B4D8B671408F050C0E9
:102C000044244394480E877041F4C1010196EB8936
:102C1000FC89E20DF31DD4901C01D7FE19C0A98DCB
:102C2000BA8DED91FC91662D70E0B1E0BB1219C038
:102C3000AB1217C02D853E85620F731F0484F58586
:102C4000E02D2F8138854D895E89898D9A8D099572
:102C5000DD0C6394842DD1CF1E821D821C821B82C9
:102C600088CF4B815C81640F751FAB85BC856A9FE3
:102C7000C0016B9F900D7A9F900D112469817A811C
:102C8000680F791F0684F785E02DEF80F8840985A9
:102C90001A859D014F855889898D9A8D0995D8CFC0
:102CA000570CC3948ACF6A960FB6F894DEBF0FBE56
:102CB000CDBFDF91CF911F910F91FF90EF90DF90EB
:102CC000CF90BF90AF909F908F907F906F905F90CC
:102CD0004F903F902F9008958F929F92AF92CF92F6
:102CE000EF92FF920F931F93CF93DF93EC01262F68
:102CF000898D9A8D009709F051C06A30D1F41D86F4
:102D00001C868D8948E0849F900111248E859F85C3
:102D1000820F931F9F878E8781E090E0DF91CF9194
:102D20001F910F91FF90EF90CF90AF909F908F9059
:102D300008956D3089F3CC88AD888F898823C1F0E0
:102D40008C859D8536E0C39E800D911D112448859C
:102D500059854817590764F44E855F851D861C8682
:102D600038E0A39EC0011124840F951F9F878E8792
:102D7000EA88FB88088919894E855F856C857D8581
:102D8000CE010E9447142C898C859D8546E0249FA6
:102D9000800D911D11249D878C87BECF6A3069F408
:102DA0001D861C86FC013696E4912D898E859F85B3
:102DB000E29F800D911D1124ADCF6D3009F4ACCF91
:102DC000FC0134963491631708F4A6CF3196E49150
:102DD000E61708F4A1CFFC01329685909490462F17
:102DE000431B342F47E0349F800C911C1124F401C5
:102DF000329634913196E4913323A9F1EE2399F17F
:102E0000CC88F4013596E491AD884F89442301F1D3
:102E10000E2E000CFF0BE30FF11DCE9EA001CF9EE6
:102E2000500D11246C857D85460F571F6885798567
:102E3000641775076CF44E855F851D861C86FC0142
:102E40003696E491AE9E400D511D11245F874E874A
:102E5000EA88FB88088919894E855F856C857D85A0
:102E6000CE010E944714F4013496E4912C898C859C
:102E70009D85E29F800D911D11248DCF6F927F92D1
:102E80008F929F92AF92BF92CF92DF92EF92FF927A
:102E90000F931F93CF93DF93EC016B015A0139011C
:102EA0004801E881F9810284F385E02D0995E881E4
:102EB000F9810288F389E02D87019301A501B6010C
:102EC000CE010995A501480D591D41505109E881D0
:102ED000F9810288F389E02D9301B601CE010995AD
:102EE000E881F9810088F189E02D9401A501B601FE
:102EF000CE010995C60CD71CB60161507109E88155
:102F0000F9810088F189E02D9401A501CE01099590
:102F1000E881F9810688F789E02DCE01DF91CF9114
:102F20001F910F91FF90EF90DF90CF90BF90AF90E7
:102F30009F908F907F906F9009946F927F928F9265
:102F40009F92AF92BF92CF92DF92EF92FF920F9338
:102F50001F93CF93DF935C01EB016A0149013801B4
:102F60008701DC01ED91FC916217730719F5641676
:102F700075062CF0962D872D3A01C92ED82E960174
:102F8000261937092F5F3F4F048CF58DE02DA301E3
:102F9000BE01C5010995DF91CF911F910F91FF905F
:102FA000EF90DF90CF90BF90AF909F908F907F90E9
:102FB0006F9008954615570591F42617370724F0AA
:102FC000892D4B01C22FD82F9E01281939092F5F57
:102FD0003F4F068CF78DE02DA601B401DACF0284B5
:102FE000F385E02D0995D501ED91FC910488F589D3
:102FF000E02D83019401A601BE01C5010995D5010B
:10300000ED91FC910688F789E02DC501DF91CF9104
:103010001F910F91FF90EF90DF90CF90BF90AF90F6
:103020009F908F907F906F900994EF92FF920F93F3
:103030001F93DC011A960D911C911B9718962D91E8
:103040003C911997ED91FC9100A0F1A1E02D7B013D
:1030500050E040E070E060E009951F910F91FF9013
:10306000EF9008954F925F926F927F928F929F920E
:10307000AF92BF92CF92DF92EF92FF920F931F9386
:10308000CF93DF936C012B015A0139014801DC0118
:10309000ED91FC910284F385E02D0995E201640C29
:1030A000751CD601ED91FC91C615D7055CF400881E
:1030B000F189E02D87019401A501BE01C6010995A2
:1030C0002196EFCF0688F789E02DC601DF91CF91D9
:1030D0001F910F91FF90EF90DF90CF90BF90AF9036
:1030E0009F908F907F906F905F904F9009948F92F8
:1030F0009F92AF92BF92CF92DF92EF92FF920F9387
:103100001F93CF93DF93EC015B014A016901E881D2
:10311000F9810284F385E02D099595012C0D3D1D63
:1031200021503109E881F9810488F589E02D780181
:103130008401A401B501CE010995E881F9810688D1
:10314000F789E02DCE01DF91CF911F910F91FF9074
:10315000EF90DF90CF90BF90AF909F908F900994A9
:103160008F929F92AF92BF92CF92DF92EF92FF9297
:103170000F931F93CF93DF93EC015B014A01690129
:103180007801E881F9810284F385E02D0995C80C66
:10319000D91C860101501109E881F9810488F5895B
:1031A000E02D9501A401B501CE010995E881F981D1
:1031B0000688F789E02DCE01DF91CF911F910F9105
:1031C000FF90EF90DF90CF90BF90AF909F908F9047
:1031D0000994EF92FF920F931F93DC01ED91FC9104
:1031E00000A0F1A1E02D09951F910F91FF90EF90A4
:1031F00008950F931F93DC01ED91FC91068CF78DE0
:10320000E02D09951F910F9108952F923F924F92B3
:103210005F926F927F928F929F92AF92BF92CF9266
:10322000DF92EF92FF920F931F93CF93DF93CDB76F
:10323000DEB7A8970FB6F894DEBF0FBECDBF78A754
:103240006FA34A0159011801DE86CD86261737077C
:103250000CF086C1E616F7060CF499C13FA128A52B
:10326000B8A6AFA2A32EB22E382F292FC401832EC9
:10327000922E2FA138A52E153F05B9F5881699066F
:103280002CF4382F292FC401832E922E28163906AC
:103290002CF0821493040CF441011C0194012219B6
:1032A00033092F5F3F4F0D851E854FA158A5B101F2
:1032B00080EB92E00E94F918A8960FB6F894DEBF52
:1032C0000FBECDBFDF91CF911F910F91FF90EF9077
:1032D000DF90CF90BF90AF909F908F907F906F9036
:1032E0005F904F903F902F900895322D232D1C0119
:1032F000832F922F3E2D2F2DEFA0F8A43FA328A7B8
:10330000940122193309A5014E195F09BC01621904
:1033100073097C8B6B8BAFA1B8A5AE19BF09BE83B7
:10332000AD83BC01681979097E8B6D8B8FA198A53F
:103330008A199B09988B8F87AFA1B8A5AA15BB05E1
:1033400009F489C0B501615071097A8769876701FD
:10335000412C512C320119821A821B821C826B89EA
:103360007C89072E000C880B990B6F8B788F898FC7
:103370009A8FCA01550FAA0BBB0B8B8F9C8FAD8FF9
:10338000BE8F4D815E81052E000C660B770B4F8F33
:1033900058A369A37AA3B901330F880B990B6BA3C8
:1033A0007CA38DA39EA389859A858C159D050CF41D
:1033B00057C069817A818B819C812B8D3C8D4D8D8D
:1033C0005E8D0E94A0318101020F131FC301B20163
:1033D0002F8D38A149A15AA10E94A031B101620FDD
:1033E000731F29813A814B815C818BA19CA1ADA186
:1033F000BEA1280F391F4A1F5B1F29833A834B83C5
:103400005C832F89388D498D5A8D420E531E641E60
:10341000751E601771072CF0962F872FB801092FA2
:10342000182F9801261B370B2F5F3F4F0D851E85E8
:10343000A60180EB92E00E94F9183FEFC31AD30A6D
:10344000B2CF382D292D4C01832F922F3FA128A5D3
:10345000B8A6AFA2A8C08FA198A59A87898777CF71
:103460004D895E89052E000C660B770B49875A87BC
:103470006B877C8796012A193B09AD89BE890E941A
:10348000543269837A838B839C8396012E193F097A
:10349000AB89BC890E9454322B013C016F8578892D
:1034A000072E000C880B990B6F87788B898B9A8B72
:1034B0008D819E81092E000CAA0BBB0B8D839E83F0
:1034C000AF83B887AFA1B8A5AC15BD050CF4F4CE99
:1034D00069817A818B819C812F85388949895A89B4
:1034E0000E94A0317401E20EF31EC301B2012D81CE
:1034F0003E814F8158850E94A031B101620F731F38
:1035000029813A814B815C8189859A85AB85BC850F
:10351000280F391F4A1F5B1F29833A834B835C8323
:103520002F89388D498D5A8D420E531E641E751E8B
:103530006E157F052CF0962F872FB701E92EF82EF8
:103540009701261B370B2F5F3F4F0D851E85A60168
:1035500080EB92E00E94F9183FEFC31AD30AB2CF72
:10356000E216F3060CF085CE4FA158A5E416F50639
:103570000CF467CF232D14014C01802F922F3A2D8C
:103580002B2D5A01F8A6EFA2E32EF22E67CEE216FB
:10359000F3060CF4B5CE322D232D1401832E922E7A
:1035A0003E2D2F2D7501A32EB22EAACE0F931F9361
:1035B000DC01ED91FC91048CF58DE02D09951F91B6
:1035C0000F910895DC01ED91FC910084F185E02DCF
:1035D00009942F923F924F925F926F927F928F92B7
:1035E0009F92AF92BF92CF92DF92EF92FF920F9392
:1035F0001F93CF93DF9300D000D000D0CDB7DEB7BC
:103600003C016A013E832D83FC82EB825801A41A9F
:10361000B50AB7FE03C0B194A194B1088D809E8015
:10362000861A970A97FE03C09194819491088A1490
:103630009B045CF0902F812F0D811E819D838E83D2
:103640009C2D8D2D6B01692F782F0C151D055CF0BD
:103650009D818E817E836D83692F782F902F812F9E
:103660008601C92ED82E1601201A310A2B012D8170
:103670003E81421A530A57FE03C0519441945108A7
:10368000710137FE03C03FEFE31AF30AF594E794A4
:103690008D819E81861797075CF5A1E0B0E0BA8323
:1036A000A983C016D1064CF1D301ED91FC9104849D
:1036B000F585E02D2B813C81A8016D817E818A14E6
:1036C0009B041CF04D815E81B801C3010995E4188B
:1036D000F508F7FE0AC02D813E8189819A81280F65
:1036E000391F3E832D83E20CF31C0F5F1F4FD9CF90
:1036F0002FEF3FEF3A832983D4CF26960FB6F89465
:10370000DEBF0FBECDBFDF91CF911F910F91FF9014
:10371000EF90DF90CF90BF90AF909F908F907F9071
:103720006F905F904F903F902F90089590E080E0D1
:103730000895CF92DF92EF92FF920F931F93CF9352
:10374000DF9380359105A4F482339105DCF58E3149
:103750009105ECF5C12C58EFD52E97FF0DC0DF91E8
:10376000CF911F910F91FF90EF90DF90CF90089530
:1037700040EEC42E47E0D42EEC016091B802709167
:10378000B902675671098FEEE82E8BE7F82E05E136
:1037900010E026E630E041E050E080EB92E00E944D
:1037A000D8106091B8027091B9026656710976011D
:1037B00003E110E09E0142E050E080EB92E00E94C5
:1037C000D810CDCF30EEC32EDD24DA94D5CF20E251
:1037D000C22E2DEFD22ED0CFEF92FF920F931F93D8
:1037E000DC011A960D911C911B9718962D913C9116
:1037F0001997ED91FC9100A0F1A1E02D7B0150E023
:1038000040E070E060E009951F910F91FF90EF900C
:103810000895EF92FF920F931F93DC01ED91FC91BD
:1038200000A0F1A1E02D7801890121E030E00995A7
:103830001F910F91FF90EF900895CF93DF93611543
:10384000710539F0FC01C481D581209729F41092CB
:10385000AB01DF91CF910895615071096C177D071D
:1038600008F4EB01FC0160817181AE018BEA91E00B
:103870000E944E36C555DE4F1882EBCFCF93DF93B3
:10388000EC018091A4029091A5020097E9F0688173
:10389000798161157105B1F04091A6025091A7029E
:1038A0002C813D814217530768F00E9447368C8176
:1038B0009D819093A9028093A8021D821C82DF91B2
:1038C000CF9108950E94EA34888199819093A5024E
:1038D0008093A4028A819B819093A7028093A60281
:1038E0008C819D819093A9028093A80219821882ED
:1038F0001B821A82E2CFCF93DF93EC0188819981FA
:10390000009711F00E94EA34198218821D821C82ED
:103910001B821A82DF91CF910895FC0180819181F1
:10392000009711F00C94EA3408950E943036FB01A0
:1039300001900020E9F73197AF01461B570BDC01DE
:10394000ED91FC910280F381E02D0994BC0180EBA4
:1039500092E00C94971CCF92DF92EF92FF920F931C
:103960001F93CF93DF936C017B01CA01E9010E9491
:10397000B80CE0EBF2E0D586C486F786E686D38BFA
:10398000C28BD18BC08B81E0848B858BC801DF918A
:10399000CF911F910F91FF90EF90DF90CF900C94FB
:1039A000A61C0F931F93CF93DF93EC01888199811D
:1039B000009759F02A813B812617370730F081E0C4
:1039C000DF91CF911F910F9108958B016F5F7F4F12
:1039D0000E947335009759F0998388831B830A836B
:1039E0002C813D81232B59F7FC011082E8CF80E028
:1039F000E7CFEF92FF920F931F93CF93DF93EC01EA
:103A00007B018A01BA010E94D11C81110BC0CE0139
:103A10000E947B1CCE01DF91CF911F910F91FF90EF
:103A2000EF9008951D830C83B701888199810E94CE
:103A30004736F0CFFB0101900020E9F73197AF0145
:103A4000461B570B0C94F91C0F931F93CF93DF93D6
:103A5000CDB7DEB762970FB6F894DEBF0FBECDBF0D
:103A60008C01CB01F801118210821382128215821F
:103A700014824AE0BE016F5F7F4F0E945B30BE013F
:103A80006F5F7F4FC8010E941A1D62960FB6F894AF
:103A9000DEBF0FBECDBFDF91CF911F910F91089573
:103AA000CF93DF93EC01FB018617970749F0608104
:103AB00071816115710541F0448155810E94F91CA5
:103AC000CE01DF91CF9108950E947B1CF9CFFC01BC
:103AD000118210821382128215821482FB010190DE
:103AE0000020E9F73197AF01461B570B0C94F91CE6
:103AF000FF920F931F93CF93DF938C016DE671E0DC
:103B00000E94671DC091AE02D091AF02C330D105B3
:103B1000F0F0C035D10510F0C0E5D0E0E091AA0288
:103B2000F091AB02EC0FFD1FF08010826091AA02B1
:103B30007091AB026E5F7F4FC80181F00E941A1D29
:103B40008091AA029091AB02C80FD91FF882C801D8
:103B5000DF91CF911F910F91FF9008950E947B1CE0
:103B6000EFCFEF92FF920F931F93CF93DF9300D08D
:103B700000D000D0CDB7DEB7BC0188E992E00E944A
:103B8000501D69E671E0CE0101960E94671DE0902C
:103B90009802F0909902E114F10409F448C00091F0
:103BA0009C0210919D0201151105B1F08D819E813D
:103BB000080F191FB801CE0101960E94D11C88235D
:103BC000B1F129813A818D819E81B701820F931FC6
:103BD0000E9447361E830D83BE016F5F7F4F88E9C9
:103BE00092E00E94501DCE0101960E948D1C809192
:103BF0009C0290919D020091A2021091A302801755
:103C0000910759F5809198029091990260919E02D6
:103C100070919F02009799F06115710569F4011583
:103C2000110509F447C0FC01808190E014C0CE0169
:103C300001960E947B1CD0CF0E943E360CC06115BD
:103C40007105C1F101151105A9F1FB01808190E019
:103C5000919581959109892B69F1B8016F5F7F4F2B
:103C60008EE992E00E941D1C0BEA11E030E020E09A
:103C700048E059E163E370E081E090E00E94AB1C12
:103C800060919C0270919D026F5F7F4F88E992E086
:103C90000E941D1C20EE37E048E059E163E370E02C
:103CA00081E090E00E94AB1C68E972E08EE992E04E
:103CB0000E94501D26960FB6F894DEBF0FBECDBFF2
:103CC000DF91CF911F910F91FF90EF9008951F9278
:103CD0000F920FB60F9211242F933F938F939F93C0
:103CE000AF93BF938091A2019091A301A091A401F1
:103CF000B091A5013091A10123E0230F2D3758F594
:103D00000196A11DB11D2093A1018093A201909362
:103D1000A301A093A401B093A5018091A601909165
:103D2000A701A091A801B091A9010196A11DB11D03
:103D30008093A6019093A701A093A801B093A90135
:103D4000BF91AF919F918F913F912F910F900FBE97
:103D50000F901F90189526E8230F0296A11DB11D04
:103D6000D2CF1F920F920FB60F9211242F933F9331
:103D70004F935F936F937F938F939F93AF93BF9373
:103D8000EF93FF938BEF91E00E94AF0DFF91EF91C6
:103D9000BF91AF919F918F917F916F915F914F9163
:103DA0003F912F910F900FBE0F901F9018951F926B
:103DB0000F920FB60F9211242F938F939F93EF932F
:103DC000FF93E0910B02F0910C028081E0911102CF
:103DD000F091120282FD1BC09081809114028F5FCE
:103DE0008F7320911502821741F0E0911402F0E0E8
:103DF000E550FE4F958F80931402FF91EF919F91B4
:103E00008F912F910F900FBE0F901F90189580816A
:103E1000F4CFEBEFF1E01382128288EE93E0A0E0A2
:103E2000B0E084839583A683B7838FE291E091838A
:103E3000808385EC90E09587848784EC90E0978779
:103E4000868780EC90E0918B808B81EC90E0938B67
:103E5000828B82EC90E0958B848B86EC90E0978B44
:103E6000868B118E128E138E148EE0EBF2E013828D
:103E7000128220EF30E03583248380E491E0978341
:103E800086833187208793878287168A15861486D2
:103E90001786168681E0858B848B2FEF3FEF338B5F
:103EA000228B318B208B878B108E128E118E81E4AA
:103EB00091E0918380836DE671E08AEA92E00E944E
:103EC000671D6DE671E084EA92E00E94671D63E77A
:103ED00071E08EE992E00E94671D63E771E088E976
:103EE00092E00C94671DCF93DF93CDB7DEB7C55436
:103EF000D1090FB6F894DEBF0FBECDBF789484B55C
:103F0000826084BD84B5816084BD85B5826085BDD5
:103F100085B5816085BD80916E00816080936E0063
:103F20001092810080918100826080938100809155
:103F30008100816080938100809180008160809306
:103F400080008091B10084608093B1008091B000C6
:103F500081608093B00080917A00846080937A00C1
:103F600080917A00826080937A0080917A008160EB
:103F700080937A0080917A00806880937A00109212
:103F8000C100E0910B02F0910C0282E08083E0918D
:103F90000702F09108021082E0910902F0910A02F2
:103FA0008FEC808310921302E0910F02F0911002C7
:103FB00086E08083E0910D02F0910E0280818061A5
:103FC0008083E0910D02F0910E02808188608083F1
:103FD000E0910D02F0910E02808180688083E09173
:103FE0000D02F0910E0280818F7D808360E090E071
:103FF00080E00E94210F8C01883024E5920711F1A6
:10400000803244E59407F1F08938994809F433C1C6
:1040100060E087E690E00E94210F07E413E8873410
:10402000974481F081EA90E00E94A40F03E619E131
:104030006130F1E67F0731F06F3F7F4F09F061C0DB
:1040400006E215E14801B12CA12C19A2BE016F5D59
:104050007F4FD501C4018F709927AA27BB2794E011
:10406000B694A794979487949A95D1F78A300CF0D8
:104070000EC1805DFB018293BF0181149104A104F4
:10408000B10439F7EF2B21F08BEF91E00E94971CE0
:104090006BE671E08BEF91E00E94971C0E94F50E99
:1040A0001092CC021092CB021093D0020093CF0258
:1040B0000735F3E81F0711F40C94CE2808F087C1E8
:1040C000033540E2140711F40C94162908F020C1BE
:1040D000013185E1180709F41CC208F0EEC0093966
:1040E000110511F40C94E62808F0D3C080E091E1AA
:1040F0000130110509F4D8C01092B5021092B40233
:1041000005C28FEB90E00E94700F8B01673543E88A
:10411000740709F497CF6138744909F493CF0131DA
:1041200085E1180709F48ECF003295E1190709F4EB
:1041300089CF0632E5E11E0709F482CF0138F5E1A7
:104140001F0709F47FCF0115144109F497C084EDCE
:1041500090E00E94A40F8B016031734509F472CF87
:1041600087ED90E00E94A40F8B016133704809F441
:1041700069CF8FEE90E00E94700F8B01073283E9C8
:10418000180709F45FCF8EEF90E00E94A40F072F6D
:10419000182F292F3327033590E2190709F452CF3E
:1041A00084E090E00E94A40F8B01811123C061156F
:1041B000704801F58091100190911101A0911201B8
:1041C00089839A83AB83AE014F5F5F4F63E089EBD6
:1041D00090E00E943E0E60E080ED90E00E94210F92
:1041E00009E910E0893909F42DCF8039A9F400E9F3
:1041F00010E928CF0632F5E11F0709F421CF003F6F
:1042000029E81207F1F1023545E81407E9F1013117
:104210005CEA150709F416CF83ED90E00E94A40F25
:10422000072F182F292F3327033681E9180709F4A0
:1042300009CF83ED90E00E94A40F8B01872F735963
:10424000723008F4FFCE883909F4FCCE873709F4C0
:10425000F9CE863109F4F6CE033D110509F4F2CE0C
:10426000033D100709F4EECE60E090E080E00E948C
:10427000210F8C01E7CE09E812E1E4CE04E118E653
:10428000E1CE05E317E7DECE09E817E7DBCE895C70
:10429000F1CE0435E1E01E0709F42CC105301541CB
:1042A00009F02ACF84E090E19093CE028093CD0272
:1042B00068ED70E088E696E127C1063225E1120735
:1042C00009F425C780F40032154109F015CF83E1C8
:1042D00094E09093CE028093CD02A6E0EA2EF12CDA
:1042E00003E214E12DC1013885E1180709F4B3C7D1
:1042F0000230164109F000CF83E094E09093CE02A3
:104300008093CD0296E0E92EF12C0CE713E118C161
:104310000431E8E61E0709F41EC748F5003123E51D
:10432000120709F400C778F40533154409F0E4CE08
:1043300080E090E19093CE028093CD026CE970E032
:1043400080ED97E1E1C0083084E5180709F4AACFB1
:104350000930184609F0D0CE82E091E19093CE0268
:104360008093CD026CEC70E08CE995E1CDC003390F
:10437000E7E71E0709F4A5C7A8F4033827E71207E3
:1043800009F401C70938174709F0B6CE83E194E074
:104390009093CE028093CD0261E4E62EF12C01EDE4
:1043A00013E1CEC0063957E7150709F46FC701338B
:1043B000104809F0A1CE83E194E19093CE0280935E
:1043C000CD0252E1E52EF12C0FEB13E1B9C0083319
:1043D00093E9190709F439C780F50732F3E91F0794
:1043E00009F40CC7C8F4023043E9140709F42AC7DA
:1043F00038F40039104909F07FCE83E194E1D0C64A
:10440000003293E9190709F44DCF0532134909F039
:1044100073CE80E091E1A2CF0932F3E91F0709F4DE
:1044200017C7B8F3013343E9140721F005331349E3
:1044300009F062CE80E090E191CF093884E9180755
:10444000C8F5073894E9190708F038C70138E4E9D6
:104450001E0709F418C790F40054134902301105DF
:1044600008F04ACE83E194E09093CE028093CD028F
:1044700005E6E02EF12C04E113E162C00638144990
:1044800009F03ACE83E094E09093CE028093CD027F
:1044900080EE91E09093B7028093B60280E491E0C1
:1044A0009093B5028093B402BBE3EB2EF12C04E9A8
:1044B00012E146C0053045EB140789F038F40131AC
:1044C0001C4A09F019CE83E194E1B2C6093095EB9C
:1044D000190709F4F6C60530154C09F00DCE88E031
:1044E00090E19093CE028093CD0260EB70E08CEE71
:1044F00094E10AC082E090E19093CE028093CD02D5
:104500006CE970E08CE698E10E94C30F10E000E0D7
:1045100017C083E090E09093CE028093CD0280EEAE
:1045200091E09093B7028093B60280E491E090937B
:10453000B5028093B402B3E0EB2EF12C09E214E152
:104540002091CE02822F82958F7090E08170992702
:104550009093D2028093D1020115110581F069E098
:1045600070E080E692E10E946F0EB701C8010E94E0
:104570006F0E66E070E08AE592E10E946F0E60E0E7
:1045800080EB92E00E94D51160E080EB92E00E9407
:10459000E50F8091CF029091D0028838944909F0BC
:1045A00016C11092960120EE3FEF50E040E070E01F
:1045B00060E080EB92E00E949A11F090DB02E090C4
:1045C000DC028091CD0280FF03C0FEE2FF2EE12CD1
:1045D0008091CF029091D0028230964119F4EEE2A0
:1045E000FE2EE12C10E000E030E020E050E040E062
:1045F00070E060E080EB92E00E9428108091CD0294
:1046000080FD10C070E060E08091D7029091D802E8
:104610000E94BC0E70E060E08091D9029091DA02B5
:104620000E94BC0E4398429885B18C7F9E2D93705A
:10463000892B85B99BB193704E2D4C7FE42EE92ACE
:10464000EBB84198419A85B18C7F9F2D9370892B4F
:1046500085B99BB193705F2D5C7FF52EF92AFBB86D
:104660004198419A429A84B18C7F84B98AB183700F
:104670008AB92091CD023091CE028091CF029091E3
:10468000D00226FD0EC0409A40984098409843B111
:1046900049B1409A20FD05C08938E2E19E0709F042
:1046A00023C68131954139F4409A4098409840980A
:1046B00083B189B1409AB90164707727409A4098D4
:1046C0004098409824FF2DC693B189B193708C7F98
:1046D000982B409A409A40984098409843B189B1AD
:1046E00043708C7F482B409A409A4098409840985D
:1046F00083B1E9B083705E2D5C7F852B409A50E0DA
:10470000672B09F4F9C5E82EF12CFE2CEE24EE24DB
:1047100088EFF82273E0440F551F7A95E1F7407E49
:104720005770E42AF52A969596959695E92A8091F0
:104730009601882399F0C701A5E096958795AA95DB
:10474000E1F780729927A701569547954F71552734
:10475000842B952BF0ECEF22E82AF92A409A439A11
:1047600084B1836084B98AB18C6F8AB920FD14C08A
:104770000091BA021091BB02015011092091B802B8
:104780003091B9022150310950E040E070E060E022
:1047900080EB92E00E9428102FE1E2162FEFF20644
:1047A000B1F486E08983AE014F5F5F4F61E08AE339
:1047B00090E00E943E0E8091CD029091CE028F7EBD
:1047C0009093CE028093CD0281E08093960161E0C8
:1047D00080EB92E00E94D51170E060E080EB92E007
:1047E0000E94EC1B90E080E00E94B80CA2E05A2EE0
:1047F0005092C4025092C502BFEEEB2EBBE7FB2ED7
:1048000000E910E026EC30E04EE550E066E270E0B2
:1048100080EB92E00E943E17C12C18EFD12EEE24BF
:10482000E394F12C07E711E022E330E04FE851E098
:1048300062E370E08DE591E00E940519D12CC12C56
:1048400084E0E82EF12C2FE230E04CE851E06FE2FA
:1048500070E080E691E00E940519C12C98EFD92EF6
:104860002AE0E22EF12C2CE230E046E851E06CE246
:1048700070E086E691E00E940519CC24CA94DC2CF5
:104880004FE0E42EF12C2AE230E043E851E06AE206
:1048900070E08AE691E00E94051950EEC52E57E0BF
:1048A000D52E6EE2E62EF12C0DE011E024E030E092
:1048B0004DE051E069E170E089EF90E00E94051958
:1048C00008E111E029E130E04CE251E064E070E001
:1048D00088E191E00E9405190DE011E024E030E04C
:1048E0004DE051E069E170E089EF90E00E94051928
:1048F00008E111E029E130E04CE251E064E070E0D1
:1049000088E191E00E940519E12C78EFF72E01E093
:1049100010E02DE431E041E050E06DE371E080EB28
:1049200092E00E949D1702E310E02DE431E042E3A3
:1049300050E06DE371E080EB92E00E949D1703E28E
:1049400010E020E331E040E150E060E371E080EB13
:1049500092E00E949D172AE531E040E150E06AE5CF
:1049600071E080EB92E00E949D1701E010E02DE3E2
:1049700031E040E150E060E371E080EB92E00E94C2
:104980009D1700E110E02AE531E041E050E06DE4E0
:1049900071E080EB92E00E949D1702E310E02DE4AD
:1049A00031E043E250E06AE571E080EB92E00E9482
:1049B0009D1703E210E020E331E042E350E06DE3B5
:1049C00071E080EB92E00E949D178FE099E10E94D8
:1049D000B80C8BE391E09093BD028093BC0285E21A
:1049E00090E09093BF028093BE0280E098EF909396
:1049F000C3028093C2029093C1028093C00250927E
:104A0000C4025092C5028EE691E00E94A61C83E487
:104A100090E09093A00180939F0162E670E0CE0148
:104A200001960E94241DCE0101960E94B11DCE0167
:104A300001960E948D1C60E771E0CE0101960E94F4
:104A4000671D6D817E816F5F7F4FCE0101960E9451
:104A50001D1CF12CE12C02E310E02FE530E041E0D9
:104A600050E060E670E080EB92E00E94D8100BEA24
:104A700011E020EE3FEF48E059E163E370E08EE69D
:104A800090E00E94AB1CCE0101960E948D1CEFE1CC
:104A9000EE2EF12C01E310E021E330E048E650E097
:104AA0006BE271E080EB92E00E94D810EE24EA9471
:104AB000FE2C01E910E024E431E04EE650E064E42D
:104AC00071E080EB92E00E949D1726E331E04EE614
:104AD00050E060E471E080EB92E00E949D1722E5D7
:104AE00031E04EE650E068E471E080EB92E00E9435
:104AF0009D1765E771E0CE0101960E94671D6D81EB
:104B00007E816F5F7F4FCE0101960E941D1CAFEE2C
:104B1000EA2EABE7FA2E06E210E020E530E046E3AD
:104B200050E066E670E080EB92E00E943E178FE076
:104B300099E10E94B80C8BE690E09093BD028093BF
:104B4000BC02B4E58B2E912C9092BF028092BE02E3
:104B50001FEEC12E1BE7D12ED092C302C092C2021B
:104B6000D092C102C092C0025092C4025092C502BB
:104B70008BEA91E00E94A61CCE0101960E948D1C3A
:104B8000E12C08EFF02E01E310E021E330E046E3F2
:104B900050E06EE571E080EB92E00E94D810F12CBD
:104BA000E12C0AE410E02BE731E04AE450E067E64C
:104BB00071E080EB92E00E949D1706E410E027E68A
:104BC00031E04AE450E067E671E080EB92E00E9459
:104BD0009D1701E410E023E631E046E450E067E68B
:104BE00071E080EB92E00E949D170CE310E025E657
:104BF00031E041E450E063E671E080EB92E00E9436
:104C00009D1706E410E027E631E04CE350E065E64E
:104C100071E080EB92E00E949D1701E410E02AE62B
:104C200031E046E450E067E671E080EB92E00E94FC
:104C30009D1725E731E041E450E06AE671E080EB42
:104C400092E00E949D1704E410E027E731E041E480
:104C500050E065E771E080EB92E00E949D1702E46E
:104C600010E026E831E044E450E067E771E080EBD3
:104C700092E00E949D170AE410E02BE731E042E445
:104C800050E066E871E080EB92E00E949D1706E438
:104C900010E026E831E044E450E067E871E080EBA2
:104CA00092E00E949D1728E831E044E450E067E874
:104CB00071E080EB92E00E949D170DE310E020E789
:104CC00031E040E450E060E771E080EB92E00E9468
:104CD0009D1722E731E04DE350E06EE671E080EB96
:104CE00092E00E949D178FE099E10E94B80C88E63F
:104CF00091E09093BD028093BC0281E690E0909396
:104D0000BF028093BE02AA24AA94BA2CB092C30216
:104D1000A092C202B092C102A092C0024424439465
:104D20004092C4024092C5028AE791E00E94A61C0C
:104D3000E12C98EFF92E01E310E021E330E046E3A7
:104D400050E06BE271E080EB92E00E94D8108FE0BF
:104D500099E10E94B80C81E391E09093BD028093A9
:104D6000BC022CE4622E712C7092BF026092BE02D3
:104D7000B092C302A092C202B092C102A092C0023D
:104D80004092C4024092C5028EE791E00E94A61CA8
:104D90008FE291E09093BD028093BC023DE5232E0B
:104DA000312C3092BF022092BE0282E891E00E9434
:104DB000A61C20E330E046E350E069EF70E080EBB2
:104DC00092E00E94D8108FE099E10E94B80C0FEF9A
:104DD00010E01093BD020093BC027092BF0260927B
:104DE000BE02B092C302A092C202B092C102A092CF
:104DF000C0024092C4024092C5028EE791E00E9438
:104E0000A61C1093BD020093BC023092BF022092F8
:104E1000BE021092C3021092C2021092C1021092FE
:104E2000C00286E891E00E94A61C40EEE42EFF241A
:104E3000FA9401E310E020E330E048E650E069EF47
:104E400070E080EB92E00E94D8108FE099E10E9420
:104E5000B80C85E091E09093BD028093BC028BE892
:104E600090E09093BF028093BE021092C302109212
:104E7000C2021092C1021092C0025092C40250921B
:104E8000C5028AE891E00E94A61C6CE871E0CE01A0
:104E900001960E94671D6D817E816F5F7F4FCE01FD
:104EA00001960E941D1C5FEEE52E5BE7F52E06E2E3
:104EB00010E024E330E046E350E068EB70E080EB84
:104EC00092E00E943E178FE099E10E94B80C8CEBB3
:104ED00090E09093BD028093BC029092BF028092BA
:104EE000BE02D092C302C092C202D092C102C0924E
:104EF000C0025092C4025092C5028BEA91E00E9417
:104F0000A61C00E910E023E230E04EE550E061E04D
:104F100070E080EB92E00E943E1760EEE62EFF24E8
:104F2000FA9404E610E02FE130E048E850E063E056
:104F300070E080EB92E00E94D810CE0101960E94B2
:104F40008D1C6FE871E0CE0101960E94671D6D8196
:104F50007E816F5F7F4FCE0101960E941D1C7FEE08
:104F6000E72E7BE7F72E06E210E023E630E046E38B
:104F700050E061E070E080EB92E00E943E178FE02D
:104F800099E10E94B80C83E090E09093BD02809379
:104F9000BC029092BF028092BE02D092C302C09225
:104FA000C202D092C102C092C0025092C40250927A
:104FB000C5028BEA91E00E94A61CCE0101960E94D8
:104FC0008D1CE8E1EE2EE6ECFE2E01E310E021E37D
:104FD00030E048E650E06EE571E080EB92E00E9440
:104FE0003E17FFE1EF2EF12C0DE110E027E230E05B
:104FF00042E750E063E671E080EB92E00E943E17EA
:1050000009E010E027E230E04CE750E063E671E0B1
:1050100080EB92E00E943E1700E018EF2FE030E0B6
:1050200048E750E06CE671E080EB92E00E94091CDA
:105030002FE030E048E750E066E771E080EB92E077
:105040000E94091C2FE030E048E750E060E871E082
:1050500080EB92E00E94091C8BEF91E00E948F0D83
:10506000181619060CF02FC78BEF91E00E946D0DFA
:10507000F82E89831A820091AE021091AF020F5F61
:105080001F4FB8018AEA92E00E94D11C882399F050
:105090002091AA023091AB028091AE029091AF02B2
:1050A000BE016F5F7F4F820F931F0E9447361093A0
:1050B000AF020093AE024AE0F412CECF8091AE026E
:1050C0009091AF02892B09F4B0C4E091AA02F0914B
:1050D000AB02309709F4A9C4E081EB52EF3008F03D
:1050E000A4C40E2E000CFF0BE858F74D0C944E3262
:1050F000532F152D5D2F152D152DC029152D152D6F
:10510000152D152D242D2B2D562DFF2D1F2E83E112
:1051100094E09093CE028093CD02FCE0EF2EF12C30
:1051200007E114E10DCA83E19EE09093CE028093E3
:10513000CD0280EE91E09093B7028093B60280E4B6
:1051400091E09093B5028093B402E2E0EE2EF12C50
:1051500005E114E1F5C983E094E09093CE028093D9
:10516000CD0280EE91E09093B7028093B60280E486
:1051700091E09093B5028093B40273E0E72EF12C96
:1051800002E114E1DDC982E091E19093CE028093C7
:10519000CD0260E970E080E497E1B6C983E094E174
:1051A0009093CE028093CD0280EE91E09093B7026F
:1051B0008093B60280E491E09093B5028093B402AC
:1051C00042E0E42EF12C0DEB13E1BAC983E194E146
:1051D0009093CE028093CD0280EE91E09093B7023F
:1051E0008093B60280E491E09093B5028093B4027C
:1051F0003DE1E32EF12C00EA13E1A2C983E094E043
:105200009093CE028093CD0280E991E09093B70213
:105210008093B60280EF90E09093B5028093B40241
:105220002EE1E22EF12C02E813E18AC987E194E134
:105230009093CE028093CD0283E0E82EF12C09E713
:1052400013E17EC983E094E0F3CF83E194E0F0CFF3
:1052500083E096E1EDCF83E194E09093CE028093DA
:10526000CD0280EE91E09093B7028093B60280E485
:1052700091E09093B5028093B40215E4E12EF12CF5
:105280000FEC12E15DC987E094E0E7CF83E094E0A2
:105290009093CE028093CD0280EE91E09093B7027E
:1052A0008093B60280E491E09093B5028093B402BB
:1052B000ABE2EA2EF12C09E612E142C983E194E067
:1052C000E7CF80E090E19093CE028093CD0260EC36
:1052D00070E08CE294E10E94C30F80E991E090932A
:1052E000B7028093B60212C9409A409840984098FD
:1052F00043B149B1409AD5C9E92EF12CFE2CEE24D8
:10530000EE2498EFF92233E0440F551F3A95E1F768
:10531000407E5770E42AF52A869586958695E82A78
:1053200006CAE3B099B1409A409A40984098409894
:1053300083B149B183704C7F842B409AEE2DE3708A
:10534000EE2E9C7FE92AFE2CE82E23FF03C0F826D0
:10535000EF24FE24672B09F4EAC9C701807E977009
:10536000A701452F5527469546954695842B952BA5
:10537000FE2CEE24FF0CFF0CFF0CE82AF92AD7C9FB
:10538000CE0101960E94781DCE0101960E943E1C1E
:10539000CE0101960E948D1C8091A4029091A502DD
:1053A000009709F41CC20E9434307093A0016093EE
:1053B0009F0188E1E3E1F1E0DE01119601900D9299
:1053C0008A95E1F778E1E72E76ECF72E08EA10E00F
:1053D0002FE331E050E040E070E060E080EB92E0ED
:1053E0000E94D810EE24EA94FE2C02EA10E025E395
:1053F00031E043E050E065E070E080EB92E00E9435
:10540000D8101092C3021092C2021092C1021092E0
:10541000C002FEEC2F2E33243A94B1016A55710973
:10542000072E000C880B990B0E94A73025E33AEF5A
:105430004EE85CE30E94E2306B017C010E94E432A2
:105440006EA77FA788AB99ABC701B6010E94D03386
:105450004B015C0120E030E049E153E46EA57FA5FB
:1054600088A999A90E94E23020E030E040E253E4AC
:105470000E9478320E9462336AAB7BAB8CAB9DABEF
:105480008AA99BA924969FAF8EAF249720E030E095
:1054900049E153E4C501B4010E94E23020E030E06C
:1054A0004BE353E40E9478320E9462336EAB7FABD1
:1054B00088AF99AFEEA9FFA92696FFAFEEAF26976A
:1054C000B10165557109072E000C880B990B0E94DC
:1054D000A73025E33AEF4EE85CE30E94E2302B016F
:1054E0003C010E94E4326B017C01C301B2010E94C5
:1054F000D0332B013C0120E030E049E153E4C70107
:10550000B6010E94E23020E030E040E253E40E9425
:1055100078320E945B336EA37FA388A799A720E00F
:1055200030E049E153E4C301B2010E94E23020E0DF
:1055300030E04BE353E40E9478320E945B336AA769
:105540007BA78CA79DA720E030E045E053E4C7018E
:10555000B6010E94E23020E030E040E253E40E94D5
:1055600078320E945B336AAF7BAF8CAF9DAF20E097
:1055700030E045E053E4C301B2010E94E23020E094
:1055800030E04BE353E40E9478320E945B33229672
:105590006CAF7DAF8EAF9FAF229720E030E045E04B
:1055A00053E4C501B4010E94E23020E030E04BE357
:1055B00053E40E9478320E9462336AA37BA38CA3D7
:1055C0009DA320E030E045E053E46EA57FA588A9C7
:1055D00099A90E94E23020E030E040E253E40E94CA
:1055E00078320E9462332B01F2E32F16310469F006
:1055F000F12CE12C0AA11BA19B014EAD5FAD6AAD60
:105600007BAD80EB92E00E949D1760EEC62EDD24FC
:10561000DA942EEC22162FEF320640F449E12416DC
:105620003104F0F450EEC52E57E0D52EEAA4FBA4C9
:105630000EA11FA12AA13BA1A2016EA97FA98AA93F
:105640009BA90E940519EEACFFAC0AAD1BAD2AA5C3
:105650003BA54EA15FA16AA17BA1C2010E940519D1
:10566000C10149974997F0F440E2C42E4DEFD42E82
:10567000EAA4FBA40EA11FA12AA13BA1A2016EA92D
:105680007FA98AA99BA90E940519EEACFFAC0AADBF
:105690001BAD2AA53BA54EA15FA16AA17BA1C201BA
:1056A0000E940519C10169E170E00E943A329FA38E
:1056B0008EA324E1C22ED12C892B69F120E030E0A9
:1056C00040E153E46EA57FA588A999A90E94E23024
:1056D00020E030E040E253E40E9478320E946233DE
:1056E00024967FAF6EAF249720E030E040E153E492
:1056F000C501B4010E94E23020E030E04BE353E406
:105700000E9478320E94623326967FAF6EAF269752
:105710003BE0C32ED12CF12CE12C0AA11BA192015C
:1057200026964EAD5FAD269724966EAD7FAD24973D
:1057300080EB92E00E949D178EA19FA1892B09F01A
:1057400083C0B60161577F4F072E000C880B990B61
:105750000E94A7302B013C01AC019B01C501B401A3
:105760000E94E23020E030E04BE353E40E947832C4
:105770000E9462334B01C10169E170E00E943A323C
:105780007B0192E0E90EF11CA30192016EA57FA5B9
:1057900088A999A90E94E23020E030E040E253E479
:1057A0000E94783220E030E040E951E40E947732F4
:1057B0000E946233E2E0EE16F104A9F0F3E0EF1686
:1057C000F10429F021E0E216F10409F035C17093EB
:1057D000BD026093BC025CE0851A91080BC060E0DA
:1057E00070E0CB01E2CD7093BD026093BC0248E053
:1057F000841A91089092BF028092BE0290E080E0ED
:105800000E94B80C1092C3021092C2021092C10200
:105810001092C00292E09093C4029093C502B70127
:10582000660F771F660F771FE1E0F0E0EC0FFD1FBA
:105830006E0F7F1F80EB92E00E94971C6BE671E079
:1058400080EB92E00E94971CF5E02F0E311C27E3BD
:105850002216310409F0E1CD20909F013090A00183
:10586000B101032C000C880B990B6C58710981094C
:1058700091090E94A7304B015C0125E33AEF4EE805
:105880005CE30E94E2302B013C010E94E4326B0198
:105890007C01C301B2010E94D0332B013C0120E006
:1058A00030E044EB52E4C501B4010E94783225E3B4
:1058B0003AEF4EE85CE30E94E2300E94D8334B019D
:1058C0005C018092970190929801A0929901B09208
:1058D0009A0120E030E042E053E4C701B6010E94A3
:1058E000E23020E030E040E253E40E9478320E944F
:1058F00062336B01709303016093020120E030E09A
:1059000042E053E4C301B2010E94E23020E030E003
:105910004BE353E40E9478320E9462332B01709370
:1059200001016093000141E0C41AD10820E030E099
:1059300048ED51E4C501B4010E94E23020E030E0BE
:1059400040E253E40E94783220E030E040E85FE338
:105950000E9477320E945B33E12CA8EFFA2E82017D
:10596000960140EA50E080EB92E00E949D17009182
:10597000000110910101C0900201D090030120E0CC
:1059800030E048ED51E46091970170919801809169
:10599000990190919A010E94E23020E030E040E2CB
:1059A00053E40E9478320E945B33BFE1EB2EB8EFE4
:1059B000FB2E960140EA50E080EB92E00E949D179A
:1059C0000091000110910101C0900201D0900301EB
:1059D0005FEFC51AD50A20E030E048ED51E4609150
:1059E0009701709198018091990190919A010E947C
:1059F000E23020E030E040E253E40E94783220E0E0
:105A000030E040E85FE30E9478320E945B33E12C93
:105A100088EFF82E960140EA50E080EB92E00E9479
:105A20009D1730920501209204016DE671E08AEA2B
:105A300092E00E941A1D10CB7093BD026093BC02CD
:105A400080E1881A9108D6CE70E060E080EB92E0A9
:105A50000E94EC1BEACFE12C78EFF72E02E310E076
:105A600022E330E041E050E06DE571E080EB92E050
:105A70000E94D810EFE1EE2EF12C22E330E041E05D
:105A800050E06BE271E080EB92E00E94D810F0EE03
:105A9000EF2EF7E0FF2E22E330E041E050E069EF27
:105AA00070E080EB92E00E94D810BFCFCE0101964B
:105AB0000E94781DCE0101960E943E1CCE010196E7
:105AC0000E948D1C8091A4029091A502009709F478
:105AD0008AC00E9434307BA36AA370E060E080EB50
