:100000000C948D0C0C94B50C0C94B50C0C94B50C94
:100010000C94B50C0C94B50C0C94B50C0C94B50C5C
:100020000C94B50C0C94B50C0C94B50C0C94B50C4C
:100030000C94B50C0C94B50C0C94B50C0C94B50C3C
:100040000C944E1F0C94B50C0C94BE1F0C94981F6E
:100050000C94B50C0C94B50C0C94B50C0C94B50C1C
:100060000C94B50C0C94B50C05A84CCDB2D44EB97B
:100070003836A9020C50B9918688083CA6AAAA2A4B
:10008000BE000000803F0664EC1B3C04BC163E3BF7
:10009000E5B93CC93C37C29E5A3D660498083EEA21
:1000A00069AAAA3E000000803F0000001B2E20022B
:1000B000D09C0006272017D3BA001B2E2002D05652
:1000C00001192E2004D0E6011B272002D36A021B4F
:1000D0002E2002D006031B2E2002D0A203172A20B6
:1000E00006D01B041B2E2002D0B7041B2E2002D0EA
:1000F00003FFF800FFFF803FFFF803FFFEC33FFF51
:10010000BCF0000FFF0001FFE0003FFC0007FF8094
:1001100000FFF0001FFE0003FFC0007FF8000FFF8C
:100120000001FFE0003FFC0007FF8000FFF0001F20
:10013000FC0000FE0000070000004000000400007A
:1001400000E000007F00003FF0001FFE0003FFC042
:10015000007FF8000FFF0001FFE0003FFC0007FFF9
:100160008000FFF0001FFE0003FFC0007FF8000FBB
:10017000FF0001FFE0003F780003C67FFF301FFF54
:10018000F007FFFF007FFFC007FFF00031EFFFFF28
:10019000FFFFFFFFFFFFFFFF3C30400033FFFFFF8B
:1001A000FFFFFFFFFFFFFFFDE30003FFF800FFFF7E
:1001B000803FFFF803FFFEC03FFFBC00000FC00000
:1001C00001F800003F000007E00000FC00001F8075
:1001D0000003F000007E00000FC00001F800003FA7
:1001E000000007E00000FC00001F800000F07FFF1F
:1001F000861FFFFC4FFFFFE4FFFFF8E7FFFC1F0037
:100200000003F000007E00000FC00001F800003F76
:10021000000007E00000FC00001F800003F0000069
:100220007E00000FC00001F800003F000007E00062
:1002300000780000067FFF001FFFF007FFFF007F30
:10024000FFC007FFF0000FFFE00FFFF80FFFFE03F6
:10025000FFFEC0FFFEF00000FC00007E00003F003B
:10026000001F80000FC00007E00003F00001F8004D
:1002700000FC00007E00003F00001F80000FC00057
:1002800007E00000F1FFFE19FFFFC7FFFFF8FFFFC7
:10029000F81FFFF1800003C00007E00003F0000139
:1002A000F80000FC00007E00003F00001F80000FEF
:1002B000C00007E00003F00001F80000FC00007E31
:1002C00000003F00000F07FFF307FFFC07FFFF01DF
:1002D000FFFF007FFF0000000186000079E0001FA3
:1002E000FE0003FFC0007FF8000FFF0001FFE000E9
:1002F0003FFC0007FF8000FFF0001FFE0003FFC06F
:10030000007FF8000FFF0001FFE0003FF80001FC54
:10031000FFFF0E3FFFF89FFFFFC1FFFFF00FFFF849
:10032000C000007800003F000007E00000FC000073
:100330001F800003F000007E00000FC00001F800E5
:10034000003F000007E00000FC00001F800003F0F9
:1003500000007E0000078000006003FFF800FFFF40
:10036000803FFFF803FFFE033FFF80F000003F00E7
:100370000007E00000FC00001F800003F000007E8A
:1003800000000FC00001F800003F000007E000007F
:10039000FC00001F800003F000007C00000E7FFFC7
:1003A000811FFFFC0FFFFFE0FFFFF807FFFC60006D
:1003B000003C00001F800003F000007E00000FC022
:1003C0000001F800003F000007E00000FC00001FF3
:1003D000800003F000007E00000FC00001F8000064
:1003E0003F000003C07FFF301FFFF007FFFF007FCB
:1003F000FFC007FFF00003FFF800FFFF803FFFF89A
:1004000003FFFE033FFF80F000003F000007E00015
:1004100000FC00001F800003F000007E00000FC001
:100420000001F800003F000007E00000FC00001F92
:10043000800003F000007C00000E7FFF811FFFFCA6
:100440000FFFFFE4FFFFF8E7FFFC7F00003FF00035
:100450001FFE0003FFC0007FF8000FFF0001FFE058
:10046000003FFC0007FF8000FFF0001FFE0003FFBD
:10047000C0007FF8000FFF0001FFE0003F7800039D
:10048000C67FFF301FFFF007FFFF007FFFC007FFA1
:10049000F0003FFF80FFFF83FFFF83FFFEC3FFFBF2
:1004A000C0000FC0001F80003F00007E0000FC0065
:1004B00001F80003F00007E0000FC0001F80003FBC
:1004C00000007E0000FC0001F80000F00000600069
:1004D0000040000000000000000600003C0001F8A1
:1004E0000003F00007E0000FC0001F80003F000085
:1004F0007E0000FC0001F80003F00007E0000FC0E0
:10050000001F80003F00003C00003003FFF800FFA8
:10051000FF803FFFF803FFFEC33FFFBCF0000FFF6B
:100520000001FFE0003FFC0007FF8000FFF0001F1C
:10053000FE0003FFC0007FF8000FFF0001FFE00096
:100540003FFC0007FF8000FFF0001FFC0000FE7F63
:10055000FF871FFFFC4FFFFFE4FFFFF8E7FFFC7F73
:1005600000003FF0001FFE0003FFC0007FF8000FF7
:10057000FF0001FFE0003FFC0007FF8000FFF000EC
:100580001FFE0003FFC0007FF8000FFF0001FFE027
:10059000003F780003C67FFF301FFFF007FFFF001A
:1005A0007FFFC007FFF00003FFF800FFFF803FFF61
:1005B000F803FFFEC33FFFBCF0000FFF0001FFE0A8
:1005C000003FFC0007FF8000FFF0001FFE0003FF5C
:1005D000C0007FF8000FFF0001FFE0003FFC0007B4
:1005E000FF8000FFF0001FFC0000FE7FFF871FFF61
:1005F000FC4FFFFFE0FFFFF807FFFC6000003C003E
:10060000001F800003F000007E00000FC00001F812
:1006100000003F000007E00000FC00001F80000316
:10062000F000007E00000FC00001F800003F000055
:1006300003C07FFF301FFFF007FFFF007FFFC007F1
:10064000FFF000000000000500010000020D06029E
:10065000F4040005040601F407000A0C0A00F5166C
:100660000009100A01F32800100D1001F442000BDC
:100670000D0C01F4540002040401F45500041106A9
:1006800001F45E0004110601F4670005050701F49A
:100690006B0006080B03F9710002040502007200EA
:1006A00004010601FC730002010501007400050D40
:1006B0000500F47D00080D0A01F48A00040D0A0308
:1006C000F49100090D0A01F4A000080D0A01F4AD2F
:1006D00000070D0A02F4B900090D0A01F4C8000967
:1006E0000D0A01F4D700080D0A00F4E400090D0A10
:1006F00001F4F300080D0A01F40001020A0501F7F4
:100700000301030C0501F8080109090B01F81301A5
:1007100009040B01FB180109090B01F82301090D5C
:100720000A01F4320111101201F454010C0D0C00F5
:10073000F468010B0D0C01F47A010B0D0D01F48C22
:10074000010B0D0D01F49E01090D0B01F4AD010823
:100750000D0B01F4BA010C0D0E01F4CE010B0D0DC1
:1007600001F4E001020D0502F4E401070D0A01F4B1
:10077000F0010B0D0C01F40202080D0A01F40F0246
:100780000D0D0F01F425020B0D0D01F437020D0DB7
:100790000E01F44D020A0D0C01F45E020D0E0E0165
:1007A000F475020C0D0D01F489020A0D0C01F49A86
:1007B00002090D0B01F4A9020B0D0D01F4BB020B94
:1007C0000D0C00F4CD02110D1100F4E9020C0D0C1A
:1007D00000F4FD020C0D0C00F411030A0D0B01F4E2
:1007E000220303110501F42903050D0500F432036A
:1007F00003110500F4390307070801F440030A0157
:100800000A0003420304030500F44403090A0A0131
:10081000F75003090D0A01F45F03080A0901F7699B
:1008200003080D0A01F47603080A0A01F78003049D
:100830000D0501F48703080E0A01F79503080D0A58
:1008400001F4A203020D0401F4A60304110400F450
:10085000AF03090D0901F4BE03020D0401F4C20344
:100860000D0A0F01F7D303080A0A01F7DD03080A8E
:100870000A01F7E703090D0A01F7F603080D0A015B
:10088000F70304050A0601F70A04080A0901F71428
:1008900004040C0501F51A04080A0A01F7240409E6
:1008A0000A0900F730040D0A0D00F74104080A098F
:1008B00000F74B04090E0900F75B04070A0901F76A
:1008C000640404110601F46D0402110402F47204BC
:1008D00004110601F47B0407030901F9FFFFF8C0C6
:1008E000DEF72009864191FF1304C320C8FF8982E7
:1008F0006190101F14DA3D1E8340781708F47A3592
:1009000033F040203810EC20C620C640C6406C8032
:100910003900013C0277026304630477083C0E0649
:1009200060CC1981E0180F0336C2D8730631E3C4D6
:10093000FE13266CCCCCC46623108C466333333252
:10094000664C80257EA50030C33F30C30CD6F0C076
:100950000844211084421108003C6642C3C3C3C34B
:10096000C3C3C342663C113F33333333303E31B0EF
:100970007830181C1C1C1818100807F83C66C3C3F4
:1009800003061C0703C3C3663C0C187162C9A34667
:10099000FE183060C07F2010080807F38C03018028
:1009A000F06C63E01E3198780C06F38D83C1E0D0C3
:1009B0006C63E0FF030206040C08181818103030AE
:1009C0003E31B0783C1B18F8C6C1E0F06C63E03CE7
:1009D00066C2C3C3C3673B0303C2663CC00030C0EA
:1009E000000064A00081C78E0C0780700E0180FF9C
:1009F00080001FF000700E01C0183871C080003EEA
:100A000031B0783018183818180C0000018003F045
:100A1000060E06018600661DBB31CF18C79863CC51
:100A200031E611B399CCF7860001800070400FE0E9
:100A30000600F00F009019819810830C3FC20460EB
:100A40006606C030FF183303606C0D833FC606C0D6
:100A5000780F01E06FF81F861981A03C01803006F5
:100A600000C0680D831861F0FF183303603C0780F5
:100A7000F01E03C0780F0360CFF0FFE030180C06C3
:100A800003FD80C06030180FF8FFC0C0C0C0C0FEBA
:100A9000C0C0C0C0C0C00F830E606603C00C00C1E0
:100AA000FC03C0360360730F0F10C0780F01E03CE9
:100AB0000780FFFE03C0780F01E03C06FFFFFFC088
:100AC000060C183060C183078F1E2780C0D8330CF6
:100AD000630CC1B83F0730C3186306606C0CC0C01C
:100AE000C0C0C0C0C0C0C0C0C0C0FFE03F01FC1F4C
:100AF000E0FD05EC6F637913CD9E6CF1478E3C7180
:100B000080E07C0FC1E83D8798F11E33C3786F0702
:100B1000E07C0E0F8183180CC06C01E00F0078039D
:100B2000C01B01980C60C0F800FF306C0F03C0F0D0
:100B30006FF300C0300C0300C0000F8183180CC09D
:100B40006C01E00F007803C01B01986C60C0FB00D3
:100B500008FF8C0EC06C06C06C0CFF8C0EC06C06BF
:100B6000C06C06C0703F186C0F03C01E01F00E0071
:100B7000F03C0D863F00FF86030180C06030180CFA
:100B800006030180C0C0780F01E03C0780F01E031F
:100B9000C0780F01B061F0C06C0D8110630C61046E
:100BA00060CC1901603C070060C18130E19870CCD5
:100BB000286626211330C8986C4C14340A1A07078B
:100BC000030380818060630C30C1980F00E0060051
:100BD000F019019830C60E6060C0360630C30C199B
:100BE00081D80F00600600600600600600FFC0604C
:100BF000300C060301C0603018060300FFC0FB6D17
:100C0000B6DB6DB6E0841084108410841080EDB6DD
:100C1000DB6DB6DBE03060A244D8A180FFC0C630F7
:100C20007E71B0C060F3DB0D86C73DC0C060301B75
:100C3000CE360F0783C1E0F07C6DE03C66C3C0C0D8
:100C4000C0C0C3663C0303033B67C3C3C3C3C3C382
:100C5000673B3C66C3C3FFC0C0C3663C366F666675
:100C60006666603B67C3C3C3C3C3C3673B0303C6B6
:100C70007CC0C0C0DEE3C3C3C3C3C3C3C3C3C3FF1D
:100C8000FFC03003333333333333E0C06030184CAC
:100C9000466361F0EC6231986C30FFFFFFC0DEF715
:100CA0001CF0C7863C31E18F0C7863C31E18C0DE90
:100CB000E3C3C3C3C3C3C3C3C33C66C3C3C3C3C3C8
:100CC000C3663CDE71B0783C1E0F0783E36F3018BB
:100CD0000C003B67C3C3C3C3C3C3673B030303DF4A
:100CE000318C6318C6003EE3C0C0E03C07C3E37E1E
:100CF00066F666666667C3C3C3C3C3C3C3C3C77BA5
:100D0000C1A098CC4221B0D0281C0C00C61E38913E
:100D1000C4CA66D316D0A6871C38C0C60043623644
:100D20001C181C3C266243C12198CC4261B0D038CB
:100D30001C0C0603010300FE0C30C1861820C1FC08
:100D40003666666ECE66666630FFFFFFFFC0C6661B
:100D5000666737666666C061243800000000003EA2
:100D60005551553E3E6B6F6B3E0C1E3C1E0C081CD5
:100D70003E1C081C4A7F4A1C185C7F5C18001C1C27
:100D80001C007F6363637F001C141C007F636B6324
:100D90007F30484D3307062979290620503F020C41
:100DA000607F05353F2A1C771C2A007F3E1C0808FF
:100DB0001C3E7F0014227F2214005F005F000609A2
:100DC0007F017F4A55555529606060606054627F9D
:100DD000625408047E040808103F100808082A1C02
:100DE00008081C2A08081C101010101C3E083E1C85
:100DF000303C3F3C30061E7E1E0600000000000016
:100E0000005F00000007000700147F147F14242AED
:100E10007F2A1223130864623649562050000007C7
:100E20000000001C2241000041221C0014083E0862
:100E30001408083E080800A0600000080808080818
:100E4000006060000020100804023E5149453E4405
:100E5000427F404042615149462141454B3118147F
:100E6000127F1027454545393C4A494930017109EF
:100E700005033649494936064949291E006C6C006C
:100E80000000AC6C00000814224100141414141467
:100E9000004122140802015109063E415D555E7C65
:100EA0001211127C7F494949363E414141227F411E
:100EB00041221C7F494949417F090909013E4149B5
:100EC000497A7F0808087F00417F41002040413F68
:100ED000017F081422417F404040607F020C027F66
:100EE0007F0408107F3E4141413E7F090909063ECB
:100EF0004151215E7F09192946464949493103017B
:100F00007F01033F4040403F1F2040201F3F403CA7
:100F1000403F63140814630708700807615149458E
:100F200043007F41410002040810200041417F003E
:100F3000040201020440404040400001020400203D
:100F4000545454787F4844443838444444483844DE
:100F500044487F3854545418087E090102085454F8
:100F6000583C7F0804047800447D40002040443D04
:100F7000007F1010284400417F40007C04780478F2
:100F80007C0804047838444444387C141414080859
:100F900014140C7C7C080404084854545424043F62
:100FA0004440203C4040207C1C2040201C3C4038D9
:100FB000403C44281028440C5050503C4464544C4D
:100FC00044000836410000007F0000004136080060
:100FD00002010204027048444870000E110E000025
:100FE000121F100000121916000011150B00000747
:100FF000041F000017150900000E15090000011D4F
:101000000300000A150A000012150E000004040473
:1010100000FFFFFFFFFF3E000000003E3E0000001B
:101020003E3E003E003E3E003E3E8080808080C0CE
:10103000C0C0C0C0D0D0D0D0D0D8D8D8D8D8DADAB4
:10104000DADADADBDBDBDBDB40004000406000406B
:101050000040600070004060007000787C0040003C
:10106000407C007E00407C007E007F1C7741414137
:1010700041414141414141417F001C77415D5D411A
:1010800041415D5D5D5D415D5D5D5D417F00221CB7
:10109000141C2200081C08000000770000465D5563
:1010A0005D317C5554554408082A0808001408147A
:1010B0000008142208147F4171311F03057F0503C6
:1010C00022147F552202557D0502060909060044B7
:1010D000445F44441C141C227F203E613E2020506B
:1010E0003F020C807C203C40443C047C44000008CF
:1010F000000038555455187E08107F010810080468
:101100000214082214080E060A102020100A060EE7
:10111000383028040202042830387E1111117E7FF5
:10112000494949317F494949367F01010103C07F5F
:10113000417FC07F4949494177087F087741494944
:1011400049367F1008047F7C2112097C7F08142215
:1011500041403E01017F7F020C027F7F0808087F2B
:101160003E4141413E7F0101017F7F090909063E61
:101170004141412201017F0101074848483F0E11CA
:101180007F110E63140814637F40407FC007080876
:10119000087F7F407F407F7F407F40FF017F48483E
:1011A000307F4848307F7F48484830224149493E97
:1011B0007F083E413E462919097F20545454783C0B
:1011C0004A4A49317C545454287C0404040CC078A5
:1011D000447CC038545454186C107C106C445454E3
:1011E00054287C2010087C7C4026107C7C10102821
:1011F00044403804047C7C0810087C7C1010107C6F
:1012000038444444387C0404047C7C1414140838A6
:101210004444444804047C04040C5050503C1824BA
:10122000FC241844281028447C40407CC00C10103A
:10123000107C7C407C407C7C407C40FC047C50509A
:10124000207C5050207C7C505050202844545438EE
:101250007C10384438483414147C11007F962900DF
:1012600001007F9628003A0155C0021010C10141CB
:10127000C50400228040360168B00100B102B011FF
:10128000B40102B60302023BB701C63A0155F704A6
:10129000A9512C82C0020D0DC1024300C20100C53C
:1012A0000400480048B40100B60302023BE00F0FFF
:1012B000211C0B0E08499838091103141000E10F86
:1012C0000F2F2B0C0E06477637071104231E00B094
:1012D0000100B30402000000B40100D0030742186B
:1012E000D103000710D2020102D3020102D402018D
:1012F00002C005123B000211C103101088C5010392
:10130000C60102C80C003236450616377577540CF4
:1013100000CC0100F603010100CF03008130ED0491
:1013200064031281E803851078CB05392C00340260
:10133000F70120EA020000B00100B102001BB40175
:1013400000C00121C10111C5023F3CC701B53601F2
:1013500048F20100260101E00F0F26240B0E09546C
:10136000A8460C17090F0700E10F00191B0410070E
:101370002A473903060630380F360100B80101C08C
:10138000010EB00100C10410100202C006003500B9
:10139000000102C50104D2020104CA0100EA018071
:1013A000B903FF83577F967F96B60125C00650503C
:1013B000013C1E08B4070240002A2A0D787F01F282
:1013C0000B1616030808080810041616FD03110270
:1013D00035B2050C0C003333B70135BB012BC0010E
:1013E00004C20201FFC30111C40120C6010FD002D3
:1013F000A4A1E00ED000050E150D374347091512C4
:101400001619E10ED000050D0C062D44400E1C18D7
:1014100016193A01557F0AB00103E2013FC00122CB
:10142000E20100B00100C0010AB0010000000000AC
:10143000000000000000000000000000FFFF0F009F
:1014400000040062080008080003000C01030B5AA6
:101450000203060903031710040300230503001702
:10146000060309630703090C08030C100903322261
:10147000100016001100010112000000130001000D
:1014800000013003010137020301000D80020061F9
:101490000201B0C1FFFF32000100000102000001A3
:1014A00003003010090001000C00000090000080D3
:1014B0000F000000100200001102EF0012020000F5
:1014C00013028F01000500000105000002055F0006
:1014D0000104010004040000FFFF320007000001C6
:1014E000FFFF3200000200000102000000000000C7
:1014F000000000000000000000000100A400010046
:10150000FFFF0A00600000270800080830001402EE
:1015100031001537320004063300160E3400112254
:10152000350000153600078537000714380003140E
:10153000390020009000150010001004110037023F
:10154000290046002A004600070000001200890119
:1015500013000011FFFF96001200B9010100000105
:101560000200000203003010090001000A00000020
:101570000D0000000E003000610001006A00000054
:10158000800000008100000082005F0092000001E6
:1015900093000107FFFF500007000001E500F0780D
:1015A00001000001020000020300301004000000EE
:1015B0000500000008000702090000000A00000002
:1015C0000C0000000D0000000F00000010000000E3
:1015D00011000700120000001300000007000100C6
:1015E000FFFFC8001000901611002702FFFF320015
:1015F00012000D00FFFF32001300001229000A0044
:101600002B000D00FFFF3200200000002100000031
:1016100030000000310004043200030035000504EE
:1016200036000808370007043800030339000707AD
:101630003C0004053D00080860000027610001002F
:101640006A000000800000008100000082000000AD
:10165000830000008400000085000000900010005E
:101660009200000007003301E50000800000010047
:101670000100000102000007030030100400000018
:1016800008000202090000000A0000000C0000002F
:101690000D0000000F000000100000001100070006
:1016A0001200000013000000FFFF32001000B0170E
:1016B00011000700FFFF0A0012003A01FFFF0A00B5
:1016C0001300001A29000C00FFFF0A003000000080
:1016D000310005053200040035000600360007071A
:1016E0003700050138000200390007073C000407F5
:1016F0003D000708600000A7610001006A000000CB
:101700002100000020000000800000008100000097
:1017100082000000830000008400000085000000BB
:10172000900010009200000093000300950010014B
:10173000970000009800000007007301FFFF3200CF
:10174000FF000100F300080000000100010000019B
:101750000200000703003010080002030900000027
:10176000100000001100070012000000130000002C
:10177000FFFF32001000B014FFFF0A001100070045
:10178000FFFF0A0012008E001300000C2900150054
:10179000FFFF0A00300000003100070132000000A6
:1017A000350003023600020437000000380007024B
:1017B000390000003C0003023D000304600000A764
:1017C000610001009000290007003301FFFF320093
:1017D000150030009A00100011002000100028347D
:1017E0001200020013003810FFFF28001200120040
:1017F000FFFF28001000203413004530FFFF460093
:1018000030000000310002043200070333000403FB
:1018100034000400350001043600070737000503D3
:101820003800100639001006010000010200000314
:1018300003003010080008080A00080060000027B4
:101840006100010090003E01920000019300000140
:10185000A0000030A30010000700010007002100D5
:1018600007002300070033000700330111001A00AE
:101870001200213113006C001400494210000008CE
:10188000FFFF0A0011001A01FFFF0A0011001A03EE
:10189000FFFF0A0011001A07FFFF0A0011001A0FCC
:1018A000FFFF0A0011003A0FFFFF1E000100280190
:1018B00002000001030030100700121008000303AB
:1018C0000B0000110C0000000F0001181500200093
:1018D00050000101510003065200080453000000AB
:1018E0005400050655000604560003035700030381
:1018F000580010005900001007001200FFFF2800D8
:101900000700130007001700F000AA00303932DC8E
:10191000084306207E16F01F932C11241FBECFEF24
:10192000D8E0DEBFCDBF11E0A0E0B1E0EAEFF6E61F
:1019300002C005900D92A437B107D9F722E0A4E7C1
:10194000B1E001C01D92A73CB207E1F71CE0CCE872
:10195000DCE004C02197FE010E94612FCB38D10743
:10196000C9F70E945A200C9470330C94000008951B
:101970003FB7F8948091840190918501A0918601F0
:10198000B091870126B5A89B05C02F3F19F001969D
:10199000A11DB11D3FBFBA2FA92F982F8827BC01C9
:1019A000CD01620F711D811D911D42E0660F771FF1
:1019B000881F991F4A95D1F708958F929F92AF92F1
:1019C000BF92CF92DF92EF92FF926B017C010E9457
:1019D000B80C4B015C01C114D104E104F104B9F06D
:1019E0000E94B80C681979098A099B09683E7340FE
:1019F0008105910580F321E0C21AD108E108F108C0
:101A000088EE880E83E0981EA11CB11CE4CFFF90E5
:101A1000EF90DF90CF90BF90AF909F908F90089500
:101A20000895AF92BF92CF92DF92EF92FF920F9301
:101A30001F93CF93DF936C017B018B01040F151F64
:101A4000EB015E01AE18BF08C017D10759F06991CC
:101A5000D601ED91FC910190F081E02DC601099530
:101A6000892B79F7C501DF91CF911F910F91FF90DD
:101A7000EF90DF90CF90BF90AF900895FC01538D11
:101A8000448D252F30E0842F90E0821B930B541758
:101A900010F0CF96089501970895FC01918D828DE5
:101AA000981761F0A28DAE0FBF2FB11D5D968C917E
:101AB000928D9F5F9F73928F90E008958FEF9FEFBD
:101AC0000895FC01918D828D981731F0828DE80F79
:101AD000F11D858D90E008958FEF9FEF0895FC0133
:101AE000918D228D892F90E0805C9F4F821B910900
:101AF0008F739927089589ED91E00E946F0D21E081
:101B0000892B09F420E0822F089580E090E0892B52
:101B100029F00E947B0D81110C9400000895FC01B6
:101B2000A48DA80FB92FB11DA35ABF4F2C91848D3E
:101B300090E001968F739927848FA689B7892C939B
:101B4000A089B1898C91837080648C93938D848DEE
:101B5000981306C00288F389E02D80818F7D8083F1
:101B60000895EF92FF920F931F93CF93DF93EC01B1
:101B700081E0888F9B8D8C8D98131AC0E889F98934
:101B8000808185FF15C09FB7F894EE89FF89608337
:101B9000E889F98980818370806480839FBF81E0B8
:101BA00090E0DF91CF911F910F91FF90EF900895FA
:101BB000F62E0B8D10E00F5F1F4F0F731127E02ED5
:101BC0008C8D8E110CC00FB607FCFACFE889F9890D
:101BD000808185FFF5CFCE010E948F0DF1CFEB8D77
:101BE000EC0FFD2FF11DE35AFF4FF0829FB7F894E1
:101BF0000B8FEA89FB8980818062CFCFCF93DF93FF
:101C0000EC01888D8823B9F0AA89BB89E889F98914
:101C10008C9185FD03C0808186FD0DC00FB607FC49
:101C2000F7CF8C9185FFF2CF808185FFEDCFCE017C
:101C30000E948F0DE9CFDF91CF910895439842988C
:101C400025B12C7F392F3370232B25B92BB123706D
:101C50009C7F922B9BB94198419A95B19C7F282FEC
:101C60002370922B95B99BB193708C7F892B8BB984
:101C70004198419A429AFA01615078F0219195B1C8
:101C80009C7F822F8370982B95B98BB183702C7FAA
:101C9000822B8BB94198419AEFCF439A0895DF92F6
:101CA000EF92FF920F931F93CF93DF93CDB7DEB7E1
:101CB00068970FB6F894DEBF0FBECDBF7C018B01D5
:101CC000F70184913196D490F2E0EF0EF11C8F373A
:101CD00079F0DE01119630E020E0AD012D1528F5F8
:101CE000F701E20FF31FE491ED932F5F3F4FF6CF23
:101CF0006D2D70E090E080E00E94DD0CD12CED2D88
:101D0000F0E032960E1B1F0B10161106CCF26896EF
:101D10000FB6F894DEBF0FBECDBFDF91CF911F91FC
:101D20000F91FF90EF90DF900895ED0CF11C6D2D59
:101D300090E00E941E0EE3CF4398429825B12C7F7D
:101D4000392F3370232B25B92BB123709C7F922B15
:101D50009BB94198419A95B19C7F282F2370922B73
:101D600095B99BB193708C7F892B8BB94198419A1F
:101D7000429A85B18C7F972F9370892B85B98BB14F
:101D800083707C7F782B7BB94198419A85B18C7F99
:101D9000962F9370892B85B98BB183706C7F682BDC
:101DA0006BB94198419A439A089581E080938801E4
:101DB00084B1836084B98AB18C6F8AB9389A399AB0
:101DC0003A9A3B9A3C9A439A409A419A449A62E3DF
:101DD00070E080E090E00E94DD0C449864E670E0E2
:101DE00080E090E00E94DD0C449A64E670E080E0C0
:101DF00090E00E94DD0C70E060E080EB90E00C94DD
:101E00009C0ECF93DF93C82FD62F8091880181112C
:101E100002C00E94D50E4398429885B18C7F85B947
:101E20008BB183708BB94198419A95B19C7F8C2F6F
:101E30008370982B95B98BB18370CC7F8C2B8BB929
:101E40004198419A429A84B18C7F84B98AB1837057
:101E50008AB961E070E080E090E00E94DD0C409A79
:101E600040984098409893B139B1409A409A409830
:101E70004098409883B129B1409AD15080F7409A58
:101E8000439A44B1436044B94AB14C6F4AB9937024
:101E90003C7F932B83702C7F822BDF91CF91089511
:101EA000FF920F931F93CF93DF938C0160E00E940A
:101EB000010FEC0161E0C8010E94010FF82E62E001
:101EC000C8010E94010FAE0170E060E0742F662728
:101ED0005527442700E030E020E0402B5F29622BAB
:101EE000732B292F30E0C901B0E0A0E08A019B01EB
:101EF000082B192B2A2B3B2BC901B801DF91CF915D
:101F00001F910F91FF9008950F931F93CF93DF932D
:101F10008C0160E00E94010FEC0161E0C8010E94A9
:101F2000010F8C01BE0190E080E0CB01772766278E
:101F300030E020E0602B712B822B932BDF91CF912F
:101F40001F910F9108950F931F93CF93DF93EC018F
:101F50008B01FE0185919491FE0132962496659144
:101F600074918F3F980771F490E080E00E94DD0C3F
:101F7000045011091016110664F3DF91CF911F91DF
:101F80000F9108950E949C0EF3CFFC01262F358DF2
:101F9000868D82958170982F9627692F70E072A3A5
:101FA00061A330FF0CC0821307C080E290E050E0D4
:101FB00040E060E00C941E0E81E290E0F8CF878D47
:101FC00090A1833927E7920741F058F4843521E046
:101FD000920791F080329445C1F4626081E094E010
:101FE00012C0863223E99207C1F3893025EB9207AC
:101FF000A1F38532924949F4660F771F660F771F68
:10200000636187E090E00C949C0E81E690E0FBCF4A
:102010008F929F92AF92BF92CF92DF92EF92FF92F8
:102020000F931F93CF93DF9300D000D0CDB7DEB7CF
:102030007C014B015A016901FC01878D90A1873217
:10204000F3E99F0709F040C0F7018689823099F5CE
:10205000F0E2AF0EB11C005E1F4FF701858D80FFCF
:102060004AC085A599828A82DB82CC82AE014F5F0D
:102070005F4F64E090E00E941E0EF70181A9B982D3
:10208000AA821B830C83AE014F5F5F4F64E090E038
:102090000E941E0E0F900F900F900F90DF91CF9126
:1020A0001F910F91FF90EF90DF90CF90BF90AF9076
:1020B0009F908F900895833081F620E2820E911CCC
:1020C00080E2C80ED11CC9CF8632954131F6F701A6
:1020D000868980FFC2CFC801841B950B19F40F5F5E
:1020E0001F4FBBCF6217730709F0B7CF6B01C80E44
:1020F000D91E8A01B2CFB40187A190A50E949C0E7F
:10210000B501F70181A592A50E949C0EC814D904BF
:1021100021F40A151B0509F4BDCFF701858D85FF54
:1021200008C0868980FF1EC0102F0027A02AB12A70
:102130008501B401F70185A596A50E949C0EB50105
:10214000F70181A992A90E949C0EB601F70187A50B
:1021500090A90E949C0EB801F70183A994A90E943E
:102160009C0E98CFDC2CCC248C289D286401E1CFD8
:10217000AF92BF92CF92DF92EF92FF920F931F9395
:10218000CF93DF93EC0180917401882349F0C7015C
:10219000880F991F8E739927E1ECEE22E82AF92A1D
:1021A00037FF05C0620F731F319521953109260F46
:1021B000371F77FF02C070E060E088859985281797
:1021C00039070CF4C9016C01C61AD70A17FF05C0FC
:1021D000400F511F119501951109040F151F57FF4D
:1021E00002C050E040E02A853B85021713070CF43B
:1021F00098015901A41AB50A8901015011099C01DD
:1022000021503109CE010E940810439842983BA505
:102210008CA525B12C7F982F9370292B25B99BB1C4
:1022200093708C7F982B9BB94198419A95B19C7F74
:10223000832F8370982B95B98BB183703C7F832B50
:102240008BB94198419A429ACA14DB042CF09A2D1A
:102250008B2D5601C92ED82E9F2D4F2D43709C7F5C
:102260005E2D53702E2D2C7FE22E1C141D04E4F4E1
:10227000950185B18C7F842B85B98BB18370892BB7
:102280008BB94198419A85B18C7F852B85B98BB1EB
:1022900083708E298BB94198419A2150310949F7B1
:1022A00081E0C81AD108E1CF439A8D8D80FF08C024
:1022B0008F8D98A18632954191F48E8980FF0FC051
:1022C0000A851B850150110928853985215031095E
:1022D00050E040E070E060E0CE010E940810DF9125
:1022E000CF911F910F91FF90EF90DF90CF90BF9013
:1022F000AF900895EF92FF920F931F93CF93DF93C8
:102300007C01E90177FD2AC057FD28C0FC018085CA
:1023100091856817790714F58285938548175907C1
:10232000ECF480917401882341F0C901880F991F52
:102330008E739927C17CC82BD92B8A019B01C701B9
:102340000E940810BE01F70183A594A5DF91CF91EB
:102350001F910F91FF90EF900C949C0EDF91CF9105
:102360001F910F91FF90EF900895EF92FF920F93BE
:102370001F93CF93DF93CDB7DEB72A970FB6F894AC
:10238000DEBF0FBECDBF7C01862F8370F701868B29
:10239000962F917060FFF1C026813781F701318758
:1023A0002087992309F4ECC024813581F701338714
:1023B0002287823009F4E9C0833009F4E8C0813013
:1023C00009F4E1C088E48A87F701258D368D30FF56
:1023D00003C08A8580588A8731FF04C08A8590E4CB
:1023E00089278A8733FF04C08A8598E089278A87EE
:1023F000F701878D90A120FFFAC08431F8E69F078E
:1024000009F0C7C09A85892F88728A871F82892F11
:1024100085958074282F2260892F90E09595879567
:1024200080729927822B88878BE38987AE01495F69
:102430005F4F63E086EB90E00E941E0E2AE230E0E0
:10244000F70130A727A38BE290E092A781A74CE287
:1024500050E054A743A736A725A730AB27A792ABD8
:1024600081AB94AB83ABAE01465F5F4F61E086E327
:1024700090E00E941E0E8A8590E0F70194A383A34A
:10248000F701868980FF1CC0858D968D92FD18C04E
:1024900087A190A521A532A530A727A392A781A740
:1024A00085A596A521A932A936A725A792AB81AB10
:1024B00087A590A923A934A930AB27A794AB83ABF8
:1024C000F7010285138501501109208531852150BE
:1024D000310950E040E070E060E0C7010E94081060
:1024E000F70166817781878D90A110E000E020E000
:1024F0008732F3E99F0769F4F7012689225010E03B
:1025000000E0223010F400E210E020E230E0201B76
:10251000310BF701458D40FF26C119820A837B8369
:102520006C831D822E83AE014F5F5F4F66E083E3B5
:1025300090E00E941E0E19820A83AE014F5F5F4F2A
:1025400062E087E390E00E941E0EF701858D80FF18
:1025500007C050E040E060E083E190E00E941E0E82
:102560002A960FB6F894DEBF0FBECDBFDF91CF9194
:102570001F910F91FF90EF900895248135810ECF28
:102580002681378113CF88E21ECF88E91CCF88EFE0
:102590001ACF833629E1920749F0813834E993074D
:1025A00029F08131E5E19E0709F048CF2A8527FF10
:1025B00002C021602A872A8526FF02C022602A875E
:1025C0008336F9E19F0721F48A858F738A8736CF96
:1025D000813824E9920719F48A858F72F7CF813107
:1025E000954109F02BCF8A858F7E806CEFCF2A85AD
:1025F000622F022E000C770B8339F7E79F0761F0FB
:1026000008F042C08435E1E09E0709F469C08032D9
:10261000F4E59F0709F041C020E032E0F70130A760
:1026200027A321E032E032A721A722E032E034A73D
:1026300023A720E132E036A725A721E132E030AB25
:1026400027A722E132E032AB21AB23E132E034AB09
:1026500023AB662770788632F3E99F0709F480C0C0
:102660008032944509F47CC080E09AE6682B792B8F
:1026700080E094E00E949C0E6A85F4E06F9FB001B8
:1026800011246627717054C0863223E9920721F223
:10269000893035EB930709F4BFCF80E290E0F70172
:1026A00090A787A381E290E092A781A782E290E0C1
:1026B00094A783A780E590E096A785A781E590E0A1
:1026C00090AB87A782E590E092AB81AB83E590E089
:1026D00094AB83AB66277078776280E690E0CACFD0
:1026E00087E390E0F70196A785A786E390E090AB9B
:1026F00087A789E390E092AB81AB88E390E094AB4D
:1027000083AB80E290E090A787A381E290E092A75C
:1027100081A782E290E094A783A76627727068621F
:10272000F4E02F9FC001112488279170682B792B2A
:1027300081E090E00E949C0E8A85682F70E075957C
:102740006795759567956870772783FD70616063FD
:10275000F70174A363A383E090E00E949C0E90CEE7
:1027600080E095E383CF8339F7E79F07D9F1F8F449
:10277000803234E59307B1F18338E7E79E0739F1FA
:1027800084359140F9F4600F711F6150710981E344
:1027900090E00E949C0EB80182E390E00E949C0EA3
:1027A00070E060E083E390E00E949C0ED9CE863218
:1027B00023E99207B9F0893035EB930799F0853218
:1027C000924909F3F70161A172A1626003C0F701A8
:1027D00061A172A181E690E00E949C0EB8018AE698
:1027E00090E0E2CFF70161A172A1626081E094E024
:1027F0000E949C0EB80184E094E0D6CFEF92FF9245
:102800000F931F93DC01ED91FC9100A0F1A1E02D4D
:10281000780101E010E009951F910F91FF90EF9072
:102820000895EF92FF920F931F93DC01ED91FC91BD
:1028300000A0F1A1E02D7801890121E030E00995A7
:102840001F910F91FF90EF9008950895FC01637020
:10285000668B8481958126813781613039F06330C0
:1028600029F09187808733872287089531872087D1
:102870009387828708952F923F924F925F926F9233
:102880007F928F929F92AF92BF92CF92DF92EF9200
:10289000FF920F931F93CF93DF93CDB7DEB76A9765
:1028A0000FB6F894DEBF0FBECDBF9A8F898F7A83A3
:1028B00069834A01D22E18870F833701BC2CDC01B3
:1028C00059962D913C915A972115310509F015C162
:1028D00018968D919C911997681779070CF0D7C1BC
:1028E0001A968D919C91481759070CF0D0C14C2C29
:1028F000512CB6E0CB9E600D711D11247C876B8737
:10290000161617060CF0C3C1EA2DF0E0FA87E98726
:1029100093E0EE0FFF1F9A95E1F7F88BEF87CF0159
:10292000840F951F181619060CF0B1C1A98DBA8D28
:1029300058968C91811104C0BFEABD1508F4D39458
:10294000A98DBA8DED91FC9111970284F385E02D4C
:10295000CD010995B5E0DB9EC0011124E981FA8122
:10296000FC83EB83312C212C9C01265A324F388F6B
:102970002F8B4A2D50E05E8B4D8BEF89F88DE20D49
:10298000F31D44919E828D82D12CC12C69817A8164
:10299000620D731D7A8B698B842F90E09C8B8B8BDF
:1029A000E98DFA8DA081B18140FF82C0F1E0BF12B4
:1029B0006FC0AF126DC01C96ED91FC912F813885D0
:1029C000A4014C0D5D1D69897A89898D9A8D0995BF
:1029D000EB89FC89F595E7954E2F5FEFC51AD50A6F
:1029E0006D817E818D899E89680F791F7E836D83BD
:1029F00098E0C916D10481F6AFEF2A1A3A0AEB81A2
:102A0000FC81E40DF51DFC83EB83F5E02F1631040A
:102A100009F0B3CF2F81388526153705B9F0A98D78
:102A2000BA8DED91FC91B1E0BB1257C0AB1255C00D
:102A300069817A816B5F7F4F0088F189E02D830186
:102A400028E030E0A401898D9A8D0995A98DBA8D71
:102A5000ED91FC9111970688F789E02DCD016A96DA
:102A60000FB6F894DEBF0FBECDBFDF91CF911F919F
:102A70000F91FF90EF90DF90CF90BF90AF909F901D
:102A80008F907F906F905F904F903F902F90099420
:102A90001E96ED91FC91EF80F88409851A859201CC
:102AA0004D815E816B817C81898D9A8D099590CF56
:102AB0002F8138852615370509F48ACF31E0B31206
:102AC00007C0A31205C01C96ED91FC91930178CF2D
:102AD0001E96ED91FC917301E0CF6B857C856419A6
:102AE00075090684F785E02D73010F851889920119
:102AF000A401898D9A8D0995A9CFF90134969491F5
:102B0000329745915491D91AB7E0DB9E400D511D83
:102B10001124F901259134913C8B2B8BFA012590DE
:102B20003490FA013296749031963491398B329602
:102B300064903196449041E04C1518F04A1508F025
:102B40007FC0662D062C000C770B7C836B83842D55
:102B5000042C000C990B9E838D83A98DBA8DED9169
:102B6000FC9111970284F385E02DCD010995512C3C
:102B7000D12CC12CEA2DF0E0FA87E9872B2D30E02B
:102B80003C872B87A401440D511D47FC5A95588F53
:102B90004F8B69817A81660D711D67FC7A957E87FE
:102BA0006D877989C71608F051CF2C2D30E04D8103
:102BB0005E81420F531FA985BA854A9FC0014B9F72
:102BC000900D5A9F900D1124FC01E80DF91DF88B12
:102BD000EF87852D612C4F89588D420F531F5E8BD7
:102BE0004D8B671408F050C044244394480E8770FE
:102BF00041F4C1010196EB89FC89E20DF31DD490EB
:102C00001C01D7FE19C0A98DBA8DED91FC91662DDE
:102C100070E0B1E0BB1219C0AB1217C02D853E8524
:102C2000620F731F0484F585E02D2F8138854D894F
:102C30005E89898D9A8D0995DD0C6394842DD1CFA1
:102C40001E821D821C821B8288CF4B815C81640F97
:102C5000751FAB85BC856A9FC0016B9F900D7A9FE5
:102C6000900D112469817A81680F791F0684F78598
:102C7000E02DEF80F88409851A859D014F855889DC
:102C8000898D9A8D0995D8CF570CC3948ACF6A96AF
:102C90000FB6F894DEBF0FBECDBFDF91CF911F916D
:102CA0000F91FF90EF90DF90CF90BF90AF909F90EB
:102CB0008F907F906F905F904F903F902F900895EE
:102CC0008F929F92AF92CF92EF92FF920F931F93AA
:102CD000CF93DF93EC01262F898D9A8D009709F011
:102CE00051C06A30D1F41D861C868D8948E0849FCE
:102CF000900111248E859F85820F931F9F878E8759
:102D000081E090E0DF91CF911F910F91FF90EF90C4
:102D1000CF90AF909F908F9008956D3089F3CC88BD
:102D2000AD888F898823C1F08C859D8536E0C39E50
:102D3000800D911D1124488559854817590764F461
:102D40004E855F851D861C8638E0A39EC001112438
:102D5000840F951F9F878E87EA88FB8808891989C9
:102D60004E855F856C857D85CE010E943B142C8944
:102D70008C859D8546E0249F800D911D11249D87A3
:102D80008C87BECF6A3069F41D861C86FC0136969E
:102D9000E4912D898E859F85E29F800D911D1124E0
:102DA000ADCF6D3009F4ACCFFC013496349163178C
:102DB00008F4A6CF3196E491E61708F4A1CFFC0100
:102DC000329685909490462F431B342F47E0349FD2
:102DD000800C911C1124F401329634913196E491C7
:102DE0003323A9F1EE2399F1CC88F4013596E491CF
:102DF000AD884F89442301F10E2E000CFF0BE30F29
:102E0000F11DCE9EA001CF9E500D11246C857D85B5
:102E1000460F571F68857985641775076CF44E85D2
:102E20005F851D861C86FC013696E491AE9E400DA2
:102E3000511D11245F874E87EA88FB88088919890C
:102E40004E855F856C857D85CE010E943B14F40123
:102E50003496E4912C898C859D85E29F800D911D8F
:102E600011248DCF6F927F928F929F92AF92BF92DB
:102E7000CF92DF92EF92FF920F931F93CF93DF9346
:102E8000EC016B015A0139014801E881F9810284A2
:102E9000F385E02D0995E881F9810288F389E02D19
:102EA00087019301A501B601CE010995A501480D41
:102EB000591D41505109E881F9810288F389E02DBB
:102EC0009301B601CE010995E881F9810088F18965
:102ED000E02D9401A501B601CE010995C60CD71CC1
:102EE000B60161507109E881F9810088F189E02D0E
:102EF0009401A501CE010995E881F9810688F78939
:102F0000E02DCE01DF91CF911F910F91FF90EF90B7
:102F1000DF90CF90BF90AF909F908F907F906F90F9
:102F200009946F927F928F929F92AF92BF92CF92AD
:102F3000DF92EF92FF920F931F93CF93DF935C0189
:102F4000EB016A01490138018701DC01ED91FC9137
:102F50006217730719F5641675062CF0962D872DE8
:102F60003A01C92ED82E9601261937092F5F3F4FF7
:102F7000048CF58DE02DA301BE01C5010995DF91FB
:102F8000CF911F910F91FF90EF90DF90CF90BF9066
:102F9000AF909F908F907F906F9008954615570542
:102FA00091F42617370724F0892D4B01C22FD82F13
:102FB0009E01281939092F5F3F4F068CF78DE02DB0
:102FC000A601B401DACF0284F385E02D0995D5017D
:102FD000ED91FC910488F589E02D83019401A6010F
:102FE000BE01C5010995D501ED91FC910688F789CF
:102FF000E02DC501DF91CF911F910F91FF90EF90D0
:10300000DF90CF90BF90AF909F908F907F906F9008
:103010000994EF92FF920F931F93DC011A960D9182
:103020001C911B9718962D913C911997ED91FC914D
:1030300000A0F1A1E02D7B0150E040E070E060E0F5
:1030400009951F910F91FF90EF9008954F925F9215
:103050006F927F928F929F92AF92BF92CF92DF92A8
:10306000EF92FF920F931F93CF93DF936C012B018D
:103070005A0139014801DC01ED91FC910284F3858C
:10308000E02D0995E201640C751CD601ED91FC91CF
:10309000C615D7055CF40088F189E02D87019401FD
:1030A000A501BE01C60109952196EFCF0688F789D3
:1030B000E02DC601DF91CF911F910F91FF90EF900E
:1030C000DF90CF90BF90AF909F908F907F906F9048
:1030D0005F904F9009948F929F92AF92BF92CF9240
:1030E000DF92EF92FF920F931F93CF93DF93EC0148
:1030F0005B014A016901E881F9810284F385E02DD1
:10310000099595012C0D3D1D21503109E881F9816A
:103110000488F589E02D78018401A401B501CE0170
:103120000995E881F9810688F789E02DCE01DF91C4
:10313000CF911F910F91FF90EF90DF90CF90BF90B4
:10314000AF909F908F9009948F929F92AF92BF9271
:10315000CF92DF92EF92FF920F931F93CF93DF9363
:10316000EC015B014A0169017801E881F98102847F
:10317000F385E02D0995C80CD91C86010150110971
:10318000E881F9810488F589E02D9501A401B50154
:10319000CE010995E881F9810688F789E02DCE01F5
:1031A000DF91CF911F910F91FF90EF90DF90CF9023
:1031B000BF90AF909F908F900994EF92FF920F93E2
:1031C0001F93DC01ED91FC9100A0F1A1E02D099588
:1031D0001F910F91FF90EF9008950F931F93DC01C3
:1031E000ED91FC91068CF78DE02D09951F910F91C3
:1031F00008952F923F924F925F926F927F928F929B
:103200009F92AF92BF92CF92DF92EF92FF920F9375
:103210001F93CF93DF93CDB7DEB7A8970FB6F8947F
:10322000DEBF0FBECDBF78A76FA34A0159011801B9
:10323000DE86CD86261737070CF086C1E616F70620
:103240000CF499C13FA128A5B8A6AFA2A32EB22E17
:10325000382F292FC401832E922E2FA138A52E1589
:103260003F05B9F5881699062CF4382F292FC4018B
:10327000832E922E281639062CF0821493040CF417
:1032800041011C019401221933092F5F3F4F0D8525
:103290001E854FA158A5B1018EE892E00E94ED185D
:1032A000A8960FB6F894DEBF0FBECDBFDF91CF91C9
:1032B0001F910F91FF90EF90DF90CF90BF90AF9054
:1032C0009F908F907F906F905F904F903F902F9046
:1032D0000895322D232D1C01832F922F3E2D2F2D4B
:1032E000EFA0F8A43FA328A7940122193309A50150
:1032F0004E195F09BC01621973097C8B6B8BAFA1FE
:10330000B8A5AE19BF09BE83AD83BC0168197909A0
:103310007E8B6D8B8FA198A58A199B09988B8F87BF
:10332000AFA1B8A5AA15BB0509F489C0B5016150C4
:1033300071097A8769876701412C512C3201198202
:103340001A821B821C826B897C89072E000C880BD9
:10335000990B6F8B788F898F9A8FCA01550FAA0BA3
:10336000BB0B8B8F9C8FAD8FBE8F4D815E81052EE9
:10337000000C660B770B4F8F58A369A37AA3B90192
:10338000330F880B990B6BA37CA38DA39EA3898518
:103390009A858C159D050CF457C069817A818B81C3
:1033A0009C812B8D3C8D4D8D5E8D0E94B32E8101B5
:1033B000020F131FC301B2012F8D38A149A15AA1D9
:1033C0000E94B32EB101620F731F29813A814B8194
:1033D0005C818BA19CA1ADA1BEA1280F391F4A1F02
:1033E0005B1F29833A834B835C832F89388D498DFA
:1033F0005A8D420E531E641E751E601771072CF005
:10340000962F872FB801092F182F9801261B370BED
:103410002F5F3F4F0D851E85A6018EE892E00E942A
:10342000ED183FEFC31AD30AB2CF382D292D4C0126
:10343000832F922F3FA128A5B8A6AFA2A8C08FA125
:1034400098A59A87898777CF4D895E89052E000CCC
:10345000660B770B49875A876B877C8796012A19F9
:103460003B09AD89BE890E94672F69837A838B836C
:103470009C8396012E193F09AB89BC890E94672F56
:103480002B013C016F857889072E000C880B990B66
:103490006F87788B898B9A8B8D819E81092E000C8A
:1034A000AA0BBB0B8D839E83AF83B887AFA1B8A552
:1034B000AC15BD050CF4F4CE69817A818B819C81B9
:1034C0002F85388949895A890E94B32E7401E20EEA
:1034D000F31EC301B2012D813E814F8158850E94A8
:1034E000B32EB101620F731F29813A814B815C8138
:1034F00089859A85AB85BC85280F391F4A1F5B1FBC
:1035000029833A834B835C832F89388D498D5A8D6B
:10351000420E531E641E751E6E157F052CF0962FED
:10352000872FB701E92EF82E9701261B370B2F5F47
:103530003F4F0D851E85A6018EE892E00E94ED1892
:103540003FEFC31AD30AB2CFE216F3060CF085CED2
:103550004FA158A5E416F5060CF467CF232D1401EE
:103560004C01802F922F3A2D2B2D5A01F8A6EFA255
:10357000E32EF22E67CEE216F3060CF4B5CE322D12
:10358000232D1401832E922E3E2D2F2D7501A32E57
:10359000B22EAACE0F931F93DC01ED91FC91048C07
:1035A000F58DE02D09951F910F910895DC01ED91A6
:1035B000FC910084F185E02D09942F923F924F9267
:1035C0005F926F927F928F929F92AF92BF92CF92B3
:1035D000DF92EF92FF920F931F93CF93DF9300D070
:1035E00000D000D0CDB7DEB73C016A013E832D8309
:1035F000FC82EB825801A41AB50AB7FE03C0B1944D
:10360000A194B1088D809E80861A970A97FE03C008
:103610009194819491088A149B045CF0902F812FDF
:103620000D811E819D838E839C2D8D2D6B01692FB5
:10363000782F0C151D055CF09D818E817E836D8336
:10364000692F782F902F812F8601C92ED82E160131
:10365000201A310A2B012D813E81421A530A57FE4E
:1036600003C0519441945108710137FE03C03FEFEC
:10367000E31AF30AF594E7948D819E8186179707E4
:103680005CF5A1E0B0E0BA83A983C016D1064CF185
:10369000D301ED91FC910484F585E02D2B813C81D3
:1036A000A8016D817E818A149B041CF04D815E818E
:1036B000B801C3010995E418F508F7FE0AC02D8189
:1036C0003E8189819A81280F391F3E832D83E20C28
:1036D000F31C0F5F1F4FD9CF2FEF3FEF3A832983A2
:1036E000D4CF26960FB6F894DEBF0FBECDBFDF91C4
:1036F000CF911F910F91FF90EF90DF90CF90BF90EF
:10370000AF909F908F907F906F905F904F903F9081
:103710002F90089590E080E00895CF92DF92EF928D
:10372000FF920F931F93C12C88EFD82EEE24E394C1
:10373000F12C07E711E022E330E04FE851E062E3CB
:1037400070E08DE591E00E94F918D12CC12C24E0A5
:10375000E22EF12C2FE230E04CE851E06FE270E015
:1037600080E691E00E94F918C12C38EFD32E4AE090
:10377000E42EF12C2CE230E046E851E06CE270E0FF
:1037800086E691E00E94F918CC24CA94DC2C6FE004
:10379000E62EF12C2AE230E043E851E06AE270E0E4
:1037A0008AE691E00E94F9181F910F91FF90EF9027
:1037B000DF90CF900895CF92DF92EF92FF920F9318
:1037C0001F93CF93DF93EC0190EEC92E97E0D92E93
:1037D0002EE2E22EF12C0DE011E024E030E04DE08D
:1037E00051E069E170E089EF90E00E94F91808E18A
:1037F00011E029E130E04CE251E064E070E088E162
:1038000091E00E94F918219709F50DE011E024E0FC
:1038100030E04DE051E069E170E089EF90E00E9416
:10382000F91808E111E029E130E04CE251E064E0F0
:1038300070E088E191E00E94F918DF91CF911F912B
:103840000F91FF90EF90DF90CF900895D12CC12C75
:103850008EE2E82EF12CD9CFCF92DF92EF92FF9239
:103860000F931F93CF93DF9380359105A4F4823398
:103870009105DCF58E319105ECF5C12C58EFD52E74
:1038800097FF0DC0DF91CF911F910F91FF90EF90A7
:10389000DF90CF90089540EEC42E47E0D42EEC0187
:1038A0006091960270919702675671098FEEE82E2B
:1038B0008BE7F82E05E110E026E630E041E050E02D
:1038C0008EE892E00E94B810609196027091970283
:1038D00066567109760103E110E09E0142E050E076
:1038E0008EE892E00E94B810CDCF30EEC32EDD24DA
:1038F000DA94D5CF20E2C22E2DEFD22ED0CFEF9288
:10390000FF920F931F93DC011A960D911C911B9748
:1039100018962D913C911997ED91FC9100A0F1A181
:10392000E02D7B0150E040E070E060E009951F91E0
:103930000F91FF90EF900895CF93DF93FC01C48126
:10394000D581209729F410928901DF91CF910895B4
:10395000615071096C177D0708F4EB01FC0160816F
:103960007181AE0189E891E00E946133C757DE4F53
:103970001882EBCFCF93DF93EC018091820290917C
:1039800083020097E9F06881798161157105B1F0D2
:1039900040918402509185022C813D81421753074A
:1039A00068F00E945A338C819D81909387028093A6
:1039B00086021D821C82DF91CF9108950E94FD3105
:1039C0008881998190938302809382028A819B816E
:1039D00090938502809384028C819D8190938702CD
:1039E00080938602198218821B821A82E2CFCF93BB
:1039F000DF93EC0188819981009711F00E94FD31DD
:103A0000198218821D821C821B821A82DF91CF913B
:103A10000895FC0180819181009711F00C94FD3193
:103A200008950E944333FB0101900020E9F731978C
:103A3000AF01461B570BDC01ED91FC910280F38135
:103A4000E02D09948F929F92AF92BF920F931F9394
:103A5000CF93DF93CDB7DEB7A1970FB6F894DEBF53
:103A60000FBECDBF19A2423008F44AE08E010F5DAF
:103A70001F4F842E912CB12CA12CA50194010E94E2
:103A80001C2FE62FB901CA01EA3004F5E05DD80128
:103A9000EE938D01232B242B252B79F790E080E0EA
:103AA000109729F0BD0189ED91E00E94131DA196A8
:103AB0000FB6F894DEBF0FBECDBFDF91CF911F913F
:103AC0000F91BF90AF909F908F900895E95CDFCFEA
:103AD0000F931F93EEE8F2E0528F418F9587848712
:103AE00077876687338B228B318B208B81E0848BA9
:103AF000858BB801CF011F910F910C94131DCF92AC
:103B0000DF92EF92FF92CF93DF936C01990FEE0853
:103B1000FF08F7FE21C06DE289ED91E00E94B10D32
:103B2000EC0166277727CB016C197D098E099F0967
:103B30004AE00E94221DC80FD91F69E671E089ED95
:103B400091E00E94131D8C0F9D1FDF91CF91FF907C
:103B5000EF90DF90CF9008954AE0C701B6010E9430
:103B6000221DEC01EACF0F931F93CF93DF93EC015B
:103B700088819981009759F02A813B812617370760
:103B800030F081E0DF91CF911F910F9108958B016B
:103B90006F5F7F4F0E948632009759F09983888328
:103BA0001B830A832C813D81232B59F7FC01108252
:103BB000E8CF80E0E7CFEF92FF920F931F93CF9370
:103BC000DF93EC017B018A01BA010E94B31D8111D0
:103BD0000BC0CE010E94F71CCE01DF91CF911F9147
:103BE0000F91FF90EF9008951D830C83B70188819A
:103BF00099810E945A33F0CFFB0101900020E9F730
:103C00003197AF01461B570B0C94DB1D0F931F938D
:103C1000CF93DF93CDB7DEB762970FB6F894DEBFD0
:103C20000FBECDBF8C01CB01F8011182108213822F
:103C30001282158214824AE0BE016F5F7F4F0E949C
:103C40006E2DBE016F5F7F4FC8010E94FC1D629602
:103C50000FB6F894DEBF0FBECDBFDF91CF911F919D
:103C60000F910895CF93DF93EC01FB01861797071F
:103C700049F0608171816115710541F04481558180
:103C80000E94DB1DCE01DF91CF9108950E94F71CA9
:103C9000F9CFFC01118210821382128215821482E4
:103CA000FB0101900020E9F73197AF01461B570B4C
:103CB0000C94DB1DFF920F931F93CF93DF938C0126
:103CC0006BE671E00E94491EC0918C02D0918D027A
:103CD000C330D105F0F0C035D10510F0C0E5D0E01B
:103CE000E0918802F0918902EC0FFD1FF0801082B4
:103CF00060918802709189026E5F7F4FC80181F0E8
:103D00000E94FC1D8091880290918902C80FD91FE2
:103D1000F882C801DF91CF911F910F91FF90089514
:103D20000E94F71CEFCFEF92FF920F931F93CF9358
:103D3000DF9300D000D000D0CDB7DEB7BC0186E75E
:103D400092E00E94321E6CE671E0CE0101960E9464
:103D5000491EE0907602F0907702E114F10409F434
:103D600048C000917A0210917B0201151105B1F053
:103D70008D819E81080F191FB801CE0101960E9406
:103D8000B31D8823B1F129813A818D819E81B701CC
:103D9000820F931F0E945A331E830D83BE016F5FF3
:103DA0007F4F86E792E00E94321ECE0101960E946C
:103DB000091D80917A0290917B02009180021091FE
:103DC00081028017910761F58091760290917702C8
:103DD00060917C0270917D02009799F061157105E8
:103DE00069F40115110509F44CC0FC01808190E0D3
:103DF00015C0CE0101960E94F71CD0CF0E9451330E
:103E00000DC06115710509F43CC001151105C9F11A
:103E1000FB01808190E0919581959109892B89F131
:103E2000B8016F5F7F4F21F08CE792E00E949C1CED
:103E300009E811E030E020E048E059E163E370E098
:103E400081E090E00E94681D60917A0270917B028F
:103E50006F5F7F4F21F086E792E00E949C1C09E88B
:103E600011E020EE37E048E059E163E370E081E0E3
:103E700090E00E94681D66E772E08CE792E00E9485
:103E8000321E26960FB6F894DEBF0FBECDBFDF916F
:103E9000CF911F910F91FF90EF9008951F920F9275
:103EA0000FB60F9211242F933F938F939F93AF934D
:103EB000BF938091800190918101A0918201B09186
:103EC000830130917F0123E0230F2D3758F50196B0
:103ED000A11DB11D20937F018093800190938101EA
:103EE000A0938201B0938301809184019091850118
:103EF000A0918601B09187010196A11DB11D80930B
:103F0000840190938501A0938601B0938701BF91AE
:103F1000AF919F918F913F912F910F900FBE0F9076
:103F20001F90189526E8230F0296A11DB11DD2CF30
:103F30001F920F920FB60F9211242F933F934F931E
:103F40005F936F937F938F939F93AF93BF93EF9301
:103F5000FF9389ED91E00E948F0DFF91EF91BF914A
:103F6000AF919F918F917F916F915F914F913F9111
:103F70002F910F900FBE0F901F9018951F920F92C8
:103F80000FB60F9211242F938F939F93EF93FF936C
:103F9000E091E901F091EA018081E091EF01F09177
:103FA000F00182FD1BC090818091F2018F5F8F73C1
:103FB0002091F301821741F0E091F201F0E0E75225
:103FC000FE4F958F8093F201FF91EF919F918F911A
:103FD0002F910F900FBE0F901F9018958081F4CFF6
:103FE000E9EDF1E01382128288EE93E0A0E0B0E008
:103FF00084839583A683B7838FE291E09183808346
:1040000085EC90E09587848784EC90E0978786879D
:1040100080EC90E0918B808B81EC90E0938B828B95
:1040200082EC90E0958B848B86EC90E0978B868B6E
:10403000118E128E138E148EEEE8F2E0138212822D
:1040400020EF30E03583248380E491E097838683FA
:104050003187208793878287168A1586148617866C
:10406000168681E0858B848B2FEF3FEF338B228B7D
:10407000318B208B878B108E128E118E81E491E014
:10408000918380836BE671E088E892E00E94491E8C
:104090006BE671E082E892E00E94491E61E771E000
:1040A0008CE792E00E94491E61E771E086E792E0AA
:1040B0000C94491ECF93DF93CDB7DEB7EC970FB6C4
:1040C000F894DEBF0FBECDBF789484B5826084BD06
:1040D00084B5816084BD85B5826085BD85B581600C
:1040E00085BD80916E00816080936E00109281008A
:1040F0008091810082608093810080918100816045
:104100008093810080918000816080938000809105
:10411000B10084608093B1008091B0008160809391
:10412000B00080917A00846080937A0080917A0058
:10413000826080937A0080917A00816080937A0017
:1041400080917A00806880937A001092C100E0919B
:10415000E901F091EA0182E08083E091E501F091CC
:10416000E6011082E091E701F091E8018FEC808395
:104170001092F101E091ED01F091EE0186E0808373
:10418000E091EB01F091EC01808180618083E0910E
:10419000EB01F091EC01808188608083E091EB017C
:1041A000F091EC01808180688083E091EB01F091D7
:1041B000EC0180818F7D808360E090E080E00E9450
:1041C000010F8C01883024E5920709F1803244E523
:1041D0009407E9F08938994809F410C160E087E64E
:1041E00090E00E94010F07E413E88734974479F0C8
:1041F00081EA90E00E94840F03E619E1613041E614
:10420000740729F06F3F7F4FF1F506E215E1B80121
:1042100090E080E040E10E94221D69E671E089EDB6
:1042200091E00E94131D0E94D50E1092AA021092D6
:10423000A9021093AE020093AD02073543E81407BC
:1042400009F4A3C408F084C1033580E2180709F417
:10425000E4C408F01EC1013125E1120709F423C2AC
:1042600008F0ECC00939110509F4A7C408F0D2C060
:1042700080E091E10130110509F4D7C0109293025A
:10428000109292020DC28FEB90E00E94500F8B01B2
:10429000073583E8180709F4BACF013894E91907FC
:1042A00009F4B5CF013125E1120709F4B0CF00328E
:1042B00045E1140709F4ABCF063255E1150709F4BF
:1042C000A4CF013885E1180709F4A1CF01151441E5
:1042D00009F497C084ED90E00E94840F8B01603157
:1042E000734509F494CF87ED90E00E94840F8B0111
:1042F0006133704809F48BCF8FEE90E00E94500F2D
:104300008B016732734909F482CF8EEF90E00E94EF
:10431000840F072F182F292F3327033580E2180722
:1043200009F475CF84E090E00E94840F8B01811125
:1043300024C0011590E8190701F5809110019091B2
:104340001101A091120189839A83AB83AE014F5F63
:104350005F4F63E089EB90E00E941E0E60E080ED0D
:1043600090E00E94010F09E910E0893909F44FCF6C
:104370008039A9F400E910E94ACF063225E1120795
:1043800009F443CF003F49E81407F1F1023555E83D
:104390001507E9F101318CEA180709F438CF83EDEC
:1043A00090E00E94840F072F182F292F3327033600
:1043B00091E9190709F42BCF83ED90E00E94840F57
:1043C0008B01872F7359723008F421CF883909F493
:1043D0001ECF873709F41BCF863109F418CF033D70
:1043E000110509F414CF033D100709F410CF60E064
:1043F00090E080E00E94010F8C0109CF09E812E1F2
:1044000006CF04E118E603CF05E317E700CF09E87C
:1044100017E7FDCE043551E0150709F435C1053025
:10442000154109F02BCF84E090E19093AC0280938A
:10443000AB0268ED70E088E696E130C1063295E1A6
:10444000190709F45BC380F40032154109F016CF57
:1044500083E194E09093AC028093AB02A6E0EA2E55
:10446000F12C03E214E136C1013855E1150709F4D6
:10447000E0C30230164109F001CF83E094E090934D
:10448000AC028093AB0296E0E92EF12C0CE713E12D
:1044900021C1043198E6190709F454C348F50031E5
:1044A00043E5140709F436C378F40533154409F0DD
:1044B000E5CE80E090E19093AC028093AB026CE992
:1044C00070E080ED97E1EAC0083094E5190709F43F
:1044D000AACF82E091E10930184609F0CFCE90933F
:1044E000AC028093AB026CEC70E08CE995E1D6C035
:1044F000033947E7140709F4D2C3A8F4033887E760
:10450000180709F437C30938174709F0B7CE83E114
:1045100094E09093AC028093AB0261E4E62EF12C20
:1045200001ED13E1D7C0063927E7120709F49CC350
:104530000133104809F0A2CE83E194E19093AC02DC
:104540008093AB0252E1E52EF12C0FEB13E1C2C0D8
:10455000083353E9150709F466C380F5073293E978
:10456000190709F442C3C8F4023043E9140709F4F7
:1045700057C338F40039104909F080CE83E194E143
:1045800006C3003293E9190709F44DCF05321349E8
:1045900009F074CE80E091E1A2CF093243E914071B
:1045A00009F444C3B8F3013383E9180721F0053354
:1045B000134909F063CE80E090E191CF093824E9F6
:1045C0001207C8F5073844E9140708F065C3013835
:1045D00054E9150709F445C390F400541349023017
:1045E000110508F04BCE83E194E09093AC028093E8
:1045F000AB0205E6E02EF12C04E113E16BC00638B6
:10460000144909F03BCE83E094E09093AC02809390
:10461000AB0280EE91E0909395028093940280E447
:1046200091E09093930280939202BBE3EB2EF12CE6
:1046300004E912E14FC0053025EB1207D1F080F4F8
:1046400083E194E101311C4A09F018CE9093AC0249
:104650008093AB0283E0E82EF12C09E713E13AC026
:10466000093085EB180709F41AC30530154C09F019
:1046700005CE88E090E19093AC028093AB0260EBB2
:1046800070E08CEE94E10AC082E090E19093AC027D
:104690008093AB026CE970E08CE698E10E94A30F76
:1046A00010E000E017C083E090E09093AC028093AC
:1046B000AB0280EE91E0909395028093940280E4A7
:1046C00091E09093930280939202B3E0EB2EF12C51
:1046D00009E214E12091AC02822F82958F7090E064
:1046E000817099279093B0028093AF020115110554
:1046F00081F069E070E080E692E10E944F0EB70120
:10470000C8010E944F0E66E070E08AE592E10E94C7
:104710004F0E60E08EE892E00E94B51160E08EE8F6
:1047200092E00E94C50F8091AD029091AE02883850
:10473000944909F016C11092740120EE3FEF50E049
:1047400040E070E060E08EE892E00E947A11F09024
:10475000B902E090BA028091AB0280FF03C0FEE292
:10476000FF2EE12C8091AD029091AE0282309641F5
:1047700019F4EEE2FE2EE12C10E000E030E020E043
:1047800050E040E070E060E08EE892E00E940810A7
:104790008091AB0280FD10C070E060E08091B502B6
:1047A0009091B6020E949C0E70E060E08091B7028A
:1047B0009091B8020E949C0E4398429885B18C7FDC
:1047C0009E2D9370892B85B99BB193705E2D5C7F74
:1047D000E52EE92AEBB84198419A85B18C7F9F2D4F
:1047E0009370892B85B99BB193708F2D8C7FF82E98
:1047F000F92AFBB84198419A429A84B18C7F84B9D6
:104800008AB183708AB92091AB023091AC02809159
:10481000AD029091AE0226FD0EC0409A409840989D
:10482000409843B149B1409A20FD05C0893842E122
:10483000940709F047C28131954139F4409A409874
:104840004098409883B189B1409AB9016470772744
:10485000409A40984098409824FF51C293B189B142
:1048600093708C7F982B409A409A4098409840983B
:1048700043B189B143708C7F482B409A409A40984D
:104880004098409883B1E9B083705E2D5C7F852BA2
:10489000409A50E0672B09F41DC2E82EF12CFE2C43
:1048A000EE24EE2488EFF82273E0440F551F7A952A
:1048B000E1F7407E5770E42AF52A969596959695ED
:1048C000E92A80917401882399F0C701A5E09695A3
:1048D0008795AA95E1F780729927A7015695479584
:1048E0004F715527842B952B50ECE522E82AF92AA5
:1048F000409A439A84B1836084B98AB18C6F8AB933
:1049000020FD14C0009198021091990201501109E4
:1049100020919602309197022150310950E040E0F9
:1049200070E060E08EE892E00E9408108FE1E816E7
:104930008FEFF806B1F486E08983AE014F5F5F4FD9
:1049400061E08AE390E00E941E0E8091AB0290919C
:10495000AC028F7E9093AC028093AB0281E0809397
:10496000740161E08EE892E00E94B51170E060E0B1
:104970008EE892E00E947F1C8091A7029091A8028D
:10498000892B49F080919C0290919D02069790930B
:104990009D0280939C021092A8021092A70282E0CE
:1049A0008093A2028093A30290E080E00E947F1D8A
:1049B00090E080E00E947F1D0E948D1B83E490E0C8
:1049C00090937E0180937D0163E470E0CE010196B7
:1049D0000E94061ECE0101960E94931ECE010196F2
:1049E0000E94091D6EE671E0CE0101960E94491EEB
:1049F0006D817E816F5F7F4F21F0CE0101960E9415
:104A00009C1CF12CE12C02E310E02FE530E041E0AA
:104A100050E060E670E08EE892E00E94B81009E88D
:104A200011E020EE3FEF48E059E163E370E08EE6ED
:104A300090E00E94681DCE0101960E94091D90E041
:104A400080E00E94DB1B89ED91E00E946F0D18163B
:104A500019060CF027C789ED91E00E944D0DF82E44
:104A600089831A8200918C0210918D020F5F1F4F73
:104A7000B80188E892E00E94B31D882399F0209144
:104A800088023091890280918C0290918D02BE0142
:104A90006F5F7F4F820F931F0E945A3310938D02D6
:104AA00000938C029AE0F912CECF80918C02909103
:104AB0008D02892B09F4A8C4E0918802F091890243
:104AC000309709F4A1C4E081EB52EF3008F09CC4A8
:104AD0000E2E000CFF0BE159FA4D0C94612F422C65
:104AE000042A4C2C042A042AAE26042A042A042A66
:104AF000042A132A1A2A452AEE2A0E2B83E194E06F
:104B00009093AC028093AB02FCE0EF2EF12C07E116
:104B100014E1E0CD83E19EE09093AC028093AB0280
:104B200080EE91E0909395028093940280E491E06E
:104B30009093930280939202E2E0EE2EF12C05E135
:104B400014E1C8CD83E094E09093AC028093AB0273
:104B500080EE91E0909395028093940280E491E03E
:104B6000909393028093920273E0E72EF12C02E17E
:104B700014E1B0CD82E091E19093AC028093AB025E
:104B800060E970E080E497E189CD83E094E190935F
:104B9000AC028093AB0280EE91E0909395028093FB
:104BA000940280E491E0909393028093920242E019
:104BB000E42EF12C0DEB13E18DCD83E194E1909384
:104BC000AC028093AB0280EE91E0909395028093CB
:104BD000940280E491E090939302809392023DE1ED
:104BE000E32EF12C00EA13E175CD83E094E090937D
:104BF000AC028093AB0280E991E0909395028093A0
:104C0000940280EF90E090939302809392022EE1C1
:104C1000E22EF12C02E813E15DCD87E194E116CD9F
:104C200083E094E013CD83E194E010CD83E096E13E
:104C30000DCD83E194E09093AC028093AB0280EEC3
:104C400091E0909395028093940280E491E0909398
:104C500093028093920215E4E12EF12C0FEC12E105
:104C600039CD87E094E0E7CF83E094E09093AC0205
:104C70008093AB0280EE91E0909395028093940232
:104C800080E491E09093930280939202ABE2EA2E4B
:104C9000F12C09E612E11ECD83E194E0E7CF80E03C
:104CA00090E19093AC028093AB0260EC70E08CE2F8
:104CB00094E10E94A30F80E991E090939502809384
:104CC0009402EECC409A40984098409843B149B144
:104CD000409AB1CDE92EF12CFE2CEE24EE2498EF73
:104CE000F92233E0440F551F3A95E1F7407E5770A3
:104CF000E42AF52A869586958695E82AE2CDE3B0E2
:104D000099B1409A409A40984098409883B149B1EF
:104D100083704C7F842B409A4E2D4370E42E9C7FF1
:104D2000E92AFE2CE82E23FF03C0F826EF24FE24F8
:104D3000672B09F4C6CDC701807E9770A701452F68
:104D40005527469546954695842B952BFE2CEE24AB
:104D5000FF0CFF0CFF0CE82AF92AB3CDCE01019617
:104D60000E945A1ECE0101960E94BA1CCE010196E5
:104D70000E94091D8091820290918302009709F49C
:104D80000EC20E94472D70937E0160937D0188E1E1
:104D9000E3E1F1E0DE01119601900D928A95E1F7D1
:104DA00078E1E72E76ECF72E08EA10E02FE331E009
:104DB00050E040E070E060E08EE892E00E94B810C1
:104DC000EE24EA94FE2C02EA10E025E331E043E011
:104DD00050E065E070E08EE892E00E94B81010921A
:104DE000A1021092A00210929F0210929E02FEEC6D
:104DF0002F2E33243A94B1016A557109072E000C05
:104E0000880B990B0E94BA2D25E33AEF4EE85CE33C
:104E10000E94F52D6B017C010E94F72F6DA37EA3EC
:104E20008FA398A7C701B6010E94E3304B015C0134
:104E300020E030E049E153E46DA17EA18FA198A567
:104E40000E94F52D20E030E040E253E40E948B2FD9
:104E50000E94753069A77AA78BA79CA749A55AA578
:104E60005AAF49AF20E030E049E153E4C501B40155
:104E70000E94F52D20E030E04BE353E40E948B2F9D
:104E80000E9475306DA77EA78FA798AB8DA59EA5B4
:104E90009CAF8BAFB10165557109072E000C880BD3
:104EA000990B0E94BA2D25E33AEF4EE85CE30E948D
:104EB000F52D6B017C010E94F72F2B013C01C701EE
:104EC000B6010E94E3306B017C0120E030E049E153
:104ED00053E4C301B2010E94F52D20E030E040E22E
:104EE00053E40E948B2F0E946E306D8F7E8F8F8FC8
:104EF00098A320E030E049E153E4C701B6010E94E5
:104F0000F52D20E030E04BE353E40E948B2F0E940C
:104F10006E3069A37AA38BA39CA320E030E045E028
:104F200053E4C301B2010E94F52D20E030E040E2DD
:104F300053E40E948B2F0E946E3069AB7AAB8BAB2F
:104F40009CAB20E030E045E053E4C701B6010E948D
:104F5000F52D20E030E04BE353E40E948B2F0E94BC
:104F60006E306DAB7EAB8FAB98AF20E030E045E0AC
:104F700053E4C501B4010E94F52D20E030E04BE37D
:104F800053E40E948B2F0E947530698F7A8F8B8F2C
:104F90009C8F20E030E045E053E46DA17EA18FA11D
:104FA00098A50E94F52D20E030E040E253E40E94F5
:104FB0008B2F0E9475302B0192E32916310469F082
:104FC000F12CE12C098D1A8D92014DA95EA969A9D8
:104FD0007AA98EE892E00E94911760EEC62EDD2439
:104FE000DA942EEC22162FEF320640F449E1241613
:104FF0003104F0F450EEC52E57E0D52EE9A0FAA00A
:105000000D8D1E8D298D3A8DA2016DA57EA589A5D8
:105010009AA50E94F918EDA8FEA809A91AA929A124
:105020003AA14D8D5E8D698D7A8DC2010E94F9186D
:10503000C10149974997F0F440E2C42E4DEFD42EB8
:10504000E9A0FAA00D8D1E8D298D3A8DA2016DA5C6
:105050007EA589A59AA50E94F918EDA8FEA809A920
:105060001AA929A13AA14D8D5E8D698D7A8DC20153
:105070000E94F918C10169E170E00E944D2F9E8FD6
:105080008D8F24E1C22ED12C892B49F120E030E014
:1050900040E153E46DA17EA18FA198A50E94F52D5A
:1050A00020E030E040E253E40E948B2F0E947530F4
:1050B0007AAF69AF20E030E040E153E4C501B401CC
:1050C0000E94F52D20E030E04BE353E40E948B2F4B
:1050D0000E9475307CAF6BAF3BE0C32ED12CF12C1E
:1050E000E12C098D1A8D92014BAD5CAD69AD7AADA5
:1050F0008EE892E00E9491178D8D9E8D892B09F08C
:1051000092C0B60161577F4F072E000C880B990B98
:105110000E94BA2D2B013C01AC019B01C501B401D9
:105120000E94F52D20E030E04BE353E40E948B2FEA
:105130000E9475304B01C10169E170E00E944D2F62
:105140007B0192E0E90EF11CA30192016DA17EA109
:105150008FA198A50E94F52D20E030E040E253E4B5
:105160000E948B2F20E030E040E951E40E948A2F1A
:105170000E94753022E0E216F104A9F043E0E41643
:10518000F10429F051E0E516F10409F044C17093EF
:105190009B0260939A029CE0891A91080BC060E020
:1051A00070E0CB01F0CD70939B0260939A0288E08F
:1051B000881A910890929D0280929C028091A70289
:1051C0009091A802892B49F080919C0290919D02B8
:1051D000069790939D0280939C021092A8021092D1
:1051E000A7021092A1021092A00210929F021092A8
:1051F0009E0242E04093A2024093A302B701660FD1
:10520000771F660F771F81E090E08C0F9D1F680F5E
:10521000791F8EE892E00E94131D69E671E08EE826
:1052200092E00E94131D95E0290E311C27E32216FF
:10523000310409F0E0CD20907D0130907E01B10174
:10524000032C000C880B990B6C587109810991098A
:105250000E94BA2D4B015C0125E33AEF4EE85CE376
:105260000E94F52D2B013C010E94F72F6B017C0160
:10527000C301B2010E94E3302B013C0120E030E089
:1052800044EB52E4C501B4010E948B2F25E33AEFB1
:105290004EE85CE30E94F52D0E94EB304B015C016F
:1052A0008092750190927601A0927701B092780178
:1052B00020E030E042E053E4C701B6010E94F52D42
:1052C00020E030E040E253E40E948B2F0E947530D2
:1052D0006B01709303016093020120E030E042E033
:1052E00053E4C301B2010E94F52D20E030E04BE30E
:1052F00053E40E948B2F0E9475302B0170930101A3
:105300006093000141E0C41AD10820E030E048ED8C
:1053100051E4C501B4010E94F52D20E030E040E2E7
:1053200053E40E948B2F20E030E040E85FE30E94CE
:105330008A2F0E946E30E12CA8EFFA2E820196018E
:1053400040EA50E08EE892E00E949117009100013F
:1053500010910101C0900201D090030120E030E0E3
:1053600048ED51E46091750170917601809177016B
:10537000909178010E94F52D20E030E040E253E466
:105380000E948B2F0E946E30BFE1EB2EB8EFFB2EF8
:10539000960140EA50E08EE892E00E949117009159
:1053A000000110910101C0900201D09003015FEF54
:1053B000C51AD50A20E030E048ED51E4609175014E
:1053C0007091760180917701909178010E94F52D7E
:1053D00020E030E040E253E40E948B2F20E030E0F8
:1053E00040E85FE30E948B2F0E946E30E12C88EF33
:1053F000F82E960140EA50E08EE892E00E94911764
:1054000030920501209204016BE671E088E892E099
:105410000E94FC1D18CB70939B0260939A0220E1BE
:10542000821A9108C7CE70E060E08EE892E00E9498
:105430007F1CEACFE12C78EFF72E02E310E022E3A5
:1054400030E041E050E06DE571E08EE892E00E94CE
:10545000B810EFE1EE2EF12C22E330E041E050E015
:105460006BE271E08EE892E00E94B810F0EEEF2E51
:10547000F7E0FF2E22E330E041E050E069EF70E01A
:105480008EE892E00E94B810BFCFCE0101960E9434
:105490005A1ECE0101960E94BA1CCE0101960E94AE
:1054A000091D8091820290918302009709F48AC0BD
:1054B0000E94472D7A8F698F70E060E08EE892E05D
:1054C0000E947F1C80909802909099028091960291
:1054D00090919702698D7A8D0E944D2F3B01D12CBE
:1054E000C12CB12CA12CCB0101979E8F8D8FA301D4
:1054F0004C0D5D1D5AA349A3898D9A8DA816B90636
:105500000CF064C00E94EF2C1B012C01E12C58EF21
:10551000F52E840121E030E050E040E0B6018EE855
:1055200092E00E94B81065E070E080E090E00E9498
:10553000DD0CF12CE12C2D8D3E8D50E040E0B601CC
:105540008EE892E00E94B810C201B10126E930E075
:1055500040E050E00E94B32EA401461B570B60EEC2
:10556000E62E67E0F62E2D8D3E8DB6018EE892E098
:105570000E94B8104AE0BE016F5F7F4FC5010E94D4
:105580006E2DF12CE12C0EE110E022E330E050E032
:1055900040E070E060E08EE892E00E94B8108E017A
:1055A0000F5F1F4F20EE3FEF4FE059E164E170E0E5
:1055B00081E090E00E94681D9FEFA91AB90AC9A076
:1055C000DAA095CF60E070E0CB0174CF89ED91E077
:1055D0000E946F0D892B09F475CF16CFCE0101966D
:1055E0000E945A1ECE0101960E94BA1CCE0101965D
:1055F0000E94091D8091820290918302009751F0D0
:105600000E94472D70937E0160937D01CB010E9423
:105610002C1CFACE60E070E0CB01F4CF10927E013A
:1056200010927D0180917D0190917E016EE071E08C
:10563000681B790B072E000C880B990B0E94BA2D62
:105640002BED3FE049E450E40E94F52D20E030E0EE
:1056500044E353E40E94FC2F2B013C01C0909802CC
:10566000D0909902D7FE03C02FEFC21AD20AD59468
:10567000C79441E0C41AD108209096023090970256
:1056800037FE03C05FEF251A350A35942794410190
:1056900081E0881A9108C301B2010E94E33020E042
:1056A00030E040EA52E40E94F52D0E946E306D8F8A
:1056B0007E8F8F8F98A3C301B2010E94F72F20E045
:1056C00030E040EA52E40E94F52D0E946E3069A35A
:1056D0007AA38BA39CA3A101425051095A8F498FF1
:1056E00000917B0110917C010C0D1D1D2091790111
:1056F00030917A01280D391D21503109F12CE12C0E
:10570000A601698D7A8D8EE892E00E94DD1A69A06B
:105710007AA06C0C7D1CAD8CBE8CA80CB91C9501BC
:105720002F5F3F4FE12C98EFF92E8301A601B101C5
:105730008EE892E00E94DD1A00917B0110917C01BD
:105740000C0D1D1D2091790130917A01280D391D14
:10575000F12CE12CA601B4018EE892E00E94DD1A42
:105760002FE1E22E28EFF22E83019501A601B4016C
:105770008EE892E00E94DD1A00917B0110917C017D
:105780000C0D1D1D2091790130917A01280D391DD4
:105790002F5F3F4FF12CE12CA601B1018EE892E082
:1057A0000E94DD1A51E0A51AB108E12C38EFF32E62
:1057B00083019501A601698D7A8D8EE892E00E94A1
:1057C000DD1A00917D0110917E010E5F1F4F109335
:1057D0007E0100937D018D8D9E8D90937A01809343
:1057E000790149A15AA150937C0140937B0189ED35
:1057F00091E00E946F0D892B91F1F12CE12C830136
:105800009501A601698D7A8D8EE892E00E94DD1ADD
:1058100000917B0110917C010C0D1D1D20917901DF
:1058200030917A01280D391DA601B4018EE892E06D
:105830000E94DD1A00917B0110917C010C0D1D1D51
:105840002091790130917A01280D391D2F5F3F4F4A
:10585000A601B1018EE892E00E94DD1AD5CD6AE082
:1058600070E080E090E00E94DD0CC80164E670E02A
:105870000E944D2F97FF03C09195819591090E9439
:105880002C1CD0CE80917D0190917E010B9690933F
:105890007E0180937D01B8CD80917D0190917E0144
:1058A0000B97F5CFF12CE12C02E310E022E330E07E
:1058B00041E050E06DE571E08EE892E00E94B810A2
:1058C00081E090E00E94DB1B64EF71E080E090E0FB
:1058D0000E94DD0C0E948D1B90E080E00E94DB1B8B
:1058E00064EF71E080E090E00E94DD0C60917D014A
:1058F00070917E01CE0101960E94061ECE01019696
:105900000E94931ECE0101960E94091D80E090E046
:10591000892B09F498C80E947B0D882309F493C849
:105920000E94000090C886E792E00E94091D8CE763
:1059300092E00E94091D82E892E00E94091D88E819
:1059400092E00C94091D8F929F92AF92BF92CF92DA
:10595000DF92EF92FF92CF93DF93EC016881798120
:105960008A819B81611571058105910521F464E2AD
:1059700079ED8BE597E02DE133EF41E050E00E94B7
:10598000B32E49015A019B01AC01A7EAB1E40E9480
:10599000D22E6B017C01ACEEB4EFA50194010E9404
:1059A000E02EC60ED71EE81EF91EF7FE06C081E0E7
:1059B000C81AD108E10880E8F80AC882D982EA82C8
:1059C000FB82C701B6019F77DF91CF91FF90EF90E7
:1059D000DF90CF90BF90AF909F908F9008958F925F
:1059E0009F92AF92BF92CF92DF92EF92FF9260911F
:1059F00006017091070180910801909109016115DC
:105A000071058105910521F464E279ED8BE597E05C
:105A10002DE133EF41E050E00E94B32E49015A01DD
:105A20009B01AC01A7EAB1E40E94D22E6B017C017C
:105A3000ACEEB4EFA50194010E94E02EC60ED71E75
:105A4000E81EF91EF7FE06C081E0C81AD108E10879
:105A500080E8F80AC0920601D0920701E09208019E
:105A6000F0920901C701B6019F77FF90EF90DF9098
:105A7000CF90BF90AF909F908F9008956093060154
:105A800070930701809308019093090108951F9373
:105A9000FC0199278827BC01E89411911032E9F3A1
:105AA000193010F01E30C8F31B3251F01D3249F48A
:105AB000689406C00E94792D610F711D811D911D92
:105AC000119110531A30B0F33EF490958095709573
:105AD00061957F4F8F4F9F4F1F910895BB274A308D
