:100000000C948D0C0C94B50C0C94B50C0C94B50C94
:100010000C94B50C0C94B50C0C94B50C0C94B50C5C
:100020000C94B50C0C94B50C0C94B50C0C94B50C4C
:100030000C94B50C0C94B50C0C94B50C0C94B50C3C
:100040000C94DF1E0C94B50C0C944F1F0C94291FBC
:100050000C94B50C0C94B50C0C94B50C0C94B50C1C
:100060000C94B50C0C94B50C05A84CCDB2D44EB97B
:100070003836A9020C50B9918688083CA6AAAA2A4B
:10008000BE000000803F0664EC1B3C04BC163E3BF7
:10009000E5B93CC93C37C29E5A3D660498083EEA21
:1000A00069AAAA3E000000803F0000001B2E20022B
:1000B000D09C0006272017D3BA001B2E2002D05652
:1000C00001192E2004D0E6011B272002D36A021B4F
:1000D0002E2002D006031B2E2002D0A203172A20B6
:1000E00006D01B041B2E2002D0B7041B2E2002D0EA
:1000F00003FFF800FFFF803FFFF803FFFEC33FFF51
:10010000BCF0000FFF0001FFE0003FFC0007FF8094
:1001100000FFF0001FFE0003FFC0007FF8000FFF8C
:100120000001FFE0003FFC0007FF8000FFF0001F20
:10013000FC0000FE0000070000004000000400007A
:1001400000E000007F00003FF0001FFE0003FFC042
:10015000007FF8000FFF0001FFE0003FFC0007FFF9
:100160008000FFF0001FFE0003FFC0007FF8000FBB
:10017000FF0001FFE0003F780003C67FFF301FFF54
:10018000F007FFFF007FFFC007FFF00031EFFFFF28
:10019000FFFFFFFFFFFFFFFF3C30400033FFFFFF8B
:1001A000FFFFFFFFFFFFFFFDE30003FFF800FFFF7E
:1001B000803FFFF803FFFEC03FFFBC00000FC00000
:1001C00001F800003F000007E00000FC00001F8075
:1001D0000003F000007E00000FC00001F800003FA7
:1001E000000007E00000FC00001F800000F07FFF1F
:1001F000861FFFFC4FFFFFE4FFFFF8E7FFFC1F0037
:100200000003F000007E00000FC00001F800003F76
:10021000000007E00000FC00001F800003F0000069
:100220007E00000FC00001F800003F000007E00062
:1002300000780000067FFF001FFFF007FFFF007F30
:10024000FFC007FFF0000FFFE00FFFF80FFFFE03F6
:10025000FFFEC0FFFEF00000FC00007E00003F003B
:10026000001F80000FC00007E00003F00001F8004D
:1002700000FC00007E00003F00001F80000FC00057
:1002800007E00000F1FFFE19FFFFC7FFFFF8FFFFC7
:10029000F81FFFF1800003C00007E00003F0000139
:1002A000F80000FC00007E00003F00001F80000FEF
:1002B000C00007E00003F00001F80000FC00007E31
:1002C00000003F00000F07FFF307FFFC07FFFF01DF
:1002D000FFFF007FFF0000000186000079E0001FA3
:1002E000FE0003FFC0007FF8000FFF0001FFE000E9
:1002F0003FFC0007FF8000FFF0001FFE0003FFC06F
:10030000007FF8000FFF0001FFE0003FF80001FC54
:10031000FFFF0E3FFFF89FFFFFC1FFFFF00FFFF849
:10032000C000007800003F000007E00000FC000073
:100330001F800003F000007E00000FC00001F800E5
:10034000003F000007E00000FC00001F800003F0F9
:1003500000007E0000078000006003FFF800FFFF40
:10036000803FFFF803FFFE033FFF80F000003F00E7
:100370000007E00000FC00001F800003F000007E8A
:1003800000000FC00001F800003F000007E000007F
:10039000FC00001F800003F000007C00000E7FFFC7
:1003A000811FFFFC0FFFFFE0FFFFF807FFFC60006D
:1003B000003C00001F800003F000007E00000FC022
:1003C0000001F800003F000007E00000FC00001FF3
:1003D000800003F000007E00000FC00001F8000064
:1003E0003F000003C07FFF301FFFF007FFFF007FCB
:1003F000FFC007FFF00003FFF800FFFF803FFFF89A
:1004000003FFFE033FFF80F000003F000007E00015
:1004100000FC00001F800003F000007E00000FC001
:100420000001F800003F000007E00000FC00001F92
:10043000800003F000007C00000E7FFF811FFFFCA6
:100440000FFFFFE4FFFFF8E7FFFC7F00003FF00035
:100450001FFE0003FFC0007FF8000FFF0001FFE058
:10046000003FFC0007FF8000FFF0001FFE0003FFBD
:10047000C0007FF8000FFF0001FFE0003F7800039D
:10048000C67FFF301FFFF007FFFF007FFFC007FFA1
:10049000F0003FFF80FFFF83FFFF83FFFEC3FFFBF2
:1004A000C0000FC0001F80003F00007E0000FC0065
:1004B00001F80003F00007E0000FC0001F80003FBC
:1004C00000007E0000FC0001F80000F00000600069
:1004D0000040000000000000000600003C0001F8A1
:1004E0000003F00007E0000FC0001F80003F000085
:1004F0007E0000FC0001F80003F00007E0000FC0E0
:10050000001F80003F00003C00003003FFF800FFA8
:10051000FF803FFFF803FFFEC33FFFBCF0000FFF6B
:100520000001FFE0003FFC0007FF8000FFF0001F1C
:10053000FE0003FFC0007FF8000FFF0001FFE00096
:100540003FFC0007FF8000FFF0001FFC0000FE7F63
:10055000FF871FFFFC4FFFFFE4FFFFF8E7FFFC7F73
:1005600000003FF0001FFE0003FFC0007FF8000FF7
:10057000FF0001FFE0003FFC0007FF8000FFF000EC
:100580001FFE0003FFC0007FF8000FFF0001FFE027
:10059000003F780003C67FFF301FFFF007FFFF001A
:1005A0007FFFC007FFF00003FFF800FFFF803FFF61
:1005B000F803FFFEC33FFFBCF0000FFF0001FFE0A8
:1005C000003FFC0007FF8000FFF0001FFE0003FF5C
:1005D000C0007FF8000FFF0001FFE0003FFC0007B4
:1005E000FF8000FFF0001FFC0000FE7FFF871FFF61
:1005F000FC4FFFFFE0FFFFF807FFFC6000003C003E
:10060000001F800003F000007E00000FC00001F812
:1006100000003F000007E00000FC00001F80000316
:10062000F000007E00000FC00001F800003F000055
:1006300003C07FFF301FFFF007FFFF007FFFC007F1
:10064000FFF000000000000500010000020D06029E
:10065000F4040005040601F407000A0C0A00F5166C
:100660000009100A01F32800100D1001F442000BDC
:100670000D0C01F4540002040401F45500041106A9
:1006800001F45E0004110601F4670005050701F49A
:100690006B0006080B03F9710002040502007200EA
:1006A00004010601FC730002010501007400050D40
:1006B0000500F47D00080D0A01F48A00040D0A0308
:1006C000F49100090D0A01F4A000080D0A01F4AD2F
:1006D00000070D0A02F4B900090D0A01F4C8000967
:1006E0000D0A01F4D700080D0A00F4E400090D0A10
:1006F00001F4F300080D0A01F40001020A0501F7F4
:100700000301030C0501F8080109090B01F81301A5
:1007100009040B01FB180109090B01F82301090D5C
:100720000A01F4320111101201F454010C0D0C00F5
:10073000F468010B0D0C01F47A010B0D0D01F48C22
:10074000010B0D0D01F49E01090D0B01F4AD010823
:100750000D0B01F4BA010C0D0E01F4CE010B0D0DC1
:1007600001F4E001020D0502F4E401070D0A01F4B1
:10077000F0010B0D0C01F40202080D0A01F40F0246
:100780000D0D0F01F425020B0D0D01F437020D0DB7
:100790000E01F44D020A0D0C01F45E020D0E0E0165
:1007A000F475020C0D0D01F489020A0D0C01F49A86
:1007B00002090D0B01F4A9020B0D0D01F4BB020B94
:1007C0000D0C00F4CD02110D1100F4E9020C0D0C1A
:1007D00000F4FD020C0D0C00F411030A0D0B01F4E2
:1007E000220303110501F42903050D0500F432036A
:1007F00003110500F4390307070801F440030A0157
:100800000A0003420304030500F44403090A0A0131
:10081000F75003090D0A01F45F03080A0901F7699B
:1008200003080D0A01F47603080A0A01F78003049D
:100830000D0501F48703080E0A01F79503080D0A58
:1008400001F4A203020D0401F4A60304110400F450
:10085000AF03090D0901F4BE03020D0401F4C20344
:100860000D0A0F01F7D303080A0A01F7DD03080A8E
:100870000A01F7E703090D0A01F7F603080D0A015B
:10088000F70304050A0601F70A04080A0901F71428
:1008900004040C0501F51A04080A0A01F7240409E6
:1008A0000A0900F730040D0A0D00F74104080A098F
:1008B00000F74B04090E0900F75B04070A0901F76A
:1008C000640404110601F46D0402110402F47204BC
:1008D00004110601F47B0407030901F9FFFFF8C0C6
:1008E000DEF72009864191FF1304C320C8FF8982E7
:1008F0006190101F14DA3D1E8340781708F47A3592
:1009000033F040203810EC20C620C640C6406C8032
:100910003900013C0277026304630477083C0E0649
:1009200060CC1981E0180F0336C2D8730631E3C4D6
:10093000FE13266CCCCCC46623108C466333333252
:10094000664C80257EA50030C33F30C30CD6F0C076
:100950000844211084421108003C6642C3C3C3C34B
:10096000C3C3C342663C113F33333333303E31B0EF
:100970007830181C1C1C1818100807F83C66C3C3F4
:1009800003061C0703C3C3663C0C187162C9A34667
:10099000FE183060C07F2010080807F38C03018028
:1009A000F06C63E01E3198780C06F38D83C1E0D0C3
:1009B0006C63E0FF030206040C08181818103030AE
:1009C0003E31B0783C1B18F8C6C1E0F06C63E03CE7
:1009D00066C2C3C3C3673B0303C2663CC00030C0EA
:1009E000000064A00081C78E0C0780700E0180FF9C
:1009F00080001FF000700E01C0183871C080003EEA
:100A000031B0783018183818180C0000018003F045
:100A1000060E06018600661DBB31CF18C79863CC51
:100A200031E611B399CCF7860001800070400FE0E9
:100A30000600F00F009019819810830C3FC20460EB
:100A40006606C030FF183303606C0D833FC606C0D6
:100A5000780F01E06FF81F861981A03C01803006F5
:100A600000C0680D831861F0FF183303603C0780F5
:100A7000F01E03C0780F0360CFF0FFE030180C06C3
:100A800003FD80C06030180FF8FFC0C0C0C0C0FEBA
:100A9000C0C0C0C0C0C00F830E606603C00C00C1E0
:100AA000FC03C0360360730F0F10C0780F01E03CE9
:100AB0000780FFFE03C0780F01E03C06FFFFFFC088
:100AC000060C183060C183078F1E2780C0D8330CF6
:100AD000630CC1B83F0730C3186306606C0CC0C01C
:100AE000C0C0C0C0C0C0C0C0C0C0FFE03F01FC1F4C
:100AF000E0FD05EC6F637913CD9E6CF1478E3C7180
:100B000080E07C0FC1E83D8798F11E33C3786F0702
:100B1000E07C0E0F8183180CC06C01E00F0078039D
:100B2000C01B01980C60C0F800FF306C0F03C0F0D0
:100B30006FF300C0300C0300C0000F8183180CC09D
:100B40006C01E00F007803C01B01986C60C0FB00D3
:100B500008FF8C0EC06C06C06C0CFF8C0EC06C06BF
:100B6000C06C06C0703F186C0F03C01E01F00E0071
:100B7000F03C0D863F00FF86030180C06030180CFA
:100B800006030180C0C0780F01E03C0780F01E031F
:100B9000C0780F01B061F0C06C0D8110630C61046E
:100BA00060CC1901603C070060C18130E19870CCD5
:100BB000286626211330C8986C4C14340A1A07078B
:100BC000030380818060630C30C1980F00E0060051
:100BD000F019019830C60E6060C0360630C30C199B
:100BE00081D80F00600600600600600600FFC0604C
:100BF000300C060301C0603018060300FFC0FB6D17
:100C0000B6DB6DB6E0841084108410841080EDB6DD
:100C1000DB6DB6DBE03060A244D8A180FFC0C630F7
:100C20007E71B0C060F3DB0D86C73DC0C060301B75
:100C3000CE360F0783C1E0F07C6DE03C66C3C0C0D8
:100C4000C0C0C3663C0303033B67C3C3C3C3C3C382
:100C5000673B3C66C3C3FFC0C0C3663C366F666675
:100C60006666603B67C3C3C3C3C3C3673B0303C6B6
:100C70007CC0C0C0DEE3C3C3C3C3C3C3C3C3C3FF1D
:100C8000FFC03003333333333333E0C06030184CAC
:100C9000466361F0EC6231986C30FFFFFFC0DEF715
:100CA0001CF0C7863C31E18F0C7863C31E18C0DE90
:100CB000E3C3C3C3C3C3C3C3C33C66C3C3C3C3C3C8
:100CC000C3663CDE71B0783C1E0F0783E36F3018BB
:100CD0000C003B67C3C3C3C3C3C3673B030303DF4A
:100CE000318C6318C6003EE3C0C0E03C07C3E37E1E
:100CF00066F666666667C3C3C3C3C3C3C3C3C77BA5
:100D0000C1A098CC4221B0D0281C0C00C61E38913E
:100D1000C4CA66D316D0A6871C38C0C60043623644
:100D20001C181C3C266243C12198CC4261B0D038CB
:100D30001C0C0603010300FE0C30C1861820C1FC08
:100D40003666666ECE66666630FFFFFFFFC0C6661B
:100D5000666737666666C061243800000000003EA2
:100D60005551553E3E6B6F6B3E0C1E3C1E0C081CD5
:100D70003E1C081C4A7F4A1C185C7F5C18001C1C27
:100D80001C007F6363637F001C141C007F636B6324
:100D90007F30484D3307062979290620503F020C41
:100DA000607F05353F2A1C771C2A007F3E1C0808FF
:100DB0001C3E7F0014227F2214005F005F000609A2
:100DC0007F017F4A55555529606060606054627F9D
:100DD000625408047E040808103F100808082A1C02
:100DE00008081C2A08081C101010101C3E083E1C85
:100DF000303C3F3C30061E7E1E0600000000000016
:100E0000005F00000007000700147F147F14242AED
:100E10007F2A1223130864623649562050000007C7
:100E20000000001C2241000041221C0014083E0862
:100E30001408083E080800A0600000080808080818
:100E4000006060000020100804023E5149453E4405
:100E5000427F404042615149462141454B3118147F
:100E6000127F1027454545393C4A494930017109EF
:100E700005033649494936064949291E006C6C006C
:100E80000000AC6C00000814224100141414141467
:100E9000004122140802015109063E415D555E7C65
:100EA0001211127C7F494949363E414141227F411E
:100EB00041221C7F494949417F090909013E4149B5
:100EC000497A7F0808087F00417F41002040413F68
:100ED000017F081422417F404040607F020C027F66
:100EE0007F0408107F3E4141413E7F090909063ECB
:100EF0004151215E7F09192946464949493103017B
:100F00007F01033F4040403F1F2040201F3F403CA7
:100F1000403F63140814630708700807615149458E
:100F200043007F41410002040810200041417F003E
:100F3000040201020440404040400001020400203D
:100F4000545454787F4844443838444444483844DE
:100F500044487F3854545418087E090102085454F8
:100F6000583C7F0804047800447D40002040443D04
:100F7000007F1010284400417F40007C04780478F2
:100F80007C0804047838444444387C141414080859
:100F900014140C7C7C080404084854545424043F62
:100FA0004440203C4040207C1C2040201C3C4038D9
:100FB000403C44281028440C5050503C4464544C4D
:100FC00044000836410000007F0000004136080060
:100FD00002010204027048444870000E110E000025
:100FE000121F100000121916000011150B00000747
:100FF000041F000017150900000E15090000011D4F
:101000000300000A150A000012150E000004040473
:1010100000FFFFFFFFFF3E000000003E3E0000001B
:101020003E3E003E003E3E003E3E8080808080C0CE
:10103000C0C0C0C0D0D0D0D0D0D8D8D8D8D8DADAB4
:10104000DADADADBDBDBDBDB40004000406000406B
:101050000040600070004060007000787C0040003C
:10106000407C007E00407C007E007F1C7741414137
:1010700041414141414141417F001C77415D5D411A
:1010800041415D5D5D5D415D5D5D5D417F00221CB7
:10109000141C2200081C08000000770000465D5563
:1010A0005D317C5554554408082A0808001408147A
:1010B0000008142208147F4171311F03057F0503C6
:1010C00022147F552202557D0502060909060044B7
:1010D000445F44441C141C227F203E613E2020506B
:1010E0003F020C807C203C40443C047C44000008CF
:1010F000000038555455187E08107F010810080468
:101100000214082214080E060A102020100A060EE7
:10111000383028040202042830387E1111117E7FF5
:10112000494949317F494949367F01010103C07F5F
:10113000417FC07F4949494177087F087741494944
:1011400049367F1008047F7C2112097C7F08142215
:1011500041403E01017F7F020C027F7F0808087F2B
:101160003E4141413E7F0101017F7F090909063E61
:101170004141412201017F0101074848483F0E11CA
:101180007F110E63140814637F40407FC007080876
:10119000087F7F407F407F7F407F40FF017F48483E
:1011A000307F4848307F7F48484830224149493E97
:1011B0007F083E413E462919097F20545454783C0B
:1011C0004A4A49317C545454287C0404040CC078A5
:1011D000447CC038545454186C107C106C445454E3
:1011E00054287C2010087C7C4026107C7C10102821
:1011F00044403804047C7C0810087C7C1010107C6F
:1012000038444444387C0404047C7C1414140838A6
:101210004444444804047C04040C5050503C1824BA
:10122000FC241844281028447C40407CC00C10103A
:10123000107C7C407C407C7C407C40FC047C50509A
:10124000207C5050207C7C505050202844545438EE
:101250007C10384438483414147C11007F962900DF
:1012600001007F9628003A0155C0021010C10141CB
:10127000C50400228040360168B00100B102B011FF
:10128000B40102B60302023BB701C63A0155F704A6
:10129000A9512C82C0020D0DC1024300C20100C53C
:1012A0000400480048B40100B60302023BE00F0FFF
:1012B000211C0B0E08499838091103141000E10F86
:1012C0000F2F2B0C0E06477637071104231E00B094
:1012D0000100B30402000000B40100D0030742186B
:1012E000D103000710D2020102D3020102D402018D
:1012F00002C005123B000211C103101088C5010392
:10130000C60102C80C003236450616377577540CF4
:1013100000CC0100F603010100CF03008130ED0491
:1013200064031281E803851078CB05392C00340260
:10133000F70120EA020000B00100B102001BB40175
:1013400000C00121C10111C5023F3CC701B53601F2
:1013500048F20100260101E00F0F26240B0E09546C
:10136000A8460C17090F0700E10F00191B0410070E
:101370002A473903060630380F360100B80101C08C
:10138000010EB00100C10410100202C006003500B9
:10139000000102C50104D2020104CA0100EA018071
:1013A000B903FF83577F967F96B60125C00650503C
:1013B000013C1E08B4070240002A2A0D787F01F282
:1013C0000B1616030808080810041616FD03110270
:1013D00035B2050C0C003333B70135BB012BC0010E
:1013E00004C20201FFC30111C40120C6010FD002D3
:1013F000A4A1E00ED000050E150D374347091512C4
:101400001619E10ED000050D0C062D44400E1C18D7
:1014100016193A01557F0AB00103E2013FC00122CB
:10142000E20100B00100C0010AB0010000000000AC
:10143000000000000000000000000000FFFF0F009F
:1014400000040062080008080003000C01030B5AA6
:101450000203060903031710040300230503001702
:10146000060309630703090C08030C100903322261
:10147000100016001100010112000000130001000D
:1014800000013003010137020301000D80020061F9
:101490000201B0C1FFFF32000100000102000001A3
:1014A00003003010090001000C00000090000080D3
:1014B0000F000000100200001102EF0012020000F5
:1014C00013028F01000500000105000002055F0006
:1014D0000104010004040000FFFF320007000001C6
:1014E000FFFF3200000200000102000000000000C7
:1014F000000000000000000000000100A400010046
:10150000FFFF0A00600000270800080830001402EE
:1015100031001537320004063300160E3400112254
:10152000350000153600078537000714380003140E
:10153000390020009000150010001004110037023F
:10154000290046002A004600070000001200890119
:1015500013000011FFFF96001200B9010100000105
:101560000200000203003010090001000A00000020
:101570000D0000000E003000610001006A00000054
:10158000800000008100000082005F0092000001E6
:1015900093000107FFFF500007000001E500F0780D
:1015A00001000001020000020300301004000000EE
:1015B0000500000008000702090000000A00000002
:1015C0000C0000000D0000000F00000010000000E3
:1015D00011000700120000001300000007000100C6
:1015E000FFFFC8001000901611002702FFFF320015
:1015F00012000D00FFFF32001300001229000A0044
:101600002B000D00FFFF3200200000002100000031
:1016100030000000310004043200030035000504EE
:1016200036000808370007043800030339000707AD
:101630003C0004053D00080860000027610001002F
:101640006A000000800000008100000082000000AD
:10165000830000008400000085000000900010005E
:101660009200000007003301E50000800000010047
:101670000100000102000007030030100400000018
:1016800008000202090000000A0000000C0000002F
:101690000D0000000F000000100000001100070006
:1016A0001200000013000000FFFF32001000B0170E
:1016B00011000700FFFF0A0012003A01FFFF0A00B5
:1016C0001300001A29000C00FFFF0A003000000080
:1016D000310005053200040035000600360007071A
:1016E0003700050138000200390007073C000407F5
:1016F0003D000708600000A7610001006A000000CB
:101700002100000020000000800000008100000097
:1017100082000000830000008400000085000000BB
:10172000900010009200000093000300950010014B
:10173000970000009800000007007301FFFF3200CF
:10174000FF000100F300080000000100010000019B
:101750000200000703003010080002030900000027
:10176000100000001100070012000000130000002C
:10177000FFFF32001000B014FFFF0A001100070045
:10178000FFFF0A0012008E001300000C2900150054
:10179000FFFF0A00300000003100070132000000A6
:1017A000350003023600020437000000380007024B
:1017B000390000003C0003023D000304600000A764
:1017C000610001009000290007003301FFFF320093
:1017D000150030009A00100011002000100028347D
:1017E0001200020013003810FFFF28001200120040
:1017F000FFFF28001000203413004530FFFF460093
:1018000030000000310002043200070333000403FB
:1018100034000400350001043600070737000503D3
:101820003800100639001006010000010200000314
:1018300003003010080008080A00080060000027B4
:101840006100010090003E01920000019300000140
:10185000A0000030A30010000700010007002100D5
:1018600007002300070033000700330111001A00AE
:101870001200213113006C001400494210000008CE
:10188000FFFF0A0011001A01FFFF0A0011001A03EE
:10189000FFFF0A0011001A07FFFF0A0011001A0FCC
:1018A000FFFF0A0011003A0FFFFF1E000100280190
:1018B00002000001030030100700121008000303AB
:1018C0000B0000110C0000000F0001181500200093
:1018D00050000101510003065200080453000000AB
:1018E0005400050655000604560003035700030381
:1018F000580010005900001007001200FFFF2800D8
:101900000700130007001700F000AA00303932DC8E
:10191000084306207E16811F392E11241FBECFEFEB
:10192000D8E0DEBFCDBF11E0A0E0B1E0E6E4FAE62A
:1019300002C005900D92A638B107D9F722E0A6E8BB
:10194000B1E001C01D92A93DB207E1F71CE0CCE86F
:10195000DCE004C02197FE010E940731CB38D1079B
:10196000C9F70E94EB1F0C9416350C9400000895E3
:101970002091B9023091BA02009789F0232B51F4DB
:101980002091AE023091AF022A5F3F4F3093AF02F9
:101990002093AE029093BA028093B9020895232B4C
:1019A000C9F32091AE023091AF0226503109EECF3B
:1019B0003FB7F8948091960190919701A09198017A
:1019C000B091990126B5A89B05C02F3F19F001964B
:1019D000A11DB11D3FBFBA2FA92F982F8827BC0189
:1019E000CD01620F711D811D911D42E0660F771FB1
:1019F000881F991F4A95D1F708958F929F92AF92B1
:101A0000BF92CF92DF92EF92FF926B017C010E9416
:101A1000D80C4B015C01C114D104E104F104B9F00C
:101A20000E94D80C681979098A099B09683E73409D
:101A30008105910580F321E0C21AD108E108F1087F
:101A400088EE880E83E0981EA11CB11CE4CFFF90A5
:101A5000EF90DF90CF90BF90AF909F908F900895C0
:101A60000895AF92BF92CF92DF92EF92FF920F93C1
:101A70001F93CF93DF936C017B018B01040F151F24
:101A8000EB015E01AE18BF08C017D10759F069918C
:101A9000D601ED91FC910190F081E02DC6010995F0
:101AA000892B79F7C501DF91CF911F910F91FF909D
:101AB000EF90DF90CF90BF90AF900895FC01538DD1
:101AC000448D252F30E0842F90E0821B930B541718
:101AD00010F0CF96089501970895FC01918D828DA5
:101AE000981761F0A28DAE0FBF2FB11D5D968C913E
:101AF000928D9F5F9F73928F90E008958FEF9FEF7D
:101B00000895FC01918D828D981731F0828DE80F38
:101B1000F11D858D90E008958FEF9FEF0895FC01F2
:101B2000918D228D892F90E0805C9F4F821B9109BF
:101B30008F73992708958BEE91E00E948F0D21E01D
:101B4000892B09F420E0822F089580E090E0892B12
:101B500029F00E949B0D81110C9400000895FC0156
:101B6000A48DA80FB92FB11DA35ABF4F2C91848DFE
:101B700090E001968F739927848FA689B7892C935B
:101B8000A089B1898C91837080648C93938D848DAE
:101B9000981306C00288F389E02D80818F7D8083B1
:101BA0000895EF92FF920F931F93CF93DF93EC0171
:101BB00081E0888F9B8D8C8D98131AC0E889F989F4
:101BC000808185FF15C09FB7F894EE89FF896083F7
:101BD000E889F98980818370806480839FBF81E078
:101BE00090E0DF91CF911F910F91FF90EF900895BA
:101BF000F62E0B8D10E00F5F1F4F0F731127E02E95
:101C00008C8D8E110CC00FB607FCFACFE889F989CC
:101C1000808185FFF5CFCE010E94AF0DF1CFEB8D16
:101C2000EC0FFD2FF11DE35AFF4FF0829FB7F894A0
:101C30000B8FEA89FB8980818062CFCFCF93DF93BE
:101C4000EC01888D8823B9F0AA89BB89E889F989D4
:101C50008C9185FD03C0808186FD0DC00FB607FC09
:101C6000F7CF8C9185FFF2CF808185FFEDCFCE013C
:101C70000E94AF0DE9CFDF91CF910895439842982C
:101C800025B12C7F392F3370232B25B92BB123702D
:101C90009C7F922B9BB94198419A95B19C7F282FAC
:101CA0002370922B95B99BB193708C7F892B8BB944
:101CB0004198419A429AFA01615078F0219195B188
:101CC0009C7F822F8370982B95B98BB183702C7F6A
:101CD000822B8BB94198419AEFCF439A0895DF92B6
:101CE000EF92FF920F931F93CF93DF93CDB7DEB7A1
:101CF00068970FB6F894DEBF0FBECDBF7C018B0195
:101D0000F70184913196D490F2E0EF0EF11C8F37F9
:101D100079F0DE01119630E020E0AD012D1528F5B7
:101D2000F701E20FF31FE491ED932F5F3F4FF6CFE2
:101D30006D2D70E090E080E00E94FD0CD12CED2D27
:101D4000F0E032960E1B1F0B10161106CCF26896AF
:101D50000FB6F894DEBF0FBECDBFDF91CF911F91BC
:101D60000F91FF90EF90DF900895ED0CF11C6D2D19
:101D700090E00E943E0EE3CF4398429825B12C7F1D
:101D8000392F3370232B25B92BB123709C7F922BD5
:101D90009BB94198419A95B19C7F282F2370922B33
:101DA00095B99BB193708C7F892B8BB94198419ADF
:101DB000429A85B18C7F972F9370892B85B98BB10F
:101DC00083707C7F782B7BB94198419A85B18C7F59
:101DD000962F9370892B85B98BB183706C7F682B9C
:101DE0006BB94198419A439A089581E080939A0192
:101DF00084B1836084B98AB18C6F8AB9389A399A70
:101E00003A9A3B9A3C9A439A409A419A449A62E39E
:101E100070E080E090E00E94FD0C449864E670E081
:101E200080E090E00E94FD0C449A64E670E080E05F
:101E300090E00E94FD0C70E060E080EB90E00C947C
:101E4000BC0ECF93DF93C82FD62F80919A018111BA
:101E500002C00E94F50E4398429885B18C7F85B9E7
:101E60008BB183708BB94198419A95B19C7F8C2F2F
:101E70008370982B95B98BB18370CC7F8C2B8BB9E9
:101E80004198419A429A84B18C7F84B98AB1837017
:101E90008AB961E070E080E090E00E94FD0C409A19
:101EA00040984098409893B139B1409A409A4098F0
:101EB0004098409883B129B1409AD15080F7409A18
:101EC000439A44B1436044B94AB14C6F4AB99370E4
:101ED0003C7F932B83702C7F822BDF91CF910895D1
:101EE000FF920F931F93CF93DF938C0160E00E94CA
:101EF000210FEC0161E0C8010E94210FF82E62E081
:101F0000C8010E94210FAE0170E060E0742F6627C7
:101F10005527442700E030E020E0402B5F29622B6A
:101F2000732B292F30E0C901B0E0A0E08A019B01AA
:101F3000082B192B2A2B3B2BC901B801DF91CF911C
:101F40001F910F91FF9008950F931F93CF93DF93ED
:101F50008C0160E00E94210FEC0161E0C8010E9449
:101F6000210F8C01BE0190E080E0CB01772766272E
:101F700030E020E0602B712B822B932BDF91CF91EF
:101F80001F910F9108950F931F93CF93DF93EC014F
:101F90008B01FE0185919491FE0132962496659104
:101FA00074918F3F980771F490E080E00E94FD0CDF
:101FB000045011091016110664F3DF91CF911F919F
:101FC0000F9108950E94BC0EF3CFFC01262F358D92
:101FD000868D82958170982F9627692F70E072A365
:101FE00061A330FF0CC0821307C080E290E050E094
:101FF00040E060E00C943E0E81E290E0F8CF878DE7
:1020000090A1833927E7920741F058F4843521E005
:10201000920791F080329445C1F4626081E094E0CF
:1020200012C0863223E99207C1F3893025EB92076B
:10203000A1F38532924949F4660F771F660F771F27
:10204000636187E090E00C94BC0E81E690E0FBCFEA
:102050008F929F92AF92BF92CF92DF92EF92FF92B8
:102060000F931F93CF93DF9300D000D0CDB7DEB78F
:102070007C014B015A016901FC01878D90A18732D7
:10208000F3E99F0709F040C0F7018689823099F58E
:10209000F0E2AF0EB11C005E1F4FF701858D80FF8F
:1020A0004AC085A599828A82DB82CC82AE014F5FCD
:1020B0005F4F64E090E00E943E0EF70181A9B98273
:1020C000AA821B830C83AE014F5F5F4F64E090E0F8
:1020D0000E943E0E0F900F900F900F90DF91CF91C6
:1020E0001F910F91FF90EF90DF90CF90BF90AF9036
:1020F0009F908F900895833081F620E2820E911C8C
:1021000080E2C80ED11CC9CF8632954131F6F70165
:10211000868980FFC2CFC801841B950B19F40F5F1D
:102120001F4FBBCF6217730709F0B7CF6B01C80E03
:10213000D91E8A01B2CFB40187A190A50E94BC0E1E
:10214000B501F70181A592A50E94BC0EC814D9045F
:1021500021F40A151B0509F4BDCFF701858D85FF14
:1021600008C0868980FF1EC0102F0027A02AB12A30
:102170008501B401F70185A596A50E94BC0EB501A5
:10218000F70181A992A90E94BC0EB601F70187A5AB
:1021900090A90E94BC0EB801F70183A994A90E94DE
:1021A000BC0E98CFDC2CCC248C289D286401E1CF78
:1021B000AF92BF92CF92DF92EF92FF920F931F9355
:1021C000CF93DF93EC0180918601882349F0C7010A
:1021D000880F991F8E739927E1ECEE22E82AF92ADD
:1021E00037FF05C0620F731F319521953109260F06
:1021F000371F77FF02C070E060E088859985281757
:1022000039070CF4C9016C01C61AD70A17FF05C0BB
:10221000400F511F119501951109040F151F57FF0C
:1022200002C050E040E02A853B85021713070CF4FA
:1022300098015901A41AB50A8901015011099C019C
:1022400021503109CE010E942810439842983BA5A5
:102250008CA525B12C7F982F9370292B25B99BB184
:1022600093708C7F982B9BB94198419A95B19C7F34
:10227000832F8370982B95B98BB183703C7F832B10
:102280008BB94198419A429ACA14DB042CF09A2DDA
:102290008B2D5601C92ED82E9F2D4F2D43709C7F1C
:1022A0005E2D53702E2D2C7FE22E1C141D04E4F4A1
:1022B000950185B18C7F842B85B98BB18370892B77
:1022C0008BB94198419A85B18C7F852B85B98BB1AB
:1022D00083708E298BB94198419A2150310949F771
:1022E00081E0C81AD108E1CF439A8D8D80FF08C0E4
:1022F0008F8D98A18632954191F48E8980FF0FC011
:102300000A851B850150110928853985215031091D
:1023100050E040E070E060E0CE010E942810DF91C4
:10232000CF911F910F91FF90EF90DF90CF90BF90D2
:10233000AF900895EF92FF920F931F93CF93DF9387
:102340007C01E90177FD2AC057FD28C0FC0180858A
:1023500091856817790714F5828593854817590781
:10236000ECF480918601882341F0C901880F991F00
:102370008E739927C17CC82BD92B8A019B01C70179
:102380000E942810BE01F70183A594A5DF91CF918B
:102390001F910F91FF90EF900C94BC0EDF91CF91A5
:1023A0001F910F91FF90EF900895EF92FF920F937E
:1023B0001F93CF93DF93CDB7DEB72A970FB6F8946C
:1023C000DEBF0FBECDBF7C01862F8370F701868BE9
:1023D000962F917060FFF1C026813781F701318718
:1023E0002087992309F4ECC024813581F7013387D4
:1023F0002287823009F4E9C0833009F4E8C08130D3
:1024000009F4E1C088E48A87F701258D368D30FF15
:1024100003C08A8580588A8731FF04C08A8590E48A
:1024200089278A8733FF04C08A8598E089278A87AD
:10243000F701878D90A120FFFAC08431F8E69F074D
:1024400009F0C7C09A85892F88728A871F82892FD1
:1024500085958074282F2260892F90E09595879527
:1024600080729927822B88878BE38987AE01495F29
:102470005F4F63E086EB90E00E943E0E2AE230E080
:10248000F70130A727A38BE290E092A781A74CE247
:1024900050E054A743A736A725A730AB27A792AB98
:1024A00081AB94AB83ABAE01465F5F4F61E086E3E7
:1024B00090E00E943E0E8A8590E0F70194A383A3EA
:1024C000F701868980FF1CC0858D968D92FD18C00E
:1024D00087A190A521A532A530A727A392A781A700
:1024E00085A596A521A932A936A725A792AB81ABD0
:1024F00087A590A923A934A930AB27A794AB83ABB8
:10250000F70102851385015011092085318521507D
:10251000310950E040E070E060E0C7010E942810FF
:10252000F70166817781878D90A110E000E020E0BF
:102530008732F3E99F0769F4F7012689225010E0FA
:1025400000E0223010F400E210E020E230E0201B36
:10255000310BF701458D40FF26C119820A837B8329
:102560006C831D822E83AE014F5F5F4F66E083E375
:1025700090E00E943E0E19820A83AE014F5F5F4FCA
:1025800062E087E390E00E943E0EF701858D80FFB8
:1025900007C050E040E060E083E190E00E943E0E22
:1025A0002A960FB6F894DEBF0FBECDBFDF91CF9154
:1025B0001F910F91FF90EF900895248135810ECFE8
:1025C0002681378113CF88E21ECF88E91CCF88EFA0
:1025D0001ACF833629E1920749F0813834E993070D
:1025E00029F08131E5E19E0709F048CF2A8527FFD0
:1025F00002C021602A872A8526FF02C022602A871E
:102600008336F9E19F0721F48A858F738A8736CF55
:10261000813824E9920719F48A858F72F7CF8131C6
:10262000954109F02BCF8A858F7E806CEFCF2A856C
:10263000622F022E000C770B8339F7E79F0761F0BA
:1026400008F042C08435E1E09E0709F469C0803299
:10265000F4E59F0709F041C020E032E0F70130A720
:1026600027A321E032E032A721A722E032E034A7FD
:1026700023A720E132E036A725A721E132E030ABE5
:1026800027A722E132E032AB21AB23E132E034ABC9
:1026900023AB662770788632F3E99F0709F480C080
:1026A0008032944509F47CC080E09AE6682B792B4F
:1026B00080E094E00E94BC0E6A85F4E06F9FB00158
:1026C00011246627717054C0863223E9920721F2E3
:1026D000893035EB930709F4BFCF80E290E0F70132
:1026E00090A787A381E290E092A781A782E290E081
:1026F00094A783A780E590E096A785A781E590E061
:1027000090AB87A782E590E092AB81AB83E590E048
:1027100094AB83AB66277078776280E690E0CACF8F
:1027200087E390E0F70196A785A786E390E090AB5A
:1027300087A789E390E092AB81AB88E390E094AB0C
:1027400083AB80E290E090A787A381E290E092A71C
:1027500081A782E290E094A783A7662772706862DF
:10276000F4E02F9FC001112488279170682B792BEA
:1027700081E090E00E94BC0E8A85682F70E075951C
:102780006795759567956870772783FD70616063BD
:10279000F70174A363A383E090E00E94BC0E90CE87
:1027A00080E095E383CF8339F7E79F07D9F1F8F409
:1027B000803234E59307B1F18338E7E79E0739F1BA
:1027C00084359140F9F4600F711F6150710981E304
:1027D00090E00E94BC0EB80182E390E00E94BC0E23
:1027E00070E060E083E390E00E94BC0ED9CE8632B8
:1027F00023E99207B9F0893035EB930799F08532D8
:10280000924909F3F70161A172A1626003C0F70167
:1028100061A172A181E690E00E94BC0EB8018AE637
:1028200090E0E2CFF70161A172A1626081E094E0E3
:102830000E94BC0EB80184E094E0D6CFEF92FF92E4
:102840000F931F93DC01ED91FC9100A0F1A1E02D0D
:10285000780101E010E009951F910F91FF90EF9032
:102860000895EF92FF920F931F93DC01ED91FC917D
:1028700000A0F1A1E02D7801890121E030E0099567
:102880001F910F91FF90EF9008950895FC016370E0
:10289000668B8481958126813781613039F0633080
:1028A00029F0918780873387228708953187208791
:1028B0009387828708952F923F924F925F926F92F3
:1028C0007F928F929F92AF92BF92CF92DF92EF92C0
:1028D000FF920F931F93CF93DF93CDB7DEB76A9725
:1028E0000FB6F894DEBF0FBECDBF9A8F898F7A8363
:1028F00069834A01D22E18870F833701BC2CDC0173
:1029000059962D913C915A972115310509F015C121
:1029100018968D919C911997681779070CF0D7C17B
:102920001A968D919C91481759070CF0D0C14C2CE8
:10293000512CB6E0CB9E600D711D11247C876B87F6
:10294000161617060CF0C3C1EA2DF0E0FA87E987E6
:1029500093E0EE0FFF1F9A95E1F7F88BEF87CF0119
:10296000840F951F181619060CF0B1C1A98DBA8DE8
:1029700058968C91811104C0BFEABD1508F4D39418
:10298000A98DBA8DED91FC9111970284F385E02D0C
:10299000CD010995B5E0DB9EC0011124E981FA81E2
:1029A000FC83EB83312C212C9C01265A324F388F2B
:1029B0002F8B4A2D50E05E8B4D8BEF89F88DE20D09
:1029C000F31D44919E828D82D12CC12C69817A8124
:1029D000620D731D7A8B698B842F90E09C8B8B8B9F
:1029E000E98DFA8DA081B18140FF82C0F1E0BF1274
:1029F0006FC0AF126DC01C96ED91FC912F81388590
:102A0000A4014C0D5D1D69897A89898D9A8D09957E
:102A1000EB89FC89F595E7954E2F5FEFC51AD50A2E
:102A20006D817E818D899E89680F791F7E836D837C
:102A300098E0C916D10481F6AFEF2A1A3A0AEB8161
:102A4000FC81E40DF51DFC83EB83F5E02F163104CA
:102A500009F0B3CF2F81388526153705B9F0A98D38
:102A6000BA8DED91FC91B1E0BB1257C0AB1255C0CD
:102A700069817A816B5F7F4F0088F189E02D830146
:102A800028E030E0A401898D9A8D0995A98DBA8D31
:102A9000ED91FC9111970688F789E02DCD016A969A
:102AA0000FB6F894DEBF0FBECDBFDF91CF911F915F
:102AB0000F91FF90EF90DF90CF90BF90AF909F90DD
:102AC0008F907F906F905F904F903F902F900994E0
:102AD0001E96ED91FC91EF80F88409851A8592018C
:102AE0004D815E816B817C81898D9A8D099590CF16
:102AF0002F8138852615370509F48ACF31E0B312C6
:102B000007C0A31205C01C96ED91FC91930178CFEC
:102B10001E96ED91FC917301E0CF6B857C85641965
:102B200075090684F785E02D73010F8518899201D8
:102B3000A401898D9A8D0995A9CFF90134969491B4
:102B4000329745915491D91AB7E0DB9E400D511D43
:102B50001124F901259134913C8B2B8BFA0125909E
:102B60003490FA013296749031963491398B3296C2
:102B700064903196449041E04C1518F04A1508F0E5
:102B80007FC0662D062C000C770B7C836B83842D15
:102B9000042C000C990B9E838D83A98DBA8DED9129
:102BA000FC9111970284F385E02DCD010995512CFC
:102BB000D12CC12CEA2DF0E0FA87E9872B2D30E0EB
:102BC0003C872B87A401440D511D47FC5A95588F13
:102BD0004F8B69817A81660D711D67FC7A957E87BE
:102BE0006D877989C71608F051CF2C2D30E04D81C3
:102BF0005E81420F531FA985BA854A9FC0014B9F32
:102C0000900D5A9F900D1124FC01E80DF91DF88BD1
:102C1000EF87852D612C4F89588D420F531F5E8B96
:102C20004D8B671408F050C044244394480E8770BD
:102C300041F4C1010196EB89FC89E20DF31DD490AA
:102C40001C01D7FE19C0A98DBA8DED91FC91662D9E
:102C500070E0B1E0BB1219C0AB1217C02D853E85E4
:102C6000620F731F0484F585E02D2F8138854D890F
:102C70005E89898D9A8D0995DD0C6394842DD1CF61
:102C80001E821D821C821B8288CF4B815C81640F57
:102C9000751FAB85BC856A9FC0016B9F900D7A9FA5
:102CA000900D112469817A81680F791F0684F78558
:102CB000E02DEF80F88409851A859D014F8558899C
:102CC000898D9A8D0995D8CF570CC3948ACF6A966F
:102CD0000FB6F894DEBF0FBECDBFDF91CF911F912D
:102CE0000F91FF90EF90DF90CF90BF90AF909F90AB
:102CF0008F907F906F905F904F903F902F900895AE
:102D00008F929F92AF92CF92EF92FF920F931F9369
:102D1000CF93DF93EC01262F898D9A8D009709F0D0
:102D200051C06A30D1F41D861C868D8948E0849F8D
:102D3000900111248E859F85820F931F9F878E8718
:102D400081E090E0DF91CF911F910F91FF90EF9084
:102D5000CF90AF909F908F9008956D3089F3CC887D
:102D6000AD888F898823C1F08C859D8536E0C39E10
:102D7000800D911D1124488559854817590764F421
:102D80004E855F851D861C8638E0A39EC0011124F8
:102D9000840F951F9F878E87EA88FB880889198989
:102DA0004E855F856C857D85CE010E945B142C89E4
:102DB0008C859D8546E0249F800D911D11249D8763
:102DC0008C87BECF6A3069F41D861C86FC0136965E
:102DD000E4912D898E859F85E29F800D911D1124A0
:102DE000ADCF6D3009F4ACCFFC013496349163174C
:102DF00008F4A6CF3196E491E61708F4A1CFFC01C0
:102E0000329685909490462F431B342F47E0349F91
:102E1000800C911C1124F401329634913196E49186
:102E20003323A9F1EE2399F1CC88F4013596E4918E
:102E3000AD884F89442301F10E2E000CFF0BE30FE8
:102E4000F11DCE9EA001CF9E500D11246C857D8575
:102E5000460F571F68857985641775076CF44E8592
:102E60005F851D861C86FC013696E491AE9E400D62
:102E7000511D11245F874E87EA88FB8808891989CC
:102E80004E855F856C857D85CE010E945B14F401C3
:102E90003496E4912C898C859D85E29F800D911D4F
:102EA00011248DCF6F927F928F929F92AF92BF929B
:102EB000CF92DF92EF92FF920F931F93CF93DF9306
:102EC000EC016B015A0139014801E881F981028462
:102ED000F385E02D0995E881F9810288F389E02DD9
:102EE00087019301A501B601CE010995A501480D01
:102EF000591D41505109E881F9810288F389E02D7B
:102F00009301B601CE010995E881F9810088F18924
:102F1000E02D9401A501B601CE010995C60CD71C80
:102F2000B60161507109E881F9810088F189E02DCD
:102F30009401A501CE010995E881F9810688F789F8
:102F4000E02DCE01DF91CF911F910F91FF90EF9077
:102F5000DF90CF90BF90AF909F908F907F906F90B9
:102F600009946F927F928F929F92AF92BF92CF926D
:102F7000DF92EF92FF920F931F93CF93DF935C0149
:102F8000EB016A01490138018701DC01ED91FC91F7
:102F90006217730719F5641675062CF0962D872DA8
:102FA0003A01C92ED82E9601261937092F5F3F4FB7
:102FB000048CF58DE02DA301BE01C5010995DF91BB
:102FC000CF911F910F91FF90EF90DF90CF90BF9026
:102FD000AF909F908F907F906F9008954615570502
:102FE00091F42617370724F0892D4B01C22FD82FD3
:102FF0009E01281939092F5F3F4F068CF78DE02D70
:10300000A601B401DACF0284F385E02D0995D5013C
:10301000ED91FC910488F589E02D83019401A601CE
:10302000BE01C5010995D501ED91FC910688F7898E
:10303000E02DC501DF91CF911F910F91FF90EF908F
:10304000DF90CF90BF90AF909F908F907F906F90C8
:103050000994EF92FF920F931F93DC011A960D9142
:103060001C911B9718962D913C911997ED91FC910D
:1030700000A0F1A1E02D7B0150E040E070E060E0B5
:1030800009951F910F91FF90EF9008954F925F92D5
:103090006F927F928F929F92AF92BF92CF92DF9268
:1030A000EF92FF920F931F93CF93DF936C012B014D
:1030B0005A0139014801DC01ED91FC910284F3854C
:1030C000E02D0995E201640C751CD601ED91FC918F
:1030D000C615D7055CF40088F189E02D87019401BD
:1030E000A501BE01C60109952196EFCF0688F78993
:1030F000E02DC601DF91CF911F910F91FF90EF90CE
:10310000DF90CF90BF90AF909F908F907F906F9007
:103110005F904F9009948F929F92AF92BF92CF92FF
:10312000DF92EF92FF920F931F93CF93DF93EC0107
:103130005B014A016901E881F9810284F385E02D90
:10314000099595012C0D3D1D21503109E881F9812A
:103150000488F589E02D78018401A401B501CE0130
:103160000995E881F9810688F789E02DCE01DF9184
:10317000CF911F910F91FF90EF90DF90CF90BF9074
:10318000AF909F908F9009948F929F92AF92BF9231
:10319000CF92DF92EF92FF920F931F93CF93DF9323
:1031A000EC015B014A0169017801E881F98102843F
:1031B000F385E02D0995C80CD91C86010150110931
:1031C000E881F9810488F589E02D9501A401B50114
:1031D000CE010995E881F9810688F789E02DCE01B5
:1031E000DF91CF911F910F91FF90EF90DF90CF90E3
:1031F000BF90AF909F908F900994EF92FF920F93A2
:103200001F93DC01ED91FC9100A0F1A1E02D099547
:103210001F910F91FF90EF9008950F931F93DC0182
:10322000ED91FC91068CF78DE02D09951F910F9182
:1032300008952F923F924F925F926F927F928F925A
:103240009F92AF92BF92CF92DF92EF92FF920F9335
:103250001F93CF93DF93CDB7DEB7A8970FB6F8943F
:10326000DEBF0FBECDBF78A76FA34A015901180179
:10327000DE86CD86261737070CF086C1E616F706E0
:103280000CF499C13FA128A5B8A6AFA2A32EB22ED7
:10329000382F292FC401832E922E2FA138A52E1549
:1032A0003F05B9F5881699062CF4382F292FC4014B
:1032B000832E922E281639062CF0821493040CF4D7
:1032C00041011C019401221933092F5F3F4F0D85E5
:1032D0001E854FA158A5B10180EA92E00E940D1908
:1032E000A8960FB6F894DEBF0FBECDBFDF91CF9189
:1032F0001F910F91FF90EF90DF90CF90BF90AF9014
:103300009F908F907F906F905F904F903F902F9005
:103310000895322D232D1C01832F922F3E2D2F2D0A
:10332000EFA0F8A43FA328A7940122193309A5010F
:103330004E195F09BC01621973097C8B6B8BAFA1BD
:10334000B8A5AE19BF09BE83AD83BC016819790960
:103350007E8B6D8B8FA198A58A199B09988B8F877F
:10336000AFA1B8A5AA15BB0509F489C0B501615084
:1033700071097A8769876701412C512C32011982C2
:103380001A821B821C826B897C89072E000C880B99
:10339000990B6F8B788F898F9A8FCA01550FAA0B63
:1033A000BB0B8B8F9C8FAD8FBE8F4D815E81052EA9
:1033B000000C660B770B4F8F58A369A37AA3B90152
:1033C000330F880B990B6BA37CA38DA39EA38985D8
:1033D0009A858C159D050CF457C069817A818B8183
:1033E0009C812B8D3C8D4D8D5E8D0E9459308101CD
:1033F000020F131FC301B2012F8D38A149A15AA199
:103400000E945930B101620F731F29813A814B81AB
:103410005C818BA19CA1ADA1BEA1280F391F4A1FC1
:103420005B1F29833A834B835C832F89388D498DB9
:103430005A8D420E531E641E751E601771072CF0C4
:10344000962F872FB801092F182F9801261B370BAD
:103450002F5F3F4F0D851E85A60180EA92E00E94F6
:103460000D193FEFC31AD30AB2CF382D292D4C01C5
:10347000832F922F3FA128A5B8A6AFA2A8C08FA1E5
:1034800098A59A87898777CF4D895E89052E000C8C
:10349000660B770B49875A876B877C8796012A19B9
:1034A0003B09AD89BE890E940D3169837A838B8384
:1034B0009C8396012E193F09AB89BC890E940D316E
:1034C0002B013C016F857889072E000C880B990B26
:1034D0006F87788B898B9A8B8D819E81092E000C4A
:1034E000AA0BBB0B8D839E83AF83B887AFA1B8A512
:1034F000AC15BD050CF4F4CE69817A818B819C8179
:103500002F85388949895A890E9459307401E20E01
:10351000F31EC301B2012D813E814F8158850E9467
:103520005930B101620F731F29813A814B815C814F
:1035300089859A85AB85BC85280F391F4A1F5B1F7B
:1035400029833A834B835C832F89388D498D5A8D2B
:10355000420E531E641E751E6E157F052CF0962FAD
:10356000872FB701E92EF82E9701261B370B2F5F07
:103570003F4F0D851E85A60180EA92E00E940D193D
:103580003FEFC31AD30AB2CFE216F3060CF085CE92
:103590004FA158A5E416F5060CF467CF232D1401AE
:1035A0004C01802F922F3A2D2B2D5A01F8A6EFA215
:1035B000E32EF22E67CEE216F3060CF4B5CE322DD2
:1035C000232D1401832E922E3E2D2F2D7501A32E17
:1035D000B22EAACE0F931F93DC01ED91FC91048CC7
:1035E000F58DE02D09951F910F910895DC01ED9166
:1035F000FC910084F185E02D09942F923F924F9227
:103600005F926F927F928F929F92AF92BF92CF9272
:10361000DF92EF92FF920F931F93CF93DF9300D02F
:1036200000D000D0CDB7DEB73C016A013E832D83C8
:10363000FC82EB825801A41AB50AB7FE03C0B1940C
:10364000A194B1088D809E80861A970A97FE03C0C8
:103650009194819491088A149B045CF0902F812F9F
:103660000D811E819D838E839C2D8D2D6B01692F75
:10367000782F0C151D055CF09D818E817E836D83F6
:10368000692F782F902F812F8601C92ED82E1601F1
:10369000201A310A2B012D813E81421A530A57FE0E
:1036A00003C0519441945108710137FE03C03FEFAC
:1036B000E31AF30AF594E7948D819E8186179707A4
:1036C0005CF5A1E0B0E0BA83A983C016D1064CF145
:1036D000D301ED91FC910484F585E02D2B813C8193
:1036E000A8016D817E818A149B041CF04D815E814E
:1036F000B801C3010995E418F508F7FE0AC02D8149
:103700003E8189819A81280F391F3E832D83E20CE7
:10371000F31C0F5F1F4FD9CF2FEF3FEF3A83298361
:10372000D4CF26960FB6F894DEBF0FBECDBFDF9183
:10373000CF911F910F91FF90EF90DF90CF90BF90AE
:10374000AF909F908F907F906F905F904F903F9041
:103750002F90089590E080E00895CF92DF92EF924D
:10376000FF920F931F93CF93DF9380359105A4F4BD
:1037700082339105DCF58E319105ECF5C12C58EFC3
:10378000D52E97FF0DC0DF91CF911F910F91FF9024
:10379000EF90DF90CF90089540EEC42E47E0D42EF6
:1037A000EC016091A8027091A902675671098FEE31
:1037B000E82E8BE7F82E05E110E026E630E041E048
:1037C00050E080EA92E00E94D8106091A8027091C7
:1037D000A90266567109760103E110E09E0142E0FC
:1037E00050E080EA92E00E94D810CDCF30EEC32E98
:1037F000DD24DA94D5CF20E2C22E2DEFD22ED0CF09
:10380000EF92FF920F931F93DC011A960D911C917A
:103810001B9718962D913C911997ED91FC9100A062
:10382000F1A1E02D7B0150E040E070E060E00995FF
:103830001F910F91FF90EF900895CF93DF93FC01BC
:10384000C481D581209729F410929B01DF91CF91FB
:103850000895615071096C177D0708F4EB01FC01B4
:1038600060817181AE018BE991E00E940735C556F8
:10387000DE4F1882EBCFCF93DF93EC01809194025F
:10388000909195020097E9F0688179816115710541
:10389000B1F040919602509197022C813D814217E0
:1038A000530768F00E9400358C819D8190939902A6
:1038B000809398021D821C82DF91CF9108950E940F
:1038C000A3338881998190939502809394028A8191
:1038D0009B8190939702809396028C819D81909317
:1038E000990280939802198218821B821A82E2CF71
:1038F000CF93DF93EC0188819981009711F00E94AA
:10390000A333198218821D821C821B821A82DF91C6
:10391000CF910895FC0180819181009711F00C9462
:10392000A33308950E94E934FB0101900020E9F7D8
:103930003197AF01461B570BDC01ED91FC910280E2
:10394000F381E02D09948F929F92AF92BF920F93D3
:103950001F93CF93DF93CDB7DEB7A1970FB6F8943F
:10396000DEBF0FBECDBF19A2423008F44AE08E017F
:103970000F5D1F4F842E912CB12CA12CA501940119
:103980000E94C230E62FB901CA01EA3004F5E05DB9
:10399000D801EE938D01232B242B252B79F790E072
:1039A00080E0109729F0BD018BEE91E00E94941CFD
:1039B000A1960FB6F894DEBF0FBECDBFDF91CF91B9
:1039C0001F910F91BF90AF909F908F900895E95CE9
:1039D000DFCFCF92DF92EF92FF920F931F93CF939F
:1039E000DF936C017B01CA01E9010E94B80CE0EA97
:1039F000F2E0D586C486F786E686D38BC28BD18B60
:103A0000C08B81E0848B858BB801CF01DF91CF9192
:103A10001F910F91FF90EF90DF90CF900C94941C2A
:103A2000CF92DF92EF92FF92CF93DF936C01990FC9
:103A3000EE08FF08F7FE21C06DE28BEE91E00E94D8
:103A4000D10DEC0166277727CB016C197D098E0912
:103A50009F094AE00E94A31CC80FD91F69E671E0C4
:103A60008BEE91E00E94941C8C0F9D1FDF91CF91F3
:103A7000FF90EF90DF90CF9008954AE0C701B60124
:103A80000E94A31CEC01EACF0F931F93CF93DF9307
:103A9000EC0188819981009759F02A813B81261792
:103AA000370730F081E0DF91CF911F910F9108959A
:103AB0008B016F5F7F4F0E942C34009759F09983E0
:103AC00088831B830A832C813D81232B59F7FC01BA
:103AD0001082E8CF80E0E7CFEF92FF920F931F9321
:103AE000CF93DF93EC017B018A01BA010E94441D50
:103AF00081110BC0CE010E94781CCE01DF91CF91C5
:103B00001F910F91FF90EF9008951D830C83B701D3
:103B1000888199810E940035F0CFFB01019000203F
:103B2000E9F73197AF01461B570B0C946C1D0F93AF
:103B30001F93CF93DF93CDB7DEB762970FB6F8949C
:103B4000DEBF0FBECDBF8C01CB01F8011182108208
:103B500013821282158214824AE0BE016F5F7F4F8A
:103B60000E94142FBE016F5F7F4FC8010E948D1D00
:103B700062960FB6F894DEBF0FBECDBFDF91CF9136
:103B80001F910F910895CF93DF93EC01FB018617EE
:103B9000970749F0608171816115710541F0448199
:103BA00055810E946C1DCE01DF91CF9108950E9436
:103BB000781CF9CFFC0111821082138212821582C7
:103BC0001482FB0101900020E9F73197AF01461BF9
:103BD000570B0C946C1DFF920F931F93CF93DF93A1
:103BE0008C016BE671E00E94DA1DC0919E02D091BB
:103BF0009F02C330D105F0F0C035D10510F0C0E50B
:103C0000D0E0E0919A02F0919B02EC0FFD1FF08052
:103C1000108260919A0270919B026E5F7F4FC80183
:103C200081F00E948D1D80919A0290919B02C80F95
:103C3000D91FF882C801DF91CF911F910F91FF909A
:103C400008950E94781CEFCFEF92FF920F931F937D
:103C5000CF93DF9300D000D000D0CDB7DEB7BC014A
:103C600088E892E00E94C31D6CE671E0CE010196E7
:103C70000E94DA1DE0908802F0908902E114F104BC
:103C800009F448C000918C0210918D0201151105B4
:103C9000B1F08D819E81080F191FB801CE010196E8
:103CA0000E94441D8823B1F129813A818D819E8132
:103CB000B701820F931F0E9400351E830D83BE0142
:103CC0006F5F7F4F88E892E00E94C31DCE0101968E
:103CD0000E948A1C80918C0290918D020091920228
:103CE000109193028017910761F58091880290915D
:103CF000890260918E0270918F02009799F0611590
:103D0000710569F40115110509F44CC0FC018081AD
:103D100090E015C0CE0101960E94781CD0CF0E9481
:103D2000F7340DC06115710509F43CC0011511058A
:103D3000C9F1FB01808190E0919581959109892BD2
:103D400089F1B8016F5F7F4F21F08EE892E00E9409
:103D50001D1C0BE911E030E020E048E059E163E38D
:103D600070E081E090E00E94E91C60918C0270910B
:103D70008D026F5F7F4F21F088E892E00E941D1C4A
:103D80000BE911E020EE37E048E059E163E370E031
:103D900081E090E00E94E91C68E872E08EE892E021
:103DA0000E94C31D26960FB6F894DEBF0FBECDBF8E
:103DB000DF91CF911F910F91FF90EF9008951F9287
:103DC0000F920FB60F9211242F933F938F939F93CF
:103DD000AF93BF938091920190919301A091940130
:103DE000B09195013091910123E0230F2D3758F5C3
:103DF0000196A11DB11D2093910180939201909392
:103E00009301A0939401B0939501809196019091B4
:103E10009701A0919801B09199010196A11DB11D42
:103E20008093960190939701A0939801B093990184
:103E3000BF91AF919F918F913F912F910F900FBEA6
:103E40000F901F90189526E8230F0296A11DB11D13
:103E5000D2CF1F920F920FB60F9211242F933F9340
:103E60004F935F936F937F938F939F93AF93BF9382
:103E7000EF93FF938BEE91E00E94AF0DFF91EF91D6
:103E8000BF91AF919F918F917F916F915F914F9172
:103E90003F912F910F900FBE0F901F9018951F927A
:103EA0000F920FB60F9211242F938F939F93EF933E
:103EB000FF93E091FB01F091FC018081E091010210
:103EC000F091020282FD1BC09081809104028F5FFD
:103ED0008F7320910502821741F0E0910402F0E017
:103EE000E551FE4F958F80930402FF91EF919F91D2
:103EF0008F912F910F900FBE0F901F90189580817A
:103F0000F4CFEBEEF1E01382128288EE93E0A0E0B2
:103F1000B0E084839583A683B7838FE291E0918399
:103F2000808385EC90E09587848784EC90E0978788
:103F3000868780EC90E0918B808B81EC90E0938B76
:103F4000828B82EC90E0958B848B86EC90E0978B53
:103F5000868B118E128E138E148EE0EAF2E013829D
:103F6000128220EF30E03583248380E491E0978350
:103F700086833187208793878287168A15861486E1
:103F80001786168681E0858B848B2FEF3FEF338B6E
:103F9000228B318B208B878B108E128E118E81E4B9
:103FA00091E0918380836BE671E08AE992E00E9460
:103FB000DA1D6BE671E084E992E00E94DA1D63E7A6
:103FC00071E08EE892E00E94DA1D63E771E088E814
:103FD00092E00C94DA1DCF93DF93CDB7DEB7EC9768
:103FE0000FB6F894DEBF0FBECDBF789484B5826063
:103FF00084BD84B5816084BD85B5826085BD85B58D
:10400000816085BD80916E00816080936E0010920A
:104010008100809181008260809381008091810085
:104020008160809381008091800081608093800016
:104030008091B10084608093B1008091B000816074
:104040008093B00080917A00846080937A008091A0
:104050007A00826080937A0080917A0081608093F8
:104060007A0080917A00806880937A001092C10073
:10407000E091FB01F091FC0182E08083E091F70187
:10408000F091F8011082E091F901F091FA018FECC2
:10409000808310920302E091FF01F091000286E01C
:1040A0008083E091FD01F091FE0180818061808339
:1040B000E091FD01F091FE01808188608083E091B4
:1040C000FD01F091FE01808180688083E091FD0117
:1040D000F091FE0180818F7D808360E090E080E040
:1040E0000E94210F8C01883024E5920709F180326B
:1040F00044E59407E9F08938994809F410C160E073
:1041000087E690E00E94210F07E413E88734974484
:1041100079F081EA90E00E94A40F03E619E1613092
:1041200041E6740729F06F3F7F4FF1F506E215E194
:10413000B80190E080E040E10E94A31C69E671E0D4
:104140008BEE91E00E94941C0E94F50E1092BC022E
:104150001092BB021093C0020093BF02073543E8E0
:10416000140709F4EBC608F084C1033580E2180790
:1041700009F42CC708F01EC1013125E1120709F42A
:1041800023C208F0ECC00939110509F4EFC608F0A4
:10419000D2C080E091E10130110509F4D7C010923E
:1041A000A5021092A4020DC28FEB90E00E94700F46
:1041B0008B01073583E8180709F4BACF013894E971
:1041C000190709F4B5CF013125E1120709F4B0CF81
:1041D000003245E1140709F4ABCF063255E115076B
:1041E00009F4A4CF013885E1180709F4A1CF01151E
:1041F000144109F497C084ED90E00E94A40F8B0154
:104200006031734509F494CF87ED90E00E94A40FCC
:104210008B016133704809F48BCF8FEE90E00E94E0
:10422000700F8B016732734909F482CF8EEF90E0F3
:104230000E94A40F072F182F292F3327033580E260
:10424000180709F475CF84E090E00E94A40F8B0159
:10425000811124C0011590E8190701F58091100122
:1042600090911101A091120189839A83AB83AE01D1
:104270004F5F5F4F63E089EB90E00E943E0E60E08D
:1042800080ED90E00E94210F09E910E0893909F4DE
:104290004FCF8039A9F400E910E94ACF063225E171
:1042A000120709F443CF003F49E81407F1F1023542
:1042B00055E81507E9F101318CEA180709F438CF00
:1042C00083ED90E00E94A40F072F182F292F33278A
:1042D000033691E9190709F42BCF83ED90E00E9492
:1042E000A40F8B01872F7359723008F421CF8839BE
:1042F00009F41ECF873709F41BCF863109F418CF94
:10430000033D110509F414CF033D100709F410CF44
:1043100060E090E080E00E94210F8C0109CF09E865
:1043200012E106CF04E118E603CF05E317E700CF5B
:1043300009E817E7FDCE043551E0150709F435C14A
:104340000530154109F02BCF84E090E19093BE0237
:104350008093BD0268ED70E088E696E130C10632D8
:1043600095E1190709F4A3C580F40032154109F05D
:1043700016CF83E194E09093BE028093BD0286E065
:10438000E82EF12C03E214E136C1013855E115079E
:1043900009F428C60230164109F001CF83E094E009
:1043A0009093BE028093BD0256E0E52EF12C0CE7FF
:1043B00013E121C1043198E6190709F49CC548F5B9
:1043C000003143E5140709F47EC578F4053315443C
:1043D00009F0E5CE80E090E19093BE028093BD02AB
:1043E0006CE970E080ED97E1EAC0083094E51907C8
:1043F00009F4AACF82E091E10930184609F0CFCE46
:104400009093BE028093BD026CEC70E08CE995E164
:10441000D6C0033947E7140709F41AC6A8F40338CD
:1044200087E7180709F47FC50938174709F0B7CEA1
:1044300083E194E09093BE028093BD02A1E4EA2E52
:10444000F12C01ED13E1D7C0063927E7120709F473
:10445000E4C50133104809F0A2CE83E194E19093C2
:10446000BE028093BD02F2E1EF2EF12C0FEB13E1BF
:10447000C2C0083353E9150709F4AEC580F5073209
:1044800093E9190709F48AC5C8F4023043E914070F
:1044900009F49FC538F40039104909F080CE83E152
:1044A00094E14EC5003293E9190709F44DCF053266
:1044B000134909F074CE80E091E1A2CF093243E9BB
:1044C000140709F48CC5B8F3013383E9180721F008
:1044D0000533134909F063CE80E090E191CF0938AC
:1044E00024E91207C8F5073844E9140708F0ADC5F8
:1044F000013854E9150709F48DC590F400541349A7
:104500000230110508F04BCE83E194E09093BE0297
:104510008093BD0235E6E32EF12C04E113E16BC07C
:104520000638144909F03BCE83E094E09093BE0234
:104530008093BD0280EE91E09093A7028093A60243
:1045400080E491E09093A5028093A4029BE3E92E7E
:10455000F12C04E912E14FC0053025EB1207D1F030
:1045600080F483E194E101311C4A09F018CE909364
:10457000BE028093BD0243E0E42EF12C09E713E173
:104580003AC0093085EB180709F462C50530154CAF
:1045900009F005CE88E090E19093BE028093BD02C1
:1045A00060EB70E08CEE94E10AC082E090E19093C1
:1045B000BE028093BD026CE970E08CE698E10E9437
:1045C000C30F10E000E017C083E090E09093BE02BC
:1045D0008093BD0280EE91E09093A7028093A602A3
:1045E00080E491E09093A5028093A40293E0E92EE9
:1045F000F12C09E214E12091BE02822F82958F7086
:1046000090E0817099279093C2028093C1020115B6
:10461000110581F069E070E080E692E10E946F0E82
:10462000B701C8010E946F0E66E070E08AE592E172
:104630000E946F0E60E080EA92E00E94D51160E077
:1046400080EA92E00E94E50F8091BF029091C00243
:104650008838944909F016C11092860120EE3FEF88
:1046600050E040E070E060E080EA92E00E949A1141
:10467000F090CB02E090CC028091BD0280FF03C09D
:104680000EE2F02EE12C8091BF029091C0028230A8
:10469000964119F41EE2F12EE12C10E000E030E02A
:1046A00020E050E040E070E060E080EA92E00E94AC
:1046B00028108091BD0280FD10C070E060E0809104
:1046C000C7029091C8020E94BC0E70E060E0809129
:1046D000C9029091CA020E94BC0E4398429885B1CB
:1046E0008C7F9E2D9370892B85B99BB193705E2D25
:1046F0005C7FE52EE92AEBB84198419A85B18C7F21
:104700009F2D9370892B85B99BB193708F2D8C7FD2
:10471000F82EF92AFBB84198419A429A84B18C7FCD
:1047200084B98AB183708AB92091BD023091BE02EA
:104730008091BF029091C00226FD0EC0409A409821
:104740004098409843B149B1409A20FD05C089384E
:1047500042E1940709F08FC48131954139F4409AC0
:1047600040984098409883B189B1409AB9016470EB
:104770007727409A40984098409824FF99C493B175
:1047800089B193708C7F982B409A409A40984098BA
:10479000409843B189B143708C7F482B409A409A2E
:1047A00040984098409883B1E9B083705E2D5C7F5B
:1047B000852B409A50E0672B09F465C4E82EF12C54
:1047C000FE2CEE24EE2488EFF822B3E0440F551FB0
:1047D000BA95E1F7407E5770E42AF52A96959695AA
:1047E0009695E92A80918601882399F0C70105E012
:1047F000969587950A95E1F780729927A7015695B6
:1048000047954F715527842B952B50ECE522E82ACC
:10481000F92A409A439A84B1836084B98AB18C6F33
:104820008AB920FD14C00091AA021091AB02015078
:1048300011092091A8023091A9022150310950E0BC
:1048400040E070E060E080EA92E00E9428108FE192
:10485000E8168FEFF806B1F486E08983AE014F5F6A
:104860005F4F61E08AE390E00E943E0E8091BD02BE
:104870009091BE028F7E9093BE028093BD0281E034
:104880008093860161E080EA92E00E94D51170E099
:1048900060E080EA92E00E94001C90E080E00E94CC
:1048A000B80C22E0B22EB092B402B092B50290E001
:1048B00080E00E94101D90E080E00E94101DC12C3D
:1048C00038EFD32EEE24E394F12C07E711E022E336
:1048D00030E04FE851E062E370E08DE591E00E9446
:1048E0001919D12CC12C54E0E52EF12C2FE230E027
:1048F0004CE851E06FE270E080E691E00E94191907
:10490000C12C68EFD62E7AE0E72EF12C2CE230E0B5
:1049100046E851E06CE270E086E691E00E941919E9
:10492000CC24CA94DC2CFFE0EF2EF12C2AE230E0FC
:1049300043E851E06AE270E08AE691E00E941919CA
:10494000A0EECA2EA7E0DA2EBEE2EB2EF12C0DE08F
:1049500011E024E030E04DE051E069E170E089EFE2
:1049600090E00E94191908E111E029E130E04CE2E1
:1049700051E064E070E088E191E00E9419190DE0D7
:1049800011E024E030E04DE051E069E170E089EFB2
:1049900090E00E94191908E111E029E130E04CE2B1
:1049A00051E064E070E088E191E00E941919E12C87
:1049B00018EFF12E01E010E02DE431E041E050E08D
:1049C0006DE371E080EA92E00E94B11702E310E02B
:1049D0002DE431E042E350E06DE371E080EA92E0E3
:1049E0000E94B11703E210E020E331E040E150E023
:1049F00060E371E080EA92E00E94B1172AE531E0BD
:104A000040E150E06AE571E080EA92E00E94B1176F
:104A100001E010E02DE331E040E150E060E371E0BF
:104A200080EA92E00E94B11700E110E02AE531E04F
:104A300041E050E06DE471E080EA92E00E94B1173D
:104A400002E310E02DE431E043E250E06AE571E07A
:104A500080EA92E00E94B11703E210E020E331E027
:104A600042E350E06DE371E080EA92E00E94B1170A
:104A70008FE099E10E94B80C8BE391E09093AD0236
:104A80008093AC0285E290E09093AF028093AE02F7
:104A900080E098EF9093B3028093B2029093B102BA
:104AA0008093B002B092B402B092B5026EE671E0AB
:104AB00080EA92E00E94941C83E490E0909390013D
:104AC00080938F0162E670E0CE0101960E94971DEF
:104AD000CE0101960E94241ECE0101960E948A1CDE
:104AE00060E771E0CE0101960E94DA1D6D817E8142
:104AF0006F5F7F4F21F0CE0101960E941D1CF12CAB
:104B0000E12C02E310E02FE530E041E050E060E608
:104B100070E080EA92E00E94D8100BE911E020EEEC
:104B20003FEF48E059E163E370E08EE690E00E94D9
:104B3000E91CCE0101960E948A1CE12CA8EFFA2EF6
:104B400001E310E021E330E046E350E06EE571E080
:104B500080EA92E00E94D810F12CE12C0AE410E0E7
:104B60002BE731E04AE450E067E671E080EA92E04A
:104B70000E94B11706E410E027E631E04AE450E075
:104B800067E671E080EA92E00E94B11701E410E06C
:104B900023E631E046E450E067E671E080EA92E027
:104BA0000E94B1170CE310E025E631E041E450E04B
:104BB00063E671E080EA92E00E94B11706E410E03B
:104BC00027E631E04CE350E065E671E080EA92E0F0
:104BD0000E94B11701E410E02AE631E046E450E01B
:104BE00067E671E080EA92E00E94B11725E731E0C4
:104BF00041E450E06AE671E080EA92E00E94B11779
:104C000004E410E027E731E041E450E065E771E0BB
:104C100080EA92E00E94B11702E410E026E831E059
:104C200044E450E067E771E080EA92E00E94B11747
:104C30000AE410E02BE731E042E450E066E871E07E
:104C400080EA92E00E94B11706E410E026E831E025
:104C500044E450E067E871E080EA92E00E94B11716
:104C600028E831E044E450E067E871E080EA92E04F
:104C70000E94B1170DE310E020E731E040E450E07E
:104C800060E771E080EA92E00E94B11722E731E02C
:104C90004DE350E06EE671E080EA92E00E94B117C9
:104CA0008FE099E10E94B80C88E691E09093AD0204
:104CB0008093AC0281E690E09093AF028093AE02C5
:104CC000AA24AA94BA2CB092B302A092B202B092D3
:104CD000B102A092B002DD24D394D092B402D0925B
:104CE000B50265E771E080EA92E00E94941CE12C35
:104CF00018EFF12E01E310E021E330E046E350E04D
:104D00006BE271E080EA92E00E94D8108FE099E1B6
:104D10000E94B80C81E391E09093AD028093AC02C5
:104D20008CE4682E712C7092AF026092AE02B09249
:104D3000B302A092B202B092B102A092B002D0929D
:104D4000B402D092B50269E771E080EA92E00E9475
:104D5000941C8FE291E09093AD028093AC029DE5AC
:104D6000892E912C9092AF028092AE026DE771E095
:104D700080EA92E00E94941C20E330E046E350E099
:104D800069EF70E080EA92E00E94D8108FE099E12C
:104D90000E94B80C0FEF10E01093AD020093AC022C
:104DA0007092AF026092AE02B092B302A092B202D1
:104DB000B092B102A092B002D092B402D092B502E9
:104DC00069E771E080EA92E00E94941C1093AD02C2
:104DD0000093AC029092AF028092AE021092B302A6
:104DE0001092B2021092B1021092B00261E871E02A
:104DF00080EA92E00E94941C8BEE91E00E948F0D5D
:104E0000181619060CF018C78BEE91E00E946D0D74
:104E1000F82E89831A8200919E0210919F020F5FE3
:104E20001F4FB8018AE992E00E94441D882399F03F
:104E300020919A0230919B0280919E0290919F0254
:104E4000BE016F5F7F4F820F931F0E94003510934A
:104E50009F0200939E029AE0F912CECF80919E02AB
:104E600090919F02892B09F499C4E0919A02F091E4
:104E70009B02309709F492C4E081EB52EF3008F0C6
:104E80008DC40E2E000CFF0BE85BF84D0C9407311F
:104E90000C2ECE2B162ECE2BCE2B8728CE2BCE2B08
:104EA000CE2BCE2BDD2BE42B0F2CB82CD82C83E172
:104EB00094E09093BE028093BD020CE0E02EF12CB2
:104EC00007E114E198CB83E19EE09093BE028093CA
:104ED000BD0280EE91E09093A7028093A60280E449
:104EE00091E09093A5028093A40212E0E12EF12CB0
:104EF00005E114E180CB83E094E09093BE028093BF
:104F0000BD0280EE91E09093A7028093A60280E418
:104F100091E09093A5028093A402B3E0EB2EF12CD4
:104F200002E114E168CB82E091E19093BE028093AC
:104F3000BD0260E970E080E497E141CB83E094E159
:104F40009093BE028093BD0280EE91E09093A70201
:104F50008093A60280E491E09093A5028093A4023E
:104F6000E2E0EE2EF12C0DEB13E145CB83E194E171
:104F70009093BE028093BD0280EE91E09093A702D1
:104F80008093A60280E491E09093A5028093A4020E
:104F90007DE1E72EF12C00EA13E12DCB83E094E0D4
:104FA0009093BE028093BD0280E991E09093A702A6
:104FB0008093A60280EF90E09093A5028093A402D4
:104FC0006EE1E62EF12C02E813E115CB87E194E1C6
:104FD000CECA83E094E0CBCA83E194E0C8CA83E000
:104FE00096E1C5CA83E194E09093BE028093BD022E
:104FF00080EE91E09093A7028093A60280E491E076
:105000009093A5028093A40225E4E22EF12C0FECEC
:1050100012E1F1CA87E094E0E7CF83E094E0909357
:10502000BE028093BD0280EE91E09093A702809330
:10503000A60280E491E09093A5028093A4028BE203
:10504000E82EF12C09E612E1D6CA83E194E0E7CF1D
:1050500080E090E19093BE028093BD0260EC70E02E
:105060008CE294E10E94C30F80E991E09093A70243
:105070008093A602A6CA409A40984098409843B1AF
:1050800049B1409A69CBE92EF12CFE2CEE24EE2496
:1050900098EFF922F3E0440F551FFA95E1F7407EAF
:1050A0005770E42AF52A869586958695E82A9ACB44
:1050B000E3B099B1409A409A40984098409883B1A3
:1050C00049B183704C7F842B409A4E2D4370E42E5F
:1050D0009C7FE92AFE2CE82E23FF03C0F826EF244C
:1050E000FE24672B09F47ECBC701807E9770A70151
:1050F000452F5527469546954695842B952BFE2C96
:10510000EE24FF0CFF0CFF0CE82AF92A6BCBCE0132
:1051100001960E94EB1DCE0101960E943B1CCE0120
:1051200001960E948A1C80919402909195020097AA
:1051300009F40EC20E94ED2E7093900160938F01CE
:1051400088E1E3E1F1E0DE01119601900D928A958C
:10515000E1F778E1E72E76ECF72E08EA10E02FE38E
:1051600031E050E040E070E060E080EA92E00E94D0
:10517000D810EE24EA94FE2C02EA10E025E331E098
:1051800043E050E065E070E080EA92E00E94D810D1
:105190001092B3021092B2021092B1021092B002B9
:1051A000FEEC2F2E33243A94B1016A557109072E73
:1051B000000C880B990B0E94602F25E33AEF4EE814
:1051C0005CE30E949B2F6B017C010E949D316DA3CB
:1051D0007EA38FA398A7C701B6010E9489324B0115
:1051E0005C0120E030E049E153E46DA17EA18FA194
:1051F00098A50E949B2F20E030E040E253E40E94FB
:1052000031310E941B3269A77AA78BA79CA749A5B9
:105210005AA55AAF49AF20E030E049E153E4C50157
:10522000B4010E949B2F20E030E04BE353E40E9446
:1052300031310E941B326DA77EA78FA798AB8DA539
:105240009EA59CAF8BAFB10165557109072E000C6F
:10525000880B990B0E94602F25E33AEF4EE85CE340
:105260000E949B2F6B017C010E949D312B013C0110
:10527000C701B6010E9489326B017C0120E030E059
:1052800049E153E4C301B2010E949B2F20E030E0CA
:1052900040E253E40E9431310E9414326D8F7E8FC0
:1052A0008F8F98A320E030E049E153E4C701B601B5
:1052B0000E949B2F20E030E04BE353E40E94313109
:1052C0000E94143269A37AA38BA39CA320E030E050
:1052D00045E053E4C301B2010E949B2F20E030E07F
:1052E00040E253E40E9431310E94143269AB7AAB40
:1052F0008BAB9CAB20E030E045E053E4C701B60146
:105300000E949B2F20E030E04BE353E40E943131B8
:105310000E9414326DAB7EAB8FAB98AF20E030E0D3
:1053200045E053E4C501B4010E949B2F20E030E02A
:105330004BE353E40E9431310E941B32698F7A8F14
:105340008B8F9C8F20E030E045E053E46DA17EA17F
:105350008FA198A50E949B2F20E030E040E253E40B
:105360000E9431310E941B322B0192E32916310435
:1053700069F0F12CE12C098D1A8D92014DA95EA9DD
:1053800069A97AA980EA92E00E94B11760EEC62E60
:10539000DD24DA942EEC22162FEF320640F449E198
:1053A00024163104F0F450EEC52E57E0D52EE9A0B6
:1053B000FAA00D8D1E8D298D3A8DA2016DA57EA5B9
:1053C00089A59AA50E941919EDA8FEA809A91AA9EC
:1053D00029A13AA14D8D5E8D698D7A8DC2010E9401
:1053E0001919C10149974997F0F440E2C42E4DEFD5
:1053F000D42EE9A0FAA00D8D1E8D298D3A8DA20123
:105400006DA57EA589A59AA50E941919EDA8FEA8EB
:1054100009A91AA929A13AA14D8D5E8D698D7A8DB0
:10542000C2010E941919C10169E170E00E94F330C4
:105430009E8F8D8F24E1C22ED12C892B49F120E043
:1054400030E040E153E46DA17EA18FA198A50E94B8
:105450009B2F20E030E040E253E40E9431310E9473
:105460001B327AAF69AF20E030E040E153E4C50180
:10547000B4010E949B2F20E030E04BE353E40E94F4
:1054800031310E941B327CAF6BAF3BE0C32ED12C7D
:10549000F12CE12C098D1A8D92014BAD5CAD69ADFB
:1054A0007AAD80EA92E00E94B1178D8D9E8D892B96
:1054B00009F083C0B60161577F4F072E000C880B9F
:1054C000990B0E94602F2B013C01AC019B01C5018F
:1054D000B4010E949B2F20E030E04BE353E40E9494
:1054E00031310E941B324B01C10169E170E00E9421
:1054F000F3307B0192E0E90EF11CA30192016DA152
:105500007EA18FA198A50E949B2F20E030E040E271
:1055100053E40E94313120E030E040E951E40E9440
:1055200030310E941B3222E0E216F104A9F043E080
:10553000E416F10429F051E0E516F10409F035C153
:105540007093AD026093AC029CE0891A91080BC085
:1055500060E070E0CB01F0CD7093AD026093AC02DF
:1055600088E0881A91089092AF028092AE0290E093
:1055700080E00E94B80C1092B3021092B202109216
:10558000B1021092B00242E04093B4024093B502DF
:10559000B701660F771F660F771F81E090E08C0FD1
:1055A0009D1F680F791F80EA92E00E94941C69E6B3
:1055B00071E080EA92E00E94941C95E0290E311C73
:1055C00027E32216310409F0EFCD20908F013090AF
:1055D0009001B101032C000C880B990B6C587109D8
:1055E000810991090E94602F4B015C0125E33AEF8C
:1055F0004EE85CE30E949B2F2B013C010E949D31F1
:105600006B017C01C301B2010E9489322B013C0174
:1056100020E030E044EB52E4C501B4010E94313196
:1056200025E33AEF4EE85CE30E949B2F0E94913203
:105630004B015C018092870190928801A0928901C0
:10564000B0928A0120E030E042E053E4C701B601A5
:105650000E949B2F20E030E040E253E40E94313171
:105660000E941B326B01709303016093020120E0E2
:1056700030E042E053E4C301B2010E949B2F20E0DE
:1056800030E04BE353E40E9431310E941B322B0186
:10569000709301016093000141E0C41AD10820E039
:1056A00030E048ED51E4C501B4010E949B2F20E099
:1056B00030E040E253E40E94313120E030E040E845
:1056C0005FE30E9430310E941432E12CA8EFFA2EE1
:1056D0008201960140EA50E080EA92E00E94B11710
:1056E0000091000110910101C0900201D0900301CE
:1056F00020E030E048ED51E460918701709188012D
:105700008091890190918A010E949B2F20E030E0D6
:1057100040E253E40E9431310E941432BFE1EB2E8B
:10572000B8EFFB2E960140EA50E080EA92E00E943A
:10573000B1170091000110910101C0900201D090B9
:1057400003015FEFC51AD50A20E030E048ED51E4CF
:1057500060918701709188018091890190918A01FF
:105760000E949B2F20E030E040E253E40E94313160
:1057700020E030E040E85FE30E9431310E941432C3
:10578000E12C88EFF82E960140EA50E080EA92E0A2
:105790000E94B11730920501209204016BE671E07E
:1057A0008AE992E00E948D1D27CB7093AD02609331
:1057B000AC0220E1821A9108D6CE70E060E080EA67
:1057C00092E00E94001CEACFE12C78EFF72E02E372
:1057D00010E022E330E041E050E06DE571E080EA66
:1057E00092E00E94D810EFE1EE2EF12C22E330E09F
:1057F00041E050E06BE271E080EA92E00E94D81054
:10580000F0EEEF2EF7E0FF2E22E330E041E050E033
:1058100069EF70E080EA92E00E94D810BFCFCE011D
:1058200001960E94EB1DCE0101960E943B1CCE0109
:1058300001960E948A1C8091940290919502009793
:1058400009F48AC00E94ED2E7A8F698F70E060E0C3
:1058500080EA92E00E94001C8090AA029090AB0225
:105860008091A8029091A902698D7A8D0E94F330EF
:105870003B01D12CC12CB12CA12CCB0101979E8FC7
:105880008D8FA3014C0D5D1D5AA349A3898D9A8D5F
:10589000A816B9060CF064C00E94952E1B012C01BD
:1058A000E12C58EFF52E840121E030E050E040E09B
:1058B000B60180EA92E00E94D81065E070E080E0D6
:1058C00090E00E94FD0CF12CE12C2D8D3E8D50E0DE
:1058D00040E0B60180EA92E00E94D810C201B10116
:1058E00026E930E040E050E00E945930A401461B18
:1058F000570B60EEE62E67E0F62E2D8D3E8DB6013D
:1059000080EA92E00E94D8104AE0BE016F5F7F4FAC
:10591000C5010E94142FF12CE12C0EE110E022E3CE
:1059200030E050E040E070E060E080EA92E00E9409
:10593000D8108E010F5F1F4F20EE3FEF4FE059E16F
:1059400064E170E081E090E00E94E91C9FEFA91AF9
:10595000B90AC9A0DAA095CF60E070E0CB0174CF9E
:105960008BEE91E00E948F0D892B09F475CF16CF35
:10597000CE0101960E94EB1DCE0101960E943B1CB8
:10598000CE0101960E948A1C80919402909195020A
:10599000009751F00E94ED2E7093900160938F015B
:1059A000CB010E94AD1BFACE60E070E0CB01F4CFDA
:1059B0001092900110928F0180918F01909190012F
:1059C0006EE071E0681B790B072E000C880B990BB9
:1059D0000E94602F2BED3FE049E450E40E949B2F92
:1059E00020E030E044E353E40E94A2312B013C016B
:1059F000C090AA02D090AB02D7FE03C02FEFC21A0C
:105A0000D20AD594C79441E0C41AD1082090A802C4
:105A10003090A90237FE03C05FEF251A350A35948E
:105A20002794410181E0881A9108C301B2010E94C4
:105A3000893220E030E040EA52E40E949B2F0E942D
:105A400014326D8F7E8F8F8F98A3C301B2010E9495
:105A50009D3120E030E040EA52E40E949B2F0E94FA
:105A6000143269A37AA38BA39CA3A10142505109CC
:105A70005A8F498F00918D0110918E010C0D1D1DC3
:105A800020918B0130918C01280D391D2150310955
:105A9000F12CE12CA601698D7A8D80EA92E00E94BA
:105AA000FD1A69A07AA06C0C7D1CAD8CBE8CA80C74
:105AB000B91C95012F5F3F4FE12C98EFF92E830120
:105AC000A601B10180EA92E00E94FD1A00918D01C9
:105AD00010918E010C0D1D1D20918B0130918C01B8
